{
  "abi": [
    {
      "inputs": [
        {
          "internalType": "bool",
          "name": "nonUpgradable",
          "type": "bool"
        },
        {
          "internalType": "bool",
          "name": "appWhiteListingEnabled",
          "type": "bool"
        }
      ],
      "stateMutability": "nonpayable",
      "type": "constructor"
    },
    {
      "inputs": [
        {
          "internalType": "uint256",
          "name": "_code",
          "type": "uint256"
        }
      ],
      "name": "APP_RULE",
      "type": "error"
    },
    {
      "inputs": [],
      "name": "HOST_AGREEMENT_ALREADY_REGISTERED",
      "type": "error"
    },
    {
      "inputs": [],
      "name": "HOST_AGREEMENT_CALLBACK_IS_NOT_ACTION",
      "type": "error"
    },
    {
      "inputs": [],
      "name": "HOST_AGREEMENT_IS_NOT_REGISTERED",
      "type": "error"
    },
    {
      "inputs": [],
      "name": "HOST_CALL_AGREEMENT_WITH_CTX_FROM_WRONG_ADDRESS",
      "type": "error"
    },
    {
      "inputs": [],
      "name": "HOST_CALL_APP_ACTION_WITH_CTX_FROM_WRONG_ADDRESS",
      "type": "error"
    },
    {
      "inputs": [],
      "name": "HOST_CANNOT_DOWNGRADE_TO_NON_UPGRADEABLE",
      "type": "error"
    },
    {
      "inputs": [],
      "name": "HOST_INVALID_CONFIG_WORD",
      "type": "error"
    },
    {
      "inputs": [],
      "name": "HOST_INVALID_OR_EXPIRED_SUPER_APP_REGISTRATION_KEY",
      "type": "error"
    },
    {
      "inputs": [],
      "name": "HOST_MAX_256_AGREEMENTS",
      "type": "error"
    },
    {
      "inputs": [],
      "name": "HOST_MUST_BE_CONTRACT",
      "type": "error"
    },
    {
      "inputs": [],
      "name": "HOST_NON_UPGRADEABLE",
      "type": "error"
    },
    {
      "inputs": [],
      "name": "HOST_NON_ZERO_LENGTH_PLACEHOLDER_CTX",
      "type": "error"
    },
    {
      "inputs": [],
      "name": "HOST_NOT_A_SUPER_APP",
      "type": "error"
    },
    {
      "inputs": [],
      "name": "HOST_NO_APP_REGISTRATION_PERMISSIONS",
      "type": "error"
    },
    {
      "inputs": [],
      "name": "HOST_ONLY_GOVERNANCE",
      "type": "error"
    },
    {
      "inputs": [],
      "name": "HOST_ONLY_LISTED_AGREEMENT",
      "type": "error"
    },
    {
      "inputs": [],
      "name": "HOST_RECEIVER_IS_NOT_SUPER_APP",
      "type": "error"
    },
    {
      "inputs": [],
      "name": "HOST_SENDER_IS_NOT_SUPER_APP",
      "type": "error"
    },
    {
      "inputs": [],
      "name": "HOST_SOURCE_APP_NEEDS_HIGHER_APP_LEVEL",
      "type": "error"
    },
    {
      "inputs": [],
      "name": "HOST_SUPER_APP_ALREADY_REGISTERED",
      "type": "error"
    },
    {
      "inputs": [],
      "name": "HOST_SUPER_APP_IS_JAILED",
      "type": "error"
    },
    {
      "inputs": [],
      "name": "HOST_UNAUTHORIZED_SUPER_APP_FACTORY",
      "type": "error"
    },
    {
      "inputs": [],
      "name": "HOST_UNKNOWN_BATCH_CALL_OPERATION_TYPE",
      "type": "error"
    },
    {
      "anonymous": false,
      "inputs": [
        {
          "indexed": false,
          "internalType": "bytes32",
          "name": "agreementType",
          "type": "bytes32"
        },
        {
          "indexed": false,
          "internalType": "address",
          "name": "code",
          "type": "address"
        }
      ],
      "name": "AgreementClassRegistered",
      "type": "event"
    },
    {
      "anonymous": false,
      "inputs": [
        {
          "indexed": false,
          "internalType": "bytes32",
          "name": "agreementType",
          "type": "bytes32"
        },
        {
          "indexed": false,
          "internalType": "address",
          "name": "code",
          "type": "address"
        }
      ],
      "name": "AgreementClassUpdated",
      "type": "event"
    },
    {
      "anonymous": false,
      "inputs": [
        {
          "indexed": true,
          "internalType": "contract ISuperApp",
          "name": "app",
          "type": "address"
        }
      ],
      "name": "AppRegistered",
      "type": "event"
    },
    {
      "anonymous": false,
      "inputs": [
        {
          "indexed": false,
          "internalType": "bytes32",
          "name": "uuid",
          "type": "bytes32"
        },
        {
          "indexed": false,
          "internalType": "address",
          "name": "codeAddress",
          "type": "address"
        }
      ],
      "name": "CodeUpdated",
      "type": "event"
    },
    {
      "anonymous": false,
      "inputs": [
        {
          "indexed": false,
          "internalType": "contract ISuperfluidGovernance",
          "name": "oldGov",
          "type": "address"
        },
        {
          "indexed": false,
          "internalType": "contract ISuperfluidGovernance",
          "name": "newGov",
          "type": "address"
        }
      ],
      "name": "GovernanceReplaced",
      "type": "event"
    },
    {
      "anonymous": false,
      "inputs": [
        {
          "indexed": false,
          "internalType": "uint8",
          "name": "version",
          "type": "uint8"
        }
      ],
      "name": "Initialized",
      "type": "event"
    },
    {
      "anonymous": false,
      "inputs": [
        {
          "indexed": true,
          "internalType": "contract ISuperApp",
          "name": "app",
          "type": "address"
        },
        {
          "indexed": false,
          "internalType": "uint256",
          "name": "reason",
          "type": "uint256"
        }
      ],
      "name": "Jail",
      "type": "event"
    },
    {
      "anonymous": false,
      "inputs": [
        {
          "indexed": false,
          "internalType": "contract ISuperTokenFactory",
          "name": "newFactory",
          "type": "address"
        }
      ],
      "name": "SuperTokenFactoryUpdated",
      "type": "event"
    },
    {
      "anonymous": false,
      "inputs": [
        {
          "indexed": true,
          "internalType": "contract ISuperToken",
          "name": "token",
          "type": "address"
        },
        {
          "indexed": false,
          "internalType": "address",
          "name": "code",
          "type": "address"
        }
      ],
      "name": "SuperTokenLogicUpdated",
      "type": "event"
    },
    {
      "inputs": [],
      "name": "APP_WHITE_LISTING_ENABLED",
      "outputs": [
        {
          "internalType": "bool",
          "name": "",
          "type": "bool"
        }
      ],
      "stateMutability": "view",
      "type": "function"
    },
    {
      "inputs": [],
      "name": "CALLBACK_GAS_LIMIT",
      "outputs": [
        {
          "internalType": "uint64",
          "name": "",
          "type": "uint64"
        }
      ],
      "stateMutability": "view",
      "type": "function"
    },
    {
      "inputs": [],
      "name": "NON_UPGRADABLE_DEPLOYMENT",
      "outputs": [
        {
          "internalType": "bool",
          "name": "",
          "type": "bool"
        }
      ],
      "stateMutability": "view",
      "type": "function"
    },
    {
      "inputs": [
        {
          "internalType": "uint256",
          "name": "bitmap",
          "type": "uint256"
        },
        {
          "internalType": "bytes32",
          "name": "agreementType",
          "type": "bytes32"
        }
      ],
      "name": "addToAgreementClassesBitmap",
      "outputs": [
        {
          "internalType": "uint256",
          "name": "newBitmap",
          "type": "uint256"
        }
      ],
      "stateMutability": "view",
      "type": "function"
    },
    {
      "inputs": [
        {
          "internalType": "contract ISuperApp",
          "name": "targetApp",
          "type": "address"
        }
      ],
      "name": "allowCompositeApp",
      "outputs": [],
      "stateMutability": "nonpayable",
      "type": "function"
    },
    {
      "inputs": [
        {
          "internalType": "bytes",
          "name": "ctx",
          "type": "bytes"
        },
        {
          "internalType": "int256",
          "name": "appCreditUsedDelta",
          "type": "int256"
        }
      ],
      "name": "appCallbackPop",
      "outputs": [
        {
          "internalType": "bytes",
          "name": "newCtx",
          "type": "bytes"
        }
      ],
      "stateMutability": "nonpayable",
      "type": "function"
    },
    {
      "inputs": [
        {
          "internalType": "bytes",
          "name": "ctx",
          "type": "bytes"
        },
        {
          "internalType": "contract ISuperApp",
          "name": "app",
          "type": "address"
        },
        {
          "internalType": "uint256",
          "name": "appCreditGranted",
          "type": "uint256"
        },
        {
          "internalType": "int256",
          "name": "appCreditUsed",
          "type": "int256"
        },
        {
          "internalType": "contract ISuperfluidToken",
          "name": "appCreditToken",
          "type": "address"
        }
      ],
      "name": "appCallbackPush",
      "outputs": [
        {
          "internalType": "bytes",
          "name": "appCtx",
          "type": "bytes"
        }
      ],
      "stateMutability": "nonpayable",
      "type": "function"
    },
    {
      "inputs": [
        {
          "components": [
            {
              "internalType": "uint32",
              "name": "operationType",
              "type": "uint32"
            },
            {
              "internalType": "address",
              "name": "target",
              "type": "address"
            },
            {
              "internalType": "bytes",
              "name": "data",
              "type": "bytes"
            }
          ],
          "internalType": "struct ISuperfluid.Operation[]",
          "name": "operations",
          "type": "tuple[]"
        }
      ],
      "name": "batchCall",
      "outputs": [],
      "stateMutability": "nonpayable",
      "type": "function"
    },
    {
      "inputs": [
        {
          "internalType": "contract ISuperAgreement",
          "name": "agreementClass",
          "type": "address"
        },
        {
          "internalType": "bytes",
          "name": "callData",
          "type": "bytes"
        },
        {
          "internalType": "bytes",
          "name": "userData",
          "type": "bytes"
        }
      ],
      "name": "callAgreement",
      "outputs": [
        {
          "internalType": "bytes",
          "name": "returnedData",
          "type": "bytes"
        }
      ],
      "stateMutability": "nonpayable",
      "type": "function"
    },
    {
      "inputs": [
        {
          "internalType": "contract ISuperAgreement",
          "name": "agreementClass",
          "type": "address"
        },
        {
          "internalType": "bytes",
          "name": "callData",
          "type": "bytes"
        },
        {
          "internalType": "bytes",
          "name": "userData",
          "type": "bytes"
        },
        {
          "internalType": "bytes",
          "name": "ctx",
          "type": "bytes"
        }
      ],
      "name": "callAgreementWithContext",
      "outputs": [
        {
          "internalType": "bytes",
          "name": "newCtx",
          "type": "bytes"
        },
        {
          "internalType": "bytes",
          "name": "returnedData",
          "type": "bytes"
        }
      ],
      "stateMutability": "nonpayable",
      "type": "function"
    },
    {
      "inputs": [
        {
          "internalType": "contract ISuperApp",
          "name": "app",
          "type": "address"
        },
        {
          "internalType": "bytes",
          "name": "callData",
          "type": "bytes"
        }
      ],
      "name": "callAppAction",
      "outputs": [
        {
          "internalType": "bytes",
          "name": "returnedData",
          "type": "bytes"
        }
      ],
      "stateMutability": "nonpayable",
      "type": "function"
    },
    {
      "inputs": [
        {
          "internalType": "contract ISuperApp",
          "name": "app",
          "type": "address"
        },
        {
          "internalType": "bytes",
          "name": "callData",
          "type": "bytes"
        },
        {
          "internalType": "bytes",
          "name": "ctx",
          "type": "bytes"
        }
      ],
      "name": "callAppActionWithContext",
      "outputs": [
        {
          "internalType": "bytes",
          "name": "newCtx",
          "type": "bytes"
        }
      ],
      "stateMutability": "nonpayable",
      "type": "function"
    },
    {
      "inputs": [
        {
          "internalType": "contract ISuperApp",
          "name": "app",
          "type": "address"
        },
        {
          "internalType": "bytes",
          "name": "callData",
          "type": "bytes"
        },
        {
          "internalType": "bool",
          "name": "isTermination",
          "type": "bool"
        },
        {
          "internalType": "bytes",
          "name": "ctx",
          "type": "bytes"
        }
      ],
      "name": "callAppAfterCallback",
      "outputs": [
        {
          "internalType": "bytes",
          "name": "newCtx",
          "type": "bytes"
        }
      ],
      "stateMutability": "nonpayable",
      "type": "function"
    },
    {
      "inputs": [
        {
          "internalType": "contract ISuperApp",
          "name": "app",
          "type": "address"
        },
        {
          "internalType": "bytes",
          "name": "callData",
          "type": "bytes"
        },
        {
          "internalType": "bool",
          "name": "isTermination",
          "type": "bool"
        },
        {
          "internalType": "bytes",
          "name": "ctx",
          "type": "bytes"
        }
      ],
      "name": "callAppBeforeCallback",
      "outputs": [
        {
          "internalType": "bytes",
          "name": "cbdata",
          "type": "bytes"
        }
      ],
      "stateMutability": "nonpayable",
      "type": "function"
    },
    {
      "inputs": [],
      "name": "castrate",
      "outputs": [],
      "stateMutability": "nonpayable",
      "type": "function"
    },
    {
      "inputs": [
        {
          "internalType": "bytes",
          "name": "ctx",
          "type": "bytes"
        },
        {
          "internalType": "int256",
          "name": "appCreditUsedMore",
          "type": "int256"
        }
      ],
      "name": "ctxUseCredit",
      "outputs": [
        {
          "internalType": "bytes",
          "name": "newCtx",
          "type": "bytes"
        }
      ],
      "stateMutability": "nonpayable",
      "type": "function"
    },
    {
      "inputs": [
        {
          "internalType": "bytes",
          "name": "ctx",
          "type": "bytes"
        }
      ],
      "name": "decodeCtx",
      "outputs": [
        {
          "components": [
            {
              "internalType": "uint8",
              "name": "appCallbackLevel",
              "type": "uint8"
            },
            {
              "internalType": "uint8",
              "name": "callType",
              "type": "uint8"
            },
            {
              "internalType": "uint256",
              "name": "timestamp",
              "type": "uint256"
            },
            {
              "internalType": "address",
              "name": "msgSender",
              "type": "address"
            },
            {
              "internalType": "bytes4",
              "name": "agreementSelector",
              "type": "bytes4"
            },
            {
              "internalType": "bytes",
              "name": "userData",
              "type": "bytes"
            },
            {
              "internalType": "uint256",
              "name": "appCreditGranted",
              "type": "uint256"
            },
            {
              "internalType": "uint256",
              "name": "appCreditWantedDeprecated",
              "type": "uint256"
            },
            {
              "internalType": "int256",
              "name": "appCreditUsed",
              "type": "int256"
            },
            {
              "internalType": "address",
              "name": "appAddress",
              "type": "address"
            },
            {
              "internalType": "contract ISuperfluidToken",
              "name": "appCreditToken",
              "type": "address"
            }
          ],
          "internalType": "struct ISuperfluid.Context",
          "name": "context",
          "type": "tuple"
        }
      ],
      "stateMutability": "pure",
      "type": "function"
    },
    {
      "inputs": [
        {
          "components": [
            {
              "internalType": "uint32",
              "name": "operationType",
              "type": "uint32"
            },
            {
              "internalType": "address",
              "name": "target",
              "type": "address"
            },
            {
              "internalType": "bytes",
              "name": "data",
              "type": "bytes"
            }
          ],
          "internalType": "struct ISuperfluid.Operation[]",
          "name": "operations",
          "type": "tuple[]"
        }
      ],
      "name": "forwardBatchCall",
      "outputs": [],
      "stateMutability": "nonpayable",
      "type": "function"
    },
    {
      "inputs": [
        {
          "internalType": "bytes32",
          "name": "agreementType",
          "type": "bytes32"
        }
      ],
      "name": "getAgreementClass",
      "outputs": [
        {
          "internalType": "contract ISuperAgreement",
          "name": "agreementClass",
          "type": "address"
        }
      ],
      "stateMutability": "view",
      "type": "function"
    },
    {
      "inputs": [
        {
          "internalType": "contract ISuperApp",
          "name": "appAddr",
          "type": "address"
        }
      ],
      "name": "getAppCallbackLevel",
      "outputs": [
        {
          "internalType": "uint8",
          "name": "",
          "type": "uint8"
        }
      ],
      "stateMutability": "view",
      "type": "function"
    },
    {
      "inputs": [
        {
          "internalType": "contract ISuperApp",
          "name": "app",
          "type": "address"
        }
      ],
      "name": "getAppManifest",
      "outputs": [
        {
          "internalType": "bool",
          "name": "isSuperApp",
          "type": "bool"
        },
        {
          "internalType": "bool",
          "name": "isJailed",
          "type": "bool"
        },
        {
          "internalType": "uint256",
          "name": "noopMask",
          "type": "uint256"
        }
      ],
      "stateMutability": "view",
      "type": "function"
    },
    {
      "inputs": [],
      "name": "getCodeAddress",
      "outputs": [
        {
          "internalType": "address",
          "name": "codeAddress",
          "type": "address"
        }
      ],
      "stateMutability": "view",
      "type": "function"
    },
    {
      "inputs": [],
      "name": "getGovernance",
      "outputs": [
        {
          "internalType": "contract ISuperfluidGovernance",
          "name": "",
          "type": "address"
        }
      ],
      "stateMutability": "view",
      "type": "function"
    },
    {
      "inputs": [],
      "name": "getNow",
      "outputs": [
        {
          "internalType": "uint256",
          "name": "",
          "type": "uint256"
        }
      ],
      "stateMutability": "view",
      "type": "function"
    },
    {
      "inputs": [],
      "name": "getSuperTokenFactory",
      "outputs": [
        {
          "internalType": "contract ISuperTokenFactory",
          "name": "factory",
          "type": "address"
        }
      ],
      "stateMutability": "view",
      "type": "function"
    },
    {
      "inputs": [],
      "name": "getSuperTokenFactoryLogic",
      "outputs": [
        {
          "internalType": "address",
          "name": "logic",
          "type": "address"
        }
      ],
      "stateMutability": "view",
      "type": "function"
    },
    {
      "inputs": [
        {
          "internalType": "contract ISuperfluidGovernance",
          "name": "gov",
          "type": "address"
        }
      ],
      "name": "initialize",
      "outputs": [],
      "stateMutability": "nonpayable",
      "type": "function"
    },
    {
      "inputs": [
        {
          "internalType": "contract ISuperAgreement",
          "name": "agreementClass",
          "type": "address"
        }
      ],
      "name": "isAgreementClassListed",
      "outputs": [
        {
          "internalType": "bool",
          "name": "yes",
          "type": "bool"
        }
      ],
      "stateMutability": "view",
      "type": "function"
    },
    {
      "inputs": [
        {
          "internalType": "bytes32",
          "name": "agreementType",
          "type": "bytes32"
        }
      ],
      "name": "isAgreementTypeListed",
      "outputs": [
        {
          "internalType": "bool",
          "name": "yes",
          "type": "bool"
        }
      ],
      "stateMutability": "view",
      "type": "function"
    },
    {
      "inputs": [
        {
          "internalType": "contract ISuperApp",
          "name": "app",
          "type": "address"
        }
      ],
      "name": "isApp",
      "outputs": [
        {
          "internalType": "bool",
          "name": "",
          "type": "bool"
        }
      ],
      "stateMutability": "view",
      "type": "function"
    },
    {
      "inputs": [
        {
          "internalType": "contract ISuperApp",
          "name": "app",
          "type": "address"
        }
      ],
      "name": "isAppJailed",
      "outputs": [
        {
          "internalType": "bool",
          "name": "",
          "type": "bool"
        }
      ],
      "stateMutability": "view",
      "type": "function"
    },
    {
      "inputs": [
        {
          "internalType": "contract ISuperApp",
          "name": "app",
          "type": "address"
        },
        {
          "internalType": "contract ISuperApp",
          "name": "targetApp",
          "type": "address"
        }
      ],
      "name": "isCompositeAppAllowed",
      "outputs": [
        {
          "internalType": "bool",
          "name": "",
          "type": "bool"
        }
      ],
      "stateMutability": "view",
      "type": "function"
    },
    {
      "inputs": [
        {
          "internalType": "bytes",
          "name": "ctx",
          "type": "bytes"
        }
      ],
      "name": "isCtxValid",
      "outputs": [
        {
          "internalType": "bool",
          "name": "",
          "type": "bool"
        }
      ],
      "stateMutability": "view",
      "type": "function"
    },
    {
      "inputs": [
        {
          "internalType": "address",
          "name": "forwarder",
          "type": "address"
        }
      ],
      "name": "isTrustedForwarder",
      "outputs": [
        {
          "internalType": "bool",
          "name": "",
          "type": "bool"
        }
      ],
      "stateMutability": "view",
      "type": "function"
    },
    {
      "inputs": [
        {
          "internalType": "bytes",
          "name": "ctx",
          "type": "bytes"
        },
        {
          "internalType": "contract ISuperApp",
          "name": "app",
          "type": "address"
        },
        {
          "internalType": "uint256",
          "name": "reason",
          "type": "uint256"
        }
      ],
      "name": "jailApp",
      "outputs": [
        {
          "internalType": "bytes",
          "name": "newCtx",
          "type": "bytes"
        }
      ],
      "stateMutability": "nonpayable",
      "type": "function"
    },
    {
      "inputs": [
        {
          "internalType": "uint256",
          "name": "bitmap",
          "type": "uint256"
        }
      ],
      "name": "mapAgreementClasses",
      "outputs": [
        {
          "internalType": "contract ISuperAgreement[]",
          "name": "agreementClasses",
          "type": "address[]"
        }
      ],
      "stateMutability": "view",
      "type": "function"
    },
    {
      "inputs": [],
      "name": "proxiableUUID",
      "outputs": [
        {
          "internalType": "bytes32",
          "name": "",
          "type": "bytes32"
        }
      ],
      "stateMutability": "pure",
      "type": "function"
    },
    {
      "inputs": [
        {
          "internalType": "contract ISuperAgreement",
          "name": "agreementClassLogic",
          "type": "address"
        }
      ],
      "name": "registerAgreementClass",
      "outputs": [],
      "stateMutability": "nonpayable",
      "type": "function"
    },
    {
      "inputs": [
        {
          "internalType": "uint256",
          "name": "configWord",
          "type": "uint256"
        }
      ],
      "name": "registerApp",
      "outputs": [],
      "stateMutability": "nonpayable",
      "type": "function"
    },
    {
      "inputs": [
        {
          "internalType": "contract ISuperApp",
          "name": "app",
          "type": "address"
        },
        {
          "internalType": "uint256",
          "name": "configWord",
          "type": "uint256"
        }
      ],
      "name": "registerAppByFactory",
      "outputs": [],
      "stateMutability": "nonpayable",
      "type": "function"
    },
    {
      "inputs": [
        {
          "internalType": "uint256",
          "name": "configWord",
          "type": "uint256"
        },
        {
          "internalType": "string",
          "name": "registrationKey",
          "type": "string"
        }
      ],
      "name": "registerAppWithKey",
      "outputs": [],
      "stateMutability": "nonpayable",
      "type": "function"
    },
    {
      "inputs": [
        {
          "internalType": "uint256",
          "name": "bitmap",
          "type": "uint256"
        },
        {
          "internalType": "bytes32",
          "name": "agreementType",
          "type": "bytes32"
        }
      ],
      "name": "removeFromAgreementClassesBitmap",
      "outputs": [
        {
          "internalType": "uint256",
          "name": "newBitmap",
          "type": "uint256"
        }
      ],
      "stateMutability": "view",
      "type": "function"
    },
    {
      "inputs": [
        {
          "internalType": "contract ISuperfluidGovernance",
          "name": "newGov",
          "type": "address"
        }
      ],
      "name": "replaceGovernance",
      "outputs": [],
      "stateMutability": "nonpayable",
      "type": "function"
    },
    {
      "inputs": [
        {
          "internalType": "contract ISuperAgreement",
          "name": "agreementClassLogic",
          "type": "address"
        }
      ],
      "name": "updateAgreementClass",
      "outputs": [],
      "stateMutability": "nonpayable",
      "type": "function"
    },
    {
      "inputs": [
        {
          "internalType": "address",
          "name": "newAddress",
          "type": "address"
        }
      ],
      "name": "updateCode",
      "outputs": [],
      "stateMutability": "nonpayable",
      "type": "function"
    },
    {
      "inputs": [
        {
          "internalType": "contract ISuperTokenFactory",
          "name": "newFactory",
          "type": "address"
        }
      ],
      "name": "updateSuperTokenFactory",
      "outputs": [],
      "stateMutability": "nonpayable",
      "type": "function"
    },
    {
      "inputs": [
        {
          "internalType": "contract ISuperToken",
          "name": "token",
          "type": "address"
        }
      ],
      "name": "updateSuperTokenLogic",
      "outputs": [],
      "stateMutability": "nonpayable",
      "type": "function"
    },
    {
      "inputs": [],
      "name": "versionRecipient",
      "outputs": [
        {
          "internalType": "string",
          "name": "",
          "type": "string"
        }
      ],
      "stateMutability": "pure",
      "type": "function"
    }
  ],
  "bytecode": {
    "object": "0x60c06040523480156200001157600080fd5b5060405162004f1b38038062004f1b83398101604081905262000034916200005b565b901515608052151560a05262000093565b805180151581146200005657600080fd5b919050565b600080604083850312156200006f57600080fd5b6200007a8362000045565b91506200008a6020840162000045565b90509250929050565b60805160a051614e23620000f86000396000818161058801528181611d870152818161225a015261266e0152600081816106bc0152818161077e01528181610a0f0152818161103701528181611172015281816112d1015261259c0152614e236000f3fe608060405234801561001057600080fd5b50600436106102a05760003560e01c8063768fabb011610167578063bb84cfa1116100ce578063c56a069d11610087578063c56a069d14610697578063cd312ec4146106b7578063e8dccb7d146106de578063f2e55caf14610700578063f373305214610708578063f9f522f41461071b57600080fd5b8063bb84cfa114610609578063bbe4fd5014610645578063bced3ddc1461064b578063bd1c448b1461065e578063bf42873414610671578063c4d66de81461068457600080fd5b80639d297e30116101205780639d297e3014610583578063a5dbbbcd146105aa578063ad3915c8146105bd578063b6d200de146105d0578063b724211e146105e3578063ba48b5f8146105f657600080fd5b8063768fabb01461050a578063787afde71461051d5780638ca48484146105305780639378fa1314610543578063989b0c3e146105685780639903ad381461057b57600080fd5b806350d75d251161020b578063670e77e3116101c4578063670e77e31461049a5780636ad3ca7d146104ad5780636b4f3335146104c05780637283100c146104d3578063731aed6e146104e657806374041e02146104f757600080fd5b806350d75d251461041657806352d1902d1461041e57806354fbc4931461044e57806357121e0c14610461578063572b6c051461047457806359a291411461048757600080fd5b806339255d5b1161025d57806339255d5b146103565780633ca3ad4e146103695780633f6c923a146103a45780634329d293146103c457806346951954146103e5578063486ff0cd146103f857600080fd5b806306cecba8146102a557806315a024e1146102ba5780631e6d0a84146102cd5780631e855cf3146102f6578063289b3c0d1461030957806333d608f114610334575b600080fd5b6102b86102b3366004613d6b565b61074b565b005b6102b86102c8366004613d6b565b610922565b6102e06102db366004613de5565b610b72565b6040516102ed9190613ecb565b60405180910390f35b6102e0610304366004613fa1565b610dbe565b6000546201000090046001600160a01b03165b6040516001600160a01b0390911681526020016102ed565b61033e622dc6c081565b6040516001600160401b0390911681526020016102ed565b6102e0610364366004613ff0565b610dd4565b610394610377366004613d6b565b6001600160a01b0316600090815260046020526040902054151590565b60405190151581526020016102ed565b6103b76103b2366004614065565b610dea565b6040516102ed9190614099565b6103d76103d236600461417a565b610dfb565b6040516102ed929190614226565b6102b86103f3366004613d6b565b611004565b604080518082019091526002815261763160f01b60208201526102e0565b61031c611100565b7fcd355cae2c435f8c5e0c626c4691d22fd85aa7422a424c6f0bced6e64c7aba745b6040519081526020016102ed565b6102b861045c366004613d6b565b61112f565b6102b861046f366004613d6b565b6113b2565b610394610482366004613d6b565b611480565b6102e061049536600461424b565b61150a565b6102b86104a8366004614296565b6115ec565b6102b86104bb366004614296565b611602565b6103946104ce366004613d6b565b61160d565b6102b86104e1366004613d6b565b611631565b6003546001600160a01b031661031c565b6102e0610505366004613de5565b6116d9565b6102e061051836600461430a565b611828565b6102b861052b366004613d6b565b6119c4565b61039461053e366004613d6b565b611b07565b610556610551366004613d6b565b611bcc565b60405160ff90911681526020016102ed565b6102e061057636600461424b565b611bed565b6102b8611c80565b6103947f000000000000000000000000000000000000000000000000000000000000000081565b6104406105b8366004614385565b611d3b565b6102b86105cb3660046143a7565b611d85565b61031c6105de3660046143a7565b611dd0565b6102e06105f13660046143c0565b611e37565b6102e061060436600461441c565b611ef8565b61039461061736600461449e565b6001600160a01b03918216600090815260056020908152604080832093909416825291909152205460ff1690565b42610440565b610440610659366004614385565b61220f565b6102b861066c3660046144d7565b612258565b61039461067f366004614522565b612370565b6102b8610692366004613d6b565b6123b1565b6106aa6106a53660046143a7565b612495565b6040516102ed9190614563565b6103947f000000000000000000000000000000000000000000000000000000000000000081565b6103946106ec3660046143a7565b600090815260026020526040902054151590565b61031c61257f565b6102b86107163660046145b0565b612647565b61072e610729366004613d6b565b61274f565b6040805193151584529115156020840152908201526060016102ed565b6000546201000090046001600160a01b0316331461077c576040516362e9152760e11b815260040160405180910390fd5b7f0000000000000000000000000000000000000000000000000000000000000000156107bb576040516314f72c9f60e01b815260040160405180910390fd5b6000816001600160a01b0316637730599e6040518163ffffffff1660e01b8152600401602060405180830381865afa1580156107fb573d6000803e3d6000fd5b505050506040513d601f19601f8201168201806040525081019061081f91906145dc565b60008181526002602052604081205491925081900361085157604051630e4f4df560e11b815260040160405180910390fd5b6000600161085f818461460b565b8154811061086f5761086f61461e565b6000918252602090912001546040516311a5465560e21b81526001600160a01b03868116600483015290911691508190634695195490602401600060405180830381600087803b1580156108c257600080fd5b505af11580156108d6573d6000803e3d6000fd5b5050604080518681526001600160a01b03881660208201527f9279aa773f2b588996032d8de89911555039f28b13a11a7c17074330bc082d9a935001905060405180910390a150505050565b6000546201000090046001600160a01b03163314610953576040516362e9152760e11b815260040160405180910390fd5b6000816001600160a01b0316637730599e6040518163ffffffff1660e01b8152600401602060405180830381865afa158015610993573d6000803e3d6000fd5b505050506040513d601f19601f820116820180604052508101906109b791906145dc565b600081815260026020526040902054909150156109e757604051631b93bb7560e31b815260040160405180910390fd5b60015461010011610a0b57604051630f85034f60e31b815260040160405180910390fd5b60007f0000000000000000000000000000000000000000000000000000000000000000610ac5576000604051610a4090613cee565b604051809103906000f080158015610a5c573d6000803e3d6000fd5b50604051634a0687ef60e01b81526001600160a01b03868116600483015291925090821690634a0687ef90602401600060405180830381600087803b158015610aa457600080fd5b505af1158015610ab8573d6000803e3d6000fd5b5050505080915050610ac8565b50815b6001805480820182557fb10e2d527612073b26eecdfd717e6a320cf44b4afac2b0732d9fcbe2b7fa0cf60180546001600160a01b0384166001600160a01b0319909116179055546000838152600260205260409081902091909155517f878135063a6cfb3bc333e534b1fdc83f4f12221cad6705c31c0567048a8bd3d190610b6590849086909182526001600160a01b0316602082015260400190565b60405180910390a1505050565b6060610b7d33611b07565b610b9a5760405163619c535960e01b815260040160405180910390fd5b82828080601f016020809104026020016040519081016040528093929190818152602001838380828437600092019190915250610bdc925083915061279e9050565b610be857610be8614634565b600080610c628a6000898c8c8080601f01602080910402602001604051908101604052809392919081815260200183838082843760009201919091525050604080516020601f8f018190048102820181019092528d815292508d91508c90819084018382808284376000920191909152506127be92505050565b915091508115610d7757610c758161294b565b15610d0f5780806020019051810190610c8e919061468f565b9350610c998461279e565b610d0a5786610cc35760405163a85ba64f60e01b8152601460048201526024015b60405180910390fd5b85858080601f016020809104026020016040519081016040528093929190818152602001838380828437600092019190915250929650610d0a92508c91506014905061299f565b610db1565b86610d305760405163a85ba64f60e01b815260166004820152602401610cba565b85858080601f016020809104026020016040519081016040528093929190818152602001838380828437600092019190915250929650610d0a92508c91506016905061299f565b85858080601f0160208091040260200160405190810160405280939291908181526020018383808284376000920191909152509296505050505b5050509695505050505050565b6060610dcb338484612a14565b90505b92915050565b6060610de233858585612c4f565b949350505050565b610df2613cfb565b610dce82612d5e565b60608083838080601f016020809104026020016040519081016040528093929190818152602001838380828437600092019190915250610e40925083915061279e9050565b610e605760405163a85ba64f60e01b815260146004820152602401610cba565b89610e6a81611b07565b610e875760405163619c535960e01b815260040160405180910390fd5b6000610ec887878080601f016020809104026020016040519081016040528093929190818152602001838380828437600092019190915250610dea92505050565b6101208101519091506001600160a01b03163314610ef95760405163066875e160e11b815260040160405180910390fd5b60608101805133909152604080516020601f8c018190048102820181019092528a8152908b908b908190840183828082843760009201919091525050505060a0830152610f4582612e29565b95506000610f8b8e8e8e8080601f0160208091040260200160405190810160405280939291908181526020018383808284376000920191909152508c9250612f5d915050565b965090508015610fea5785806020019051810190610fa9919061468f565b9650610fb48761279e565b610fc057610fc0614634565b610fc987610dea565b6001600160a01b03831660608201529250610fe383612e29565b9650610ff3565b610ff386613016565b505050505097509795505050505050565b6000546201000090046001600160a01b03163314611035576040516362e9152760e11b815260040160405180910390fd5b7f000000000000000000000000000000000000000000000000000000000000000015611074576040516314f72c9f60e01b815260040160405180910390fd5b806001600160a01b031663cd312ec46040518163ffffffff1660e01b8152600401602060405180830381865afa1580156110b2573d6000803e3d6000fd5b505050506040513d601f19601f820116820180604052508101906110d691906146c3565b156110f45760405163474e764160e01b815260040160405180910390fd5b6110fd81613121565b50565b600061112a7f360894a13ba1a3210667c828492db98dca3e2076cc3735a920a3ca505d382bbc5490565b905090565b6000546201000090046001600160a01b03163314611160576040516362e9152760e11b815260040160405180910390fd5b6003546001600160a01b03166112cf577f00000000000000000000000000000000000000000000000000000000000000006112465760006040516111a390613cee565b604051809103906000f0801580156111bf573d6000803e3d6000fd5b50604051634a0687ef60e01b81526001600160a01b03848116600483015291925090821690634a0687ef90602401600060405180830381600087803b15801561120757600080fd5b505af115801561121b573d6000803e3d6000fd5b5050600380546001600160a01b0319166001600160a01b039490941693909317909255506112629050565b600380546001600160a01b0319166001600160a01b0383161790555b600360009054906101000a90046001600160a01b03166001600160a01b0316638129fc1c6040518163ffffffff1660e01b8152600401600060405180830381600087803b1580156112b257600080fd5b505af11580156112c6573d6000803e3d6000fd5b5050505061136e565b7f00000000000000000000000000000000000000000000000000000000000000001561130e576040516314f72c9f60e01b815260040160405180910390fd5b6003546040516311a5465560e21b81526001600160a01b03838116600483015290911690634695195490602401600060405180830381600087803b15801561135557600080fd5b505af1158015611369573d6000803e3d6000fd5b505050505b6003546040516001600160a01b0390911681527fce13a9895a1719ad4493b2ac1a9bfb36070566161abab408e7ecbe586da8d499906020015b60405180910390a150565b336000818152600460205260409020546113df576040516302eb3f7160e61b815260040160405180910390fd5b6001600160a01b03821660009081526004602052604090205461141557604051634b5518af60e11b815260040160405180910390fd5b61141e82611bcc565b60ff1661142a82611bcc565b60ff161161144b57604051630447252760e41b815260040160405180910390fd5b6001600160a01b039081166000908152600560209081526040808320949093168252929092529020805460ff19166001179055565b600080546201000090046001600160a01b03166380f70cba30836114a38661335b565b6040518463ffffffff1660e01b81526004016114c1939291906146e0565b602060405180830381865afa1580156114de573d6000803e3d6000fd5b505050506040513d601f19601f8201168201806040525081019061150291906145dc565b151592915050565b606061151533611b07565b6115325760405163619c535960e01b815260040160405180910390fd5b83838080601f016020809104026020016040519081016040528093929190818152602001838380828437600092019190915250611574925083915061279e9050565b61158057611580614634565b60006115c186868080601f016020809104026020016040519081016040528093929190818152602001838380828437600092019190915250610dea92505050565b90508381610100018181516115d69190614704565b9052506115e281612e29565b9695505050505050565b6115fe6115f76133e3565b838361344b565b5050565b6115fe33838361344b565b6001600160a01b038116600090815260046020526040812054618000161515610dce565b6000546201000090046001600160a01b03163314611662576040516362e9152760e11b815260040160405180910390fd5b600054604080516001600160a01b03620100009093048316815291831660208301527f13abda02e63c790d0e2818b251282cfe5cbe0a8abd69c54bf5d2260c0907bd2e910160405180910390a1600080546001600160a01b03909216620100000262010000600160b01b0319909216919091179055565b60606116e433611b07565b6117015760405163619c535960e01b815260040160405180910390fd5b82828080601f016020809104026020016040519081016040528093929190818152602001838380828437600092019190915250611743925083915061279e9050565b61174f5761174f614634565b6000806117c98a6001898c8c8080601f01602080910402602001604051908101604052809392919081815260200183838082843760009201919091525050604080516020601f8f018190048102820181019092528d815292508d91508c90819084018382808284376000920191909152506127be92505050565b915091508115610db1576117dc8161294b565b156117fc57808060200190518101906117f5919061468f565b9350610db1565b8661181d5760405163a85ba64f60e01b815260166004820152602401610cba565b610db18a601661299f565b606061183333611b07565b6118505760405163619c535960e01b815260040160405180910390fd5b86868080601f016020809104026020016040519081016040528093929190818152602001838380828437600092019190915250611892925083915061279e9050565b61189e5761189e614634565b60006118df89898080601f016020809104026020016040519081016040528093929190818152602001838380828437600092019190915250610dea92505050565b905061190681606001516001600160a01b0316600090815260046020526040902054151590565b801561191a57506001816000015160ff1610155b1561196d5760608101516001600160a01b039081166000908152600560209081526040808320938b168352929052205460ff1661196d5760405163a85ba64f60e01b8152601e6004820152602401610cba565b8051816119798261472c565b60ff169052506003602082015260c0810186905261010081018590526001600160a01b0380881661012083015284166101408201526119b781612e29565b9998505050505050505050565b6000546201000090046001600160a01b031633146119f5576040516362e9152760e11b815260040160405180910390fd5b60035460408051634a3852d960e11b815290516000926001600160a01b031691639470a5b29160048083019260209291908290030181865afa158015611a3f573d6000803e3d6000fd5b505050506040513d601f19601f82011682018060405250810190611a63919061474b565b6040516311a5465560e21b81526001600160a01b03808316600483015291925090831690634695195490602401600060405180830381600087803b158015611aaa57600080fd5b505af1158015611abe573d6000803e3d6000fd5b50506040516001600160a01b038481168252851692507f840acbd291b38534819f47f875839277e502f40e1c7bfea2c5fc2c8017442cd391506020015b60405180910390a25050565b600080826001600160a01b0316637730599e6040518163ffffffff1660e01b8152600401602060405180830381865afa158015611b48573d6000803e3d6000fd5b505050506040513d601f19601f82011682018060405250810190611b6c91906145dc565b6000818152600260205260409020549091508015801590610de257506001600160a01b0384166001611b9e818461460b565b81548110611bae57611bae61461e565b6000918252602090912001546001600160a01b031614949350505050565b6001600160a01b03811660009081526004602052604081205460ff16610dce565b6060611bf833611b07565b611c155760405163619c535960e01b815260040160405180910390fd5b6000611c5685858080601f016020809104026020016040519081016040528093929190818152602001838380828437600092019190915250610dea92505050565b9050828161010001818151611c6b9190614704565b905250611c7781612e29565b95945050505050565b600054610100900460ff1615808015611ca05750600054600160ff909116105b80611cba5750303b158015611cba575060005460ff166001145b611cd65760405162461bcd60e51b8152600401610cba90614768565b6000805460ff191660011790558015611cf9576000805461ff0019166101001790555b80156110fd576000805461ff0019169055604051600181527f7f26b83ff96e1f2b6a682f133852f6798a09c465da95921460cefb3847402498906020016113a7565b600081815260026020526040812054808203611d6a57604051630e4f4df560e11b815260040160405180910390fd5b611d7560018261460b565b6001901b19841691505092915050565b7f000000000000000000000000000000000000000000000000000000000000000015611dc4576040516305b93ebf60e41b815260040160405180910390fd5b6110fd81336001613969565b600081815260026020526040812054808203611dff57604051630e4f4df560e11b815260040160405180910390fd5b6001611e0b818361460b565b81548110611e1b57611e1b61461e565b6000918252602090912001546001600160a01b03169392505050565b6060611e4233611b07565b611e5f5760405163619c535960e01b815260040160405180910390fd5b84848080601f016020809104026020016040519081016040528093929190818152602001838380828437600092019190915250611ea1925083915061279e9050565b611ead57611ead614634565b611eb7848461299f565b85858080601f016020809104026020016040519081016040528093929190818152602001838380828437600092019190915250929998505050505050505050565b606082828080601f016020809104026020016040519081016040528093929190818152602001838380828437600092019190915250611f3c925083915061279e9050565b611f5c5760405163a85ba64f60e01b815260146004820152602401610cba565b6001600160a01b0387166000908152600460205260408120548891819003611f975760405163163cbe4360e01b815260040160405180910390fd5b618000811615611fb957604051628e12d960e21b815260040160405180910390fd5b87878080601f01602080910402602001604051908101604052809392919081815260200183838082843760009201829052509250611ffa9150839050613a88565b90506001600160e01b031981166330d9c91560e01b148061202b57506001600160e01b0319811663d86ed3e560e01b145b8061204657506001600160e01b03198116630221347d60e61b145b8061206157506001600160e01b0319811663230dbd2960e01b145b8061207c57506001600160e01b03198116635f9e7d7760e01b145b8061209757506001600160e01b031981166353c11f9960e01b145b156120b5576040516377a14afb60e11b815260040160405180910390fd5b60006120f689898080601f016020809104026020016040519081016040528093929190818152602001838380828437600092019190915250610dea92505050565b6101208101519091506001600160a01b03163314612127576040516311cfdef560e21b815260040160405180910390fd5b6060810180513390915261213a82612e29565b97506000806121818f8f8f8080601f0160208091040260200160405190810160405280939291908181526020018383808284376000920191909152508f9250612f5d915050565b9150915081156121f4578080602001905181019061219f919061468f565b99506121aa8a61279e565b6121ca5760405163a85ba64f60e01b815260146004820152602401610cba565b6121d38a610dea565b6001600160a01b038416606082015293506121ed84612e29565b99506121fd565b6121fd81613016565b50505050505050505095945050505050565b60008181526002602052604081205480820361223e57604051630e4f4df560e11b815260040160405180910390fd5b61224960018261460b565b6001901b841791505092915050565b7f00000000000000000000000000000000000000000000000000000000000000001561235f5760006122c03284848080601f016020809104026020016040519081016040528093929190818152602001838380828437600092019190915250613ae492505050565b6000805460405163407b865d60e11b81529293504292620100009091046001600160a01b0316916380f70cba916122fd91309187906004016146e0565b602060405180830381865afa15801561231a573d6000803e3d6000fd5b505050506040513d601f19601f8201168201806040525081019061233e91906145dc565b101561235d576040516319ab84d160e01b815260040160405180910390fd5b505b61236b83336001613969565b505050565b6000610dcb83838080601f01602080910402602001604051908101604052809392919081815260200183838082843760009201919091525061279e92505050565b600054610100900460ff16158080156123d15750600054600160ff909116105b806123eb5750303b1580156123eb575060005460ff166001145b6124075760405162461bcd60e51b8152600401610cba90614768565b6000805460ff19166001179055801561242a576000805461ff0019166101001790555b6000805462010000600160b01b031916620100006001600160a01b0385160217905580156115fe576000805461ff0019169055604051600181527f7f26b83ff96e1f2b6a682f133852f6798a09c465da95921460cefb38474024989060200160405180910390a15050565b60606000806001805490506001600160401b038111156124b7576124b7613ede565b6040519080825280602002602001820160405280156124e0578160200160208202803683370190505b50925060009050600091505b600154821015612577576001821b84161561256757600182815481106125145761251461461e565b6000918252602090912001546001600160a01b03168382612534816147b6565b9350815181106125465761254661461e565b60200260200101906001600160a01b031690816001600160a01b0316815250505b612570826147b6565b91506124ec565b825250919050565b6003546000906001600160a01b031661259a5761259a614634565b7f0000000000000000000000000000000000000000000000000000000000000000156125d057506003546001600160a01b031690565b600360009054906101000a90046001600160a01b03166001600160a01b03166350d75d256040518163ffffffff1660e01b8152600401602060405180830381865afa158015612623573d6000803e3d6000fd5b505050506040513d601f19601f8201168201806040525081019061112a919061474b565b333b600081900361266b5760405163353dacc360e21b815260040160405180910390fd5b507f00000000000000000000000000000000000000000000000000000000000000001561274357600061269d33613b17565b6000805460405163407b865d60e11b81529293509091620100009091046001600160a01b0316906380f70cba906126dc903090859087906004016146e0565b602060405180830381865afa1580156126f9573d6000803e3d6000fd5b505050506040513d601f19601f8201168201806040525081019061271d91906145dc565b6001149050806127405760405163289533c560e01b815260040160405180910390fd5b50505b6115fe81836000613969565b6001600160a01b03811660009081526004602090815260408083208151928301909152548082521580159291829161279657805161800081161515935064ff000000001691505b509193909250565b60008151600014158015610dce5750600654825160208401201492915050565b600060606001600160a01b0387166127d8576127d8614634565b6127e28484613b91565b935060005a9050861561286057876001600160a01b0316622dc6c06001600160401b03168660405161281491906147cf565b6000604051808303818686fa925050503d8060008114612850576040519150601f19603f3d011682016040523d82523d6000602084013e612855565b606091505b5090935091506128cf565b876001600160a01b0316622dc6c06001600160401b03168660405161288591906147cf565b60006040518083038160008787f1925050503d80600081146128c3576040519150601f19603f3d011682016040523d82523d6000602084013e6128c8565b606091505b5090935091505b82612940576128df603f826147eb565b5a111561290457856128f9576128f482613016565b612940565b6128f488600a61299f565b60405162461bcd60e51b815260206004820152601160248201527053463a206e656564206d6f72652067617360781b6044820152606401610cba565b509550959350505050565b600060408251101561295f57506000919050565b602082810151906000908214612979575060009392505050565b50604083015161298881613c48565b61299390604061480d565b84511492505050919050565b6001600160a01b0382166000908152600460205260408120546180001690036115fe576001600160a01b038216600081815260046020526040908190208054618000179055517fbe3aa33bd245135e4e26b223d79d14ea479a47bff09f2b03c53838af1edbb14b90611afb9084815260200190565b60065460609015612a3b5760405163a85ba64f60e01b815260156004820152602401610cba565b6001600160a01b0383166000908152600460205260408120548491819003612a765760405163163cbe4360e01b815260040160405180910390fd5b618000811615612a9857604051628e12d960e21b815260040160405180910390fd5b836000612aa482613a88565b90506001600160e01b031981166330d9c91560e01b1480612ad557506001600160e01b0319811663d86ed3e560e01b145b80612af057506001600160e01b03198116630221347d60e61b145b80612b0b57506001600160e01b0319811663230dbd2960e01b145b80612b2657506001600160e01b03198116635f9e7d7760e01b145b80612b4157506001600160e01b031981166353c11f9960e01b145b15612b5f576040516377a14afb60e11b815260040160405180910390fd5b60408051610160810182526000808252600260208084019190915242838501526001600160a01b03808d16606085015260808401839052845191820190945281815260a083015260c0820181905260e0820181905261010082018190529189166101208201526101408101829052612bd690612e29565b90506000612be5898984612f5d565b975090508015612c335786806020019051810190612c03919061468f565b9150612c0e8261279e565b612c2e5760405163a85ba64f60e01b815260146004820152602401610cba565b612c3c565b612c3c87613016565b5050600060065550929695505050505050565b60065460609015612c765760405163a85ba64f60e01b815260156004820152602401610cba565b83612c8081611b07565b612c9d5760405163619c535960e01b815260040160405180910390fd5b6000612ca885613a88565b6040805161016081018252600080825260016020830152929350612d2b9181014281526020018a6001600160a01b03168152602001846001600160e01b031916815260200187815260200160008152602001600081526020016000815260200160006001600160a01b0316815260200160006001600160a01b0316815250612e29565b90506000612d3a888884612f5d565b9550905080612d4c57612d4c85613016565b50506000600655509095945050505050565b612d66613cfb565b60608083806020019051810190612d7d9190614820565b81519193509150600090612d9a9084016020908101908501614879565b60a08901526001600160e01b03191660808801526001600160a01b031660608701526040860152602081811c600f168187015260ff9091168552825160009250612deb9190840181019084016148fd565b6001600160a01b03908116610140890152166101208701526101008601526001600160801b03811660c086015260801c60e085015250919392505050565b60606001826000015160ff161115612e575760405163a85ba64f60e01b815260286004820152602401610cba565b815160208084015160009260ff1664ff000000009190921b1617905060006080612e848560e00151613c81565b6001600160801b0316901b612e9c8560c00151613c81565b6001600160801b0316179050818460400151856060015186608001518760a00151604051602001612ed1959493929190614948565b60408051601f1981840301815282825261010087015161012088015161014089015160208601879052938501919091526001600160a01b03908116606085015290911660808301529060a00160408051601f1981840301815290829052612f3b9291602001614226565b60408051601f1981840301815291905280516020820120600655949350505050565b600060606001600160a01b038516612f7757612f77614634565b612f818484613b91565b9350846001600160a01b031684604051612f9b91906147cf565b6000604051808303816000865af19150503d8060008114612fd8576040519150601f19603f3d011682016040523d82523d6000602084013e612fdd565b606091505b509092509050811561300e57805160000361300e5760405163a85ba64f60e01b815260166004820152602401610cba565b935093915050565b6004815110156130685760405162461bcd60e51b815260206004820152601a60248201527f43616c6c5574696c733a207461726765742072657665727428290000000000006044820152606401610cba565b602081015163b1b7848f60e01b6001600160e01b03198216016131185760408051808201825260208082527f43616c6c5574696c733a207461726765742070616e69636b65643a2030785f5f90820190815260248501517f43616c6c5574696c733a207461726765742070616e69636b65643a2030780000600482811c600f908116603090810160081b918516011791909117909252925162461bcd60e51b8152919291610cba91849101613ecb565b81518060208401fd5b600061314b7f360894a13ba1a3210667c828492db98dca3e2076cc3735a920a3ca505d382bbc5490565b6001600160a01b0316036131a15760405162461bcd60e51b815260206004820152601d60248201527f5555505350726f786961626c653a206e6f742075706772616461626c650000006044820152606401610cba565b806001600160a01b03166352d1902d6040518163ffffffff1660e01b8152600401602060405180830381865afa1580156131df573d6000803e3d6000fd5b505050506040513d601f19601f8201168201806040525081019061320391906145dc565b7fcd355cae2c435f8c5e0c626c4691d22fd85aa7422a424c6f0bced6e64c7aba741461327d5760405162461bcd60e51b815260206004820152602360248201527f5555505350726f786961626c653a206e6f7420636f6d70617469626c65206c6f60448201526267696360e81b6064820152608401610cba565b6001600160a01b03811630036132d55760405162461bcd60e51b815260206004820152601960248201527f5555505350726f786961626c653a2070726f7879206c6f6f70000000000000006044820152606401610cba565b6132fd817f360894a13ba1a3210667c828492db98dca3e2076cc3735a920a3ca505d382bbc55565b7fe011bc04c286c344a8fcbb8de77f953da762c3e25d8cdea984147fc4168a5dcc7fcd355cae2c435f8c5e0c626c4691d22fd85aa7422a424c6f0bced6e64c7aba74604080519182526001600160a01b0384166020830152016113a7565b6040805160208101829052603260608201527f6f72672e7375706572666c7569642d66696e616e63652e7375706572666c756960808201527132173a393ab9ba32b22337b93bb0b93232b960711b60a08201526001600160a01b0383169181019190915260009060c0015b604051602081830303815290604052805190602001209050919050565b6000601836108015906133fa57506133fa33611480565b61343e5760405162461bcd60e51b81526020600482015260156024820152742737ba103a393ab9ba32b2103337b93bb0b93232b960591b6044820152606401610cba565b5060131936013560601c90565b60005b8181101561396357600083838381811061346a5761346a61461e565b905060200281019061347c9190614994565b61348a9060208101906149aa565b905060001963ffffffff82160161357e576000808585858181106134b0576134b061461e565b90506020028101906134c29190614994565b6134d09060408101906149d0565b8101906134dd91906145b0565b915091508585858181106134f3576134f361461e565b90506020028101906135059190614994565b613516906040810190602001613d6b565b6001600160a01b03166362aa52878884846040518463ffffffff1660e01b8152600401613545939291906146e0565b600060405180830381600087803b15801561355f57600080fd5b505af1158015613573573d6000803e3d6000fd5b505050505050613952565b60011963ffffffff8216016136885760008060008686868181106135a4576135a461461e565b90506020028101906135b69190614994565b6135c49060408101906149d0565b8101906135d19190614a16565b9250925092508686868181106135e9576135e961461e565b90506020028101906135fb9190614994565b61360c906040810190602001613d6b565b604051630b682aeb60e11b81526001600160a01b038a81166004830152858116602483015284811660448301526064820184905291909116906316d055d690608401600060405180830381600087803b15801561366857600080fd5b505af115801561367c573d6000803e3d6000fd5b50505050505050613952565b60641963ffffffff82160161377d578383838181106136a9576136a961461e565b90506020028101906136bb9190614994565b6136cc906040810190602001613d6b565b6001600160a01b031663ca789464868686868181106136ed576136ed61461e565b90506020028101906136ff9190614994565b61370d9060408101906149d0565b81019061371a91906143a7565b6040516001600160e01b031960e085901b1681526001600160a01b0390921660048301526024820152604401600060405180830381600087803b15801561376057600080fd5b505af1158015613774573d6000803e3d6000fd5b50505050613952565b60651963ffffffff8216016137e25783838381811061379e5761379e61461e565b90506020028101906137b09190614994565b6137c1906040810190602001613d6b565b6001600160a01b031663245887fc868686868181106136ed576136ed61461e565b60c81963ffffffff82160161387f576000808585858181106138065761380661461e565b90506020028101906138189190614994565b6138269060408101906149d0565b8101906138339190614a57565b915091506138778787878781811061384d5761384d61461e565b905060200281019061385f9190614994565b613870906040810190602001613d6b565b8484612c4f565b505050613952565b60c91963ffffffff82160161393957613933858585858181106138a4576138a461461e565b90506020028101906138b69190614994565b6138c7906040810190602001613d6b565b8686868181106138d9576138d961461e565b90506020028101906138eb9190614994565b6138f99060408101906149d0565b8080601f016020809104026020016040519081016040528093929190818152602001838380828437600092019190915250612a1492505050565b50613952565b60405163b477011560e01b815260040160405180910390fd5b5061395c816147b6565b905061344e565b50505050565b32330361398c5760405163a85ba64f60e01b815260026004820152602401610cba565b80156139b857813b80156139b65760405163a85ba64f60e01b815260016004820152602401610cba565b505b64ff000080ff1983161515806139cf575060ff8316155b806139dd5750618000831615155b156139fb57604051633d3200a960e21b815260040160405180910390fd5b6001600160a01b03821660009081526004602052604090205415613a32576040516301b0a93560e01b815260040160405180910390fd5b60408051602080820183528582526001600160a01b038516600081815260049092528382209251909255915190917f0d540ad8f39e07d19909687352b9fa017405d93c91a6760981fbae9cf28bfef791a2505050565b6000600482511015613adc5760405162461bcd60e51b815260206004820152601b60248201527f43616c6c5574696c733a20696e76616c69642063616c6c4461746100000000006044820152606401610cba565b506020015190565b60008282604051602001613af9929190614ab0565b60405160208183030381529060405280519060200120905092915050565b6040805160208101829052603960608201527f6f72672e7375706572666c7569642d66696e616e63652e7375706572666c756960808201527f642e61707057686974654c697374696e672e666163746f72790000000000000060a08201526001600160a01b0383169181019190915260009060c0016133c6565b815180830151606091908015613bba576040516367e9985b60e01b815260040160405180910390fd5b50601f1981018452825184908481613bd181613c48565b613bdb919061460b565b6001600160401b03811115613bf257613bf2613ede565b6040519080825280601f01601f191660200182016040528015613c1c576020820181803683370190505b50604051602001613c309493929190614b35565b60405160208183030381529060405291505092915050565b60008082601f1611613c5b576000613c5e565b60015b60ff16613c6c6020846147eb565b613c76919061480d565b610dce906020614b84565b60006001600160801b03821115613cea5760405162461bcd60e51b815260206004820152602760248201527f53616665436173743a2076616c756520646f65736e27742066697420696e20316044820152663238206269747360c81b6064820152608401610cba565b5090565b61024a80614ba483390190565b604080516101608101825260008082526020820181905291810182905260608082018390526080820183905260a082015260c0810182905260e081018290526101008101829052610120810182905261014081019190915290565b6001600160a01b03811681146110fd57600080fd5b600060208284031215613d7d57600080fd5b8135613d8881613d56565b9392505050565b60008083601f840112613da157600080fd5b5081356001600160401b03811115613db857600080fd5b602083019150836020828501011115613dd057600080fd5b9250929050565b80151581146110fd57600080fd5b60008060008060008060808789031215613dfe57600080fd5b8635613e0981613d56565b955060208701356001600160401b0380821115613e2557600080fd5b613e318a838b01613d8f565b909750955060408901359150613e4682613dd7565b90935060608801359080821115613e5c57600080fd5b50613e6989828a01613d8f565b979a9699509497509295939492505050565b60005b83811015613e96578181015183820152602001613e7e565b50506000910152565b60008151808452613eb7816020860160208601613e7b565b601f01601f19169290920160200192915050565b602081526000610dcb6020830184613e9f565b634e487b7160e01b600052604160045260246000fd5b604051601f8201601f191681016001600160401b0381118282101715613f1c57613f1c613ede565b604052919050565b60006001600160401b03821115613f3d57613f3d613ede565b50601f01601f191660200190565b600082601f830112613f5c57600080fd5b8135613f6f613f6a82613f24565b613ef4565b818152846020838601011115613f8457600080fd5b816020850160208301376000918101602001919091529392505050565b60008060408385031215613fb457600080fd5b8235613fbf81613d56565b915060208301356001600160401b03811115613fda57600080fd5b613fe685828601613f4b565b9150509250929050565b60008060006060848603121561400557600080fd5b833561401081613d56565b925060208401356001600160401b038082111561402c57600080fd5b61403887838801613f4b565b9350604086013591508082111561404e57600080fd5b5061405b86828701613f4b565b9150509250925092565b60006020828403121561407757600080fd5b81356001600160401b0381111561408d57600080fd5b610de284828501613f4b565b602081526140ad60208201835160ff169052565b600060208301516140c3604084018260ff169052565b506040830151606083015260608301516140e860808401826001600160a01b03169052565b5060808301516001600160e01b0319811660a08401525060a08301516101608060c085015261411b610180850183613e9f565b915060c085015160e085015260e0850151610100818187015280870151915050610120818187015280870151915050610140614161818701836001600160a01b03169052565b909501516001600160a01b031693019290925250919050565b60008060008060008060006080888a03121561419557600080fd5b87356141a081613d56565b965060208801356001600160401b03808211156141bc57600080fd5b6141c88b838c01613d8f565b909850965060408a01359150808211156141e157600080fd5b6141ed8b838c01613d8f565b909650945060608a013591508082111561420657600080fd5b506142138a828b01613d8f565b989b979a50959850939692959293505050565b6040815260006142396040830185613e9f565b8281036020840152611c778185613e9f565b60008060006040848603121561426057600080fd5b83356001600160401b0381111561427657600080fd5b61428286828701613d8f565b909790965060209590950135949350505050565b600080602083850312156142a957600080fd5b82356001600160401b03808211156142c057600080fd5b818501915085601f8301126142d457600080fd5b8135818111156142e357600080fd5b8660208260051b85010111156142f857600080fd5b60209290920196919550909350505050565b60008060008060008060a0878903121561432357600080fd5b86356001600160401b0381111561433957600080fd5b61434589828a01613d8f565b909750955050602087013561435981613d56565b93506040870135925060608701359150608087013561437781613d56565b809150509295509295509295565b6000806040838503121561439857600080fd5b50508035926020909101359150565b6000602082840312156143b957600080fd5b5035919050565b600080600080606085870312156143d657600080fd5b84356001600160401b038111156143ec57600080fd5b6143f887828801613d8f565b909550935050602085013561440c81613d56565b9396929550929360400135925050565b60008060008060006060868803121561443457600080fd5b853561443f81613d56565b945060208601356001600160401b038082111561445b57600080fd5b61446789838a01613d8f565b9096509450604088013591508082111561448057600080fd5b5061448d88828901613d8f565b969995985093965092949392505050565b600080604083850312156144b157600080fd5b82356144bc81613d56565b915060208301356144cc81613d56565b809150509250929050565b6000806000604084860312156144ec57600080fd5b8335925060208401356001600160401b0381111561450957600080fd5b61451586828701613d8f565b9497909650939450505050565b6000806020838503121561453557600080fd5b82356001600160401b0381111561454b57600080fd5b61455785828601613d8f565b90969095509350505050565b6020808252825182820181905260009190848201906040850190845b818110156145a45783516001600160a01b03168352928401929184019160010161457f565b50909695505050505050565b600080604083850312156145c357600080fd5b82356145ce81613d56565b946020939093013593505050565b6000602082840312156145ee57600080fd5b5051919050565b634e487b7160e01b600052601160045260246000fd5b81810381811115610dce57610dce6145f5565b634e487b7160e01b600052603260045260246000fd5b634e487b7160e01b600052600160045260246000fd5b600082601f83011261465b57600080fd5b8151614669613f6a82613f24565b81815284602083860101111561467e57600080fd5b610de2826020830160208701613e7b565b6000602082840312156146a157600080fd5b81516001600160401b038111156146b757600080fd5b610de28482850161464a565b6000602082840312156146d557600080fd5b8151613d8881613dd7565b6001600160a01b039384168152919092166020820152604081019190915260600190565b8082018281126000831280158216821582161715614724576147246145f5565b505092915050565b600060ff821660ff8103614742576147426145f5565b60010192915050565b60006020828403121561475d57600080fd5b8151613d8881613d56565b6020808252602e908201527f496e697469616c697a61626c653a20636f6e747261637420697320616c72656160408201526d191e481a5b9a5d1a585b1a5e995960921b606082015260800190565b6000600182016147c8576147c86145f5565b5060010190565b600082516147e1818460208701613e7b565b9190910192915050565b60008261480857634e487b7160e01b600052601260045260246000fd5b500490565b80820180821115610dce57610dce6145f5565b6000806040838503121561483357600080fd5b82516001600160401b038082111561484a57600080fd5b6148568683870161464a565b9350602085015191508082111561486c57600080fd5b50613fe68582860161464a565b600080600080600060a0868803121561489157600080fd5b855194506020860151935060408601516148aa81613d56565b60608701519093506001600160e01b0319811681146148c857600080fd5b60808701519092506001600160401b038111156148e457600080fd5b6148f08882890161464a565b9150509295509295909350565b6000806000806080858703121561491357600080fd5b8451935060208501519250604085015161492c81613d56565b606086015190925061493d81613d56565b939692955090935050565b858152602081018590526001600160a01b03841660408201526001600160e01b03198316606082015260a06080820181905260009061498990830184613e9f565b979650505050505050565b60008235605e198336030181126147e157600080fd5b6000602082840312156149bc57600080fd5b813563ffffffff81168114613d8857600080fd5b6000808335601e198436030181126149e757600080fd5b8301803591506001600160401b03821115614a0157600080fd5b602001915036819003821315613dd057600080fd5b600080600060608486031215614a2b57600080fd5b8335614a3681613d56565b92506020840135614a4681613d56565b929592945050506040919091013590565b60008060408385031215614a6a57600080fd5b82356001600160401b0380821115614a8157600080fd5b614a8d86838701613f4b565b93506020850135915080821115614aa357600080fd5b50613fe685828601613f4b565b60608152604160608201527f6f72672e7375706572666c7569642d66696e616e63652e7375706572666c756960808201527f642e61707057686974654c697374696e672e726567697374726174696f6e4b6560a0820152607960f81b60c082015260018060a01b038316602082015260e060408201526000610de260e0830184613e9f565b600085516020614b488285838b01613e7b565b81840191508682528551614b6181838501848a01613e7b565b8551920191614b7581838501848901613e7b565b91909101019695505050505050565b6000816000190483118215151615614b9e57614b9e6145f5565b50029056fe608060405234801561001057600080fd5b5061022a806100206000396000f3fe6080604052600436106100225760003560e01c80634a0687ef1461003957610031565b366100315761002f610059565b005b61002f610059565b34801561004557600080fd5b5061002f6100543660046101c4565b61006b565b610069610064610171565b6101a0565b565b6001600160a01b0381166100c65760405162461bcd60e51b815260206004820152601760248201527f5555505350726f78793a207a65726f206164647265737300000000000000000060448201526064015b60405180910390fd5b60006100f07f360894a13ba1a3210667c828492db98dca3e2076cc3735a920a3ca505d382bbc5490565b6001600160a01b0316146101465760405162461bcd60e51b815260206004820152601e60248201527f5555505350726f78793a20616c726561647920696e697469616c697a6564000060448201526064016100bd565b61016e817f360894a13ba1a3210667c828492db98dca3e2076cc3735a920a3ca505d382bbc55565b50565b600061019b7f360894a13ba1a3210667c828492db98dca3e2076cc3735a920a3ca505d382bbc5490565b905090565b3660008037600080366000845af43d6000803e8080156101bf573d6000f35b3d6000fd5b6000602082840312156101d657600080fd5b81356001600160a01b03811681146101ed57600080fd5b939250505056fea2646970667358221220ce7bb4a232d8c6258fb15c2cc7314073fb16eaeb0a686329740770f256d8703b64736f6c63430008100033a264697066735822122049c4c7ef31ea6a29738db7c3a2a8e35b9be67467a27ebd1fe1b55be6a9bd5ef164736f6c63430008100033",
    "linkReferences": {}
  },
  "methodIdentifiers": {
    "APP_WHITE_LISTING_ENABLED()": "9d297e30",
    "CALLBACK_GAS_LIMIT()": "33d608f1",
    "NON_UPGRADABLE_DEPLOYMENT()": "cd312ec4",
    "addToAgreementClassesBitmap(uint256,bytes32)": "bced3ddc",
    "allowCompositeApp(address)": "57121e0c",
    "appCallbackPop(bytes,int256)": "989b0c3e",
    "appCallbackPush(bytes,address,uint256,int256,address)": "768fabb0",
    "batchCall((uint32,address,bytes)[])": "6ad3ca7d",
    "callAgreement(address,bytes,bytes)": "39255d5b",
    "callAgreementWithContext(address,bytes,bytes,bytes)": "4329d293",
    "callAppAction(address,bytes)": "1e855cf3",
    "callAppActionWithContext(address,bytes,bytes)": "ba48b5f8",
    "callAppAfterCallback(address,bytes,bool,bytes)": "1e6d0a84",
    "callAppBeforeCallback(address,bytes,bool,bytes)": "74041e02",
    "castrate()": "9903ad38",
    "ctxUseCredit(bytes,int256)": "59a29141",
    "decodeCtx(bytes)": "3f6c923a",
    "forwardBatchCall((uint32,address,bytes)[])": "670e77e3",
    "getAgreementClass(bytes32)": "b6d200de",
    "getAppCallbackLevel(address)": "9378fa13",
    "getAppManifest(address)": "f9f522f4",
    "getCodeAddress()": "50d75d25",
    "getGovernance()": "289b3c0d",
    "getNow()": "bbe4fd50",
    "getSuperTokenFactory()": "731aed6e",
    "getSuperTokenFactoryLogic()": "f2e55caf",
    "initialize(address)": "c4d66de8",
    "isAgreementClassListed(address)": "8ca48484",
    "isAgreementTypeListed(bytes32)": "e8dccb7d",
    "isApp(address)": "3ca3ad4e",
    "isAppJailed(address)": "6b4f3335",
    "isCompositeAppAllowed(address,address)": "bb84cfa1",
    "isCtxValid(bytes)": "bf428734",
    "isTrustedForwarder(address)": "572b6c05",
    "jailApp(bytes,address,uint256)": "b724211e",
    "mapAgreementClasses(uint256)": "c56a069d",
    "proxiableUUID()": "52d1902d",
    "registerAgreementClass(address)": "15a024e1",
    "registerApp(uint256)": "ad3915c8",
    "registerAppByFactory(address,uint256)": "f3733052",
    "registerAppWithKey(uint256,string)": "bd1c448b",
    "removeFromAgreementClassesBitmap(uint256,bytes32)": "a5dbbbcd",
    "replaceGovernance(address)": "7283100c",
    "updateAgreementClass(address)": "06cecba8",
    "updateCode(address)": "46951954",
    "updateSuperTokenFactory(address)": "54fbc493",
    "updateSuperTokenLogic(address)": "787afde7",
    "versionRecipient()": "486ff0cd"
  },
  "id": 80
}