{
  "abi": [
    {
      "inputs": [
        {
          "internalType": "contract ISuperfluid",
          "name": "host",
          "type": "address"
        },
        {
          "internalType": "contract IConstantFlowAgreementHook",
          "name": "_hookAddress",
          "type": "address"
        }
      ],
      "stateMutability": "nonpayable",
      "type": "constructor"
    },
    {
      "inputs": [],
      "name": "AGREEMENT_BASE_ONLY_HOST",
      "type": "error"
    },
    {
      "inputs": [
        {
          "internalType": "uint256",
          "name": "_code",
          "type": "uint256"
        }
      ],
      "name": "APP_RULE",
      "type": "error"
    },
    {
      "inputs": [],
      "name": "CFA_ACL_FLOW_RATE_ALLOWANCE_EXCEEDED",
      "type": "error"
    },
    {
      "inputs": [],
      "name": "CFA_ACL_NO_NEGATIVE_ALLOWANCE",
      "type": "error"
    },
    {
      "inputs": [],
      "name": "CFA_ACL_NO_SENDER_CREATE",
      "type": "error"
    },
    {
      "inputs": [],
      "name": "CFA_ACL_NO_SENDER_FLOW_OPERATOR",
      "type": "error"
    },
    {
      "inputs": [],
      "name": "CFA_ACL_NO_SENDER_UPDATE",
      "type": "error"
    },
    {
      "inputs": [],
      "name": "CFA_ACL_OPERATOR_NO_CREATE_PERMISSIONS",
      "type": "error"
    },
    {
      "inputs": [],
      "name": "CFA_ACL_OPERATOR_NO_DELETE_PERMISSIONS",
      "type": "error"
    },
    {
      "inputs": [],
      "name": "CFA_ACL_OPERATOR_NO_UPDATE_PERMISSIONS",
      "type": "error"
    },
    {
      "inputs": [],
      "name": "CFA_ACL_UNCLEAN_PERMISSIONS",
      "type": "error"
    },
    {
      "inputs": [],
      "name": "CFA_DEPOSIT_TOO_BIG",
      "type": "error"
    },
    {
      "inputs": [],
      "name": "CFA_FLOW_ALREADY_EXISTS",
      "type": "error"
    },
    {
      "inputs": [],
      "name": "CFA_FLOW_DOES_NOT_EXIST",
      "type": "error"
    },
    {
      "inputs": [],
      "name": "CFA_FLOW_RATE_TOO_BIG",
      "type": "error"
    },
    {
      "inputs": [],
      "name": "CFA_HOOK_OUT_OF_GAS",
      "type": "error"
    },
    {
      "inputs": [],
      "name": "CFA_INSUFFICIENT_BALANCE",
      "type": "error"
    },
    {
      "inputs": [],
      "name": "CFA_INVALID_FLOW_RATE",
      "type": "error"
    },
    {
      "inputs": [],
      "name": "CFA_NON_CRITICAL_SENDER",
      "type": "error"
    },
    {
      "inputs": [],
      "name": "CFA_NO_SELF_FLOW",
      "type": "error"
    },
    {
      "inputs": [],
      "name": "CFA_ZERO_ADDRESS_RECEIVER",
      "type": "error"
    },
    {
      "inputs": [],
      "name": "CFA_ZERO_ADDRESS_SENDER",
      "type": "error"
    },
    {
      "anonymous": false,
      "inputs": [
        {
          "indexed": false,
          "internalType": "bytes32",
          "name": "uuid",
          "type": "bytes32"
        },
        {
          "indexed": false,
          "internalType": "address",
          "name": "codeAddress",
          "type": "address"
        }
      ],
      "name": "CodeUpdated",
      "type": "event"
    },
    {
      "anonymous": false,
      "inputs": [
        {
          "indexed": true,
          "internalType": "contract ISuperfluidToken",
          "name": "token",
          "type": "address"
        },
        {
          "indexed": true,
          "internalType": "address",
          "name": "sender",
          "type": "address"
        },
        {
          "indexed": true,
          "internalType": "address",
          "name": "flowOperator",
          "type": "address"
        },
        {
          "indexed": false,
          "internalType": "uint8",
          "name": "permissions",
          "type": "uint8"
        },
        {
          "indexed": false,
          "internalType": "int96",
          "name": "flowRateAllowance",
          "type": "int96"
        }
      ],
      "name": "FlowOperatorUpdated",
      "type": "event"
    },
    {
      "anonymous": false,
      "inputs": [
        {
          "indexed": true,
          "internalType": "contract ISuperfluidToken",
          "name": "token",
          "type": "address"
        },
        {
          "indexed": true,
          "internalType": "address",
          "name": "sender",
          "type": "address"
        },
        {
          "indexed": true,
          "internalType": "address",
          "name": "receiver",
          "type": "address"
        },
        {
          "indexed": false,
          "internalType": "int96",
          "name": "flowRate",
          "type": "int96"
        },
        {
          "indexed": false,
          "internalType": "int256",
          "name": "totalSenderFlowRate",
          "type": "int256"
        },
        {
          "indexed": false,
          "internalType": "int256",
          "name": "totalReceiverFlowRate",
          "type": "int256"
        },
        {
          "indexed": false,
          "internalType": "bytes",
          "name": "userData",
          "type": "bytes"
        }
      ],
      "name": "FlowUpdated",
      "type": "event"
    },
    {
      "anonymous": false,
      "inputs": [
        {
          "indexed": true,
          "internalType": "address",
          "name": "flowOperator",
          "type": "address"
        },
        {
          "indexed": false,
          "internalType": "uint256",
          "name": "deposit",
          "type": "uint256"
        }
      ],
      "name": "FlowUpdatedExtension",
      "type": "event"
    },
    {
      "anonymous": false,
      "inputs": [
        {
          "indexed": false,
          "internalType": "uint8",
          "name": "version",
          "type": "uint8"
        }
      ],
      "name": "Initialized",
      "type": "event"
    },
    {
      "inputs": [],
      "name": "CFA_HOOK_GAS_LIMIT",
      "outputs": [
        {
          "internalType": "uint64",
          "name": "",
          "type": "uint64"
        }
      ],
      "stateMutability": "view",
      "type": "function"
    },
    {
      "inputs": [],
      "name": "DEFAULT_MINIMUM_DEPOSIT",
      "outputs": [
        {
          "internalType": "uint256",
          "name": "",
          "type": "uint256"
        }
      ],
      "stateMutability": "view",
      "type": "function"
    },
    {
      "inputs": [],
      "name": "MAXIMUM_DEPOSIT",
      "outputs": [
        {
          "internalType": "uint256",
          "name": "",
          "type": "uint256"
        }
      ],
      "stateMutability": "view",
      "type": "function"
    },
    {
      "inputs": [],
      "name": "MAXIMUM_FLOW_RATE",
      "outputs": [
        {
          "internalType": "uint256",
          "name": "",
          "type": "uint256"
        }
      ],
      "stateMutability": "view",
      "type": "function"
    },
    {
      "inputs": [],
      "name": "agreementType",
      "outputs": [
        {
          "internalType": "bytes32",
          "name": "",
          "type": "bytes32"
        }
      ],
      "stateMutability": "pure",
      "type": "function"
    },
    {
      "inputs": [
        {
          "internalType": "contract ISuperfluidToken",
          "name": "token",
          "type": "address"
        },
        {
          "internalType": "address",
          "name": "flowOperator",
          "type": "address"
        },
        {
          "internalType": "bytes",
          "name": "ctx",
          "type": "bytes"
        }
      ],
      "name": "authorizeFlowOperatorWithFullControl",
      "outputs": [
        {
          "internalType": "bytes",
          "name": "newCtx",
          "type": "bytes"
        }
      ],
      "stateMutability": "nonpayable",
      "type": "function"
    },
    {
      "inputs": [],
      "name": "castrate",
      "outputs": [],
      "stateMutability": "nonpayable",
      "type": "function"
    },
    {
      "inputs": [],
      "name": "constantFlowAgreementHook",
      "outputs": [
        {
          "internalType": "contract IConstantFlowAgreementHook",
          "name": "",
          "type": "address"
        }
      ],
      "stateMutability": "view",
      "type": "function"
    },
    {
      "inputs": [
        {
          "internalType": "contract ISuperfluidToken",
          "name": "token",
          "type": "address"
        },
        {
          "internalType": "address",
          "name": "receiver",
          "type": "address"
        },
        {
          "internalType": "int96",
          "name": "flowRate",
          "type": "int96"
        },
        {
          "internalType": "bytes",
          "name": "ctx",
          "type": "bytes"
        }
      ],
      "name": "createFlow",
      "outputs": [
        {
          "internalType": "bytes",
          "name": "newCtx",
          "type": "bytes"
        }
      ],
      "stateMutability": "nonpayable",
      "type": "function"
    },
    {
      "inputs": [
        {
          "internalType": "contract ISuperfluidToken",
          "name": "token",
          "type": "address"
        },
        {
          "internalType": "address",
          "name": "sender",
          "type": "address"
        },
        {
          "internalType": "address",
          "name": "receiver",
          "type": "address"
        },
        {
          "internalType": "int96",
          "name": "flowRate",
          "type": "int96"
        },
        {
          "internalType": "bytes",
          "name": "ctx",
          "type": "bytes"
        }
      ],
      "name": "createFlowByOperator",
      "outputs": [
        {
          "internalType": "bytes",
          "name": "newCtx",
          "type": "bytes"
        }
      ],
      "stateMutability": "nonpayable",
      "type": "function"
    },
    {
      "inputs": [
        {
          "internalType": "contract ISuperfluidToken",
          "name": "token",
          "type": "address"
        },
        {
          "internalType": "address",
          "name": "sender",
          "type": "address"
        },
        {
          "internalType": "address",
          "name": "receiver",
          "type": "address"
        },
        {
          "internalType": "bytes",
          "name": "ctx",
          "type": "bytes"
        }
      ],
      "name": "deleteFlow",
      "outputs": [
        {
          "internalType": "bytes",
          "name": "newCtx",
          "type": "bytes"
        }
      ],
      "stateMutability": "nonpayable",
      "type": "function"
    },
    {
      "inputs": [
        {
          "internalType": "contract ISuperfluidToken",
          "name": "token",
          "type": "address"
        },
        {
          "internalType": "address",
          "name": "sender",
          "type": "address"
        },
        {
          "internalType": "address",
          "name": "receiver",
          "type": "address"
        },
        {
          "internalType": "bytes",
          "name": "ctx",
          "type": "bytes"
        }
      ],
      "name": "deleteFlowByOperator",
      "outputs": [
        {
          "internalType": "bytes",
          "name": "newCtx",
          "type": "bytes"
        }
      ],
      "stateMutability": "nonpayable",
      "type": "function"
    },
    {
      "inputs": [
        {
          "internalType": "contract ISuperfluidToken",
          "name": "token",
          "type": "address"
        },
        {
          "internalType": "address",
          "name": "account",
          "type": "address"
        }
      ],
      "name": "getAccountFlowInfo",
      "outputs": [
        {
          "internalType": "uint256",
          "name": "timestamp",
          "type": "uint256"
        },
        {
          "internalType": "int96",
          "name": "flowRate",
          "type": "int96"
        },
        {
          "internalType": "uint256",
          "name": "deposit",
          "type": "uint256"
        },
        {
          "internalType": "uint256",
          "name": "owedDeposit",
          "type": "uint256"
        }
      ],
      "stateMutability": "view",
      "type": "function"
    },
    {
      "inputs": [],
      "name": "getCodeAddress",
      "outputs": [
        {
          "internalType": "address",
          "name": "codeAddress",
          "type": "address"
        }
      ],
      "stateMutability": "view",
      "type": "function"
    },
    {
      "inputs": [
        {
          "internalType": "contract ISuperfluidToken",
          "name": "token",
          "type": "address"
        },
        {
          "internalType": "int96",
          "name": "flowRate",
          "type": "int96"
        }
      ],
      "name": "getDepositRequiredForFlowRate",
      "outputs": [
        {
          "internalType": "uint256",
          "name": "deposit",
          "type": "uint256"
        }
      ],
      "stateMutability": "view",
      "type": "function"
    },
    {
      "inputs": [
        {
          "internalType": "contract ISuperfluidToken",
          "name": "token",
          "type": "address"
        },
        {
          "internalType": "address",
          "name": "sender",
          "type": "address"
        },
        {
          "internalType": "address",
          "name": "receiver",
          "type": "address"
        }
      ],
      "name": "getFlow",
      "outputs": [
        {
          "internalType": "uint256",
          "name": "timestamp",
          "type": "uint256"
        },
        {
          "internalType": "int96",
          "name": "flowRate",
          "type": "int96"
        },
        {
          "internalType": "uint256",
          "name": "deposit",
          "type": "uint256"
        },
        {
          "internalType": "uint256",
          "name": "owedDeposit",
          "type": "uint256"
        }
      ],
      "stateMutability": "view",
      "type": "function"
    },
    {
      "inputs": [
        {
          "internalType": "contract ISuperfluidToken",
          "name": "token",
          "type": "address"
        },
        {
          "internalType": "bytes32",
          "name": "flowId",
          "type": "bytes32"
        }
      ],
      "name": "getFlowByID",
      "outputs": [
        {
          "internalType": "uint256",
          "name": "timestamp",
          "type": "uint256"
        },
        {
          "internalType": "int96",
          "name": "flowRate",
          "type": "int96"
        },
        {
          "internalType": "uint256",
          "name": "deposit",
          "type": "uint256"
        },
        {
          "internalType": "uint256",
          "name": "owedDeposit",
          "type": "uint256"
        }
      ],
      "stateMutability": "view",
      "type": "function"
    },
    {
      "inputs": [
        {
          "internalType": "contract ISuperfluidToken",
          "name": "token",
          "type": "address"
        },
        {
          "internalType": "address",
          "name": "sender",
          "type": "address"
        },
        {
          "internalType": "address",
          "name": "flowOperator",
          "type": "address"
        }
      ],
      "name": "getFlowOperatorData",
      "outputs": [
        {
          "internalType": "bytes32",
          "name": "flowOperatorId",
          "type": "bytes32"
        },
        {
          "internalType": "uint8",
          "name": "permissions",
          "type": "uint8"
        },
        {
          "internalType": "int96",
          "name": "flowRateAllowance",
          "type": "int96"
        }
      ],
      "stateMutability": "view",
      "type": "function"
    },
    {
      "inputs": [
        {
          "internalType": "contract ISuperfluidToken",
          "name": "token",
          "type": "address"
        },
        {
          "internalType": "bytes32",
          "name": "flowOperatorId",
          "type": "bytes32"
        }
      ],
      "name": "getFlowOperatorDataByID",
      "outputs": [
        {
          "internalType": "uint8",
          "name": "permissions",
          "type": "uint8"
        },
        {
          "internalType": "int96",
          "name": "flowRateAllowance",
          "type": "int96"
        }
      ],
      "stateMutability": "view",
      "type": "function"
    },
    {
      "inputs": [
        {
          "internalType": "contract ISuperfluidToken",
          "name": "token",
          "type": "address"
        },
        {
          "internalType": "uint256",
          "name": "deposit",
          "type": "uint256"
        }
      ],
      "name": "getMaximumFlowRateFromDeposit",
      "outputs": [
        {
          "internalType": "int96",
          "name": "flowRate",
          "type": "int96"
        }
      ],
      "stateMutability": "view",
      "type": "function"
    },
    {
      "inputs": [
        {
          "internalType": "contract ISuperfluidToken",
          "name": "token",
          "type": "address"
        },
        {
          "internalType": "address",
          "name": "account",
          "type": "address"
        }
      ],
      "name": "getNetFlow",
      "outputs": [
        {
          "internalType": "int96",
          "name": "flowRate",
          "type": "int96"
        }
      ],
      "stateMutability": "view",
      "type": "function"
    },
    {
      "inputs": [
        {
          "internalType": "contract ISuperfluidToken",
          "name": "token",
          "type": "address"
        },
        {
          "internalType": "address",
          "name": "account",
          "type": "address"
        },
        {
          "internalType": "uint256",
          "name": "timestamp",
          "type": "uint256"
        }
      ],
      "name": "isPatricianPeriod",
      "outputs": [
        {
          "internalType": "bool",
          "name": "",
          "type": "bool"
        }
      ],
      "stateMutability": "view",
      "type": "function"
    },
    {
      "inputs": [
        {
          "internalType": "contract ISuperfluidToken",
          "name": "token",
          "type": "address"
        },
        {
          "internalType": "address",
          "name": "account",
          "type": "address"
        }
      ],
      "name": "isPatricianPeriodNow",
      "outputs": [
        {
          "internalType": "bool",
          "name": "isCurrentlyPatricianPeriod",
          "type": "bool"
        },
        {
          "internalType": "uint256",
          "name": "timestamp",
          "type": "uint256"
        }
      ],
      "stateMutability": "view",
      "type": "function"
    },
    {
      "inputs": [],
      "name": "proxiableUUID",
      "outputs": [
        {
          "internalType": "bytes32",
          "name": "",
          "type": "bytes32"
        }
      ],
      "stateMutability": "view",
      "type": "function"
    },
    {
      "inputs": [
        {
          "internalType": "contract ISuperfluidToken",
          "name": "token",
          "type": "address"
        },
        {
          "internalType": "address",
          "name": "account",
          "type": "address"
        },
        {
          "internalType": "uint256",
          "name": "time",
          "type": "uint256"
        }
      ],
      "name": "realtimeBalanceOf",
      "outputs": [
        {
          "internalType": "int256",
          "name": "dynamicBalance",
          "type": "int256"
        },
        {
          "internalType": "uint256",
          "name": "deposit",
          "type": "uint256"
        },
        {
          "internalType": "uint256",
          "name": "owedDeposit",
          "type": "uint256"
        }
      ],
      "stateMutability": "view",
      "type": "function"
    },
    {
      "inputs": [
        {
          "internalType": "contract ISuperfluidToken",
          "name": "token",
          "type": "address"
        },
        {
          "internalType": "address",
          "name": "flowOperator",
          "type": "address"
        },
        {
          "internalType": "bytes",
          "name": "ctx",
          "type": "bytes"
        }
      ],
      "name": "revokeFlowOperatorWithFullControl",
      "outputs": [
        {
          "internalType": "bytes",
          "name": "newCtx",
          "type": "bytes"
        }
      ],
      "stateMutability": "nonpayable",
      "type": "function"
    },
    {
      "inputs": [
        {
          "internalType": "address",
          "name": "newAddress",
          "type": "address"
        }
      ],
      "name": "updateCode",
      "outputs": [],
      "stateMutability": "nonpayable",
      "type": "function"
    },
    {
      "inputs": [
        {
          "internalType": "contract ISuperfluidToken",
          "name": "token",
          "type": "address"
        },
        {
          "internalType": "address",
          "name": "receiver",
          "type": "address"
        },
        {
          "internalType": "int96",
          "name": "flowRate",
          "type": "int96"
        },
        {
          "internalType": "bytes",
          "name": "ctx",
          "type": "bytes"
        }
      ],
      "name": "updateFlow",
      "outputs": [
        {
          "internalType": "bytes",
          "name": "newCtx",
          "type": "bytes"
        }
      ],
      "stateMutability": "nonpayable",
      "type": "function"
    },
    {
      "inputs": [
        {
          "internalType": "contract ISuperfluidToken",
          "name": "token",
          "type": "address"
        },
        {
          "internalType": "address",
          "name": "sender",
          "type": "address"
        },
        {
          "internalType": "address",
          "name": "receiver",
          "type": "address"
        },
        {
          "internalType": "int96",
          "name": "flowRate",
          "type": "int96"
        },
        {
          "internalType": "bytes",
          "name": "ctx",
          "type": "bytes"
        }
      ],
      "name": "updateFlowByOperator",
      "outputs": [
        {
          "internalType": "bytes",
          "name": "newCtx",
          "type": "bytes"
        }
      ],
      "stateMutability": "nonpayable",
      "type": "function"
    },
    {
      "inputs": [
        {
          "internalType": "contract ISuperfluidToken",
          "name": "token",
          "type": "address"
        },
        {
          "internalType": "address",
          "name": "flowOperator",
          "type": "address"
        },
        {
          "internalType": "uint8",
          "name": "permissions",
          "type": "uint8"
        },
        {
          "internalType": "int96",
          "name": "flowRateAllowance",
          "type": "int96"
        },
        {
          "internalType": "bytes",
          "name": "ctx",
          "type": "bytes"
        }
      ],
      "name": "updateFlowOperatorPermissions",
      "outputs": [
        {
          "internalType": "bytes",
          "name": "newCtx",
          "type": "bytes"
        }
      ],
      "stateMutability": "nonpayable",
      "type": "function"
    }
  ],
  "bytecode": {
    "object": "0x60c06040523480156200001157600080fd5b50604051620055cc380380620055cc833981016040819052620000349162000065565b6001600160a01b039182166080521660a052620000a4565b6001600160a01b03811681146200006257600080fd5b50565b600080604083850312156200007957600080fd5b825162000086816200004c565b602084015190925062000099816200004c565b809150509250929050565b60805160a0516154d8620000f4600039600081816102e001528181611cdc01528181611d10015281816127e10152818161281501528181612ab40152612ae80152600061079701526154d86000f3fe608060405234801561001057600080fd5b50600436106101d95760003560e01c806352d1902d116101045780639903ad38116100a2578063b4b333c611610071578063b4b333c6146104a1578063bf3fbc28146104b4578063e6a1e888146104d6578063e8e7e2d1146104e957600080fd5b80639903ad38146104585780639b2e48bc146104605780639cb28b721461031a578063aabd26681461048e57600080fd5b80637730599e116100de5780637730599e146103f9578063811b3d401461041f5780638d997f6e1461043257806394229ecb1461044557600080fd5b806352d1902d146103cb57806354b770e3146103d357806362fc305e146103e657600080fd5b806326b0f5361161017c5780634c8b181f1161014b5780634c8b181f146103735780634fe9c2911461038657806350209a62146103b057806350d75d25146103c357600080fd5b806326b0f5361461031a578063354b959014610328578063469519541461033b5780634b839e0b1461035057600080fd5b8063062e56ec116101b8578063062e56ec1461025657806309d256ef146102765780630f1ac495146102a55780630f2f8f3c146102db57600080fd5b8062422bbe146101de57806304aafa49146102165780630602f7db14610230575b600080fd5b6101f16101ec3660046146ec565b6104fc565b6040805193845260ff9092166020840152600b0b908201526060015b60405180910390f35b61022264010000000081565b60405190815260200161020d565b61024361023e366004614737565b610532565b604051600b9190910b815260200161020d565b6102696102643660046147a4565b610553565b60405161020d9190614858565b610289610284366004614737565b61056d565b6040805160ff9093168352600b9190910b60208301520161020d565b6102b86102b336600461486b565b610591565b60408051948552600b9390930b602085015291830152606082015260800161020d565b6103027f000000000000000000000000000000000000000000000000000000000000000081565b6040516001600160a01b03909116815260200161020d565b61022260016001605f1b0381565b6102696103363660046148b6565b6105c7565b61034e610349366004614941565b61078c565b005b61036361035e36600461495e565b6107e1565b604051901515815260200161020d565b61026961038136600461499f565b6108b8565b61039961039436600461486b565b6109a3565b60408051921515835260208301919091520161020d565b6102696103be366004614a1a565b610a85565b610302610b58565b610222610b87565b6102696103e13660046147a4565b610beb565b6102696103f4366004614a1a565b610c03565b7fa9214cc96615e0085d3bb077758db69497dc2dce3b2b1e97bc93c3d18d83efd3610222565b61026961042d366004614a6a565b610cb6565b610222610440366004614aae565b610eb3565b6102696104533660046148b6565b6110e2565b61034e611265565b61047361046e36600461495e565b611373565b6040805193845260208401929092529082015260600161020d565b6102b861049c366004614737565b6113cd565b6102696104af36600461499f565b6113df565b6104be6203d09081565b6040516001600160401b03909116815260200161020d565b6102b86104e43660046146ec565b611473565b6102436104f736600461486b565b6114ae565b600080600061050b85856114c8565b925060006105198785611533565b8051602090910151959990985094965093945050505050565b60008061053e846115f8565b50905061054b8184611773565b949350505050565b606061056485856000808787610cb6565b95945050505050565b600080600061057c8585611533565b80516020909101519097909650945050505050565b60008060008060006105a387876117b3565b805160208201516040830151606090930151919b909a509198509650945050505050565b6060600061060b8885858080601f01602080910402602001604051908101604052809392919081815260200183838082843760009201919091525061186c92505050565b9050866001600160a01b031681606001516001600160a01b0316036106435760405163edfa0d3b60e01b815260040160405180910390fd5b6000806106598a6106548b8b611a30565b611a58565b9150915060008060006106718d8d88606001516104fc565b925092509250610682826001611a9f565b61069f5760405163ac434b5f60e01b815260040160405180910390fd5b6000600b82900b60016001605f1b0314806106c457508a600b0b8560200151600b0b12155b6106e65760208501516106d7908c614af9565b6106e19083614af9565b6106e8565b815b9050600081600b0b121561070f5760405163a0645c1f60e01b815260040160405180910390fd5b61071b8e858584611afa565b5050505061074960408051608081018252600080825260208201819052918101829052606081019190915290565b6001600160a01b03808c1682528a8116602083015289166040820152600b88900b606082015261077d8183858a8a89611b83565b9b9a5050505050505050505050565b336001600160a01b037f000000000000000000000000000000000000000000000000000000000000000016146107d557604051630b00ec8f60e11b815260040160405180910390fd5b6107de81611e3f565b50565b604051633acd4df360e21b81526001600160a01b03838116600483015260248201839052600091829186169063eb3537cc90604401606060405180830381865afa158015610833573d6000803e3d6000fd5b505050506040513d601f19601f820116820180604052508101906108579190614b26565b505090506000811261086d5760019150506108b1565b600080610879876115f8565b91509150600061088988886117b3565b915050600061089b8260400151612047565b90506108a9858286866120b5565b955050505050505b9392505050565b606060006108fc8785858080601f01602080910402602001604051908101604052809392919081815260200183838082843760009201919091525061186c92505050565b9050600061090f888884606001516104fc565b509150506000610920826002611a9f565b9050806109405760405163e30f1bff60e01b815260040160405180910390fd5b6040805160808101825260008082526020820181905291810182905260608101919091525b6001600160a01b03808b168252898116602083015288166040820152600060608201526109958183898988612103565b9a9950505050505050505050565b6000806000846001600160a01b03166320bc44256040518163ffffffff1660e01b8152600401602060405180830381865afa1580156109e6573d6000803e3d6000fd5b505050506040513d601f19601f82011682018060405250810190610a0a9190614b5f565b9050806001600160a01b031663bbe4fd506040518163ffffffff1660e01b8152600401602060405180830381865afa158015610a4a573d6000803e3d6000fd5b505050506040513d601f19601f82011682018060405250810190610a6e9190614b7c565b9150610a7b8585846107e1565b9250509250929050565b60606000610ac98785858080601f01602080910402602001604051908101604052809392919081815260200183838082843760009201919091525061186c92505050565b9050610af560408051608081018252600080825260208201819052918101829052606081019190915290565b6001600160a01b03808916825260608084015182166020840181905291891660408401819052600b89900b91840191909152600091610b3391611a30565b9050600080610b46846000015184611a58565b9150915061077d8482848b8b8a611b83565b6000610b827f360894a13ba1a3210667c828492db98dca3e2076cc3735a920a3ca505d382bbc5490565b905090565b6000306001600160a01b0316637730599e6040518163ffffffff1660e01b8152600401602060405180830381865afa158015610bc7573d6000803e3d6000fd5b505050506040513d601f19601f82011682018060405250810190610b829190614b7c565b60606105648585600760016001605f1b038787610cb6565b60606000610c478785858080601f01602080910402602001604051908101604052809392919081815260200183838082843760009201919091525061186c92505050565b9050610c7360408051608081018252600080825260208201819052918101829052606081019190915290565b6001600160a01b038089168252606080840151821660208401529088166040830152600b87900b90820152610caa81868685612946565b98975050505050505050565b606082828080601f016020809104026020016040519081016040528093929190818152602001838380828437600092019190915250929350610cfd9250879150612c129050565b610d1a57604051631e4e759b60e21b815260040160405180910390fd5b6000610d5c8885858080601f01602080910402602001604051908101604052809392919081815260200183838082843760009201919091525061186c92505050565b9050866001600160a01b031681606001516001600160a01b031603610d945760405163b0ed394d60e01b815260040160405180910390fd5b600085600b0b1215610db9576040516386e0377d60e01b815260040160405180910390fd5b6040805180820190915260ff87168152600b86900b60208201526060820151600090610de5908a6114c8565b9050896001600160a01b031663a1b2bf8b82610e0085612c19565b6040518363ffffffff1660e01b8152600401610e1d929190614bd0565b600060405180830381600087803b158015610e3757600080fd5b505af1158015610e4b573d6000803e3d6000fd5b50505060608401516040805160ff8c168152600b8b900b60208201526001600160a01b03808e169450928316928e16917fc0d5d3a6ac18cc1769788c925e6e7fc89cd47e4270a42884736fa9b3ec09f3a8910160405180910390a45050509695505050505050565b600081600b0b600003610ec8575060006110dc565b6000836001600160a01b03166320bc44256040518163ffffffff1660e01b8152600401602060405180830381865afa158015610f08573d6000803e3d6000fd5b505050506040513d601f19601f82011682018060405250810190610f2c9190614b5f565b90506000816001600160a01b031663289b3c0d6040518163ffffffff1660e01b8152600401602060405180830381865afa158015610f6e573d6000803e3d6000fd5b505050506040513d601f19601f82011682018060405250810190610f929190614b5f565b90506000816001600160a01b03166380f70cba84887feae305fa863b373417e615b1044222e2806cefc7788d169ce6748a443c3f6cc46040518463ffffffff1660e01b8152600401610fe693929190614be9565b602060405180830381865afa158015611003573d6000803e3d6000fd5b505050506040513d601f19601f820116820180604052508101906110279190614b7c565b90506000826001600160a01b03166380f70cba85897fe420d96e81cb4a6b2abb2366c4f93312d4e2ae878a7d4b22e73472fdad891f786040518463ffffffff1660e01b815260040161107b93929190614be9565b602060405180830381865afa158015611098573d6000803e3d6000fd5b505050506040513d601f19601f820116820180604052508101906110bc9190614b7c565b9050602081901c63ffffffff166110d4838289612c8f565b955050505050505b92915050565b606060006111268885858080601f01602080910402602001604051908101604052809392919081815260200183838082843760009201919091525061186c92505050565b9050866001600160a01b031681606001516001600160a01b03160361115e576040516325cc989b60e11b815260040160405180910390fd5b60008060006111728b8b86606001516104fc565b925092509250611183826000611a9f565b6111a0576040516328faadab60e21b815260040160405180910390fd5b6000600b82900b60016001605f1b03146111c3576111be8983614af9565b6111c5565b815b9050600081600b0b12156111ec5760405163a0645c1f60e01b815260040160405180910390fd5b6111f88c858584611afa565b5050505061122660408051608081018252600080825260208201819052918101829052606081019190915290565b6001600160a01b03808a168252888116602083015287166040820152600b86900b606082015261125881868685612946565b9998505050505050505050565b600054610100900460ff16158080156112855750600054600160ff909116105b8061129f5750303b15801561129f575060005460ff166001145b6113075760405162461bcd60e51b815260206004820152602e60248201527f496e697469616c697a61626c653a20636f6e747261637420697320616c72656160448201526d191e481a5b9a5d1a585b1a5e995960921b60648201526084015b60405180910390fd5b6000805460ff19166001179055801561132a576000805461ff0019166101001790555b80156107de576000805461ff0019169055604051600181527f7f26b83ff96e1f2b6a682f133852f6798a09c465da95921460cefb3847402498906020015b60405180910390a150565b600080600080600061138588886117b3565b9150915081156113c2578060200151600b0b8160000151876113a79190614c0d565b6113b19190614c34565b945080604001519350806060015192505b505093509350939050565b60008060008060006105a38787611a58565b606060006114238785858080601f01602080910402602001604051908101604052809392919081815260200183838082843760009201919091525061186c92505050565b90506000611436888884606001516104fc565b509150506000611447826002611a9f565b905061096560408051608081018252600080825260208201819052918101829052606081019190915290565b6000806000806000611489886106548989611a30565b805160208201516040830151606090930151919c909b50919950975095505050505050565b6000806114bb84846117b3565b6020015195945050505050565b600082826040516020016115159291906060808252600c908201526b333637bba7b832b930ba37b960a11b60808201526001600160a01b0392831660208201529116604082015260a00190565b60405160208183030381529060405280519060200120905092915050565b6040805180820182526000808252602082018190529151636c2d9f2f60e01b8152306004820152602481018490526001604482015282906001600160a01b03861690636c2d9f2f90606401600060405180830381865afa15801561159b573d6000803e3d6000fd5b505050506040513d6000823e601f3d908101601f191682016040526115c39190810190614d28565b90506115eb816000815181106115db576115db614dc1565b602002602001015160001c612d02565b92509250505b9250929050565b6000806000836001600160a01b03166320bc44256040518163ffffffff1660e01b8152600401602060405180830381865afa15801561163b573d6000803e3d6000fd5b505050506040513d601f19601f8201168201806040525081019061165f9190614b5f565b90506000816001600160a01b031663289b3c0d6040518163ffffffff1660e01b8152600401602060405180830381865afa1580156116a1573d6000803e3d6000fd5b505050506040513d601f19601f820116820180604052508101906116c59190614b5f565b90506000816001600160a01b03166380f70cba84887fe420d96e81cb4a6b2abb2366c4f93312d4e2ae878a7d4b22e73472fdad891f786040518463ffffffff1660e01b815260040161171993929190614be9565b602060405180830381865afa158015611736573d6000803e3d6000fd5b505050506040513d601f19601f8201168201806040525081019061175a9190614b7c565b63ffffffff602082901c81169891169650945050505050565b600060016001605f1b0382111561179d57604051631d4b0ae760e21b815260040160405180910390fd5b63ffffffff1982169150600061054b8484614ded565b60006117bd614625565b604051634b61cc3360e01b81523060048201526001600160a01b038481166024830152600060448301819052600160648401529190861690634b61cc33906084015b600060405180830381865afa15801561181c573d6000803e3d6000fd5b505050506040513d6000823e601f3d908101601f191682016040526118449190810190614d28565b90506115eb8160008151811061185c5761185c614dc1565b602002602001015160001c612d42565b611874614650565b336001600160a01b0316836001600160a01b03166320bc44256040518163ffffffff1660e01b8152600401602060405180830381865afa1580156118bc573d6000803e3d6000fd5b505050506040513d601f19601f820116820180604052508101906118e09190614b5f565b6001600160a01b03161461192a5760405162461bcd60e51b81526020600482015260116024820152701d5b985d5d1a1bdc9a5e9959081a1bdcdd607a1b60448201526064016112fe565b604051632fd0a1cd60e21b8152339063bf4287349061194d908590600401614858565b602060405180830381865afa15801561196a573d6000803e3d6000fd5b505050506040513d601f19601f8201168201806040525081019061198e9190614e11565b6119c85760405162461bcd60e51b815260206004820152600b60248201526a0d2dcecc2d8d2c840c6e8f60ab1b60448201526064016112fe565b604051631fb6491d60e11b81523390633f6c923a906119eb908590600401614858565b600060405180830381865afa158015611a08573d6000803e3d6000fd5b505050506040513d6000823e601f3d908101601f191682016040526108b19190810190614eb2565b604080516001600160a01b038085166020830152831691810191909152600090606001611515565b6000611a62614625565b604051636c2d9f2f60e01b815230600482015260248101849052600160448201526000906001600160a01b03861690636c2d9f2f906064016117ff565b600080826002811115611ab457611ab4614fb8565b03611ac557506001828116146110dc565b6001826002811115611ad957611ad9614fb8565b03611aec5750600182811c8116146110dc565b505060021c60019081161490565b6040805180820190915260ff83168152600b82900b60208201526001600160a01b03851663a1b2bf8b85611b2d84612c19565b6040518363ffffffff1660e01b8152600401611b4a929190614bd0565b600060405180830381600087803b158015611b6457600080fd5b505af1158015611b78573d6000803e3d6000fd5b505050505050505050565b60606000611b918884612da2565b91505085611bb25760405163168cafc960e21b815260040160405180910390fd5b6040888101519051631e51d6a760e11b81526001600160a01b0390911660048201523390633ca3ad4e90602401602060405180830381865afa158015611bfc573d6000803e3d6000fd5b505050506040513d601f19601f82011682018060405250810190611c209190614e11565b15611c7c57611c7588604001518960000151838a89898080601f0160208091040260200160405190810160405280939291908181526020018383808284376000920191909152508b925060019150612ea39050565b9150611cc7565b611cc48860000151828988888080601f0160208091040260200160405190810160405280939291908181526020018383808284376000920191909152508a9250613649915050565b91505b611cda886000015189602001518561371c565b7f00000000000000000000000000000000000000000000000000000000000000006001600160a01b031615611e345760005a90507f00000000000000000000000000000000000000000000000000000000000000006001600160a01b0316636ac5bc316203d0906001600160401b03168b60000151604051806080016040528087602001516001600160a01b0316815260200187604001516001600160a01b0316815260200187606001516001600160a01b031681526020018760800151600b0b8152508c602001516040518563ffffffff1660e01b8152600401611dc193929190614fce565b60206040518083038160008887f193505050508015611dfd575060408051601f3d908101601f19168201909252611dfa91810190614e11565b60015b611e3057611e0c603f82614ded565b5a11611e2b57604051639f76430b60e01b815260040160405180910390fd5b611e32565b505b505b509695505050505050565b6000611e697f360894a13ba1a3210667c828492db98dca3e2076cc3735a920a3ca505d382bbc5490565b6001600160a01b031603611ebf5760405162461bcd60e51b815260206004820152601d60248201527f5555505350726f786961626c653a206e6f742075706772616461626c6500000060448201526064016112fe565b806001600160a01b03166352d1902d6040518163ffffffff1660e01b8152600401602060405180830381865afa158015611efd573d6000803e3d6000fd5b505050506040513d601f19601f82011682018060405250810190611f219190614b7c565b611f29610b87565b14611f825760405162461bcd60e51b815260206004820152602360248201527f5555505350726f786961626c653a206e6f7420636f6d70617469626c65206c6f60448201526267696360e81b60648201526084016112fe565b6001600160a01b0381163003611fda5760405162461bcd60e51b815260206004820152601960248201527f5555505350726f786961626c653a2070726f7879206c6f6f700000000000000060448201526064016112fe565b612002817f360894a13ba1a3210667c828492db98dca3e2076cc3735a920a3ca505d382bbc55565b7fe011bc04c286c344a8fcbb8de77f953da762c3e25d8cdea984147fc4168a5dcc61202b610b87565b604080519182526001600160a01b038416602083015201611368565b60006001600160ff1b038211156120b15760405162461bcd60e51b815260206004820152602860248201527f53616665436173743a2076616c756520646f65736e27742066697420696e2061604482015267371034b73a191a9b60c11b60648201526084016112fe565b5090565b6000836000036120c75750600061054b565b60006120d3858761502d565b905060006120e18587615055565b90506120ed8486615083565b6120f78284615055565b13979650505050505050565b6040805160c0810182526000808252602082018190529181018290526060818101839052608082019290925260a0810182905260208701516001600160a01b031661216157604051631ce9b06760e01b815260040160405180910390fd5b60408701516001600160a01b031661218c57604051633c70159560e11b815260040160405180910390fd5b61219e87602001518860400151611a30565b8082526020808901516001600160a01b03908116918401919091526040808a01518216908401526060808601519091169083015260006080830181905260a080860151908401528851909182916121f491611a58565b91509150816122165760405163168cafc960e21b815260040160405180910390fd5b885160208a01516040808801519051633acd4df360e21b81526000936001600160a01b03169263eb3537cc92612262926004016001600160a01b03929092168252602082015260400190565b606060405180830381865afa15801561227f573d6000803e3d6000fd5b505050506040513d601f19601f820116820180604052508101906122a39190614b26565b5050905089602001516001600160a01b031686606001516001600160a01b0316141580156122eb575089604001516001600160a01b031686606001516001600160a01b031614155b80156122f5575088155b156124065760208a0151604051636b4f333560e01b81526001600160a01b0390911660048201523390636b4f333590602401602060405180830381865afa158015612344573d6000803e3d6000fd5b505050506040513d601f19601f820116820180604052508101906123689190614e11565b1580156123e0575060408a8101519051636b4f333560e01b81526001600160a01b0390911660048201523390636b4f333590602401602060405180830381865afa1580156123ba573d6000803e3d6000fd5b505050506040513d601f19601f820116820180604052508101906123de9190614e11565b155b1561240657600081126124065760405163ce11b5d160e01b815260040160405180910390fd5b6000811215612424576124248a600001518286858a606001516137f6565b87878080601f01602080910402602001604051908101604052809392919081815260200183838082843760009201919091525050505060208b015160608801519196506001600160a01b0390811691160361251a5760408a8101519051631e51d6a760e11b81526001600160a01b0390911660048201523390633ca3ad4e90602401602060405180830381865afa1580156124c3573d6000803e3d6000fd5b505050506040513d601f19601f820116820180604052508101906124e79190614e11565b1561250b576125048a604001518b600001518685898b6002612ea3565b94506127df565b8951612504908584888a613649565b89604001516001600160a01b031686606001516001600160a01b03160361264e5760208a0151604051631e51d6a760e11b81526001600160a01b0390911660048201523390633ca3ad4e90602401602060405180830381865afa158015612585573d6000803e3d6000fd5b505050506040513d601f19601f820116820180604052508101906125a99190614e11565b156125c6576125048a602001518b600001518685898b6002612ea3565b60408a8101519051631e51d6a760e11b81526001600160a01b0390911660048201523390633ca3ad4e90602401602060405180830381865afa158015612610573d6000803e3d6000fd5b505050506040513d601f19601f820116820180604052508101906126349190614e11565b1561250b5761250460008b600001518685898b6002612ea3565b60208a0151604051631e51d6a760e11b81526001600160a01b0390911660048201523390633ca3ad4e90602401602060405180830381865afa158015612698573d6000803e3d6000fd5b505050506040513d601f19601f820116820180604052508101906126bc9190614e11565b80156126c85750600081125b156127425760208a0151604051635b92108f60e11b8152339163b724211e916126f8918991600b90600401615096565b6000604051808303816000875af1158015612717573d6000803e3d6000fd5b505050506040513d6000823e601f3d908101601f1916820160405261273f91908101906150c4565b94505b60408a8101519051631e51d6a760e11b81526001600160a01b0390911660048201523390633ca3ad4e90602401602060405180830381865afa15801561278c573d6000803e3d6000fd5b505050506040513d601f19601f820116820180604052508101906127b09190614e11565b156127cd576125048a604001518b600001518685898b6002612ea3565b89516127dc908584888a613649565b94505b7f00000000000000000000000000000000000000000000000000000000000000006001600160a01b0316156129395760005a90507f00000000000000000000000000000000000000000000000000000000000000006001600160a01b0316632742e95a6203d0906001600160401b03168d6000015160405180608001604052808a602001516001600160a01b031681526020018a604001516001600160a01b031681526020018a606001516001600160a01b031681526020018a60800151600b0b81525087602001516040518563ffffffff1660e01b81526004016128c693929190614fce565b60206040518083038160008887f193505050508015612902575060408051601f3d908101601f191682019092526128ff91810190614e11565b60015b61293557612911603f82614ded565b5a1161293057604051639f76430b60e01b815260040160405180910390fd5b612937565b505b505b5050505095945050505050565b60606000806129558785612da2565b9150915060008061296a896000015185611a58565b91509150811561298d5760405163801b686360e01b815260040160405180910390fd5b6040898101519051631e51d6a760e11b81526001600160a01b0390911660048201523390633ca3ad4e90602401602060405180830381865afa1580156129d7573d6000803e3d6000fd5b505050506040513d601f19601f820116820180604052508101906129fb9190614e11565b15612a5457612a4d89604001518a6000015185848c8c8080601f01602080910402602001604051908101604052809392919081815260200183838082843760009201829052508f93509150612ea39050565b9450612a9f565b612a9c896000015184838b8b8080601f0160208091040260200160405190810160405280939291908181526020018383808284376000920191909152508d9250613649915050565b94505b612ab289600001518a602001518861371c565b7f00000000000000000000000000000000000000000000000000000000000000006001600160a01b031615612c065760005a90507f00000000000000000000000000000000000000000000000000000000000000006001600160a01b031663e3d8fefe6203d0906001600160401b03168c60000151604051806080016040528089602001516001600160a01b0316815260200189604001516001600160a01b0316815260200189606001516001600160a01b031681526020018960800151600b0b8152506040518463ffffffff1660e01b8152600401612b939291906150f8565b60206040518083038160008887f193505050508015612bcf575060408051601f3d908101601f19168201909252612bcc91810190614e11565b60015b612c0257612bde603f82614ded565b5a11612bfd57604051639f76430b60e01b815260040160405180910390fd5b612c04565b505b505b50505050949350505050565b60f8161590565b606060008260200151600b0b1215612c3357612c33615146565b60408051600180825281830190925290602080830190803683370190505090508160200151600b0b6080836000015160ff16901b1760001b81600081518110612c7e57612c7e614dc1565b602002602001018181525050919050565b60008082600b0b1215612cb5576040516348d6568b60e11b815260040160405180910390fd5b60016001605f1b03612ccb84600b85900b61515c565b1115612cea57604051630c9c55c160e01b815260040160405180910390fd5b6000612cf68385613a02565b90506105648582613a46565b6040805180820190915260008082526020820152811580159190612d3d5760016001605f1b038316600b0b6020820152608083901c60ff1681525b915091565b6000612d4c614625565b821580159250612d3d5760e083901c8152608083901c6bffffffffffffffffffffffff16600b0b6020808301919091526bffffffffffffffff0000000084821c811660408401529084901b166060820152915091565b6040805160c08101825260008082526020820181905291810182905260608082018390526080820183905260a082015260408401516001600160a01b0316612dfd57604051633c70159560e11b815260040160405180910390fd5b612e0f84602001518560400151611a30565b8082526020808601516001600160a01b0390811691840182905260408088015182169085018190526060808801519092168286015290870151600b0b608085015260a0808701519085015291935003612e7b5760405163a47338ef60e01b815260040160405180910390fd5b60008160800151600b0b136115f1576040516348d6568b60e11b815260040160405180910390fd5b82612eac6146ab565b6001600160a01b038916156131b0576000612f41898b8a600001518b602001518c60400151604051602001612ef79291906001600160a01b0392831681529116602082015260400190565b60408051601f1981840301815260e08301825260006080840181905260a0840181905260c08401526001600160a01b03958616835293909416602082015292830152606082015290565b90506000846002811115612f5757612f57614fb8565b03612f6c5764010000000060c0820152612fa1565b6001846002811115612f8057612f80614fb8565b03612f955764040000000060c0820152612fa1565b64100000000060c08201525b612fab8187613a5c565b82600001819052506000336001600160a01b031663289b3c0d6040518163ffffffff1660e01b8152600401602060405180830381865afa158015612ff3573d6000803e3d6000fd5b505050506040513d601f19601f820116820180604052508101906130179190614b5f565b905061302f86604001518761014001518c8c8c613c13565b5060808401525060405163407b865d60e11b81526000906001600160a01b038316906380f70cba906130899033908f907feae305fa863b373417e615b1044222e2806cefc7788d169ce6748a443c3f6cc490600401614be9565b602060405180830381865afa1580156130a6573d6000803e3d6000fd5b505050506040513d601f19601f820116820180604052508101906130ca9190614b7c565b9050600083608001516000146130ee576130e964010000000083613a46565b6130f1565b60005b9050808460800151613103919061517b565b608085015260608a015161311690612047565b60a0850152600087600281111561312f5761312f614fb8565b036131445764020000000060c0850152613179565b600187600281111561315857613158614fb8565b0361316d5764080000000060c0850152613179565b64200000000060c08501525b61318884866000015188613ff7565b60408701919091528b519096506131a0908d90611a58565b6020870152506131ce9350505050565b6131c684604001518561014001518a8a8a613c13565b602084015250505b60006131dd8760600151612047565b826040015161010001516131f19190614c0d565b905061321781613208846020015160400151612047565b613212919061502d565b614243565b8260200151604001818152505061323981613208846020015160600151612047565b60208301805160600191909152885190516001600160a01b038b169163a1b2bf8b9161326490614295565b6040518363ffffffff1660e01b8152600401613281929190614bd0565b600060405180830381600087803b15801561329b57600080fd5b505af11580156132af573d6000803e3d6000fd5b505050506132cb89896020015160008460008a60400151614306565b506132e3898960400151600080858a60400151614306565b506101408501516001600160a01b031615806133155750886001600160a01b03168561014001516001600160a01b0316145b15613389576040516359a2914160e01b815233906359a291419061333f908690859060040161518e565b6000604051808303816000875af115801561335e573d6000803e3d6000fd5b505050506040513d6000823e601f3d908101601f1916820160405261338691908101906150c4565b92505b6040888101519051631e51d6a760e11b81526001600160a01b0390911660048201523390633ca3ad4e90602401602060405180830381865afa1580156133d3573d6000803e3d6000fd5b505050506040513d601f19601f820116820180604052508101906133f79190614e11565b1561363c57604088810151868201519151633acd4df360e21b81526001600160a01b0391821660048201526024810192909252600091908b169063eb3537cc90604401606060405180830381865afa158015613457573d6000803e3d6000fd5b505050506040513d601f19601f8201168201806040525081019061347b9190614b26565b5090915050600081121561363a57600285600281111561349d5761349d614fb8565b0361361e576040808a01519051635b92108f60e11b8152339163b724211e916134cd918891600c90600401615096565b6000604051808303816000875af11580156134ec573d6000803e3d6000fd5b505050506040513d6000823e601f3d908101601f1916820160405261351491908101906150c4565b93506000613532613524836151b0565b61352d856151b0565b614477565b90508a6001600160a01b031663cf97256d8b6020015183613552906151b0565b6040516001600160e01b031960e085901b1681526001600160a01b0390921660048301526024820152604401600060405180830381600087803b15801561359857600080fd5b505af11580156135ac573d6000803e3d6000fd5b5050505060408a810151905163cf97256d60e01b81526001600160a01b03918216600482015260248101839052908c169063cf97256d90604401600060405180830381600087803b15801561360057600080fd5b505af1158015613614573d6000803e3d6000fd5b505050505061363a565b60405163a85ba64f60e01b8152600c60048201526024016112fe565b505b5050979650505050505050565b6060838101511561365c5761365c615146565b6000613666614625565b61367c84604001518561014001518a8a8a613c13565b6101408701519294509250506001600160a01b03808a1691160361370d576040516359a2914160e01b815233906359a29141906136bf908890869060040161518e565b6000604051808303816000875af11580156136de573d6000803e3d6000fd5b505050506040513d6000823e601f3d908101601f1916820160405261370691908101906150c4565b9250613711565b8492505b505095945050505050565b602081015160ff16600314158061374a5750826001600160a01b03168161014001516001600160a01b031614155b156137f1576040808201519051633acd4df360e21b81526001600160a01b038481166004830152602482019290925260009185169063eb3537cc90604401606060405180830381865afa1580156137a5573d6000803e3d6000fd5b505050506040513d601f19601f820116820180604052508101906137c99190614b26565b5050905060008112156137ef5760405163ea76c9b360e01b815260040160405180910390fd5b505b505050565b60006138068685602001516117b3565b91505060006138188460400151612047565b905060006138298360400151612047565b9050606060008061383a848b61502d565b90506000806138488d6115f8565b915091506138588c8784846120b5565b9350505060008112613943576000846138718388614c34565b61387b9190615055565b905060018361388b57600161388e565b60005b6040805160ff9384166020820152929091169082015260600160405160208183030381529060405293508b6001600160a01b0316631863e8098b60000151868b878f602001516138dd88614243565b6138e989600019614c34565b6040518863ffffffff1660e01b815260040161390b97969594939291906151cc565b600060405180830381600087803b15801561392557600080fd5b505af1158015613939573d6000803e3d6000fd5b50505050506139f5565b6040805160016020820152600291810191909152859060600160405160208183030381529060405293508b6001600160a01b0316631863e8098b60000151868b60008f6020015161399388614243565b61399f8a600019614c34565b6040518863ffffffff1660e01b81526004016139c197969594939291906151cc565b600060405180830381600087803b1580156139db57600080fd5b505af11580156139ef573d6000803e3d6000fd5b50505050505b5050505050505050505050565b600082600b0b600003613a17575060006110dc565b60016001605f1b03821115613a2e57613a2e615146565b613a388284615219565b600b0b90506108b18161448c565b6000818311613a5557816108b1565b5090919050565b6020820151604051633e7d48bd60e21b81526001600160a01b03909116600482015260609060009081908190339063f9f522f490602401606060405180830381865afa158015613ab0573d6000803e3d6000fd5b505050506040513d601f19601f82011682018060405250810190613ad491906152ae565b91945092509050828015613ae6575081155b15613c0a576000613af786886144c0565b90508660c001518216600003613bfc576000613b168860c0015161453e565b88516040808b015160608c015182516000815260208101909352613b42939230929190604481016152ea565b60408051601f19818403018152918152602080830180516001600160e01b03166001600160e01b031990951694909417909352918a015160c08b01519251633a020f0160e11b815291935033926374041e0292613bb1929186916410000000009190911490889060040161532f565b6000604051808303816000875af1158015613bd0573d6000803e3d6000fd5b505050506040513d6000823e601f3d908101601f19168201604052613bf891908101906150c4565b9550505b613c078660006145d5565b50505b50505092915050565b600080613c1e614625565b6000806000613c2c896115f8565b5090506000336001600160a01b031663289b3c0d6040518163ffffffff1660e01b8152600401602060405180830381865afa158015613c6f573d6000803e3d6000fd5b505050506040513d601f19601f82011682018060405250810190613c939190614b5f565b60405163407b865d60e11b81529091506001600160a01b038216906380f70cba90613ce69033908e907feae305fa863b373417e615b1044222e2806cefc7788d169ce6748a443c3f6cc490600401614be9565b602060405180830381865afa158015613d03573d6000803e3d6000fd5b505050506040513d601f19601f82011682018060405250810190613d279190614b7c565b9250613d37896080015183613a02565b95505050613d488660600151612047565b613d558760400151612047565b613d5e86612047565b613d689190614c0d565b613d72919061502d565b9450613d85856132088860400151612047565b91508082108015613d9d575060008760800151600b0b135b15613ddf57613daf8660600151612047565b613dbc8760400151612047565b613dc583612047565b613dcf9190614c0d565b613dd9919061502d565b94508091505b6001600160a01b03891615801590613e095750876001600160a01b0316896001600160a01b031614155b15613e1357600093505b604051806080016040528060008960800151600b0b13613e34576000613e36565b8b5b81526020018860800151600b0b815260200183815260200187606001518152509250876001600160a01b031663a1b2bf8b8860000151613e7586614295565b6040518363ffffffff1660e01b8152600401613e92929190614bd0565b600060405180830381600087803b158015613eac57600080fd5b505af1158015613ec0573d6000803e3d6000fd5b505060408051808201909152600080825260208201529250613ee0915050565b613f0688886020015189608001518960200151613efd9190614af9565b8860008f614306565b600b0b8152604087015160208701516080890151613f35928b929091613f2c9190614af9565b6000808f614306565b600b0b60208083018290526040808a0151918a015160808b0151855160a08d015193516001600160a01b0395861696938616958f16947f57269d2ebcccecdcc0d9d2c0a0b80ead95f344e28ec20f50f709811f209d4e0e94613f9b949392909190615378565b60405180910390a486606001516001600160a01b03167f71e0c98e270fc3084227b473f176924d5303ece8c639e679998a2d7dc8e70f7483604051613fe291815260200190565b60405180910390a25050955095509592505050565b613fff614650565b6020840151604051633e7d48bd60e21b81526001600160a01b03909116600482015260609060009081908190339063f9f522f490602401606060405180830381865afa158015614053573d6000803e3d6000fd5b505050506040513d601f19601f8201168201806040525081019061407791906152ae565b8896509194509250905082801561408c575081155b156142385761409b84896144c0565b93508760c0015181166000036142265760006140ba8960c0015161453e565b89516040808c015160608d0151825160008152602081019093526140e89392309291908e90604481016153b0565b60408051601f19818403018152918152602080830180516001600160e01b03166001600160e01b031990951694909417909352918b015160c08c0151925163079b42a160e21b81529193503392631e6d0a84926141579291869164200000000091909114908b9060040161532f565b6000604051808303816000875af1158015614176573d6000803e3d6000fd5b505050506040513d6000823e601f3d908101601f1916820160405261419e91908101906150c4565b604051631fb6491d60e11b81529095503390633f6c923a906141c4908890600401614858565b600060405180830381865afa1580156141e1573d6000803e3d6000fd5b505050506040513d6000823e601f3d908101601f191682016040526142099190810190614eb2565b955061421e89608001518761010001516145fd565b610100870152505b614235868661010001516145d5565b93505b505050935093915050565b6000808212156120b15760405162461bcd60e51b815260206004820181905260248201527f53616665436173743a2076616c7565206d75737420626520706f73697469766560448201526064016112fe565b6040805160018082528183019092526060916020808301908036833701905050905060208260600151901c604060208460400151901c901b608084602001516bffffffffffffffffffffffff16901b60e08560000151901b17171760001b81600081518110612c7e57612c7e614dc1565b60008061431388886117b3565b91505060008160200151600b0b6143388360000151866143339190615083565b612047565b6143429190614c34565b905080156143ad5760405163cf97256d60e01b81526001600160a01b038981166004830152602482018390528a169063cf97256d90604401600060405180830381600087803b15801561439457600080fd5b505af11580156143a8573d6000803e3d6000fd5b505050505b8682602001516143bd9190615409565b600b0b602083015283825260408201516143dc90879061320890612047565b604083015260608201516143f590869061320890612047565b60608301526001600160a01b03891663090c415e89600061441586614295565b6040518463ffffffff1660e01b815260040161443393929190615436565b600060405180830381600087803b15801561444d57600080fd5b505af1158015614461573d6000803e3d6000fd5b5050506020909201519998505050505050505050565b600081831361448657826108b1565b50919050565b60008063ffffffff83166144a15760006144a4565b60015b60ff16905060206144b78285831c61517b565b901b9392505050565b6020810151608082015160a08301518351604051630768fabb60e41b8152606094339463768fabb0946144f7948a9460040161545d565b6000604051808303816000875af1158015614516573d6000803e3d6000fd5b505050506040513d6000823e601f3d908101601f191682016040526108b191908101906150c4565b6000640100000000820361455a57506330d9c91560e01b919050565b64040000000082036145745750630221347d60e61b919050565b641000000000820361458e5750635f9e7d7760e01b919050565b64020000000082036145a8575063d86ed3e560e01b919050565b64080000000082036145c2575063230dbd2960e01b919050565b506353c11f9960e01b919050565b919050565b604051634c4d861f60e11b8152606090339063989b0c3e906144f7908690869060040161518e565b60006108b1600061461661461086612047565b85614477565b6000818313613a5557816108b1565b6040518060800160405280600081526020016000600b0b815260200160008152602001600081525090565b604080516101608101825260008082526020820181905291810182905260608082018390526080820183905260a082015260c0810182905260e081018290526101008101829052610120810182905261014081019190915290565b6040518060600160405280606081526020016146c5614625565b81526020016146d2614650565b905290565b6001600160a01b03811681146107de57600080fd5b60008060006060848603121561470157600080fd5b833561470c816146d7565b9250602084013561471c816146d7565b9150604084013561472c816146d7565b809150509250925092565b6000806040838503121561474a57600080fd5b8235614755816146d7565b946020939093013593505050565b60008083601f84011261477557600080fd5b5081356001600160401b0381111561478c57600080fd5b6020830191508360208285010111156115f157600080fd5b600080600080606085870312156147ba57600080fd5b84356147c5816146d7565b935060208501356147d5816146d7565b925060408501356001600160401b038111156147f057600080fd5b6147fc87828801614763565b95989497509550505050565b60005b8381101561482357818101518382015260200161480b565b50506000910152565b60008151808452614844816020860160208601614808565b601f01601f19169290920160200192915050565b6020815260006108b1602083018461482c565b6000806040838503121561487e57600080fd5b8235614889816146d7565b91506020830135614899816146d7565b809150509250929050565b8035600b81900b81146145d057600080fd5b60008060008060008060a087890312156148cf57600080fd5b86356148da816146d7565b955060208701356148ea816146d7565b945060408701356148fa816146d7565b9350614908606088016148a4565b925060808701356001600160401b0381111561492357600080fd5b61492f89828a01614763565b979a9699509497509295939492505050565b60006020828403121561495357600080fd5b81356108b1816146d7565b60008060006060848603121561497357600080fd5b833561497e816146d7565b9250602084013561498e816146d7565b929592945050506040919091013590565b6000806000806000608086880312156149b757600080fd5b85356149c2816146d7565b945060208601356149d2816146d7565b935060408601356149e2816146d7565b925060608601356001600160401b038111156149fd57600080fd5b614a0988828901614763565b969995985093965092949392505050565b600080600080600060808688031215614a3257600080fd5b8535614a3d816146d7565b94506020860135614a4d816146d7565b93506149e2604087016148a4565b60ff811681146107de57600080fd5b60008060008060008060a08789031215614a8357600080fd5b8635614a8e816146d7565b95506020870135614a9e816146d7565b945060408701356148fa81614a5b565b60008060408385031215614ac157600080fd5b8235614acc816146d7565b9150614ada602084016148a4565b90509250929050565b634e487b7160e01b600052601160045260246000fd5b600b82810b9082900b0360016001605f1b0319811260016001605f1b03821317156110dc576110dc614ae3565b600080600060608486031215614b3b57600080fd5b8351925060208401519150604084015190509250925092565b80516145d0816146d7565b600060208284031215614b7157600080fd5b81516108b1816146d7565b600060208284031215614b8e57600080fd5b5051919050565b600081518084526020808501945080840160005b83811015614bc557815187529582019590820190600101614ba9565b509495945050505050565b82815260406020820152600061054b6040830184614b95565b6001600160a01b039384168152919092166020820152604081019190915260600190565b8181036000831280158383131683831282161715614c2d57614c2d614ae3565b5092915050565b60006001600160ff1b0381841382841380821686840486111615614c5a57614c5a614ae3565b600160ff1b6000871282811687830589121615614c7957614c79614ae3565b60008712925087820587128484161615614c9557614c95614ae3565b87850587128184161615614cab57614cab614ae3565b505050929093029392505050565b634e487b7160e01b600052604160045260246000fd5b60405161016081016001600160401b0381118282101715614cf257614cf2614cb9565b60405290565b604051601f8201601f191681016001600160401b0381118282101715614d2057614d20614cb9565b604052919050565b60006020808385031215614d3b57600080fd5b82516001600160401b0380821115614d5257600080fd5b818501915085601f830112614d6657600080fd5b815181811115614d7857614d78614cb9565b8060051b9150614d89848301614cf8565b8181529183018401918481019088841115614da357600080fd5b938501935b83851015610caa57845182529385019390850190614da8565b634e487b7160e01b600052603260045260246000fd5b634e487b7160e01b600052601260045260246000fd5b600082614dfc57614dfc614dd7565b500490565b805180151581146145d057600080fd5b600060208284031215614e2357600080fd5b6108b182614e01565b80516145d081614a5b565b80516001600160e01b0319811681146145d057600080fd5b600082601f830112614e6057600080fd5b81516001600160401b03811115614e7957614e79614cb9565b614e8c601f8201601f1916602001614cf8565b818152846020838601011115614ea157600080fd5b61054b826020830160208701614808565b600060208284031215614ec457600080fd5b81516001600160401b0380821115614edb57600080fd5b908301906101608286031215614ef057600080fd5b614ef8614ccf565b614f0183614e2c565b8152614f0f60208401614e2c565b602082015260408301516040820152614f2a60608401614b54565b6060820152614f3b60808401614e37565b608082015260a083015182811115614f5257600080fd5b614f5e87828601614e4f565b60a08301525060c083015160c082015260e083015160e0820152610100915081830151828201526101209150614f95828401614b54565b828201526101409150614fa9828401614b54565b91810191909152949350505050565b634e487b7160e01b600052602160045260246000fd5b6001600160a01b038416815260c0810161501c602083018580516001600160a01b03908116835260208083015182169084015260408083015190911690830152606090810151600b0b910152565b82600b0b60a0830152949350505050565b808201828112600083128015821682158216171561504d5761504d614ae3565b505092915050565b60008261506457615064614dd7565b600160ff1b82146000198414161561507e5761507e614ae3565b500590565b818103818111156110dc576110dc614ae3565b6060815260006150a9606083018661482c565b6001600160a01b039490941660208301525060400152919050565b6000602082840312156150d657600080fd5b81516001600160401b038111156150ec57600080fd5b61054b84828501614e4f565b6001600160a01b038316815260a081016108b1602083018480516001600160a01b03908116835260208083015182169084015260408083015190911690830152606090810151600b0b910152565b634e487b7160e01b600052600160045260246000fd5b600081600019048311821515161561517657615176614ae3565b500290565b808201808211156110dc576110dc614ae3565b6040815260006151a1604083018561482c565b90508260208301529392505050565b6000600160ff1b82016151c5576151c5614ae3565b5060000390565b87815260e0602082015260006151e560e083018961482c565b6001600160a01b03978816604084015295151560608301525092909416608083015260a082015260c0019190915292915050565b600081600b0b83600b0b60016001605f1b0360008213600084138383048511828216161561524957615249614ae3565b60016001605f1b0319600085128281168783058712161561526c5761526c614ae3565b6000871292508582058712848416161561528857615288614ae3565b8585058712818416161561529e5761529e614ae3565b5050509290910295945050505050565b6000806000606084860312156152c357600080fd5b6152cc84614e01565b92506152da60208501614e01565b9150604084015190509250925092565b6001600160a01b038681168252851660208201526040810184905260a06060820181905260009061531d9083018561482c565b8281036080840152610caa818561482c565b6001600160a01b03851681526080602082018190526000906153539083018661482c565b8415156040840152828103606084015261536d818561482c565b979650505050505050565b84600b0b815283600b0b602082015282600b0b60408201526080606082015260006153a6608083018461482c565b9695505050505050565b6001600160a01b038781168252861660208201526040810185905260c0606082018190526000906153e39083018661482c565b82810360808401526153f5818661482c565b905082810360a0840152611258818561482c565b600b81810b9083900b0160016001605f1b03811360016001605f1b0319821217156110dc576110dc614ae3565b60018060a01b03841681528260208201526060604082015260006105646060830184614b95565b60a08152600061547060a083018861482c565b6001600160a01b039687166020840152604083019590955250606081019290925290921660809092019190915291905056fea2646970667358221220bd1f985fd93fa3b3c5a9cad09705ccaae6c27bc12ab18cc452526f3b8f40b99264736f6c63430008100033",
    "linkReferences": {}
  },
  "methodIdentifiers": {
    "CFA_HOOK_GAS_LIMIT()": "bf3fbc28",
    "DEFAULT_MINIMUM_DEPOSIT()": "04aafa49",
    "MAXIMUM_DEPOSIT()": "9cb28b72",
    "MAXIMUM_FLOW_RATE()": "26b0f536",
    "agreementType()": "7730599e",
    "authorizeFlowOperatorWithFullControl(address,address,bytes)": "54b770e3",
    "castrate()": "9903ad38",
    "constantFlowAgreementHook()": "0f2f8f3c",
    "createFlow(address,address,int96,bytes)": "62fc305e",
    "createFlowByOperator(address,address,address,int96,bytes)": "94229ecb",
    "deleteFlow(address,address,address,bytes)": "b4b333c6",
    "deleteFlowByOperator(address,address,address,bytes)": "4c8b181f",
    "getAccountFlowInfo(address,address)": "0f1ac495",
    "getCodeAddress()": "50d75d25",
    "getDepositRequiredForFlowRate(address,int96)": "8d997f6e",
    "getFlow(address,address,address)": "e6a1e888",
    "getFlowByID(address,bytes32)": "aabd2668",
    "getFlowOperatorData(address,address,address)": "00422bbe",
    "getFlowOperatorDataByID(address,bytes32)": "09d256ef",
    "getMaximumFlowRateFromDeposit(address,uint256)": "0602f7db",
    "getNetFlow(address,address)": "e8e7e2d1",
    "isPatricianPeriod(address,address,uint256)": "4b839e0b",
    "isPatricianPeriodNow(address,address)": "4fe9c291",
    "proxiableUUID()": "52d1902d",
    "realtimeBalanceOf(address,address,uint256)": "9b2e48bc",
    "revokeFlowOperatorWithFullControl(address,address,bytes)": "062e56ec",
    "updateCode(address)": "46951954",
    "updateFlow(address,address,int96,bytes)": "50209a62",
    "updateFlowByOperator(address,address,address,int96,bytes)": "354b9590",
    "updateFlowOperatorPermissions(address,address,uint8,int96,bytes)": "811b3d40"
  },
  "id": 41
}