{
  "abi": [
    {
      "inputs": [],
      "stateMutability": "nonpayable",
      "type": "constructor"
    },
    {
      "inputs": [],
      "name": "RESOLVER_BASE_SUPER_TOKEN_KEY",
      "outputs": [
        {
          "internalType": "string",
          "name": "",
          "type": "string"
        }
      ],
      "stateMutability": "view",
      "type": "function"
    },
    {
      "inputs": [],
      "name": "RESOLVER_BASE_TOKEN_KEY",
      "outputs": [
        {
          "internalType": "string",
          "name": "",
          "type": "string"
        }
      ],
      "stateMutability": "view",
      "type": "function"
    },
    {
      "inputs": [
        {
          "internalType": "string",
          "name": "_name",
          "type": "string"
        },
        {
          "internalType": "string",
          "name": "_symbol",
          "type": "string"
        }
      ],
      "name": "deployNativeAssetSuperToken",
      "outputs": [
        {
          "internalType": "contract ISETH",
          "name": "nativeAssetSuperToken",
          "type": "address"
        }
      ],
      "stateMutability": "nonpayable",
      "type": "function"
    },
    {
      "inputs": [
        {
          "internalType": "string",
          "name": "_name",
          "type": "string"
        },
        {
          "internalType": "string",
          "name": "_symbol",
          "type": "string"
        },
        {
          "internalType": "uint256",
          "name": "_initialSupply",
          "type": "uint256"
        }
      ],
      "name": "deployPureSuperToken",
      "outputs": [
        {
          "internalType": "contract IPureSuperToken",
          "name": "pureSuperToken",
          "type": "address"
        }
      ],
      "stateMutability": "nonpayable",
      "type": "function"
    },
    {
      "inputs": [
        {
          "internalType": "string",
          "name": "_underlyingName",
          "type": "string"
        },
        {
          "internalType": "string",
          "name": "_underlyingSymbol",
          "type": "string"
        },
        {
          "internalType": "uint8",
          "name": "_decimals",
          "type": "uint8"
        },
        {
          "internalType": "uint256",
          "name": "_mintLimit",
          "type": "uint256"
        }
      ],
      "name": "deployWrapperSuperToken",
      "outputs": [
        {
          "internalType": "contract TestToken",
          "name": "underlyingToken",
          "type": "address"
        },
        {
          "internalType": "contract SuperToken",
          "name": "superToken",
          "type": "address"
        }
      ],
      "stateMutability": "nonpayable",
      "type": "function"
    },
    {
      "inputs": [],
      "name": "getFramework",
      "outputs": [
        {
          "components": [
            {
              "internalType": "contract TestGovernance",
              "name": "governance",
              "type": "address"
            },
            {
              "internalType": "contract Superfluid",
              "name": "host",
              "type": "address"
            },
            {
              "internalType": "contract ConstantFlowAgreementV1",
              "name": "cfa",
              "type": "address"
            },
            {
              "components": [
                {
                  "internalType": "contract ISuperfluid",
                  "name": "host",
                  "type": "address"
                },
                {
                  "internalType": "contract IConstantFlowAgreementV1",
                  "name": "cfa",
                  "type": "address"
                }
              ],
              "internalType": "struct CFAv1Library.InitData",
              "name": "cfaLib",
              "type": "tuple"
            },
            {
              "internalType": "contract InstantDistributionAgreementV1",
              "name": "ida",
              "type": "address"
            },
            {
              "components": [
                {
                  "internalType": "contract ISuperfluid",
                  "name": "host",
                  "type": "address"
                },
                {
                  "internalType": "contract IInstantDistributionAgreementV1",
                  "name": "ida",
                  "type": "address"
                }
              ],
              "internalType": "struct IDAv1Library.InitData",
              "name": "idaLib",
              "type": "tuple"
            },
            {
              "internalType": "contract SuperTokenFactory",
              "name": "superTokenFactory",
              "type": "address"
            },
            {
              "internalType": "contract TestResolver",
              "name": "resolver",
              "type": "address"
            },
            {
              "internalType": "contract SuperfluidLoader",
              "name": "superfluidLoader",
              "type": "address"
            },
            {
              "internalType": "contract CFAv1Forwarder",
              "name": "cfaV1Forwarder",
              "type": "address"
            }
          ],
          "internalType": "struct SuperfluidFrameworkDeployer.Framework",
          "name": "sf",
          "type": "tuple"
        }
      ],
      "stateMutability": "view",
      "type": "function"
    }
  ],
  "bytecode": {
    "object": "0x60806040523480156200001157600080fd5b5060405162000020906200084e565b604051809103906000f0801580156200003d573d6000803e3d6000fd5b50600080546001600160a01b0319166001600160a01b03929092169190911781556040516001919062000070906200085c565b911515825215156020820152604001604051809103906000f0801580156200009c573d6000803e3d6000fd5b50600180546001600160a01b0319166001600160a01b0392831690811790915560005460405163189acdbd60e31b8152921660048301529063c4d66de890602401600060405180830381600087803b158015620000f857600080fd5b505af11580156200010d573d6000803e3d6000fd5b50600092508291506200011d9050565b60405190808252806020026020018201604052801562000147578160200160208202803683370190505b50600054600154604051630b520f0360e31b81529293506001600160a01b0391821692635a907818926200018d9216906045906138409061070890889060040162000912565b600060405180830381600087803b158015620001a857600080fd5b505af1158015620001bd573d6000803e3d6000fd5b50506001546040516001600160a01b03909116925060009150620001e1906200086a565b6001600160a01b03928316815291166020820152604001604051809103906000f08015801562000215573d6000803e3d6000fd5b50600280546001600160a01b0319166001600160a01b0392831690811790915560005460015460405163cadf8f8560e01b8152908416600482015260248101929092529091169063cadf8f8590604401600060405180830381600087803b1580156200028057600080fd5b505af115801562000295573d6000803e3d6000fd5b50506001546040516001600160a01b039091169250620002b6915062000878565b6001600160a01b039091168152602001604051809103906000f080158015620002e3573d6000803e3d6000fd5b50600780546001600160a01b0319166001600160a01b03928316908117909155600080546001546040516355c2378d60e11b815290851660048201526024810192909252604482019290925291169063ab846f1a90606401600060405180830381600087803b1580156200035657600080fd5b505af11580156200036b573d6000803e3d6000fd5b50506001546040516001600160a01b0390911692506200038c915062000886565b6001600160a01b039091168152602001604051809103906000f080158015620003b9573d6000803e3d6000fd5b50600380546001600160a01b0319166001600160a01b0392831690811790915560005460015460405163cadf8f8560e01b8152908416600482015260248101929092529091169063cadf8f8590604401600060405180830381600087803b1580156200042457600080fd5b505af115801562000439573d6000803e3d6000fd5b5050505060006040516200044d9062000894565b604051809103906000f0801580156200046a573d6000803e3d6000fd5b506001546040519192506001600160a01b03169082906200048b90620008a2565b6001600160a01b03928316815291166020820152604001604051809103906000f080158015620004bf573d6000803e3d6000fd5b50600480546001600160a01b0319166001600160a01b039283169081179091556000805460015460408051848152602081019182905263109e50a960e21b9091529185169463427942a4946200051f949290911692906024820162000959565b600060405180830381600087803b1580156200053a57600080fd5b505af11580156200054f573d6000803e3d6000fd5b50505050336040516200056290620008b0565b6001600160a01b039091168152602001604051809103906000f0801580156200058f573d6000803e3d6000fd5b50600580546001600160a01b0319166001600160a01b03929092169182179055604051620005bd90620008be565b6001600160a01b039091168152602001604051809103906000f080158015620005ea573d6000803e3d6000fd5b50600680546001600160a01b0319166001600160a01b039283161790556005546000546040805163a815ff1560e01b81526004810191909152601360448201527f54657374476f7665726e616e63652e74657374000000000000000000000000006064820152908316602482015291169063a815ff1590608401600060405180830381600087803b1580156200067f57600080fd5b505af115801562000694573d6000803e3d6000fd5b50506005546001546040805163a815ff1560e01b81526004810191909152600f60448201526e14dd5c195c999b1d5a590b9d195cdd608a1b60648201526001600160a01b0391821660248201529116925063a815ff159150608401600060405180830381600087803b1580156200070a57600080fd5b505af11580156200071f573d6000803e3d6000fd5b50506005546006546040805163a815ff1560e01b81526004810191909152601360448201527f5375706572666c7569644c6f616465722d76310000000000000000000000000060648201526001600160a01b0391821660248201529116925063a815ff159150608401600060405180830381600087803b158015620007a357600080fd5b505af1158015620007b8573d6000803e3d6000fd5b50506005546007546040805163a815ff1560e01b81526004810191909152600e60448201526d21a320bb18a337b93bb0b93232b960911b60648201526001600160a01b0391821660248201529116925063a815ff159150608401600060405180830381600087803b1580156200082d57600080fd5b505af115801562000842573d6000803e3d6000fd5b50505050505062000999565b611d1f806200301783390190565b614f1b8062004d3683390190565b6155cc8062009c5183390190565b6117db806200f21d83390190565b61534a80620109f883390190565b6147ba8062015d4283390190565b611e47806201a4fc83390190565b610eaa806201c34383390190565b6104ea806201d1ed83390190565b600081518084526020808501945080840160005b83811015620009075781516001600160a01b031687529582019590820190600101620008e0565b509495945050505050565b6001600160a01b03868116825285166020820152604081018490526060810183905260a0608082018190526000906200094e90830184620008cc565b979650505050505050565b600060018060a01b038087168352808616602084015260806040840152620009856080840186620008cc565b915080841660608401525095945050505050565b61266e80620009a96000396000f3fe60806040523480156200001157600080fd5b50600436106200006a5760003560e01c80633df285fe146200006f57806362a32e1e14620000b85780637dc2dc1214620000e4578063cbcd7449146200011c578063dfa98ad5146200014c578063fa0215fc146200026a575b600080fd5b620000a06040518060400160405280601181526020017039bab832b93a37b5b2b739973a32b9ba1760791b81525081565b604051620000af9190620008b4565b60405180910390f35b620000a06040518060400160405280600c81526020016b3a37b5b2b739973a32b9ba1760a11b81525081565b620000fb620000f53660046200091c565b62000281565b604080516001600160a01b03938416815292909116602083015201620000af565b620001336200012d366004620009b6565b6200051d565b6040516001600160a01b039091168152602001620000af565b6200025b604080516101408101825260008082526020808301829052828401829052835180850185528281528082018390526060840152608083018290528351808501909452818452830181905260a082019290925260c0810182905260e0810182905261010081018290526101208101919091525060408051610140810182526000546001600160a01b03908116825260015481166020808401829052600254831684860181905285518087018752838152808301919091526060850152600354831660808501819052855180870190965291855284015260a0820192909252600454821660c0820152600554821660e0820152600654821661010082015260075490911661012082015290565b604051620000af919062000a29565b620001336200027b36600462000b3b565b62000670565b600080878787878787604051620002989062000836565b620002a99695949392919062000bdf565b604051809103906000f080158015620002c6573d6000803e3d6000fd5b506004546040519193506001600160a01b03169063431f1481908490600190620002f7908b908b9060200162000c23565b6040516020818303038152906040528a8a6040516020016200031b92919062000c45565b6040516020818303038152906040526040518563ffffffff1660e01b81526004016200034b949392919062000c5b565b6020604051808303816000875af11580156200036b573d6000803e3d6000fd5b505050506040513d601f19601f8201168201806040525081019062000391919062000cc3565b90506200045060016040518060400160405280600c81526020016b3a37b5b2b739973a32b9ba1760a11b815250846001600160a01b03166395d89b416040518163ffffffff1660e01b8152600401600060405180830381865afa158015620003fd573d6000803e3d6000fd5b505050506040513d6000823e601f3d908101601f1916820160405262000427919081019062000d04565b6040516020016200043a92919062000db2565b60405160208183030381529060405284620007c1565b6200051260016040518060400160405280601181526020017039bab832b93a37b5b2b739973a32b9ba1760791b815250836001600160a01b03166395d89b416040518163ffffffff1660e01b8152600401600060405180830381865afa158015620004bf573d6000803e3d6000fd5b505050506040513d6000823e601f3d908101601f19168201604052620004e9919081019062000d04565b604051602001620004fc92919062000db2565b60405160208183030381529060405283620007c1565b965096945050505050565b6000806040516200052e9062000844565b604051809103906000f0801580156200054b573d6000803e3d6000fd5b5060048054604051633504b4d160e21b81526001600160a01b0380851693820193909352929450849350169063d412d34490602401600060405180830381600087803b1580156200059b57600080fd5b505af1158015620005b0573d6000803e3d6000fd5b50506040516285fc1360e71b81526001600160a01b03851692506342fe09809150620005ed906000906012908b908b908b908b9060040162000de5565b600060405180830381600087803b1580156200060857600080fd5b505af11580156200061d573d6000803e3d6000fd5b505050506200066760016040518060400160405280601181526020017039bab832b93a37b5b2b739973a32b9ba1760791b81525086866040516020016200043a9392919062000e37565b50949350505050565b600080604051620006819062000852565b604051809103906000f0801580156200069e573d6000803e3d6000fd5b5060048054604051633504b4d160e21b81526001600160a01b0380851693820193909352929350169063d412d34490602401600060405180830381600087803b158015620006eb57600080fd5b505af115801562000700573d6000803e3d6000fd5b505060405163588ca48760e11b81526001600160a01b038416925063b119490e91506200073a908a908a908a908a908a9060040162000e61565b600060405180830381600087803b1580156200075557600080fd5b505af11580156200076a573d6000803e3d6000fd5b50505050809150620007b760016040518060400160405280601181526020017039bab832b93a37b5b2b739973a32b9ba1760791b81525087876040516020016200043a9392919062000e37565b5095945050505050565b8215620008315760055460405163a815ff1560e01b81526001600160a01b039091169063a815ff1590620007fc908590859060040162000e9f565b600060405180830381600087803b1580156200081757600080fd5b505af11580156200082c573d6000803e3d6000fd5b505050505b505050565b610cce8062000ecc83390190565b6105c48062001b9a83390190565b6104db806200215e83390190565b60005b838110156200087d57818101518382015260200162000863565b50506000910152565b60008151808452620008a081602086016020860162000860565b601f01601f19169290920160200192915050565b602081526000620008c9602083018462000886565b9392505050565b60008083601f840112620008e357600080fd5b50813567ffffffffffffffff811115620008fc57600080fd5b6020830191508360208285010111156200091557600080fd5b9250929050565b600080600080600080608087890312156200093657600080fd5b863567ffffffffffffffff808211156200094f57600080fd5b6200095d8a838b01620008d0565b909850965060208901359150808211156200097757600080fd5b506200098689828a01620008d0565b909550935050604087013560ff81168114620009a157600080fd5b80925050606087013590509295509295509295565b60008060008060408587031215620009cd57600080fd5b843567ffffffffffffffff80821115620009e657600080fd5b620009f488838901620008d0565b9096509450602087013591508082111562000a0e57600080fd5b5062000a1d87828801620008d0565b95989497509550505050565b81516001600160a01b031681526101808101602083015162000a5660208401826001600160a01b03169052565b50604083015162000a7260408401826001600160a01b03169052565b50606083015162000a9c606084018280516001600160a01b03908116835260209182015116910152565b5060808301516001600160a01b03811660a08401525060a083015180516001600160a01b0390811660c085015260208201511660e08401525060c083015161010062000af2818501836001600160a01b03169052565b60e0850151915061012062000b11818601846001600160a01b03169052565b908501516001600160a01b0390811661014086015294015190931661016090920191909152919050565b60008060008060006060868803121562000b5457600080fd5b853567ffffffffffffffff8082111562000b6d57600080fd5b62000b7b89838a01620008d0565b9097509550602088013591508082111562000b9557600080fd5b5062000ba488828901620008d0565b96999598509660400135949350505050565b81835281816020850137506000828201602090810191909152601f909101601f19169091010190565b60808152600062000bf560808301888a62000bb6565b828103602084015262000c0a81878962000bb6565b60ff959095166040840152505060600152949350505050565b65029bab832b9160d51b81528183600683013760009101600601908152919050565b81838237600f60fb1b9101908152600101919050565b6001600160a01b038516815260006003851062000c8857634e487b7160e01b600052602160045260246000fd5b8460208301526080604083015262000ca4608083018562000886565b828103606084015262000cb8818562000886565b979650505050505050565b60006020828403121562000cd657600080fd5b81516001600160a01b0381168114620008c957600080fd5b634e487b7160e01b600052604160045260246000fd5b60006020828403121562000d1757600080fd5b815167ffffffffffffffff8082111562000d3057600080fd5b818401915084601f83011262000d4557600080fd5b81518181111562000d5a5762000d5a62000cee565b604051601f8201601f19908116603f0116810190838211818310171562000d855762000d8562000cee565b8160405282815287602084870101111562000d9f57600080fd5b62000cb883602083016020880162000860565b6000835162000dc681846020880162000860565b83519083019062000ddc81836020880162000860565b01949350505050565b6001600160a01b038716815260ff8616602082015260806040820181905260009062000e15908301868862000bb6565b828103606084015262000e2a81858762000bb6565b9998505050505050505050565b6000845162000e4b81846020890162000860565b8201838582376000930192835250909392505050565b60608152600062000e7760608301878962000bb6565b828103602084015262000e8c81868862000bb6565b9150508260408301529695505050505050565b60408152600062000eb4604083018562000886565b905060018060a01b0383166020830152939250505056fe60a06040523480156200001157600080fd5b5060405162000cce38038062000cce83398101604081905262000034916200013c565b8383600362000044838262000256565b50600462000053828262000256565b50506005805460ff191660ff94909416939093179092556080525062000322915050565b634e487b7160e01b600052604160045260246000fd5b600082601f8301126200009f57600080fd5b81516001600160401b0380821115620000bc57620000bc62000077565b604051601f8301601f19908116603f01168101908282118183101715620000e757620000e762000077565b816040528381526020925086838588010111156200010457600080fd5b600091505b8382101562000128578582018301518183018401529082019062000109565b600093810190920192909252949350505050565b600080600080608085870312156200015357600080fd5b84516001600160401b03808211156200016b57600080fd5b62000179888389016200008d565b955060208701519150808211156200019057600080fd5b506200019f878288016200008d565b935050604085015160ff81168114620001b757600080fd5b6060959095015193969295505050565b600181811c90821680620001dc57607f821691505b602082108103620001fd57634e487b7160e01b600052602260045260246000fd5b50919050565b601f8211156200025157600081815260208120601f850160051c810160208610156200022c5750805b601f850160051c820191505b818110156200024d5782815560010162000238565b5050505b505050565b81516001600160401b0381111562000272576200027262000077565b6200028a81620002838454620001c7565b8462000203565b602080601f831160018114620002c25760008415620002a95750858301515b600019600386901b1c1916600185901b1785556200024d565b600085815260208120601f198616915b82811015620002f357888601518255948401946001909101908401620002d2565b5085821015620003125787850151600019600388901b60f8161c191681555b5050505050600190811b01905550565b6080516109906200033e60003960006102ba01526109906000f3fe608060405234801561001057600080fd5b50600436106100b45760003560e01c806340c10f191161007157806340c10f191461014757806370a082311461015a57806395d89b4114610183578063a457c2d71461018b578063a9059cbb1461019e578063dd62ed3e146101b157600080fd5b806306fdde03146100b9578063095ea7b3146100d757806318160ddd146100fa57806323b872dd1461010c578063313ce5671461011f5780633950935114610134575b600080fd5b6100c16101c4565b6040516100ce91906107c4565b60405180910390f35b6100ea6100e536600461082e565b610256565b60405190151581526020016100ce565b6002545b6040519081526020016100ce565b6100ea61011a366004610858565b610270565b60055460405160ff90911681526020016100ce565b6100ea61014236600461082e565b610294565b6100ea61015536600461082e565b6102b6565b6100fe610168366004610894565b6001600160a01b031660009081526020819052604090205490565b6100c16102fb565b6100ea61019936600461082e565b61030a565b6100ea6101ac36600461082e565b61038a565b6100fe6101bf3660046108b6565b610398565b6060600380546101d3906108e9565b80601f01602080910402602001604051908101604052809291908181526020018280546101ff906108e9565b801561024c5780601f106102215761010080835404028352916020019161024c565b820191906000526020600020905b81548152906001019060200180831161022f57829003601f168201915b5050505050905090565b6000336102648185856103c3565b60019150505b92915050565b60003361027e8582856104e7565b610289858585610561565b506001949350505050565b6000336102648185856102a78383610398565b6102b19190610923565b6103c3565b60007f00000000000000000000000000000000000000000000000000000000000000008211156102e8576102e8610944565b6102f28383610705565b50600192915050565b6060600480546101d3906108e9565b600033816103188286610398565b90508381101561037d5760405162461bcd60e51b815260206004820152602560248201527f45524332303a2064656372656173656420616c6c6f77616e63652062656c6f77604482015264207a65726f60d81b60648201526084015b60405180910390fd5b61028982868684036103c3565b600033610264818585610561565b6001600160a01b03918216600090815260016020908152604080832093909416825291909152205490565b6001600160a01b0383166104255760405162461bcd60e51b8152602060048201526024808201527f45524332303a20617070726f76652066726f6d20746865207a65726f206164646044820152637265737360e01b6064820152608401610374565b6001600160a01b0382166104865760405162461bcd60e51b815260206004820152602260248201527f45524332303a20617070726f766520746f20746865207a65726f206164647265604482015261737360f01b6064820152608401610374565b6001600160a01b0383811660008181526001602090815260408083209487168084529482529182902085905590518481527f8c5be1e5ebec7d5bd14f71427d1e84f3dd0314c0f7b2291e5b200ac8c7c3b925910160405180910390a3505050565b60006104f38484610398565b9050600019811461055b578181101561054e5760405162461bcd60e51b815260206004820152601d60248201527f45524332303a20696e73756666696369656e7420616c6c6f77616e63650000006044820152606401610374565b61055b84848484036103c3565b50505050565b6001600160a01b0383166105c55760405162461bcd60e51b815260206004820152602560248201527f45524332303a207472616e736665722066726f6d20746865207a65726f206164604482015264647265737360d81b6064820152608401610374565b6001600160a01b0382166106275760405162461bcd60e51b815260206004820152602360248201527f45524332303a207472616e7366657220746f20746865207a65726f206164647260448201526265737360e81b6064820152608401610374565b6001600160a01b0383166000908152602081905260409020548181101561069f5760405162461bcd60e51b815260206004820152602660248201527f45524332303a207472616e7366657220616d6f756e7420657863656564732062604482015265616c616e636560d01b6064820152608401610374565b6001600160a01b03848116600081815260208181526040808320878703905593871680835291849020805487019055925185815290927fddf252ad1be2c89b69c2b068fc378daa952ba7f163c4a11628f55a4df523b3ef910160405180910390a361055b565b6001600160a01b03821661075b5760405162461bcd60e51b815260206004820152601f60248201527f45524332303a206d696e7420746f20746865207a65726f2061646472657373006044820152606401610374565b806002600082825461076d9190610923565b90915550506001600160a01b038216600081815260208181526040808320805486019055518481527fddf252ad1be2c89b69c2b068fc378daa952ba7f163c4a11628f55a4df523b3ef910160405180910390a35050565b600060208083528351808285015260005b818110156107f1578581018301518582016040015282016107d5565b506000604082860101526040601f19601f8301168501019250505092915050565b80356001600160a01b038116811461082957600080fd5b919050565b6000806040838503121561084157600080fd5b61084a83610812565b946020939093013593505050565b60008060006060848603121561086d57600080fd5b61087684610812565b925061088460208501610812565b9150604084013590509250925092565b6000602082840312156108a657600080fd5b6108af82610812565b9392505050565b600080604083850312156108c957600080fd5b6108d283610812565b91506108e060208401610812565b90509250929050565b600181811c908216806108fd57607f821691505b60208210810361091d57634e487b7160e01b600052602260045260246000fd5b50919050565b8082018082111561026a57634e487b7160e01b600052601160045260246000fd5b634e487b7160e01b600052600160045260246000fdfea2646970667358221220160cf7cc6c7b00d9007738f05f1d92f9d179b708891a5460b7a069e7d64d13ab64736f6c63430008100033608060405234801561001057600080fd5b506105a4806100206000396000f3fe6080604052600436106100435760003560e01c8063160e8be3146100ef5780634a0687ef1461010f5780637687d19b1461012f578063cf81464b14610142576100e5565b366100e5576040805160008152602081019182905263c68d428360e01b909152309063c68d42839061007c9033903490602481016104c0565b600060405180830381600087803b15801561009657600080fd5b505af11580156100aa573d6000803e3d6000fd5b50506040513481523392507f25ca84076773b0455db53621c459ddc84fe40840e4932a62706a032566f399df915060200160405180910390a2005b6100ed61014a565b005b3480156100fb57600080fd5b506100ed61010a366004610525565b61015c565b34801561011b57600080fd5b506100ed61012a36600461053e565b610229565b6100ed61013d36600461053e565b61032f565b6100ed6103d0565b61015a61015561046d565b61049c565b565b60408051600081526020810191829052639d87674160e01b9091523090639d876741906101909033908590602481016104c0565b600060405180830381600087803b1580156101aa57600080fd5b505af11580156101be573d6000803e3d6000fd5b505060405133925083156108fc02915083906000818181858888f193505050501580156101ef573d6000803e3d6000fd5b5060405181815233907f3bc27981aebbb57f9247dc00fde9d6cd91e4b230083fec3238fedbcba1f9ab3d906020015b60405180910390a250565b6001600160a01b0381166102845760405162461bcd60e51b815260206004820152601760248201527f5555505350726f78793a207a65726f206164647265737300000000000000000060448201526064015b60405180910390fd5b60006102ae7f360894a13ba1a3210667c828492db98dca3e2076cc3735a920a3ca505d382bbc5490565b6001600160a01b0316146103045760405162461bcd60e51b815260206004820152601e60248201527f5555505350726f78793a20616c726561647920696e697469616c697a65640000604482015260640161027b565b61032c817f360894a13ba1a3210667c828492db98dca3e2076cc3735a920a3ca505d382bbc55565b50565b6040805160008152602081019182905263c68d428360e01b909152309063c68d4283906103639084903490602481016104c0565b600060405180830381600087803b15801561037d57600080fd5b505af1158015610391573d6000803e3d6000fd5b50505050806001600160a01b03167f25ca84076773b0455db53621c459ddc84fe40840e4932a62706a032566f399df3460405161021e91815260200190565b6040805160008152602081019182905263c68d428360e01b909152309063c68d4283906104049033903490602481016104c0565b600060405180830381600087803b15801561041e57600080fd5b505af1158015610432573d6000803e3d6000fd5b50506040513481523392507f25ca84076773b0455db53621c459ddc84fe40840e4932a62706a032566f399df915060200160405180910390a2565b60006104977f360894a13ba1a3210667c828492db98dca3e2076cc3735a920a3ca505d382bbc5490565b905090565b3660008037600080366000845af43d6000803e8080156104bb573d6000f35b3d6000fd5b60018060a01b038416815260006020848184015260606040840152835180606085015260005b81811015610502578581018301518582016080015282016104e6565b506000608082860101526080601f19601f83011685010192505050949350505050565b60006020828403121561053757600080fd5b5035919050565b60006020828403121561055057600080fd5b81356001600160a01b038116811461056757600080fd5b939250505056fea264697066735822122071b9f1e4ff1967624f1718cbd5d02c1375dbf2aa58d9fc39dba3ecc3d97498a064736f6c63430008100033608060405234801561001057600080fd5b506104bb806100206000396000f3fe60806040526004361061002d5760003560e01c80634a0687ef14610044578063b119490e146100645761003c565b3661003c5761003a610084565b005b61003a610084565b34801561005057600080fd5b5061003a61005f3660046102bc565b610096565b34801561007057600080fd5b5061003a61007f366004610335565b61019c565b61009461008f610269565b610298565b565b6001600160a01b0381166100f15760405162461bcd60e51b815260206004820152601760248201527f5555505350726f78793a207a65726f206164647265737300000000000000000060448201526064015b60405180910390fd5b600061011b7f360894a13ba1a3210667c828492db98dca3e2076cc3735a920a3ca505d382bbc5490565b6001600160a01b0316146101715760405162461bcd60e51b815260206004820152601e60248201527f5555505350726f78793a20616c726561647920696e697469616c697a6564000060448201526064016100e8565b610199817f360894a13ba1a3210667c828492db98dca3e2076cc3735a920a3ca505d382bbc55565b50565b6040516285fc1360e71b815230906342fe0980906101ca906000906012908a908a908a908a906004016103d2565b600060405180830381600087803b1580156101e457600080fd5b505af11580156101f8573d6000803e3d6000fd5b50506040805160008152602081019182905263c68d428360e01b90915230925063c68d42839150610230903390859060248101610420565b600060405180830381600087803b15801561024a57600080fd5b505af115801561025e573d6000803e3d6000fd5b505050505050505050565b60006102937f360894a13ba1a3210667c828492db98dca3e2076cc3735a920a3ca505d382bbc5490565b905090565b3660008037600080366000845af43d6000803e8080156102b7573d6000f35b3d6000fd5b6000602082840312156102ce57600080fd5b81356001600160a01b03811681146102e557600080fd5b9392505050565b60008083601f8401126102fe57600080fd5b50813567ffffffffffffffff81111561031657600080fd5b60208301915083602082850101111561032e57600080fd5b9250929050565b60008060008060006060868803121561034d57600080fd5b853567ffffffffffffffff8082111561036557600080fd5b61037189838a016102ec565b9097509550602088013591508082111561038a57600080fd5b50610397888289016102ec565b96999598509660400135949350505050565b81835281816020850137506000828201602090810191909152601f909101601f19169091010190565b6001600160a01b038716815260ff8616602082015260806040820181905260009061040090830186886103a9565b82810360608401526104138185876103a9565b9998505050505050505050565b60018060a01b038416815260006020848184015260606040840152835180606085015260005b8181101561046257858101830151858201608001528201610446565b506000608082860101526080601f19601f8301168501019250505094935050505056fea2646970667358221220cde1e9fec3ee0e9578439dc0cd7a38631bc7e0d237c347cd9ab60334768dc6a364736f6c63430008100033a2646970667358221220d18d7430590c58da4a6347371b5db082f4f8ca4cc453d2442ea16921e91bc5f564736f6c63430008100033608060405234801561001057600080fd5b5061001a3361001f565b61006f565b600080546001600160a01b038381166001600160a01b0319831681178455604051919092169283917f8be0079c531659141344cd1fd0a4f28419497f9722a3daafe3b4186f6b6457e09190a35050565b611ca18061007e6000396000f3fe608060405234801561001057600080fd5b50600436106101ef5760003560e01c80637f0558e41161010f578063948eda5e116100a2578063e447cc1d11610071578063e447cc1d1461045f578063f047a2d914610472578063f2fde38b14610485578063f79a8e631461049857600080fd5b8063948eda5e14610413578063ab846f1a14610426578063cadf8f8514610439578063d099b6a01461044c57600080fd5b80638abe04e9116100de5780638abe04e9146103b95780638b93b3f5146103dc5780638da5cb5b146103ef5780638ecbd87b1461040057600080fd5b80637f0558e41461036457806380f70cba146103775780638369a0f1146103985780638a7ff2f7146103a657600080fd5b8063427942a411610187578063640b6cc911610156578063640b6cc914610323578063715018a61461033657806378707cb81461033e5780637dce4f811461035157600080fd5b8063427942a4146102c257806344864b25146102d557806345228235146102e85780635a9078181461031057600080fd5b806321964473116101c3578063219644731461027657806325c955c314610289578063325529081461029c57806342148deb146102af57600080fd5b806286d555146101f457806301a06b971461020957806311cf00f11461021c57806319df62ab1461024b575b600080fd5b61020761020236600461161c565b6104ab565b005b610207610217366004611662565b610578565b61022f61022a36600461173e565b6105fc565b6040805192151583526020830191909152015b60405180910390f35b61025e610259366004611662565b61062c565b6040516001600160a01b039091168152602001610242565b6102076102843660046117ec565b610660565b610207610297366004611662565b6106ec565b6102076102aa36600461186f565b610748565b6102076102bd3660046118ba565b6107c5565b6102076102d036600461190f565b610881565b6102076102e3366004611662565b610b31565b6102fb6102f6366004611662565b610b9c565b60408051928352602083019190915201610242565b61020761031e36600461198c565b610be4565b610207610331366004611a08565b610c9e565b610207610cae565b61020761034c366004611a49565b610cc2565b61020761035f36600461186f565b610cd4565b610207610372366004611a08565b610d34565b61038a610385366004611a08565b610da7565b604051908152602001610242565b61025e610385366004611a08565b61038a6103b4366004611662565b610e18565b6103cc6103c7366004611662565b610e45565b6040519015158152602001610242565b6102076103ea366004611662565b610e60565b6000546001600160a01b031661025e565b61020761040e366004611662565b610ee3565b61020761042136600461173e565b610f54565b61020761043436600461186f565b610fc2565b610207610447366004611662565b61101e565b61020761045a366004611a9c565b611056565b61020761046d366004611662565b6110b6565b6103cc61048036600461186f565b611127565b610207610493366004611b06565b611142565b6102076104a636600461161c565b6111c0565b80821115806104be575063ffffffff8210155b806104cd575063ffffffff8110155b156104eb576040516370b8cc0560e11b815260040160405180910390fd5b602082901b811761051e85857fe420d96e81cb4a6b2abb2366c4f93312d4e2ae878a7d4b22e73472fdad891f78846111c8565b6040805160018152602081018590529081018390526001600160a01b0380861691908716907f60a59221512cd8cbfb226200f7ba6f20dc4b38a3cf04993d17ea4e56d26aa186906060015b60405180910390a35050505050565b6105a382827fe420d96e81cb4a6b2abb2366c4f93312d4e2ae878a7d4b22e73472fdad891f7861127b565b60408051600080825260208201819052918101919091526001600160a01b0380831691908416907f60a59221512cd8cbfb226200f7ba6f20dc4b38a3cf04993d17ea4e56d26aa186906060015b60405180910390a35050565b600080600061060b858561133c565b9050600061061b87600084610da7565b428110159890975095505050505050565b600061065983837f9f60ae461adf056670e03ae602566409933242392cb06744f5747c9f38b05d09610da7565b9392505050565b828114610680576040516313ba1d5360e11b815260040160405180910390fd5b60005b818110156106e4576106d4868686848181106106a1576106a1611b23565b90506020020160208101906106b69190611b06565b8585858181106106c8576106c8611b23565b90506020020135610d34565b6106dd81611b39565b9050610683565b505050505050565b6107008260006106fb8461136f565b61127b565b806001600160a01b0316826001600160a01b03167f8bfde939e79b7e6c603d67aa576e5b75a3f370334b14a9b0e5e263190034d31d60006040516105f0911515815260200190565b61077483837f9f60ae461adf056670e03ae602566409933242392cb06744f5747c9f38b05d0984611402565b60408051600181526001600160a01b03838116602083015280851692908616917f14e12f219a4f9023456dc7832e10119ab768b8ccefc8cb79bc6de0419781eeeb91015b60405180910390a3505050565b826107cf816114b7565b60005b8281101561087a57846001600160a01b031663787afde78585848181106107fb576107fb611b23565b90506020020160208101906108109190611b06565b6040516001600160e01b031960e084901b1681526001600160a01b039091166004820152602401600060405180830381600087803b15801561085157600080fd5b505af1158015610865573d6000803e3d6000fd5b505050508061087390611b39565b90506107d2565b5050505050565b8461088b816114b7565b6001600160a01b03851615610949576040516311a5465560e21b81526001600160a01b038681166004830152871690634695195490602401600060405180830381600087803b1580156108dd57600080fd5b505af11580156108f1573d6000803e3d6000fd5b50505050846001600160a01b0316639903ad386040518163ffffffff1660e01b8152600401600060405180830381600087803b15801561093057600080fd5b505af1158015610944573d6000803e3d6000fd5b505050505b60005b83811015610a6d57866001600160a01b03166306cecba886868481811061097557610975611b23565b905060200201602081019061098a9190611b06565b6040516001600160e01b031960e084901b1681526001600160a01b039091166004820152602401600060405180830381600087803b1580156109cb57600080fd5b505af11580156109df573d6000803e3d6000fd5b505050508484828181106109f5576109f5611b23565b9050602002016020810190610a0a9190611b06565b6001600160a01b0316639903ad386040518163ffffffff1660e01b8152600401600060405180830381600087803b158015610a4457600080fd5b505af1158015610a58573d6000803e3d6000fd5b5050505080610a6690611b39565b905061094c565b506001600160a01b038216156106e4576040516354fbc49360e01b81526001600160a01b0383811660048301528716906354fbc49390602401600060405180830381600087803b158015610ac057600080fd5b505af1158015610ad4573d6000803e3d6000fd5b50505050816001600160a01b0316639903ad386040518163ffffffff1660e01b8152600401600060405180830381600087803b158015610b1357600080fd5b505af1925050508015610b24575060015b156106e457505050505050565b81610b3b816114b7565b604051631ca0c40360e21b81526001600160a01b038381166004830152841690637283100c906024015b600060405180830381600087803b158015610b7f57600080fd5b505af1158015610b93573d6000803e3d6000fd5b50505050505050565b6000806000610bcc85857fe420d96e81cb4a6b2abb2366c4f93312d4e2ae878a7d4b22e73472fdad891f78610da7565b63ffffffff602082901c811697911695509350505050565b6001600160a01b038616610bfa57610bfa611b60565b6002546001600160a01b031615610c1357610c13611b60565b600280546001600160a01b0319166001600160a01b038816908117909155610c3d90600087610748565b610c4a86600086866104ab565b60005b81811015610b9357600254610c8e906001600160a01b03166000858585818110610c7957610c79611b23565b90506020020160208101906104349190611b06565b610c9781611b39565b9050610c4d565b610ca983838361127b565b505050565b610cb66114ee565b610cc06000611548565b565b610cce84848484611402565b50505050565b610ce283836106fb84611598565b60408051600181526001600160a01b038381166020830152600092820192909252818416918516907f168da2dec91b2e06e30d49955479383e76f71ba185807a8a5b75e2ed563e1d27906060016107b8565b610d6083837feae305fa863b373417e615b1044222e2806cefc7788d169ce6748a443c3f6cc4846111c8565b6040805160018152602081018390526001600160a01b0380851692908616917fc055c4a3853372c08a98805545379133f00f7261d956b9197729d67f37a82a5391016107b8565b6001600160a01b03808416600090815260016020908152604080832093861683529281528282208483529052908120805460ff16610e0c57506001600160a01b0384166000908152600160209081526040808320838052825280832085845290915290205b60010154949350505050565b600061065983837feae305fa863b373417e615b1044222e2806cefc7788d169ce6748a443c3f6cc4610da7565b6000610e568360006103858561136f565b6001149392505050565b803b6000819003610e84576040516380dddd7360e01b815260040160405180910390fd5b50610e9b826000610e948461136f565b60016111c8565b806001600160a01b0316826001600160a01b03167f8bfde939e79b7e6c603d67aa576e5b75a3f370334b14a9b0e5e263190034d31d60016040516105f0911515815260200190565b610f0e82827feae305fa863b373417e615b1044222e2806cefc7788d169ce6748a443c3f6cc461127b565b60408051600080825260208201526001600160a01b0380841692908516917fc055c4a3853372c08a98805545379133f00f7261d956b9197729d67f37a82a5391016105f0565b6000610f60838361133c565b9050610f6e8460008361127b565b826001600160a01b0316846001600160a01b03167fa22916b55c84301b9ba61d6494b1860339c075b3518e6db6f496bdf2a13d6ffc846000604051610fb4929190611bbc565b60405180910390a350505050565b610fd08383610e9484611598565b6040805160018082526001600160a01b03848116602084015292820152818416918516907f168da2dec91b2e06e30d49955479383e76f71ba185807a8a5b75e2ed563e1d27906060016107b8565b81611028816114b7565b6040516315a024e160e01b81526001600160a01b0383811660048301528416906315a024e190602401610b65565b6000611062848461133c565b905061107185600083856111c8565b836001600160a01b0316856001600160a01b03167fa22916b55c84301b9ba61d6494b1860339c075b3518e6db6f496bdf2a13d6ffc8585604051610569929190611bbc565b6110e182827f9f60ae461adf056670e03ae602566409933242392cb06744f5747c9f38b05d0961127b565b60408051600080825260208201526001600160a01b0380841692908516917f14e12f219a4f9023456dc7832e10119ab768b8ccefc8cb79bc6de0419781eeeb91016105f0565b6000611137848461038585611598565b600114949350505050565b61114a6114ee565b6001600160a01b0381166111b45760405162461bcd60e51b815260206004820152602660248201527f4f776e61626c653a206e6577206f776e657220697320746865207a65726f206160448201526564647265737360d01b60648201526084015b60405180910390fd5b6111bd81611548565b50565b610cce848484845b836111d2816114b7565b60408051848152600160208201529081018390526001600160a01b0380861691908716907f33afe19ae6902b933890ff48190fabdc4cf7f5ab499be9c4d9d98e3b4562e3909060600160405180910390a350604080518082018252600180825260208083019485526001600160a01b039788166000908152828252848120979098168852958652828720948752939094529093209151825460ff19169015151782559151910155565b82611285816114b7565b826001600160a01b0316846001600160a01b03167f33afe19ae6902b933890ff48190fabdc4cf7f5ab499be9c4d9d98e3b4562e390846000806040516112de939291909283529015156020830152604082015260600190565b60405180910390a350604080518082018252600080825260208083018281526001600160a01b03978816835260018083528584209790981683529581528382209482529390935291209051815460ff19169015151781559051910155565b60008282604051602001611351929190611bde565b60405160208183030381529060405280519060200120905092915050565b6040805160208101829052603960608201527f6f72672e7375706572666c7569642d66696e616e63652e7375706572666c756960808201527f642e61707057686974654c697374696e672e666163746f72790000000000000060a08201526001600160a01b0383169181019190915260009060c0015b604051602081830303815290604052805190602001209050919050565b8361140c816114b7565b60408051848152600160208201526001600160a01b03848116828401529151868316928816917f33afe19ae6902b933890ff48190fabdc4cf7f5ab499be9c4d9d98e3b4562e390919081900360600190a35060408051808201825260018082526001600160a01b03938416602080840191825297851660009081528289528481209790951685529587528284209484529390955290209251835460ff19169015151783559051910155565b6002546001600160a01b038281169116146114d4576114d4611b60565b6000546001600160a01b031633146111bd576111bd611b60565b6000546001600160a01b03163314610cc05760405162461bcd60e51b815260206004820181905260248201527f4f776e61626c653a2063616c6c6572206973206e6f7420746865206f776e657260448201526064016111ab565b600080546001600160a01b038381166001600160a01b0319831681178455604051919092169283917f8be0079c531659141344cd1fd0a4f28419497f9722a3daafe3b4186f6b6457e09190a35050565b6040805160208101829052603260608201527f6f72672e7375706572666c7569642d66696e616e63652e7375706572666c756960808201527132173a393ab9ba32b22337b93bb0b93232b960711b60a08201526001600160a01b0383169181019190915260009060c0016113e5565b6001600160a01b03811681146111bd57600080fd5b6000806000806080858703121561163257600080fd5b843561163d81611607565b9350602085013561164d81611607565b93969395505050506040820135916060013590565b6000806040838503121561167557600080fd5b823561168081611607565b9150602083013561169081611607565b809150509250929050565b634e487b7160e01b600052604160045260246000fd5b600082601f8301126116c257600080fd5b813567ffffffffffffffff808211156116dd576116dd61169b565b604051601f8301601f19908116603f011681019082821181831017156117055761170561169b565b8160405283815286602085880101111561171e57600080fd5b836020870160208301376000602085830101528094505050505092915050565b60008060006060848603121561175357600080fd5b833561175e81611607565b9250602084013561176e81611607565b9150604084013567ffffffffffffffff81111561178a57600080fd5b611796868287016116b1565b9150509250925092565b60008083601f8401126117b257600080fd5b50813567ffffffffffffffff8111156117ca57600080fd5b6020830191508360208260051b85010111156117e557600080fd5b9250929050565b60008060008060006060868803121561180457600080fd5b853561180f81611607565b9450602086013567ffffffffffffffff8082111561182c57600080fd5b61183889838a016117a0565b9096509450604088013591508082111561185157600080fd5b5061185e888289016117a0565b969995985093965092949392505050565b60008060006060848603121561188457600080fd5b833561188f81611607565b9250602084013561189f81611607565b915060408401356118af81611607565b809150509250925092565b6000806000604084860312156118cf57600080fd5b83356118da81611607565b9250602084013567ffffffffffffffff8111156118f657600080fd5b611902868287016117a0565b9497909650939450505050565b60008060008060006080868803121561192757600080fd5b853561193281611607565b9450602086013561194281611607565b9350604086013567ffffffffffffffff81111561195e57600080fd5b61196a888289016117a0565b909450925050606086013561197e81611607565b809150509295509295909350565b60008060008060008060a087890312156119a557600080fd5b86356119b081611607565b955060208701356119c081611607565b94506040870135935060608701359250608087013567ffffffffffffffff8111156119ea57600080fd5b6119f689828a016117a0565b979a9699509497509295939492505050565b600080600060608486031215611a1d57600080fd5b8335611a2881611607565b92506020840135611a3881611607565b929592945050506040919091013590565b60008060008060808587031215611a5f57600080fd5b8435611a6a81611607565b93506020850135611a7a81611607565b9250604085013591506060850135611a9181611607565b939692955090935050565b60008060008060808587031215611ab257600080fd5b8435611abd81611607565b93506020850135611acd81611607565b9250604085013567ffffffffffffffff811115611ae957600080fd5b611af5878288016116b1565b949793965093946060013593505050565b600060208284031215611b1857600080fd5b813561065981611607565b634e487b7160e01b600052603260045260246000fd5b600060018201611b5957634e487b7160e01b600052601160045260246000fd5b5060010190565b634e487b7160e01b600052600160045260246000fd5b6000815180845260005b81811015611b9c57602081850181015186830182015201611b80565b506000602082860101526020601f19601f83011685010191505092915050565b604081526000611bcf6040830185611b76565b90508260208301529392505050565b60608152604160608201527f6f72672e7375706572666c7569642d66696e616e63652e7375706572666c756960808201527f642e61707057686974654c697374696e672e726567697374726174696f6e4b6560a0820152607960f81b60c082015260018060a01b038316602082015260e060408201526000611c6360e0830184611b76565b94935050505056fea264697066735822122017b8c17cb37b5b6ea19d32abedef4aca9b8f882abd93b9f0aba75b9fce3c6cbb64736f6c6343000810003360c06040523480156200001157600080fd5b5060405162004f1b38038062004f1b83398101604081905262000034916200005b565b901515608052151560a05262000093565b805180151581146200005657600080fd5b919050565b600080604083850312156200006f57600080fd5b6200007a8362000045565b91506200008a6020840162000045565b90509250929050565b60805160a051614e23620000f86000396000818161058801528181611d870152818161225a015261266e0152600081816106bc0152818161077e01528181610a0f0152818161103701528181611172015281816112d1015261259c0152614e236000f3fe608060405234801561001057600080fd5b50600436106102a05760003560e01c8063768fabb011610167578063bb84cfa1116100ce578063c56a069d11610087578063c56a069d14610697578063cd312ec4146106b7578063e8dccb7d146106de578063f2e55caf14610700578063f373305214610708578063f9f522f41461071b57600080fd5b8063bb84cfa114610609578063bbe4fd5014610645578063bced3ddc1461064b578063bd1c448b1461065e578063bf42873414610671578063c4d66de81461068457600080fd5b80639d297e30116101205780639d297e3014610583578063a5dbbbcd146105aa578063ad3915c8146105bd578063b6d200de146105d0578063b724211e146105e3578063ba48b5f8146105f657600080fd5b8063768fabb01461050a578063787afde71461051d5780638ca48484146105305780639378fa1314610543578063989b0c3e146105685780639903ad381461057b57600080fd5b806350d75d251161020b578063670e77e3116101c4578063670e77e31461049a5780636ad3ca7d146104ad5780636b4f3335146104c05780637283100c146104d3578063731aed6e146104e657806374041e02146104f757600080fd5b806350d75d251461041657806352d1902d1461041e57806354fbc4931461044e57806357121e0c14610461578063572b6c051461047457806359a291411461048757600080fd5b806339255d5b1161025d57806339255d5b146103565780633ca3ad4e146103695780633f6c923a146103a45780634329d293146103c457806346951954146103e5578063486ff0cd146103f857600080fd5b806306cecba8146102a557806315a024e1146102ba5780631e6d0a84146102cd5780631e855cf3146102f6578063289b3c0d1461030957806333d608f114610334575b600080fd5b6102b86102b3366004613d6b565b61074b565b005b6102b86102c8366004613d6b565b610922565b6102e06102db366004613de5565b610b72565b6040516102ed9190613ecb565b60405180910390f35b6102e0610304366004613fa1565b610dbe565b6000546201000090046001600160a01b03165b6040516001600160a01b0390911681526020016102ed565b61033e622dc6c081565b6040516001600160401b0390911681526020016102ed565b6102e0610364366004613ff0565b610dd4565b610394610377366004613d6b565b6001600160a01b0316600090815260046020526040902054151590565b60405190151581526020016102ed565b6103b76103b2366004614065565b610dea565b6040516102ed9190614099565b6103d76103d236600461417a565b610dfb565b6040516102ed929190614226565b6102b86103f3366004613d6b565b611004565b604080518082019091526002815261763160f01b60208201526102e0565b61031c611100565b7fcd355cae2c435f8c5e0c626c4691d22fd85aa7422a424c6f0bced6e64c7aba745b6040519081526020016102ed565b6102b861045c366004613d6b565b61112f565b6102b861046f366004613d6b565b6113b2565b610394610482366004613d6b565b611480565b6102e061049536600461424b565b61150a565b6102b86104a8366004614296565b6115ec565b6102b86104bb366004614296565b611602565b6103946104ce366004613d6b565b61160d565b6102b86104e1366004613d6b565b611631565b6003546001600160a01b031661031c565b6102e0610505366004613de5565b6116d9565b6102e061051836600461430a565b611828565b6102b861052b366004613d6b565b6119c4565b61039461053e366004613d6b565b611b07565b610556610551366004613d6b565b611bcc565b60405160ff90911681526020016102ed565b6102e061057636600461424b565b611bed565b6102b8611c80565b6103947f000000000000000000000000000000000000000000000000000000000000000081565b6104406105b8366004614385565b611d3b565b6102b86105cb3660046143a7565b611d85565b61031c6105de3660046143a7565b611dd0565b6102e06105f13660046143c0565b611e37565b6102e061060436600461441c565b611ef8565b61039461061736600461449e565b6001600160a01b03918216600090815260056020908152604080832093909416825291909152205460ff1690565b42610440565b610440610659366004614385565b61220f565b6102b861066c3660046144d7565b612258565b61039461067f366004614522565b612370565b6102b8610692366004613d6b565b6123b1565b6106aa6106a53660046143a7565b612495565b6040516102ed9190614563565b6103947f000000000000000000000000000000000000000000000000000000000000000081565b6103946106ec3660046143a7565b600090815260026020526040902054151590565b61031c61257f565b6102b86107163660046145b0565b612647565b61072e610729366004613d6b565b61274f565b6040805193151584529115156020840152908201526060016102ed565b6000546201000090046001600160a01b0316331461077c576040516362e9152760e11b815260040160405180910390fd5b7f0000000000000000000000000000000000000000000000000000000000000000156107bb576040516314f72c9f60e01b815260040160405180910390fd5b6000816001600160a01b0316637730599e6040518163ffffffff1660e01b8152600401602060405180830381865afa1580156107fb573d6000803e3d6000fd5b505050506040513d601f19601f8201168201806040525081019061081f91906145dc565b60008181526002602052604081205491925081900361085157604051630e4f4df560e11b815260040160405180910390fd5b6000600161085f818461460b565b8154811061086f5761086f61461e565b6000918252602090912001546040516311a5465560e21b81526001600160a01b03868116600483015290911691508190634695195490602401600060405180830381600087803b1580156108c257600080fd5b505af11580156108d6573d6000803e3d6000fd5b5050604080518681526001600160a01b03881660208201527f9279aa773f2b588996032d8de89911555039f28b13a11a7c17074330bc082d9a935001905060405180910390a150505050565b6000546201000090046001600160a01b03163314610953576040516362e9152760e11b815260040160405180910390fd5b6000816001600160a01b0316637730599e6040518163ffffffff1660e01b8152600401602060405180830381865afa158015610993573d6000803e3d6000fd5b505050506040513d601f19601f820116820180604052508101906109b791906145dc565b600081815260026020526040902054909150156109e757604051631b93bb7560e31b815260040160405180910390fd5b60015461010011610a0b57604051630f85034f60e31b815260040160405180910390fd5b60007f0000000000000000000000000000000000000000000000000000000000000000610ac5576000604051610a4090613cee565b604051809103906000f080158015610a5c573d6000803e3d6000fd5b50604051634a0687ef60e01b81526001600160a01b03868116600483015291925090821690634a0687ef90602401600060405180830381600087803b158015610aa457600080fd5b505af1158015610ab8573d6000803e3d6000fd5b5050505080915050610ac8565b50815b6001805480820182557fb10e2d527612073b26eecdfd717e6a320cf44b4afac2b0732d9fcbe2b7fa0cf60180546001600160a01b0384166001600160a01b0319909116179055546000838152600260205260409081902091909155517f878135063a6cfb3bc333e534b1fdc83f4f12221cad6705c31c0567048a8bd3d190610b6590849086909182526001600160a01b0316602082015260400190565b60405180910390a1505050565b6060610b7d33611b07565b610b9a5760405163619c535960e01b815260040160405180910390fd5b82828080601f016020809104026020016040519081016040528093929190818152602001838380828437600092019190915250610bdc925083915061279e9050565b610be857610be8614634565b600080610c628a6000898c8c8080601f01602080910402602001604051908101604052809392919081815260200183838082843760009201919091525050604080516020601f8f018190048102820181019092528d815292508d91508c90819084018382808284376000920191909152506127be92505050565b915091508115610d7757610c758161294b565b15610d0f5780806020019051810190610c8e919061468f565b9350610c998461279e565b610d0a5786610cc35760405163a85ba64f60e01b8152601460048201526024015b60405180910390fd5b85858080601f016020809104026020016040519081016040528093929190818152602001838380828437600092019190915250929650610d0a92508c91506014905061299f565b610db1565b86610d305760405163a85ba64f60e01b815260166004820152602401610cba565b85858080601f016020809104026020016040519081016040528093929190818152602001838380828437600092019190915250929650610d0a92508c91506016905061299f565b85858080601f0160208091040260200160405190810160405280939291908181526020018383808284376000920191909152509296505050505b5050509695505050505050565b6060610dcb338484612a14565b90505b92915050565b6060610de233858585612c4f565b949350505050565b610df2613cfb565b610dce82612d5e565b60608083838080601f016020809104026020016040519081016040528093929190818152602001838380828437600092019190915250610e40925083915061279e9050565b610e605760405163a85ba64f60e01b815260146004820152602401610cba565b89610e6a81611b07565b610e875760405163619c535960e01b815260040160405180910390fd5b6000610ec887878080601f016020809104026020016040519081016040528093929190818152602001838380828437600092019190915250610dea92505050565b6101208101519091506001600160a01b03163314610ef95760405163066875e160e11b815260040160405180910390fd5b60608101805133909152604080516020601f8c018190048102820181019092528a8152908b908b908190840183828082843760009201919091525050505060a0830152610f4582612e29565b95506000610f8b8e8e8e8080601f0160208091040260200160405190810160405280939291908181526020018383808284376000920191909152508c9250612f5d915050565b965090508015610fea5785806020019051810190610fa9919061468f565b9650610fb48761279e565b610fc057610fc0614634565b610fc987610dea565b6001600160a01b03831660608201529250610fe383612e29565b9650610ff3565b610ff386613016565b505050505097509795505050505050565b6000546201000090046001600160a01b03163314611035576040516362e9152760e11b815260040160405180910390fd5b7f000000000000000000000000000000000000000000000000000000000000000015611074576040516314f72c9f60e01b815260040160405180910390fd5b806001600160a01b031663cd312ec46040518163ffffffff1660e01b8152600401602060405180830381865afa1580156110b2573d6000803e3d6000fd5b505050506040513d601f19601f820116820180604052508101906110d691906146c3565b156110f45760405163474e764160e01b815260040160405180910390fd5b6110fd81613121565b50565b600061112a7f360894a13ba1a3210667c828492db98dca3e2076cc3735a920a3ca505d382bbc5490565b905090565b6000546201000090046001600160a01b03163314611160576040516362e9152760e11b815260040160405180910390fd5b6003546001600160a01b03166112cf577f00000000000000000000000000000000000000000000000000000000000000006112465760006040516111a390613cee565b604051809103906000f0801580156111bf573d6000803e3d6000fd5b50604051634a0687ef60e01b81526001600160a01b03848116600483015291925090821690634a0687ef90602401600060405180830381600087803b15801561120757600080fd5b505af115801561121b573d6000803e3d6000fd5b5050600380546001600160a01b0319166001600160a01b039490941693909317909255506112629050565b600380546001600160a01b0319166001600160a01b0383161790555b600360009054906101000a90046001600160a01b03166001600160a01b0316638129fc1c6040518163ffffffff1660e01b8152600401600060405180830381600087803b1580156112b257600080fd5b505af11580156112c6573d6000803e3d6000fd5b5050505061136e565b7f00000000000000000000000000000000000000000000000000000000000000001561130e576040516314f72c9f60e01b815260040160405180910390fd5b6003546040516311a5465560e21b81526001600160a01b03838116600483015290911690634695195490602401600060405180830381600087803b15801561135557600080fd5b505af1158015611369573d6000803e3d6000fd5b505050505b6003546040516001600160a01b0390911681527fce13a9895a1719ad4493b2ac1a9bfb36070566161abab408e7ecbe586da8d499906020015b60405180910390a150565b336000818152600460205260409020546113df576040516302eb3f7160e61b815260040160405180910390fd5b6001600160a01b03821660009081526004602052604090205461141557604051634b5518af60e11b815260040160405180910390fd5b61141e82611bcc565b60ff1661142a82611bcc565b60ff161161144b57604051630447252760e41b815260040160405180910390fd5b6001600160a01b039081166000908152600560209081526040808320949093168252929092529020805460ff19166001179055565b600080546201000090046001600160a01b03166380f70cba30836114a38661335b565b6040518463ffffffff1660e01b81526004016114c1939291906146e0565b602060405180830381865afa1580156114de573d6000803e3d6000fd5b505050506040513d601f19601f8201168201806040525081019061150291906145dc565b151592915050565b606061151533611b07565b6115325760405163619c535960e01b815260040160405180910390fd5b83838080601f016020809104026020016040519081016040528093929190818152602001838380828437600092019190915250611574925083915061279e9050565b61158057611580614634565b60006115c186868080601f016020809104026020016040519081016040528093929190818152602001838380828437600092019190915250610dea92505050565b90508381610100018181516115d69190614704565b9052506115e281612e29565b9695505050505050565b6115fe6115f76133e3565b838361344b565b5050565b6115fe33838361344b565b6001600160a01b038116600090815260046020526040812054618000161515610dce565b6000546201000090046001600160a01b03163314611662576040516362e9152760e11b815260040160405180910390fd5b600054604080516001600160a01b03620100009093048316815291831660208301527f13abda02e63c790d0e2818b251282cfe5cbe0a8abd69c54bf5d2260c0907bd2e910160405180910390a1600080546001600160a01b03909216620100000262010000600160b01b0319909216919091179055565b60606116e433611b07565b6117015760405163619c535960e01b815260040160405180910390fd5b82828080601f016020809104026020016040519081016040528093929190818152602001838380828437600092019190915250611743925083915061279e9050565b61174f5761174f614634565b6000806117c98a6001898c8c8080601f01602080910402602001604051908101604052809392919081815260200183838082843760009201919091525050604080516020601f8f018190048102820181019092528d815292508d91508c90819084018382808284376000920191909152506127be92505050565b915091508115610db1576117dc8161294b565b156117fc57808060200190518101906117f5919061468f565b9350610db1565b8661181d5760405163a85ba64f60e01b815260166004820152602401610cba565b610db18a601661299f565b606061183333611b07565b6118505760405163619c535960e01b815260040160405180910390fd5b86868080601f016020809104026020016040519081016040528093929190818152602001838380828437600092019190915250611892925083915061279e9050565b61189e5761189e614634565b60006118df89898080601f016020809104026020016040519081016040528093929190818152602001838380828437600092019190915250610dea92505050565b905061190681606001516001600160a01b0316600090815260046020526040902054151590565b801561191a57506001816000015160ff1610155b1561196d5760608101516001600160a01b039081166000908152600560209081526040808320938b168352929052205460ff1661196d5760405163a85ba64f60e01b8152601e6004820152602401610cba565b8051816119798261472c565b60ff169052506003602082015260c0810186905261010081018590526001600160a01b0380881661012083015284166101408201526119b781612e29565b9998505050505050505050565b6000546201000090046001600160a01b031633146119f5576040516362e9152760e11b815260040160405180910390fd5b60035460408051634a3852d960e11b815290516000926001600160a01b031691639470a5b29160048083019260209291908290030181865afa158015611a3f573d6000803e3d6000fd5b505050506040513d601f19601f82011682018060405250810190611a63919061474b565b6040516311a5465560e21b81526001600160a01b03808316600483015291925090831690634695195490602401600060405180830381600087803b158015611aaa57600080fd5b505af1158015611abe573d6000803e3d6000fd5b50506040516001600160a01b038481168252851692507f840acbd291b38534819f47f875839277e502f40e1c7bfea2c5fc2c8017442cd391506020015b60405180910390a25050565b600080826001600160a01b0316637730599e6040518163ffffffff1660e01b8152600401602060405180830381865afa158015611b48573d6000803e3d6000fd5b505050506040513d601f19601f82011682018060405250810190611b6c91906145dc565b6000818152600260205260409020549091508015801590610de257506001600160a01b0384166001611b9e818461460b565b81548110611bae57611bae61461e565b6000918252602090912001546001600160a01b031614949350505050565b6001600160a01b03811660009081526004602052604081205460ff16610dce565b6060611bf833611b07565b611c155760405163619c535960e01b815260040160405180910390fd5b6000611c5685858080601f016020809104026020016040519081016040528093929190818152602001838380828437600092019190915250610dea92505050565b9050828161010001818151611c6b9190614704565b905250611c7781612e29565b95945050505050565b600054610100900460ff1615808015611ca05750600054600160ff909116105b80611cba5750303b158015611cba575060005460ff166001145b611cd65760405162461bcd60e51b8152600401610cba90614768565b6000805460ff191660011790558015611cf9576000805461ff0019166101001790555b80156110fd576000805461ff0019169055604051600181527f7f26b83ff96e1f2b6a682f133852f6798a09c465da95921460cefb3847402498906020016113a7565b600081815260026020526040812054808203611d6a57604051630e4f4df560e11b815260040160405180910390fd5b611d7560018261460b565b6001901b19841691505092915050565b7f000000000000000000000000000000000000000000000000000000000000000015611dc4576040516305b93ebf60e41b815260040160405180910390fd5b6110fd81336001613969565b600081815260026020526040812054808203611dff57604051630e4f4df560e11b815260040160405180910390fd5b6001611e0b818361460b565b81548110611e1b57611e1b61461e565b6000918252602090912001546001600160a01b03169392505050565b6060611e4233611b07565b611e5f5760405163619c535960e01b815260040160405180910390fd5b84848080601f016020809104026020016040519081016040528093929190818152602001838380828437600092019190915250611ea1925083915061279e9050565b611ead57611ead614634565b611eb7848461299f565b85858080601f016020809104026020016040519081016040528093929190818152602001838380828437600092019190915250929998505050505050505050565b606082828080601f016020809104026020016040519081016040528093929190818152602001838380828437600092019190915250611f3c925083915061279e9050565b611f5c5760405163a85ba64f60e01b815260146004820152602401610cba565b6001600160a01b0387166000908152600460205260408120548891819003611f975760405163163cbe4360e01b815260040160405180910390fd5b618000811615611fb957604051628e12d960e21b815260040160405180910390fd5b87878080601f01602080910402602001604051908101604052809392919081815260200183838082843760009201829052509250611ffa9150839050613a88565b90506001600160e01b031981166330d9c91560e01b148061202b57506001600160e01b0319811663d86ed3e560e01b145b8061204657506001600160e01b03198116630221347d60e61b145b8061206157506001600160e01b0319811663230dbd2960e01b145b8061207c57506001600160e01b03198116635f9e7d7760e01b145b8061209757506001600160e01b031981166353c11f9960e01b145b156120b5576040516377a14afb60e11b815260040160405180910390fd5b60006120f689898080601f016020809104026020016040519081016040528093929190818152602001838380828437600092019190915250610dea92505050565b6101208101519091506001600160a01b03163314612127576040516311cfdef560e21b815260040160405180910390fd5b6060810180513390915261213a82612e29565b97506000806121818f8f8f8080601f0160208091040260200160405190810160405280939291908181526020018383808284376000920191909152508f9250612f5d915050565b9150915081156121f4578080602001905181019061219f919061468f565b99506121aa8a61279e565b6121ca5760405163a85ba64f60e01b815260146004820152602401610cba565b6121d38a610dea565b6001600160a01b038416606082015293506121ed84612e29565b99506121fd565b6121fd81613016565b50505050505050505095945050505050565b60008181526002602052604081205480820361223e57604051630e4f4df560e11b815260040160405180910390fd5b61224960018261460b565b6001901b841791505092915050565b7f00000000000000000000000000000000000000000000000000000000000000001561235f5760006122c03284848080601f016020809104026020016040519081016040528093929190818152602001838380828437600092019190915250613ae492505050565b6000805460405163407b865d60e11b81529293504292620100009091046001600160a01b0316916380f70cba916122fd91309187906004016146e0565b602060405180830381865afa15801561231a573d6000803e3d6000fd5b505050506040513d601f19601f8201168201806040525081019061233e91906145dc565b101561235d576040516319ab84d160e01b815260040160405180910390fd5b505b61236b83336001613969565b505050565b6000610dcb83838080601f01602080910402602001604051908101604052809392919081815260200183838082843760009201919091525061279e92505050565b600054610100900460ff16158080156123d15750600054600160ff909116105b806123eb5750303b1580156123eb575060005460ff166001145b6124075760405162461bcd60e51b8152600401610cba90614768565b6000805460ff19166001179055801561242a576000805461ff0019166101001790555b6000805462010000600160b01b031916620100006001600160a01b0385160217905580156115fe576000805461ff0019169055604051600181527f7f26b83ff96e1f2b6a682f133852f6798a09c465da95921460cefb38474024989060200160405180910390a15050565b60606000806001805490506001600160401b038111156124b7576124b7613ede565b6040519080825280602002602001820160405280156124e0578160200160208202803683370190505b50925060009050600091505b600154821015612577576001821b84161561256757600182815481106125145761251461461e565b6000918252602090912001546001600160a01b03168382612534816147b6565b9350815181106125465761254661461e565b60200260200101906001600160a01b031690816001600160a01b0316815250505b612570826147b6565b91506124ec565b825250919050565b6003546000906001600160a01b031661259a5761259a614634565b7f0000000000000000000000000000000000000000000000000000000000000000156125d057506003546001600160a01b031690565b600360009054906101000a90046001600160a01b03166001600160a01b03166350d75d256040518163ffffffff1660e01b8152600401602060405180830381865afa158015612623573d6000803e3d6000fd5b505050506040513d601f19601f8201168201806040525081019061112a919061474b565b333b600081900361266b5760405163353dacc360e21b815260040160405180910390fd5b507f00000000000000000000000000000000000000000000000000000000000000001561274357600061269d33613b17565b6000805460405163407b865d60e11b81529293509091620100009091046001600160a01b0316906380f70cba906126dc903090859087906004016146e0565b602060405180830381865afa1580156126f9573d6000803e3d6000fd5b505050506040513d601f19601f8201168201806040525081019061271d91906145dc565b6001149050806127405760405163289533c560e01b815260040160405180910390fd5b50505b6115fe81836000613969565b6001600160a01b03811660009081526004602090815260408083208151928301909152548082521580159291829161279657805161800081161515935064ff000000001691505b509193909250565b60008151600014158015610dce5750600654825160208401201492915050565b600060606001600160a01b0387166127d8576127d8614634565b6127e28484613b91565b935060005a9050861561286057876001600160a01b0316622dc6c06001600160401b03168660405161281491906147cf565b6000604051808303818686fa925050503d8060008114612850576040519150601f19603f3d011682016040523d82523d6000602084013e612855565b606091505b5090935091506128cf565b876001600160a01b0316622dc6c06001600160401b03168660405161288591906147cf565b60006040518083038160008787f1925050503d80600081146128c3576040519150601f19603f3d011682016040523d82523d6000602084013e6128c8565b606091505b5090935091505b82612940576128df603f826147eb565b5a111561290457856128f9576128f482613016565b612940565b6128f488600a61299f565b60405162461bcd60e51b815260206004820152601160248201527053463a206e656564206d6f72652067617360781b6044820152606401610cba565b509550959350505050565b600060408251101561295f57506000919050565b602082810151906000908214612979575060009392505050565b50604083015161298881613c48565b61299390604061480d565b84511492505050919050565b6001600160a01b0382166000908152600460205260408120546180001690036115fe576001600160a01b038216600081815260046020526040908190208054618000179055517fbe3aa33bd245135e4e26b223d79d14ea479a47bff09f2b03c53838af1edbb14b90611afb9084815260200190565b60065460609015612a3b5760405163a85ba64f60e01b815260156004820152602401610cba565b6001600160a01b0383166000908152600460205260408120548491819003612a765760405163163cbe4360e01b815260040160405180910390fd5b618000811615612a9857604051628e12d960e21b815260040160405180910390fd5b836000612aa482613a88565b90506001600160e01b031981166330d9c91560e01b1480612ad557506001600160e01b0319811663d86ed3e560e01b145b80612af057506001600160e01b03198116630221347d60e61b145b80612b0b57506001600160e01b0319811663230dbd2960e01b145b80612b2657506001600160e01b03198116635f9e7d7760e01b145b80612b4157506001600160e01b031981166353c11f9960e01b145b15612b5f576040516377a14afb60e11b815260040160405180910390fd5b60408051610160810182526000808252600260208084019190915242838501526001600160a01b03808d16606085015260808401839052845191820190945281815260a083015260c0820181905260e0820181905261010082018190529189166101208201526101408101829052612bd690612e29565b90506000612be5898984612f5d565b975090508015612c335786806020019051810190612c03919061468f565b9150612c0e8261279e565b612c2e5760405163a85ba64f60e01b815260146004820152602401610cba565b612c3c565b612c3c87613016565b5050600060065550929695505050505050565b60065460609015612c765760405163a85ba64f60e01b815260156004820152602401610cba565b83612c8081611b07565b612c9d5760405163619c535960e01b815260040160405180910390fd5b6000612ca885613a88565b6040805161016081018252600080825260016020830152929350612d2b9181014281526020018a6001600160a01b03168152602001846001600160e01b031916815260200187815260200160008152602001600081526020016000815260200160006001600160a01b0316815260200160006001600160a01b0316815250612e29565b90506000612d3a888884612f5d565b9550905080612d4c57612d4c85613016565b50506000600655509095945050505050565b612d66613cfb565b60608083806020019051810190612d7d9190614820565b81519193509150600090612d9a9084016020908101908501614879565b60a08901526001600160e01b03191660808801526001600160a01b031660608701526040860152602081811c600f168187015260ff9091168552825160009250612deb9190840181019084016148fd565b6001600160a01b03908116610140890152166101208701526101008601526001600160801b03811660c086015260801c60e085015250919392505050565b60606001826000015160ff161115612e575760405163a85ba64f60e01b815260286004820152602401610cba565b815160208084015160009260ff1664ff000000009190921b1617905060006080612e848560e00151613c81565b6001600160801b0316901b612e9c8560c00151613c81565b6001600160801b0316179050818460400151856060015186608001518760a00151604051602001612ed1959493929190614948565b60408051601f1981840301815282825261010087015161012088015161014089015160208601879052938501919091526001600160a01b03908116606085015290911660808301529060a00160408051601f1981840301815290829052612f3b9291602001614226565b60408051601f1981840301815291905280516020820120600655949350505050565b600060606001600160a01b038516612f7757612f77614634565b612f818484613b91565b9350846001600160a01b031684604051612f9b91906147cf565b6000604051808303816000865af19150503d8060008114612fd8576040519150601f19603f3d011682016040523d82523d6000602084013e612fdd565b606091505b509092509050811561300e57805160000361300e5760405163a85ba64f60e01b815260166004820152602401610cba565b935093915050565b6004815110156130685760405162461bcd60e51b815260206004820152601a60248201527f43616c6c5574696c733a207461726765742072657665727428290000000000006044820152606401610cba565b602081015163b1b7848f60e01b6001600160e01b03198216016131185760408051808201825260208082527f43616c6c5574696c733a207461726765742070616e69636b65643a2030785f5f90820190815260248501517f43616c6c5574696c733a207461726765742070616e69636b65643a2030780000600482811c600f908116603090810160081b918516011791909117909252925162461bcd60e51b8152919291610cba91849101613ecb565b81518060208401fd5b600061314b7f360894a13ba1a3210667c828492db98dca3e2076cc3735a920a3ca505d382bbc5490565b6001600160a01b0316036131a15760405162461bcd60e51b815260206004820152601d60248201527f5555505350726f786961626c653a206e6f742075706772616461626c650000006044820152606401610cba565b806001600160a01b03166352d1902d6040518163ffffffff1660e01b8152600401602060405180830381865afa1580156131df573d6000803e3d6000fd5b505050506040513d601f19601f8201168201806040525081019061320391906145dc565b7fcd355cae2c435f8c5e0c626c4691d22fd85aa7422a424c6f0bced6e64c7aba741461327d5760405162461bcd60e51b815260206004820152602360248201527f5555505350726f786961626c653a206e6f7420636f6d70617469626c65206c6f60448201526267696360e81b6064820152608401610cba565b6001600160a01b03811630036132d55760405162461bcd60e51b815260206004820152601960248201527f5555505350726f786961626c653a2070726f7879206c6f6f70000000000000006044820152606401610cba565b6132fd817f360894a13ba1a3210667c828492db98dca3e2076cc3735a920a3ca505d382bbc55565b7fe011bc04c286c344a8fcbb8de77f953da762c3e25d8cdea984147fc4168a5dcc7fcd355cae2c435f8c5e0c626c4691d22fd85aa7422a424c6f0bced6e64c7aba74604080519182526001600160a01b0384166020830152016113a7565b6040805160208101829052603260608201527f6f72672e7375706572666c7569642d66696e616e63652e7375706572666c756960808201527132173a393ab9ba32b22337b93bb0b93232b960711b60a08201526001600160a01b0383169181019190915260009060c0015b604051602081830303815290604052805190602001209050919050565b6000601836108015906133fa57506133fa33611480565b61343e5760405162461bcd60e51b81526020600482015260156024820152742737ba103a393ab9ba32b2103337b93bb0b93232b960591b6044820152606401610cba565b5060131936013560601c90565b60005b8181101561396357600083838381811061346a5761346a61461e565b905060200281019061347c9190614994565b61348a9060208101906149aa565b905060001963ffffffff82160161357e576000808585858181106134b0576134b061461e565b90506020028101906134c29190614994565b6134d09060408101906149d0565b8101906134dd91906145b0565b915091508585858181106134f3576134f361461e565b90506020028101906135059190614994565b613516906040810190602001613d6b565b6001600160a01b03166362aa52878884846040518463ffffffff1660e01b8152600401613545939291906146e0565b600060405180830381600087803b15801561355f57600080fd5b505af1158015613573573d6000803e3d6000fd5b505050505050613952565b60011963ffffffff8216016136885760008060008686868181106135a4576135a461461e565b90506020028101906135b69190614994565b6135c49060408101906149d0565b8101906135d19190614a16565b9250925092508686868181106135e9576135e961461e565b90506020028101906135fb9190614994565b61360c906040810190602001613d6b565b604051630b682aeb60e11b81526001600160a01b038a81166004830152858116602483015284811660448301526064820184905291909116906316d055d690608401600060405180830381600087803b15801561366857600080fd5b505af115801561367c573d6000803e3d6000fd5b50505050505050613952565b60641963ffffffff82160161377d578383838181106136a9576136a961461e565b90506020028101906136bb9190614994565b6136cc906040810190602001613d6b565b6001600160a01b031663ca789464868686868181106136ed576136ed61461e565b90506020028101906136ff9190614994565b61370d9060408101906149d0565b81019061371a91906143a7565b6040516001600160e01b031960e085901b1681526001600160a01b0390921660048301526024820152604401600060405180830381600087803b15801561376057600080fd5b505af1158015613774573d6000803e3d6000fd5b50505050613952565b60651963ffffffff8216016137e25783838381811061379e5761379e61461e565b90506020028101906137b09190614994565b6137c1906040810190602001613d6b565b6001600160a01b031663245887fc868686868181106136ed576136ed61461e565b60c81963ffffffff82160161387f576000808585858181106138065761380661461e565b90506020028101906138189190614994565b6138269060408101906149d0565b8101906138339190614a57565b915091506138778787878781811061384d5761384d61461e565b905060200281019061385f9190614994565b613870906040810190602001613d6b565b8484612c4f565b505050613952565b60c91963ffffffff82160161393957613933858585858181106138a4576138a461461e565b90506020028101906138b69190614994565b6138c7906040810190602001613d6b565b8686868181106138d9576138d961461e565b90506020028101906138eb9190614994565b6138f99060408101906149d0565b8080601f016020809104026020016040519081016040528093929190818152602001838380828437600092019190915250612a1492505050565b50613952565b60405163b477011560e01b815260040160405180910390fd5b5061395c816147b6565b905061344e565b50505050565b32330361398c5760405163a85ba64f60e01b815260026004820152602401610cba565b80156139b857813b80156139b65760405163a85ba64f60e01b815260016004820152602401610cba565b505b64ff000080ff1983161515806139cf575060ff8316155b806139dd5750618000831615155b156139fb57604051633d3200a960e21b815260040160405180910390fd5b6001600160a01b03821660009081526004602052604090205415613a32576040516301b0a93560e01b815260040160405180910390fd5b60408051602080820183528582526001600160a01b038516600081815260049092528382209251909255915190917f0d540ad8f39e07d19909687352b9fa017405d93c91a6760981fbae9cf28bfef791a2505050565b6000600482511015613adc5760405162461bcd60e51b815260206004820152601b60248201527f43616c6c5574696c733a20696e76616c69642063616c6c4461746100000000006044820152606401610cba565b506020015190565b60008282604051602001613af9929190614ab0565b60405160208183030381529060405280519060200120905092915050565b6040805160208101829052603960608201527f6f72672e7375706572666c7569642d66696e616e63652e7375706572666c756960808201527f642e61707057686974654c697374696e672e666163746f72790000000000000060a08201526001600160a01b0383169181019190915260009060c0016133c6565b815180830151606091908015613bba576040516367e9985b60e01b815260040160405180910390fd5b50601f1981018452825184908481613bd181613c48565b613bdb919061460b565b6001600160401b03811115613bf257613bf2613ede565b6040519080825280601f01601f191660200182016040528015613c1c576020820181803683370190505b50604051602001613c309493929190614b35565b60405160208183030381529060405291505092915050565b60008082601f1611613c5b576000613c5e565b60015b60ff16613c6c6020846147eb565b613c76919061480d565b610dce906020614b84565b60006001600160801b03821115613cea5760405162461bcd60e51b815260206004820152602760248201527f53616665436173743a2076616c756520646f65736e27742066697420696e20316044820152663238206269747360c81b6064820152608401610cba565b5090565b61024a80614ba483390190565b604080516101608101825260008082526020820181905291810182905260608082018390526080820183905260a082015260c0810182905260e081018290526101008101829052610120810182905261014081019190915290565b6001600160a01b03811681146110fd57600080fd5b600060208284031215613d7d57600080fd5b8135613d8881613d56565b9392505050565b60008083601f840112613da157600080fd5b5081356001600160401b03811115613db857600080fd5b602083019150836020828501011115613dd057600080fd5b9250929050565b80151581146110fd57600080fd5b60008060008060008060808789031215613dfe57600080fd5b8635613e0981613d56565b955060208701356001600160401b0380821115613e2557600080fd5b613e318a838b01613d8f565b909750955060408901359150613e4682613dd7565b90935060608801359080821115613e5c57600080fd5b50613e6989828a01613d8f565b979a9699509497509295939492505050565b60005b83811015613e96578181015183820152602001613e7e565b50506000910152565b60008151808452613eb7816020860160208601613e7b565b601f01601f19169290920160200192915050565b602081526000610dcb6020830184613e9f565b634e487b7160e01b600052604160045260246000fd5b604051601f8201601f191681016001600160401b0381118282101715613f1c57613f1c613ede565b604052919050565b60006001600160401b03821115613f3d57613f3d613ede565b50601f01601f191660200190565b600082601f830112613f5c57600080fd5b8135613f6f613f6a82613f24565b613ef4565b818152846020838601011115613f8457600080fd5b816020850160208301376000918101602001919091529392505050565b60008060408385031215613fb457600080fd5b8235613fbf81613d56565b915060208301356001600160401b03811115613fda57600080fd5b613fe685828601613f4b565b9150509250929050565b60008060006060848603121561400557600080fd5b833561401081613d56565b925060208401356001600160401b038082111561402c57600080fd5b61403887838801613f4b565b9350604086013591508082111561404e57600080fd5b5061405b86828701613f4b565b9150509250925092565b60006020828403121561407757600080fd5b81356001600160401b0381111561408d57600080fd5b610de284828501613f4b565b602081526140ad60208201835160ff169052565b600060208301516140c3604084018260ff169052565b506040830151606083015260608301516140e860808401826001600160a01b03169052565b5060808301516001600160e01b0319811660a08401525060a08301516101608060c085015261411b610180850183613e9f565b915060c085015160e085015260e0850151610100818187015280870151915050610120818187015280870151915050610140614161818701836001600160a01b03169052565b909501516001600160a01b031693019290925250919050565b60008060008060008060006080888a03121561419557600080fd5b87356141a081613d56565b965060208801356001600160401b03808211156141bc57600080fd5b6141c88b838c01613d8f565b909850965060408a01359150808211156141e157600080fd5b6141ed8b838c01613d8f565b909650945060608a013591508082111561420657600080fd5b506142138a828b01613d8f565b989b979a50959850939692959293505050565b6040815260006142396040830185613e9f565b8281036020840152611c778185613e9f565b60008060006040848603121561426057600080fd5b83356001600160401b0381111561427657600080fd5b61428286828701613d8f565b909790965060209590950135949350505050565b600080602083850312156142a957600080fd5b82356001600160401b03808211156142c057600080fd5b818501915085601f8301126142d457600080fd5b8135818111156142e357600080fd5b8660208260051b85010111156142f857600080fd5b60209290920196919550909350505050565b60008060008060008060a0878903121561432357600080fd5b86356001600160401b0381111561433957600080fd5b61434589828a01613d8f565b909750955050602087013561435981613d56565b93506040870135925060608701359150608087013561437781613d56565b809150509295509295509295565b6000806040838503121561439857600080fd5b50508035926020909101359150565b6000602082840312156143b957600080fd5b5035919050565b600080600080606085870312156143d657600080fd5b84356001600160401b038111156143ec57600080fd5b6143f887828801613d8f565b909550935050602085013561440c81613d56565b9396929550929360400135925050565b60008060008060006060868803121561443457600080fd5b853561443f81613d56565b945060208601356001600160401b038082111561445b57600080fd5b61446789838a01613d8f565b9096509450604088013591508082111561448057600080fd5b5061448d88828901613d8f565b969995985093965092949392505050565b600080604083850312156144b157600080fd5b82356144bc81613d56565b915060208301356144cc81613d56565b809150509250929050565b6000806000604084860312156144ec57600080fd5b8335925060208401356001600160401b0381111561450957600080fd5b61451586828701613d8f565b9497909650939450505050565b6000806020838503121561453557600080fd5b82356001600160401b0381111561454b57600080fd5b61455785828601613d8f565b90969095509350505050565b6020808252825182820181905260009190848201906040850190845b818110156145a45783516001600160a01b03168352928401929184019160010161457f565b50909695505050505050565b600080604083850312156145c357600080fd5b82356145ce81613d56565b946020939093013593505050565b6000602082840312156145ee57600080fd5b5051919050565b634e487b7160e01b600052601160045260246000fd5b81810381811115610dce57610dce6145f5565b634e487b7160e01b600052603260045260246000fd5b634e487b7160e01b600052600160045260246000fd5b600082601f83011261465b57600080fd5b8151614669613f6a82613f24565b81815284602083860101111561467e57600080fd5b610de2826020830160208701613e7b565b6000602082840312156146a157600080fd5b81516001600160401b038111156146b757600080fd5b610de28482850161464a565b6000602082840312156146d557600080fd5b8151613d8881613dd7565b6001600160a01b039384168152919092166020820152604081019190915260600190565b8082018281126000831280158216821582161715614724576147246145f5565b505092915050565b600060ff821660ff8103614742576147426145f5565b60010192915050565b60006020828403121561475d57600080fd5b8151613d8881613d56565b6020808252602e908201527f496e697469616c697a61626c653a20636f6e747261637420697320616c72656160408201526d191e481a5b9a5d1a585b1a5e995960921b606082015260800190565b6000600182016147c8576147c86145f5565b5060010190565b600082516147e1818460208701613e7b565b9190910192915050565b60008261480857634e487b7160e01b600052601260045260246000fd5b500490565b80820180821115610dce57610dce6145f5565b6000806040838503121561483357600080fd5b82516001600160401b038082111561484a57600080fd5b6148568683870161464a565b9350602085015191508082111561486c57600080fd5b50613fe68582860161464a565b600080600080600060a0868803121561489157600080fd5b855194506020860151935060408601516148aa81613d56565b60608701519093506001600160e01b0319811681146148c857600080fd5b60808701519092506001600160401b038111156148e457600080fd5b6148f08882890161464a565b9150509295509295909350565b6000806000806080858703121561491357600080fd5b8451935060208501519250604085015161492c81613d56565b606086015190925061493d81613d56565b939692955090935050565b858152602081018590526001600160a01b03841660408201526001600160e01b03198316606082015260a06080820181905260009061498990830184613e9f565b979650505050505050565b60008235605e198336030181126147e157600080fd5b6000602082840312156149bc57600080fd5b813563ffffffff81168114613d8857600080fd5b6000808335601e198436030181126149e757600080fd5b8301803591506001600160401b03821115614a0157600080fd5b602001915036819003821315613dd057600080fd5b600080600060608486031215614a2b57600080fd5b8335614a3681613d56565b92506020840135614a4681613d56565b929592945050506040919091013590565b60008060408385031215614a6a57600080fd5b82356001600160401b0380821115614a8157600080fd5b614a8d86838701613f4b565b93506020850135915080821115614aa357600080fd5b50613fe685828601613f4b565b60608152604160608201527f6f72672e7375706572666c7569642d66696e616e63652e7375706572666c756960808201527f642e61707057686974654c697374696e672e726567697374726174696f6e4b6560a0820152607960f81b60c082015260018060a01b038316602082015260e060408201526000610de260e0830184613e9f565b600085516020614b488285838b01613e7b565b81840191508682528551614b6181838501848a01613e7b565b8551920191614b7581838501848901613e7b565b91909101019695505050505050565b6000816000190483118215151615614b9e57614b9e6145f5565b50029056fe608060405234801561001057600080fd5b5061022a806100206000396000f3fe6080604052600436106100225760003560e01c80634a0687ef1461003957610031565b366100315761002f610059565b005b61002f610059565b34801561004557600080fd5b5061002f6100543660046101c4565b61006b565b610069610064610171565b6101a0565b565b6001600160a01b0381166100c65760405162461bcd60e51b815260206004820152601760248201527f5555505350726f78793a207a65726f206164647265737300000000000000000060448201526064015b60405180910390fd5b60006100f07f360894a13ba1a3210667c828492db98dca3e2076cc3735a920a3ca505d382bbc5490565b6001600160a01b0316146101465760405162461bcd60e51b815260206004820152601e60248201527f5555505350726f78793a20616c726561647920696e697469616c697a6564000060448201526064016100bd565b61016e817f360894a13ba1a3210667c828492db98dca3e2076cc3735a920a3ca505d382bbc55565b50565b600061019b7f360894a13ba1a3210667c828492db98dca3e2076cc3735a920a3ca505d382bbc5490565b905090565b3660008037600080366000845af43d6000803e8080156101bf573d6000f35b3d6000fd5b6000602082840312156101d657600080fd5b81356001600160a01b03811681146101ed57600080fd5b939250505056fea2646970667358221220ce7bb4a232d8c6258fb15c2cc7314073fb16eaeb0a686329740770f256d8703b64736f6c63430008100033a264697066735822122049c4c7ef31ea6a29738db7c3a2a8e35b9be67467a27ebd1fe1b55be6a9bd5ef164736f6c6343000810003360c06040523480156200001157600080fd5b50604051620055cc380380620055cc833981016040819052620000349162000065565b6001600160a01b039182166080521660a052620000a4565b6001600160a01b03811681146200006257600080fd5b50565b600080604083850312156200007957600080fd5b825162000086816200004c565b602084015190925062000099816200004c565b809150509250929050565b60805160a0516154d8620000f4600039600081816102e001528181611cdc01528181611d10015281816127e10152818161281501528181612ab40152612ae80152600061079701526154d86000f3fe608060405234801561001057600080fd5b50600436106101d95760003560e01c806352d1902d116101045780639903ad38116100a2578063b4b333c611610071578063b4b333c6146104a1578063bf3fbc28146104b4578063e6a1e888146104d6578063e8e7e2d1146104e957600080fd5b80639903ad38146104585780639b2e48bc146104605780639cb28b721461031a578063aabd26681461048e57600080fd5b80637730599e116100de5780637730599e146103f9578063811b3d401461041f5780638d997f6e1461043257806394229ecb1461044557600080fd5b806352d1902d146103cb57806354b770e3146103d357806362fc305e146103e657600080fd5b806326b0f5361161017c5780634c8b181f1161014b5780634c8b181f146103735780634fe9c2911461038657806350209a62146103b057806350d75d25146103c357600080fd5b806326b0f5361461031a578063354b959014610328578063469519541461033b5780634b839e0b1461035057600080fd5b8063062e56ec116101b8578063062e56ec1461025657806309d256ef146102765780630f1ac495146102a55780630f2f8f3c146102db57600080fd5b8062422bbe146101de57806304aafa49146102165780630602f7db14610230575b600080fd5b6101f16101ec3660046146ec565b6104fc565b6040805193845260ff9092166020840152600b0b908201526060015b60405180910390f35b61022264010000000081565b60405190815260200161020d565b61024361023e366004614737565b610532565b604051600b9190910b815260200161020d565b6102696102643660046147a4565b610553565b60405161020d9190614858565b610289610284366004614737565b61056d565b6040805160ff9093168352600b9190910b60208301520161020d565b6102b86102b336600461486b565b610591565b60408051948552600b9390930b602085015291830152606082015260800161020d565b6103027f000000000000000000000000000000000000000000000000000000000000000081565b6040516001600160a01b03909116815260200161020d565b61022260016001605f1b0381565b6102696103363660046148b6565b6105c7565b61034e610349366004614941565b61078c565b005b61036361035e36600461495e565b6107e1565b604051901515815260200161020d565b61026961038136600461499f565b6108b8565b61039961039436600461486b565b6109a3565b60408051921515835260208301919091520161020d565b6102696103be366004614a1a565b610a85565b610302610b58565b610222610b87565b6102696103e13660046147a4565b610beb565b6102696103f4366004614a1a565b610c03565b7fa9214cc96615e0085d3bb077758db69497dc2dce3b2b1e97bc93c3d18d83efd3610222565b61026961042d366004614a6a565b610cb6565b610222610440366004614aae565b610eb3565b6102696104533660046148b6565b6110e2565b61034e611265565b61047361046e36600461495e565b611373565b6040805193845260208401929092529082015260600161020d565b6102b861049c366004614737565b6113cd565b6102696104af36600461499f565b6113df565b6104be6203d09081565b6040516001600160401b03909116815260200161020d565b6102b86104e43660046146ec565b611473565b6102436104f736600461486b565b6114ae565b600080600061050b85856114c8565b925060006105198785611533565b8051602090910151959990985094965093945050505050565b60008061053e846115f8565b50905061054b8184611773565b949350505050565b606061056485856000808787610cb6565b95945050505050565b600080600061057c8585611533565b80516020909101519097909650945050505050565b60008060008060006105a387876117b3565b805160208201516040830151606090930151919b909a509198509650945050505050565b6060600061060b8885858080601f01602080910402602001604051908101604052809392919081815260200183838082843760009201919091525061186c92505050565b9050866001600160a01b031681606001516001600160a01b0316036106435760405163edfa0d3b60e01b815260040160405180910390fd5b6000806106598a6106548b8b611a30565b611a58565b9150915060008060006106718d8d88606001516104fc565b925092509250610682826001611a9f565b61069f5760405163ac434b5f60e01b815260040160405180910390fd5b6000600b82900b60016001605f1b0314806106c457508a600b0b8560200151600b0b12155b6106e65760208501516106d7908c614af9565b6106e19083614af9565b6106e8565b815b9050600081600b0b121561070f5760405163a0645c1f60e01b815260040160405180910390fd5b61071b8e858584611afa565b5050505061074960408051608081018252600080825260208201819052918101829052606081019190915290565b6001600160a01b03808c1682528a8116602083015289166040820152600b88900b606082015261077d8183858a8a89611b83565b9b9a5050505050505050505050565b336001600160a01b037f000000000000000000000000000000000000000000000000000000000000000016146107d557604051630b00ec8f60e11b815260040160405180910390fd5b6107de81611e3f565b50565b604051633acd4df360e21b81526001600160a01b03838116600483015260248201839052600091829186169063eb3537cc90604401606060405180830381865afa158015610833573d6000803e3d6000fd5b505050506040513d601f19601f820116820180604052508101906108579190614b26565b505090506000811261086d5760019150506108b1565b600080610879876115f8565b91509150600061088988886117b3565b915050600061089b8260400151612047565b90506108a9858286866120b5565b955050505050505b9392505050565b606060006108fc8785858080601f01602080910402602001604051908101604052809392919081815260200183838082843760009201919091525061186c92505050565b9050600061090f888884606001516104fc565b509150506000610920826002611a9f565b9050806109405760405163e30f1bff60e01b815260040160405180910390fd5b6040805160808101825260008082526020820181905291810182905260608101919091525b6001600160a01b03808b168252898116602083015288166040820152600060608201526109958183898988612103565b9a9950505050505050505050565b6000806000846001600160a01b03166320bc44256040518163ffffffff1660e01b8152600401602060405180830381865afa1580156109e6573d6000803e3d6000fd5b505050506040513d601f19601f82011682018060405250810190610a0a9190614b5f565b9050806001600160a01b031663bbe4fd506040518163ffffffff1660e01b8152600401602060405180830381865afa158015610a4a573d6000803e3d6000fd5b505050506040513d601f19601f82011682018060405250810190610a6e9190614b7c565b9150610a7b8585846107e1565b9250509250929050565b60606000610ac98785858080601f01602080910402602001604051908101604052809392919081815260200183838082843760009201919091525061186c92505050565b9050610af560408051608081018252600080825260208201819052918101829052606081019190915290565b6001600160a01b03808916825260608084015182166020840181905291891660408401819052600b89900b91840191909152600091610b3391611a30565b9050600080610b46846000015184611a58565b9150915061077d8482848b8b8a611b83565b6000610b827f360894a13ba1a3210667c828492db98dca3e2076cc3735a920a3ca505d382bbc5490565b905090565b6000306001600160a01b0316637730599e6040518163ffffffff1660e01b8152600401602060405180830381865afa158015610bc7573d6000803e3d6000fd5b505050506040513d601f19601f82011682018060405250810190610b829190614b7c565b60606105648585600760016001605f1b038787610cb6565b60606000610c478785858080601f01602080910402602001604051908101604052809392919081815260200183838082843760009201919091525061186c92505050565b9050610c7360408051608081018252600080825260208201819052918101829052606081019190915290565b6001600160a01b038089168252606080840151821660208401529088166040830152600b87900b90820152610caa81868685612946565b98975050505050505050565b606082828080601f016020809104026020016040519081016040528093929190818152602001838380828437600092019190915250929350610cfd9250879150612c129050565b610d1a57604051631e4e759b60e21b815260040160405180910390fd5b6000610d5c8885858080601f01602080910402602001604051908101604052809392919081815260200183838082843760009201919091525061186c92505050565b9050866001600160a01b031681606001516001600160a01b031603610d945760405163b0ed394d60e01b815260040160405180910390fd5b600085600b0b1215610db9576040516386e0377d60e01b815260040160405180910390fd5b6040805180820190915260ff87168152600b86900b60208201526060820151600090610de5908a6114c8565b9050896001600160a01b031663a1b2bf8b82610e0085612c19565b6040518363ffffffff1660e01b8152600401610e1d929190614bd0565b600060405180830381600087803b158015610e3757600080fd5b505af1158015610e4b573d6000803e3d6000fd5b50505060608401516040805160ff8c168152600b8b900b60208201526001600160a01b03808e169450928316928e16917fc0d5d3a6ac18cc1769788c925e6e7fc89cd47e4270a42884736fa9b3ec09f3a8910160405180910390a45050509695505050505050565b600081600b0b600003610ec8575060006110dc565b6000836001600160a01b03166320bc44256040518163ffffffff1660e01b8152600401602060405180830381865afa158015610f08573d6000803e3d6000fd5b505050506040513d601f19601f82011682018060405250810190610f2c9190614b5f565b90506000816001600160a01b031663289b3c0d6040518163ffffffff1660e01b8152600401602060405180830381865afa158015610f6e573d6000803e3d6000fd5b505050506040513d601f19601f82011682018060405250810190610f929190614b5f565b90506000816001600160a01b03166380f70cba84887feae305fa863b373417e615b1044222e2806cefc7788d169ce6748a443c3f6cc46040518463ffffffff1660e01b8152600401610fe693929190614be9565b602060405180830381865afa158015611003573d6000803e3d6000fd5b505050506040513d601f19601f820116820180604052508101906110279190614b7c565b90506000826001600160a01b03166380f70cba85897fe420d96e81cb4a6b2abb2366c4f93312d4e2ae878a7d4b22e73472fdad891f786040518463ffffffff1660e01b815260040161107b93929190614be9565b602060405180830381865afa158015611098573d6000803e3d6000fd5b505050506040513d601f19601f820116820180604052508101906110bc9190614b7c565b9050602081901c63ffffffff166110d4838289612c8f565b955050505050505b92915050565b606060006111268885858080601f01602080910402602001604051908101604052809392919081815260200183838082843760009201919091525061186c92505050565b9050866001600160a01b031681606001516001600160a01b03160361115e576040516325cc989b60e11b815260040160405180910390fd5b60008060006111728b8b86606001516104fc565b925092509250611183826000611a9f565b6111a0576040516328faadab60e21b815260040160405180910390fd5b6000600b82900b60016001605f1b03146111c3576111be8983614af9565b6111c5565b815b9050600081600b0b12156111ec5760405163a0645c1f60e01b815260040160405180910390fd5b6111f88c858584611afa565b5050505061122660408051608081018252600080825260208201819052918101829052606081019190915290565b6001600160a01b03808a168252888116602083015287166040820152600b86900b606082015261125881868685612946565b9998505050505050505050565b600054610100900460ff16158080156112855750600054600160ff909116105b8061129f5750303b15801561129f575060005460ff166001145b6113075760405162461bcd60e51b815260206004820152602e60248201527f496e697469616c697a61626c653a20636f6e747261637420697320616c72656160448201526d191e481a5b9a5d1a585b1a5e995960921b60648201526084015b60405180910390fd5b6000805460ff19166001179055801561132a576000805461ff0019166101001790555b80156107de576000805461ff0019169055604051600181527f7f26b83ff96e1f2b6a682f133852f6798a09c465da95921460cefb3847402498906020015b60405180910390a150565b600080600080600061138588886117b3565b9150915081156113c2578060200151600b0b8160000151876113a79190614c0d565b6113b19190614c34565b945080604001519350806060015192505b505093509350939050565b60008060008060006105a38787611a58565b606060006114238785858080601f01602080910402602001604051908101604052809392919081815260200183838082843760009201919091525061186c92505050565b90506000611436888884606001516104fc565b509150506000611447826002611a9f565b905061096560408051608081018252600080825260208201819052918101829052606081019190915290565b6000806000806000611489886106548989611a30565b805160208201516040830151606090930151919c909b50919950975095505050505050565b6000806114bb84846117b3565b6020015195945050505050565b600082826040516020016115159291906060808252600c908201526b333637bba7b832b930ba37b960a11b60808201526001600160a01b0392831660208201529116604082015260a00190565b60405160208183030381529060405280519060200120905092915050565b6040805180820182526000808252602082018190529151636c2d9f2f60e01b8152306004820152602481018490526001604482015282906001600160a01b03861690636c2d9f2f90606401600060405180830381865afa15801561159b573d6000803e3d6000fd5b505050506040513d6000823e601f3d908101601f191682016040526115c39190810190614d28565b90506115eb816000815181106115db576115db614dc1565b602002602001015160001c612d02565b92509250505b9250929050565b6000806000836001600160a01b03166320bc44256040518163ffffffff1660e01b8152600401602060405180830381865afa15801561163b573d6000803e3d6000fd5b505050506040513d601f19601f8201168201806040525081019061165f9190614b5f565b90506000816001600160a01b031663289b3c0d6040518163ffffffff1660e01b8152600401602060405180830381865afa1580156116a1573d6000803e3d6000fd5b505050506040513d601f19601f820116820180604052508101906116c59190614b5f565b90506000816001600160a01b03166380f70cba84887fe420d96e81cb4a6b2abb2366c4f93312d4e2ae878a7d4b22e73472fdad891f786040518463ffffffff1660e01b815260040161171993929190614be9565b602060405180830381865afa158015611736573d6000803e3d6000fd5b505050506040513d601f19601f8201168201806040525081019061175a9190614b7c565b63ffffffff602082901c81169891169650945050505050565b600060016001605f1b0382111561179d57604051631d4b0ae760e21b815260040160405180910390fd5b63ffffffff1982169150600061054b8484614ded565b60006117bd614625565b604051634b61cc3360e01b81523060048201526001600160a01b038481166024830152600060448301819052600160648401529190861690634b61cc33906084015b600060405180830381865afa15801561181c573d6000803e3d6000fd5b505050506040513d6000823e601f3d908101601f191682016040526118449190810190614d28565b90506115eb8160008151811061185c5761185c614dc1565b602002602001015160001c612d42565b611874614650565b336001600160a01b0316836001600160a01b03166320bc44256040518163ffffffff1660e01b8152600401602060405180830381865afa1580156118bc573d6000803e3d6000fd5b505050506040513d601f19601f820116820180604052508101906118e09190614b5f565b6001600160a01b03161461192a5760405162461bcd60e51b81526020600482015260116024820152701d5b985d5d1a1bdc9a5e9959081a1bdcdd607a1b60448201526064016112fe565b604051632fd0a1cd60e21b8152339063bf4287349061194d908590600401614858565b602060405180830381865afa15801561196a573d6000803e3d6000fd5b505050506040513d601f19601f8201168201806040525081019061198e9190614e11565b6119c85760405162461bcd60e51b815260206004820152600b60248201526a0d2dcecc2d8d2c840c6e8f60ab1b60448201526064016112fe565b604051631fb6491d60e11b81523390633f6c923a906119eb908590600401614858565b600060405180830381865afa158015611a08573d6000803e3d6000fd5b505050506040513d6000823e601f3d908101601f191682016040526108b19190810190614eb2565b604080516001600160a01b038085166020830152831691810191909152600090606001611515565b6000611a62614625565b604051636c2d9f2f60e01b815230600482015260248101849052600160448201526000906001600160a01b03861690636c2d9f2f906064016117ff565b600080826002811115611ab457611ab4614fb8565b03611ac557506001828116146110dc565b6001826002811115611ad957611ad9614fb8565b03611aec5750600182811c8116146110dc565b505060021c60019081161490565b6040805180820190915260ff83168152600b82900b60208201526001600160a01b03851663a1b2bf8b85611b2d84612c19565b6040518363ffffffff1660e01b8152600401611b4a929190614bd0565b600060405180830381600087803b158015611b6457600080fd5b505af1158015611b78573d6000803e3d6000fd5b505050505050505050565b60606000611b918884612da2565b91505085611bb25760405163168cafc960e21b815260040160405180910390fd5b6040888101519051631e51d6a760e11b81526001600160a01b0390911660048201523390633ca3ad4e90602401602060405180830381865afa158015611bfc573d6000803e3d6000fd5b505050506040513d601f19601f82011682018060405250810190611c209190614e11565b15611c7c57611c7588604001518960000151838a89898080601f0160208091040260200160405190810160405280939291908181526020018383808284376000920191909152508b925060019150612ea39050565b9150611cc7565b611cc48860000151828988888080601f0160208091040260200160405190810160405280939291908181526020018383808284376000920191909152508a9250613649915050565b91505b611cda886000015189602001518561371c565b7f00000000000000000000000000000000000000000000000000000000000000006001600160a01b031615611e345760005a90507f00000000000000000000000000000000000000000000000000000000000000006001600160a01b0316636ac5bc316203d0906001600160401b03168b60000151604051806080016040528087602001516001600160a01b0316815260200187604001516001600160a01b0316815260200187606001516001600160a01b031681526020018760800151600b0b8152508c602001516040518563ffffffff1660e01b8152600401611dc193929190614fce565b60206040518083038160008887f193505050508015611dfd575060408051601f3d908101601f19168201909252611dfa91810190614e11565b60015b611e3057611e0c603f82614ded565b5a11611e2b57604051639f76430b60e01b815260040160405180910390fd5b611e32565b505b505b509695505050505050565b6000611e697f360894a13ba1a3210667c828492db98dca3e2076cc3735a920a3ca505d382bbc5490565b6001600160a01b031603611ebf5760405162461bcd60e51b815260206004820152601d60248201527f5555505350726f786961626c653a206e6f742075706772616461626c6500000060448201526064016112fe565b806001600160a01b03166352d1902d6040518163ffffffff1660e01b8152600401602060405180830381865afa158015611efd573d6000803e3d6000fd5b505050506040513d601f19601f82011682018060405250810190611f219190614b7c565b611f29610b87565b14611f825760405162461bcd60e51b815260206004820152602360248201527f5555505350726f786961626c653a206e6f7420636f6d70617469626c65206c6f60448201526267696360e81b60648201526084016112fe565b6001600160a01b0381163003611fda5760405162461bcd60e51b815260206004820152601960248201527f5555505350726f786961626c653a2070726f7879206c6f6f700000000000000060448201526064016112fe565b612002817f360894a13ba1a3210667c828492db98dca3e2076cc3735a920a3ca505d382bbc55565b7fe011bc04c286c344a8fcbb8de77f953da762c3e25d8cdea984147fc4168a5dcc61202b610b87565b604080519182526001600160a01b038416602083015201611368565b60006001600160ff1b038211156120b15760405162461bcd60e51b815260206004820152602860248201527f53616665436173743a2076616c756520646f65736e27742066697420696e2061604482015267371034b73a191a9b60c11b60648201526084016112fe565b5090565b6000836000036120c75750600061054b565b60006120d3858761502d565b905060006120e18587615055565b90506120ed8486615083565b6120f78284615055565b13979650505050505050565b6040805160c0810182526000808252602082018190529181018290526060818101839052608082019290925260a0810182905260208701516001600160a01b031661216157604051631ce9b06760e01b815260040160405180910390fd5b60408701516001600160a01b031661218c57604051633c70159560e11b815260040160405180910390fd5b61219e87602001518860400151611a30565b8082526020808901516001600160a01b03908116918401919091526040808a01518216908401526060808601519091169083015260006080830181905260a080860151908401528851909182916121f491611a58565b91509150816122165760405163168cafc960e21b815260040160405180910390fd5b885160208a01516040808801519051633acd4df360e21b81526000936001600160a01b03169263eb3537cc92612262926004016001600160a01b03929092168252602082015260400190565b606060405180830381865afa15801561227f573d6000803e3d6000fd5b505050506040513d601f19601f820116820180604052508101906122a39190614b26565b5050905089602001516001600160a01b031686606001516001600160a01b0316141580156122eb575089604001516001600160a01b031686606001516001600160a01b031614155b80156122f5575088155b156124065760208a0151604051636b4f333560e01b81526001600160a01b0390911660048201523390636b4f333590602401602060405180830381865afa158015612344573d6000803e3d6000fd5b505050506040513d601f19601f820116820180604052508101906123689190614e11565b1580156123e0575060408a8101519051636b4f333560e01b81526001600160a01b0390911660048201523390636b4f333590602401602060405180830381865afa1580156123ba573d6000803e3d6000fd5b505050506040513d601f19601f820116820180604052508101906123de9190614e11565b155b1561240657600081126124065760405163ce11b5d160e01b815260040160405180910390fd5b6000811215612424576124248a600001518286858a606001516137f6565b87878080601f01602080910402602001604051908101604052809392919081815260200183838082843760009201919091525050505060208b015160608801519196506001600160a01b0390811691160361251a5760408a8101519051631e51d6a760e11b81526001600160a01b0390911660048201523390633ca3ad4e90602401602060405180830381865afa1580156124c3573d6000803e3d6000fd5b505050506040513d601f19601f820116820180604052508101906124e79190614e11565b1561250b576125048a604001518b600001518685898b6002612ea3565b94506127df565b8951612504908584888a613649565b89604001516001600160a01b031686606001516001600160a01b03160361264e5760208a0151604051631e51d6a760e11b81526001600160a01b0390911660048201523390633ca3ad4e90602401602060405180830381865afa158015612585573d6000803e3d6000fd5b505050506040513d601f19601f820116820180604052508101906125a99190614e11565b156125c6576125048a602001518b600001518685898b6002612ea3565b60408a8101519051631e51d6a760e11b81526001600160a01b0390911660048201523390633ca3ad4e90602401602060405180830381865afa158015612610573d6000803e3d6000fd5b505050506040513d601f19601f820116820180604052508101906126349190614e11565b1561250b5761250460008b600001518685898b6002612ea3565b60208a0151604051631e51d6a760e11b81526001600160a01b0390911660048201523390633ca3ad4e90602401602060405180830381865afa158015612698573d6000803e3d6000fd5b505050506040513d601f19601f820116820180604052508101906126bc9190614e11565b80156126c85750600081125b156127425760208a0151604051635b92108f60e11b8152339163b724211e916126f8918991600b90600401615096565b6000604051808303816000875af1158015612717573d6000803e3d6000fd5b505050506040513d6000823e601f3d908101601f1916820160405261273f91908101906150c4565b94505b60408a8101519051631e51d6a760e11b81526001600160a01b0390911660048201523390633ca3ad4e90602401602060405180830381865afa15801561278c573d6000803e3d6000fd5b505050506040513d601f19601f820116820180604052508101906127b09190614e11565b156127cd576125048a604001518b600001518685898b6002612ea3565b89516127dc908584888a613649565b94505b7f00000000000000000000000000000000000000000000000000000000000000006001600160a01b0316156129395760005a90507f00000000000000000000000000000000000000000000000000000000000000006001600160a01b0316632742e95a6203d0906001600160401b03168d6000015160405180608001604052808a602001516001600160a01b031681526020018a604001516001600160a01b031681526020018a606001516001600160a01b031681526020018a60800151600b0b81525087602001516040518563ffffffff1660e01b81526004016128c693929190614fce565b60206040518083038160008887f193505050508015612902575060408051601f3d908101601f191682019092526128ff91810190614e11565b60015b61293557612911603f82614ded565b5a1161293057604051639f76430b60e01b815260040160405180910390fd5b612937565b505b505b5050505095945050505050565b60606000806129558785612da2565b9150915060008061296a896000015185611a58565b91509150811561298d5760405163801b686360e01b815260040160405180910390fd5b6040898101519051631e51d6a760e11b81526001600160a01b0390911660048201523390633ca3ad4e90602401602060405180830381865afa1580156129d7573d6000803e3d6000fd5b505050506040513d601f19601f820116820180604052508101906129fb9190614e11565b15612a5457612a4d89604001518a6000015185848c8c8080601f01602080910402602001604051908101604052809392919081815260200183838082843760009201829052508f93509150612ea39050565b9450612a9f565b612a9c896000015184838b8b8080601f0160208091040260200160405190810160405280939291908181526020018383808284376000920191909152508d9250613649915050565b94505b612ab289600001518a602001518861371c565b7f00000000000000000000000000000000000000000000000000000000000000006001600160a01b031615612c065760005a90507f00000000000000000000000000000000000000000000000000000000000000006001600160a01b031663e3d8fefe6203d0906001600160401b03168c60000151604051806080016040528089602001516001600160a01b0316815260200189604001516001600160a01b0316815260200189606001516001600160a01b031681526020018960800151600b0b8152506040518463ffffffff1660e01b8152600401612b939291906150f8565b60206040518083038160008887f193505050508015612bcf575060408051601f3d908101601f19168201909252612bcc91810190614e11565b60015b612c0257612bde603f82614ded565b5a11612bfd57604051639f76430b60e01b815260040160405180910390fd5b612c04565b505b505b50505050949350505050565b60f8161590565b606060008260200151600b0b1215612c3357612c33615146565b60408051600180825281830190925290602080830190803683370190505090508160200151600b0b6080836000015160ff16901b1760001b81600081518110612c7e57612c7e614dc1565b602002602001018181525050919050565b60008082600b0b1215612cb5576040516348d6568b60e11b815260040160405180910390fd5b60016001605f1b03612ccb84600b85900b61515c565b1115612cea57604051630c9c55c160e01b815260040160405180910390fd5b6000612cf68385613a02565b90506105648582613a46565b6040805180820190915260008082526020820152811580159190612d3d5760016001605f1b038316600b0b6020820152608083901c60ff1681525b915091565b6000612d4c614625565b821580159250612d3d5760e083901c8152608083901c6bffffffffffffffffffffffff16600b0b6020808301919091526bffffffffffffffff0000000084821c811660408401529084901b166060820152915091565b6040805160c08101825260008082526020820181905291810182905260608082018390526080820183905260a082015260408401516001600160a01b0316612dfd57604051633c70159560e11b815260040160405180910390fd5b612e0f84602001518560400151611a30565b8082526020808601516001600160a01b0390811691840182905260408088015182169085018190526060808801519092168286015290870151600b0b608085015260a0808701519085015291935003612e7b5760405163a47338ef60e01b815260040160405180910390fd5b60008160800151600b0b136115f1576040516348d6568b60e11b815260040160405180910390fd5b82612eac6146ab565b6001600160a01b038916156131b0576000612f41898b8a600001518b602001518c60400151604051602001612ef79291906001600160a01b0392831681529116602082015260400190565b60408051601f1981840301815260e08301825260006080840181905260a0840181905260c08401526001600160a01b03958616835293909416602082015292830152606082015290565b90506000846002811115612f5757612f57614fb8565b03612f6c5764010000000060c0820152612fa1565b6001846002811115612f8057612f80614fb8565b03612f955764040000000060c0820152612fa1565b64100000000060c08201525b612fab8187613a5c565b82600001819052506000336001600160a01b031663289b3c0d6040518163ffffffff1660e01b8152600401602060405180830381865afa158015612ff3573d6000803e3d6000fd5b505050506040513d601f19601f820116820180604052508101906130179190614b5f565b905061302f86604001518761014001518c8c8c613c13565b5060808401525060405163407b865d60e11b81526000906001600160a01b038316906380f70cba906130899033908f907feae305fa863b373417e615b1044222e2806cefc7788d169ce6748a443c3f6cc490600401614be9565b602060405180830381865afa1580156130a6573d6000803e3d6000fd5b505050506040513d601f19601f820116820180604052508101906130ca9190614b7c565b9050600083608001516000146130ee576130e964010000000083613a46565b6130f1565b60005b9050808460800151613103919061517b565b608085015260608a015161311690612047565b60a0850152600087600281111561312f5761312f614fb8565b036131445764020000000060c0850152613179565b600187600281111561315857613158614fb8565b0361316d5764080000000060c0850152613179565b64200000000060c08501525b61318884866000015188613ff7565b60408701919091528b519096506131a0908d90611a58565b6020870152506131ce9350505050565b6131c684604001518561014001518a8a8a613c13565b602084015250505b60006131dd8760600151612047565b826040015161010001516131f19190614c0d565b905061321781613208846020015160400151612047565b613212919061502d565b614243565b8260200151604001818152505061323981613208846020015160600151612047565b60208301805160600191909152885190516001600160a01b038b169163a1b2bf8b9161326490614295565b6040518363ffffffff1660e01b8152600401613281929190614bd0565b600060405180830381600087803b15801561329b57600080fd5b505af11580156132af573d6000803e3d6000fd5b505050506132cb89896020015160008460008a60400151614306565b506132e3898960400151600080858a60400151614306565b506101408501516001600160a01b031615806133155750886001600160a01b03168561014001516001600160a01b0316145b15613389576040516359a2914160e01b815233906359a291419061333f908690859060040161518e565b6000604051808303816000875af115801561335e573d6000803e3d6000fd5b505050506040513d6000823e601f3d908101601f1916820160405261338691908101906150c4565b92505b6040888101519051631e51d6a760e11b81526001600160a01b0390911660048201523390633ca3ad4e90602401602060405180830381865afa1580156133d3573d6000803e3d6000fd5b505050506040513d601f19601f820116820180604052508101906133f79190614e11565b1561363c57604088810151868201519151633acd4df360e21b81526001600160a01b0391821660048201526024810192909252600091908b169063eb3537cc90604401606060405180830381865afa158015613457573d6000803e3d6000fd5b505050506040513d601f19601f8201168201806040525081019061347b9190614b26565b5090915050600081121561363a57600285600281111561349d5761349d614fb8565b0361361e576040808a01519051635b92108f60e11b8152339163b724211e916134cd918891600c90600401615096565b6000604051808303816000875af11580156134ec573d6000803e3d6000fd5b505050506040513d6000823e601f3d908101601f1916820160405261351491908101906150c4565b93506000613532613524836151b0565b61352d856151b0565b614477565b90508a6001600160a01b031663cf97256d8b6020015183613552906151b0565b6040516001600160e01b031960e085901b1681526001600160a01b0390921660048301526024820152604401600060405180830381600087803b15801561359857600080fd5b505af11580156135ac573d6000803e3d6000fd5b5050505060408a810151905163cf97256d60e01b81526001600160a01b03918216600482015260248101839052908c169063cf97256d90604401600060405180830381600087803b15801561360057600080fd5b505af1158015613614573d6000803e3d6000fd5b505050505061363a565b60405163a85ba64f60e01b8152600c60048201526024016112fe565b505b5050979650505050505050565b6060838101511561365c5761365c615146565b6000613666614625565b61367c84604001518561014001518a8a8a613c13565b6101408701519294509250506001600160a01b03808a1691160361370d576040516359a2914160e01b815233906359a29141906136bf908890869060040161518e565b6000604051808303816000875af11580156136de573d6000803e3d6000fd5b505050506040513d6000823e601f3d908101601f1916820160405261370691908101906150c4565b9250613711565b8492505b505095945050505050565b602081015160ff16600314158061374a5750826001600160a01b03168161014001516001600160a01b031614155b156137f1576040808201519051633acd4df360e21b81526001600160a01b038481166004830152602482019290925260009185169063eb3537cc90604401606060405180830381865afa1580156137a5573d6000803e3d6000fd5b505050506040513d601f19601f820116820180604052508101906137c99190614b26565b5050905060008112156137ef5760405163ea76c9b360e01b815260040160405180910390fd5b505b505050565b60006138068685602001516117b3565b91505060006138188460400151612047565b905060006138298360400151612047565b9050606060008061383a848b61502d565b90506000806138488d6115f8565b915091506138588c8784846120b5565b9350505060008112613943576000846138718388614c34565b61387b9190615055565b905060018361388b57600161388e565b60005b6040805160ff9384166020820152929091169082015260600160405160208183030381529060405293508b6001600160a01b0316631863e8098b60000151868b878f602001516138dd88614243565b6138e989600019614c34565b6040518863ffffffff1660e01b815260040161390b97969594939291906151cc565b600060405180830381600087803b15801561392557600080fd5b505af1158015613939573d6000803e3d6000fd5b50505050506139f5565b6040805160016020820152600291810191909152859060600160405160208183030381529060405293508b6001600160a01b0316631863e8098b60000151868b60008f6020015161399388614243565b61399f8a600019614c34565b6040518863ffffffff1660e01b81526004016139c197969594939291906151cc565b600060405180830381600087803b1580156139db57600080fd5b505af11580156139ef573d6000803e3d6000fd5b50505050505b5050505050505050505050565b600082600b0b600003613a17575060006110dc565b60016001605f1b03821115613a2e57613a2e615146565b613a388284615219565b600b0b90506108b18161448c565b6000818311613a5557816108b1565b5090919050565b6020820151604051633e7d48bd60e21b81526001600160a01b03909116600482015260609060009081908190339063f9f522f490602401606060405180830381865afa158015613ab0573d6000803e3d6000fd5b505050506040513d601f19601f82011682018060405250810190613ad491906152ae565b91945092509050828015613ae6575081155b15613c0a576000613af786886144c0565b90508660c001518216600003613bfc576000613b168860c0015161453e565b88516040808b015160608c015182516000815260208101909352613b42939230929190604481016152ea565b60408051601f19818403018152918152602080830180516001600160e01b03166001600160e01b031990951694909417909352918a015160c08b01519251633a020f0160e11b815291935033926374041e0292613bb1929186916410000000009190911490889060040161532f565b6000604051808303816000875af1158015613bd0573d6000803e3d6000fd5b505050506040513d6000823e601f3d908101601f19168201604052613bf891908101906150c4565b9550505b613c078660006145d5565b50505b50505092915050565b600080613c1e614625565b6000806000613c2c896115f8565b5090506000336001600160a01b031663289b3c0d6040518163ffffffff1660e01b8152600401602060405180830381865afa158015613c6f573d6000803e3d6000fd5b505050506040513d601f19601f82011682018060405250810190613c939190614b5f565b60405163407b865d60e11b81529091506001600160a01b038216906380f70cba90613ce69033908e907feae305fa863b373417e615b1044222e2806cefc7788d169ce6748a443c3f6cc490600401614be9565b602060405180830381865afa158015613d03573d6000803e3d6000fd5b505050506040513d601f19601f82011682018060405250810190613d279190614b7c565b9250613d37896080015183613a02565b95505050613d488660600151612047565b613d558760400151612047565b613d5e86612047565b613d689190614c0d565b613d72919061502d565b9450613d85856132088860400151612047565b91508082108015613d9d575060008760800151600b0b135b15613ddf57613daf8660600151612047565b613dbc8760400151612047565b613dc583612047565b613dcf9190614c0d565b613dd9919061502d565b94508091505b6001600160a01b03891615801590613e095750876001600160a01b0316896001600160a01b031614155b15613e1357600093505b604051806080016040528060008960800151600b0b13613e34576000613e36565b8b5b81526020018860800151600b0b815260200183815260200187606001518152509250876001600160a01b031663a1b2bf8b8860000151613e7586614295565b6040518363ffffffff1660e01b8152600401613e92929190614bd0565b600060405180830381600087803b158015613eac57600080fd5b505af1158015613ec0573d6000803e3d6000fd5b505060408051808201909152600080825260208201529250613ee0915050565b613f0688886020015189608001518960200151613efd9190614af9565b8860008f614306565b600b0b8152604087015160208701516080890151613f35928b929091613f2c9190614af9565b6000808f614306565b600b0b60208083018290526040808a0151918a015160808b0151855160a08d015193516001600160a01b0395861696938616958f16947f57269d2ebcccecdcc0d9d2c0a0b80ead95f344e28ec20f50f709811f209d4e0e94613f9b949392909190615378565b60405180910390a486606001516001600160a01b03167f71e0c98e270fc3084227b473f176924d5303ece8c639e679998a2d7dc8e70f7483604051613fe291815260200190565b60405180910390a25050955095509592505050565b613fff614650565b6020840151604051633e7d48bd60e21b81526001600160a01b03909116600482015260609060009081908190339063f9f522f490602401606060405180830381865afa158015614053573d6000803e3d6000fd5b505050506040513d601f19601f8201168201806040525081019061407791906152ae565b8896509194509250905082801561408c575081155b156142385761409b84896144c0565b93508760c0015181166000036142265760006140ba8960c0015161453e565b89516040808c015160608d0151825160008152602081019093526140e89392309291908e90604481016153b0565b60408051601f19818403018152918152602080830180516001600160e01b03166001600160e01b031990951694909417909352918b015160c08c0151925163079b42a160e21b81529193503392631e6d0a84926141579291869164200000000091909114908b9060040161532f565b6000604051808303816000875af1158015614176573d6000803e3d6000fd5b505050506040513d6000823e601f3d908101601f1916820160405261419e91908101906150c4565b604051631fb6491d60e11b81529095503390633f6c923a906141c4908890600401614858565b600060405180830381865afa1580156141e1573d6000803e3d6000fd5b505050506040513d6000823e601f3d908101601f191682016040526142099190810190614eb2565b955061421e89608001518761010001516145fd565b610100870152505b614235868661010001516145d5565b93505b505050935093915050565b6000808212156120b15760405162461bcd60e51b815260206004820181905260248201527f53616665436173743a2076616c7565206d75737420626520706f73697469766560448201526064016112fe565b6040805160018082528183019092526060916020808301908036833701905050905060208260600151901c604060208460400151901c901b608084602001516bffffffffffffffffffffffff16901b60e08560000151901b17171760001b81600081518110612c7e57612c7e614dc1565b60008061431388886117b3565b91505060008160200151600b0b6143388360000151866143339190615083565b612047565b6143429190614c34565b905080156143ad5760405163cf97256d60e01b81526001600160a01b038981166004830152602482018390528a169063cf97256d90604401600060405180830381600087803b15801561439457600080fd5b505af11580156143a8573d6000803e3d6000fd5b505050505b8682602001516143bd9190615409565b600b0b602083015283825260408201516143dc90879061320890612047565b604083015260608201516143f590869061320890612047565b60608301526001600160a01b03891663090c415e89600061441586614295565b6040518463ffffffff1660e01b815260040161443393929190615436565b600060405180830381600087803b15801561444d57600080fd5b505af1158015614461573d6000803e3d6000fd5b5050506020909201519998505050505050505050565b600081831361448657826108b1565b50919050565b60008063ffffffff83166144a15760006144a4565b60015b60ff16905060206144b78285831c61517b565b901b9392505050565b6020810151608082015160a08301518351604051630768fabb60e41b8152606094339463768fabb0946144f7948a9460040161545d565b6000604051808303816000875af1158015614516573d6000803e3d6000fd5b505050506040513d6000823e601f3d908101601f191682016040526108b191908101906150c4565b6000640100000000820361455a57506330d9c91560e01b919050565b64040000000082036145745750630221347d60e61b919050565b641000000000820361458e5750635f9e7d7760e01b919050565b64020000000082036145a8575063d86ed3e560e01b919050565b64080000000082036145c2575063230dbd2960e01b919050565b506353c11f9960e01b919050565b919050565b604051634c4d861f60e11b8152606090339063989b0c3e906144f7908690869060040161518e565b60006108b1600061461661461086612047565b85614477565b6000818313613a5557816108b1565b6040518060800160405280600081526020016000600b0b815260200160008152602001600081525090565b604080516101608101825260008082526020820181905291810182905260608082018390526080820183905260a082015260c0810182905260e081018290526101008101829052610120810182905261014081019190915290565b6040518060600160405280606081526020016146c5614625565b81526020016146d2614650565b905290565b6001600160a01b03811681146107de57600080fd5b60008060006060848603121561470157600080fd5b833561470c816146d7565b9250602084013561471c816146d7565b9150604084013561472c816146d7565b809150509250925092565b6000806040838503121561474a57600080fd5b8235614755816146d7565b946020939093013593505050565b60008083601f84011261477557600080fd5b5081356001600160401b0381111561478c57600080fd5b6020830191508360208285010111156115f157600080fd5b600080600080606085870312156147ba57600080fd5b84356147c5816146d7565b935060208501356147d5816146d7565b925060408501356001600160401b038111156147f057600080fd5b6147fc87828801614763565b95989497509550505050565b60005b8381101561482357818101518382015260200161480b565b50506000910152565b60008151808452614844816020860160208601614808565b601f01601f19169290920160200192915050565b6020815260006108b1602083018461482c565b6000806040838503121561487e57600080fd5b8235614889816146d7565b91506020830135614899816146d7565b809150509250929050565b8035600b81900b81146145d057600080fd5b60008060008060008060a087890312156148cf57600080fd5b86356148da816146d7565b955060208701356148ea816146d7565b945060408701356148fa816146d7565b9350614908606088016148a4565b925060808701356001600160401b0381111561492357600080fd5b61492f89828a01614763565b979a9699509497509295939492505050565b60006020828403121561495357600080fd5b81356108b1816146d7565b60008060006060848603121561497357600080fd5b833561497e816146d7565b9250602084013561498e816146d7565b929592945050506040919091013590565b6000806000806000608086880312156149b757600080fd5b85356149c2816146d7565b945060208601356149d2816146d7565b935060408601356149e2816146d7565b925060608601356001600160401b038111156149fd57600080fd5b614a0988828901614763565b969995985093965092949392505050565b600080600080600060808688031215614a3257600080fd5b8535614a3d816146d7565b94506020860135614a4d816146d7565b93506149e2604087016148a4565b60ff811681146107de57600080fd5b60008060008060008060a08789031215614a8357600080fd5b8635614a8e816146d7565b95506020870135614a9e816146d7565b945060408701356148fa81614a5b565b60008060408385031215614ac157600080fd5b8235614acc816146d7565b9150614ada602084016148a4565b90509250929050565b634e487b7160e01b600052601160045260246000fd5b600b82810b9082900b0360016001605f1b0319811260016001605f1b03821317156110dc576110dc614ae3565b600080600060608486031215614b3b57600080fd5b8351925060208401519150604084015190509250925092565b80516145d0816146d7565b600060208284031215614b7157600080fd5b81516108b1816146d7565b600060208284031215614b8e57600080fd5b5051919050565b600081518084526020808501945080840160005b83811015614bc557815187529582019590820190600101614ba9565b509495945050505050565b82815260406020820152600061054b6040830184614b95565b6001600160a01b039384168152919092166020820152604081019190915260600190565b8181036000831280158383131683831282161715614c2d57614c2d614ae3565b5092915050565b60006001600160ff1b0381841382841380821686840486111615614c5a57614c5a614ae3565b600160ff1b6000871282811687830589121615614c7957614c79614ae3565b60008712925087820587128484161615614c9557614c95614ae3565b87850587128184161615614cab57614cab614ae3565b505050929093029392505050565b634e487b7160e01b600052604160045260246000fd5b60405161016081016001600160401b0381118282101715614cf257614cf2614cb9565b60405290565b604051601f8201601f191681016001600160401b0381118282101715614d2057614d20614cb9565b604052919050565b60006020808385031215614d3b57600080fd5b82516001600160401b0380821115614d5257600080fd5b818501915085601f830112614d6657600080fd5b815181811115614d7857614d78614cb9565b8060051b9150614d89848301614cf8565b8181529183018401918481019088841115614da357600080fd5b938501935b83851015610caa57845182529385019390850190614da8565b634e487b7160e01b600052603260045260246000fd5b634e487b7160e01b600052601260045260246000fd5b600082614dfc57614dfc614dd7565b500490565b805180151581146145d057600080fd5b600060208284031215614e2357600080fd5b6108b182614e01565b80516145d081614a5b565b80516001600160e01b0319811681146145d057600080fd5b600082601f830112614e6057600080fd5b81516001600160401b03811115614e7957614e79614cb9565b614e8c601f8201601f1916602001614cf8565b818152846020838601011115614ea157600080fd5b61054b826020830160208701614808565b600060208284031215614ec457600080fd5b81516001600160401b0380821115614edb57600080fd5b908301906101608286031215614ef057600080fd5b614ef8614ccf565b614f0183614e2c565b8152614f0f60208401614e2c565b602082015260408301516040820152614f2a60608401614b54565b6060820152614f3b60808401614e37565b608082015260a083015182811115614f5257600080fd5b614f5e87828601614e4f565b60a08301525060c083015160c082015260e083015160e0820152610100915081830151828201526101209150614f95828401614b54565b828201526101409150614fa9828401614b54565b91810191909152949350505050565b634e487b7160e01b600052602160045260246000fd5b6001600160a01b038416815260c0810161501c602083018580516001600160a01b03908116835260208083015182169084015260408083015190911690830152606090810151600b0b910152565b82600b0b60a0830152949350505050565b808201828112600083128015821682158216171561504d5761504d614ae3565b505092915050565b60008261506457615064614dd7565b600160ff1b82146000198414161561507e5761507e614ae3565b500590565b818103818111156110dc576110dc614ae3565b6060815260006150a9606083018661482c565b6001600160a01b039490941660208301525060400152919050565b6000602082840312156150d657600080fd5b81516001600160401b038111156150ec57600080fd5b61054b84828501614e4f565b6001600160a01b038316815260a081016108b1602083018480516001600160a01b03908116835260208083015182169084015260408083015190911690830152606090810151600b0b910152565b634e487b7160e01b600052600160045260246000fd5b600081600019048311821515161561517657615176614ae3565b500290565b808201808211156110dc576110dc614ae3565b6040815260006151a1604083018561482c565b90508260208301529392505050565b6000600160ff1b82016151c5576151c5614ae3565b5060000390565b87815260e0602082015260006151e560e083018961482c565b6001600160a01b03978816604084015295151560608301525092909416608083015260a082015260c0019190915292915050565b600081600b0b83600b0b60016001605f1b0360008213600084138383048511828216161561524957615249614ae3565b60016001605f1b0319600085128281168783058712161561526c5761526c614ae3565b6000871292508582058712848416161561528857615288614ae3565b8585058712818416161561529e5761529e614ae3565b5050509290910295945050505050565b6000806000606084860312156152c357600080fd5b6152cc84614e01565b92506152da60208501614e01565b9150604084015190509250925092565b6001600160a01b038681168252851660208201526040810184905260a06060820181905260009061531d9083018561482c565b8281036080840152610caa818561482c565b6001600160a01b03851681526080602082018190526000906153539083018661482c565b8415156040840152828103606084015261536d818561482c565b979650505050505050565b84600b0b815283600b0b602082015282600b0b60408201526080606082015260006153a6608083018461482c565b9695505050505050565b6001600160a01b038781168252861660208201526040810185905260c0606082018190526000906153e39083018661482c565b82810360808401526153f5818661482c565b905082810360a0840152611258818561482c565b600b81810b9083900b0160016001605f1b03811360016001605f1b0319821217156110dc576110dc614ae3565b60018060a01b03841681528260208201526060604082015260006105646060830184614b95565b60a08152600061547060a083018861482c565b6001600160a01b039687166020840152604083019590955250606081019290925290921660809092019190915291905056fea264697066735822122086c6947d605d480752d19b99a3b01469ad10d1accb75359715b7de57c762e93464736f6c6343000810003360c06040523480156200001157600080fd5b50604051620017db380380620017db8339810160408190526200003491620000ef565b6001600160a01b0381166080819052604051635b69006f60e11b81527fa9214cc96615e0085d3bb077758db69497dc2dce3b2b1e97bc93c3d18d83efd3600482015263b6d200de90602401602060405180830381865afa1580156200009d573d6000803e3d6000fd5b505050506040513d601f19601f82011682018060405250810190620000c39190620000ef565b6001600160a01b031660a0525062000116565b6001600160a01b0381168114620000ec57600080fd5b50565b6000602082840312156200010257600080fd5b81516200010f81620000d6565b9392505050565b60805160a051611628620001b36000396000818161029a01528181610366015281816103fb015281816104ab01528181610520015281816105de015281816106e901528181610766015281816107aa01528181610851015281816108ef0152818161092501528181610abc01528181610b4101528181610bb001528181610bf30152610c2d015260008181610d150152610d8701526116286000f3fe608060405234801561001057600080fd5b50600436106100ea5760003560e01c8063308855911161008c5780637243fb93116100665780637243fb9314610222578063b4b333c614610235578063c5ad5c1a14610248578063e15536b61461025b57600080fd5b806330885591146101cd5780634d3f60f9146101e057806357e6aa361461020f57600080fd5b80630f1ac495116100c85780630f1ac4951461014b5780631d8b65261461018157806322c904d9146101a75780632860fd93146101ba57600080fd5b806309f0b495146100ef5780630bd0728d146101155780630c03399114610138575b600080fd5b6101026100fd366004610f76565b61026e565b6040519081526020015b60405180910390f35b610128610123366004610faf565b61030e565b604051901515815260200161010c565b610128610146366004611080565b61031d565b61015e610159366004610faf565b610336565b60408051948552600b9390930b602085015291830152606082015260800161010c565b61019461018f366004611108565b6103e1565b604051600b9190910b815260200161010c565b6101946101b5366004610faf565b610481565b61015e6101c8366004611108565b610518565b6101286101db366004611162565b6105c0565b6101f36101ee366004611108565b6105d9565b6040805160ff9093168352600b9190910b60208301520161010c565b61012861021d3660046111be565b610679565b610128610230366004610faf565b610687565b6101286102433660046111fe565b6106a2565b610128610256366004611273565b6106b0565b610128610269366004611080565b6106be565b6040516346ccbfb760e11b81526001600160a01b038381166004830152600b83900b60248301526000917f000000000000000000000000000000000000000000000000000000000000000090911690638d997f6e90604401602060405180830381865afa1580156102e3573d6000803e3d6000fd5b505050506040513d601f19601f8201168201806040525081019061030791906112b4565b9392505050565b600061030783836000806106cd565b600061032c868686868661078d565b9695505050505050565b604051630f1ac49560e01b81526001600160a01b03838116600483015282811660248301526000918291829182917f00000000000000000000000000000000000000000000000000000000000000001690630f1ac49590604401608060405180830381865afa1580156103ad573d6000803e3d6000fd5b505050506040513d601f19601f820116820180604052508101906103d191906112cd565b9299919850965090945092505050565b604051631cd43d1160e31b81526000906001600160a01b037f0000000000000000000000000000000000000000000000000000000000000000169063e6a1e888906104349087908790879060040161130b565b608060405180830381865afa158015610451573d6000803e3d6000fd5b505050506040513d601f19601f8201168201806040525081019061047591906112cd565b50909695505050505050565b60405163e8e7e2d160e01b81526001600160a01b03838116600483015282811660248301526000917f00000000000000000000000000000000000000000000000000000000000000009091169063e8e7e2d190604401602060405180830381865afa1580156104f4573d6000803e3d6000fd5b505050506040513d601f19601f82011682018060405250810190610307919061132e565b6000806000807f00000000000000000000000000000000000000000000000000000000000000006001600160a01b031663e6a1e8888888886040518463ffffffff1660e01b815260040161056e9392919061130b565b608060405180830381865afa15801561058b573d6000803e3d6000fd5b505050506040513d601f19601f820116820180604052508101906105af91906112cd565b929a91995097509095509350505050565b60006105ce858585856106cd565b90505b949350505050565b6000807f00000000000000000000000000000000000000000000000000000000000000006001600160a01b031662422bbe8686866040518463ffffffff1660e01b815260040161062b9392919061130b565b606060405180830381865afa158015610648573d6000803e3d6000fd5b505050506040513d601f19601f8201168201806040525081019061066c919061134b565b9097909650945050505050565b60006105d184338585610920565b6000610307838360076b7fffffffffffffffffffffff6106cd565b60006105ce85858585610a7d565b60006105ce85858585610920565b600061032c8686868686610bd6565b6040805160008082526020820190925281906001600160a01b037f0000000000000000000000000000000000000000000000000000000000000000169063811b3d4090610725908990899089908990604481016113d3565b60408051601f19818403018152918152602080830180516001600160e01b031660e09590951b949094179093528051600081529283019052925061032c91507f0000000000000000000000000000000000000000000000000000000000000000908390610c5c565b6000806001600160a01b0386163314610847576001600160a01b037f00000000000000000000000000000000000000000000000000000000000000001663354b95908888888860005b6040519080825280601f01601f191660200182016040528015610800576020820181803683370190505b50604051602401610815959493929190611412565b604051602081830303815290604052915060e01b6020820180516001600160e01b0383818316178352505050506108e8565b6001600160a01b037f0000000000000000000000000000000000000000000000000000000000000000166350209a6288878760005b6040519080825280601f01601f1916602001820160405280156108a6576020820181803683370190505b506040516024016108ba9493929190611450565b604051602081830303815290604052915060e01b6020820180516001600160e01b0383818316178352505050505b90506109157f00000000000000000000000000000000000000000000000000000000000000008285610c5c565b979650505050505050565b6000807f00000000000000000000000000000000000000000000000000000000000000006001600160a01b031663e6a1e8888787876040518463ffffffff1660e01b81526004016109739392919061130b565b608060405180830381865afa158015610990573d6000803e3d6000fd5b505050506040513d601f19601f820116820180604052508101906109b491906112cd565b5050915050600083600b0b1315610a2f5780600b0b6000036109f8576040805160008152602081019091526109f0908790879087908790610bd6565b9150506105d1565b82600b0b81600b0b14610a25576040805160008152602081019091526109f090879087908790879061078d565b60019150506105d1565b82600b0b600003610a6457600081600b0b1315610a25576040805160008152602081019091526109f090879087908790610a7d565b60405163cea9aa5f60e01b815260040160405180910390fd5b6000806001600160a01b038516331480610a9f57506001600160a01b03841633145b610b28576040805160008152602081019091526001600160a01b037f00000000000000000000000000000000000000000000000000000000000000001690634c8b181f90610af69089908990899060448101611486565b604051602081830303815290604052915060e01b6020820180516001600160e01b038381831617835250505050610ba9565b6040805160008152602081019091526001600160a01b037f0000000000000000000000000000000000000000000000000000000000000000169063b4b333c690610b7b9089908990899060448101611486565b604051602081830303815290604052915060e01b6020820180516001600160e01b0383818316178352505050505b905061032c7f00000000000000000000000000000000000000000000000000000000000000008285610c5c565b6000806001600160a01b0386163314610c23576001600160a01b037f0000000000000000000000000000000000000000000000000000000000000000166394229ecb8888888860006107d6565b6001600160a01b037f0000000000000000000000000000000000000000000000000000000000000000166362fc305e888787600061087c565b604080516001808252818301909252600091829190816020015b60408051606080820183526000808352602083015291810191909152815260200190600190039081610c76579050509050604051806060016040528060c963ffffffff168152602001866001600160a01b031681526020018585604051602001610ce19291906114ba565b60405160208183030381529060405281525081600081518110610d0657610d066114e8565b602002602001018190525060007f00000000000000000000000000000000000000000000000000000000000000006001600160a01b031663670e77e383604051602401610d5391906114fe565b604051602081830303815290604052915060e01b6020820180516001600160e01b03838183161783525050505090506000807f00000000000000000000000000000000000000000000000000000000000000006001600160a01b03168333604051602001610dc292919061158c565b60408051601f1981840301815290829052610ddc916115c3565b6000604051808303816000865af19150503d8060008114610e19576040519150601f19603f3d011682016040523d82523d6000602084013e610e1e565b606091505b509150915081610e3157610e3181610e3f565b506001979650505050505050565b600481511015610e965760405162461bcd60e51b815260206004820152601a60248201527f43616c6c5574696c733a2074617267657420726576657274282900000000000060448201526064015b60405180910390fd5b602081015163b1b7848f60e01b6001600160e01b0319821601610f465760408051808201825260208082527f43616c6c5574696c733a207461726765742070616e69636b65643a2030785f5f90820190815260248501517f43616c6c5574696c733a207461726765742070616e69636b65643a2030780000600482811c600f908116603090810160081b918516011791909117909252925162461bcd60e51b8152919291610e8d918491016115df565b81518060208401fd5b50565b6001600160a01b0381168114610f4f57600080fd5b80600b0b8114610f4f57600080fd5b60008060408385031215610f8957600080fd5b8235610f9481610f52565b91506020830135610fa481610f67565b809150509250929050565b60008060408385031215610fc257600080fd5b8235610fcd81610f52565b91506020830135610fa481610f52565b634e487b7160e01b600052604160045260246000fd5b600082601f83011261100457600080fd5b813567ffffffffffffffff8082111561101f5761101f610fdd565b604051601f8301601f19908116603f0116810190828211818310171561104757611047610fdd565b8160405283815286602085880101111561106057600080fd5b836020870160208301376000602085830101528094505050505092915050565b600080600080600060a0868803121561109857600080fd5b85356110a381610f52565b945060208601356110b381610f52565b935060408601356110c381610f52565b925060608601356110d381610f67565b9150608086013567ffffffffffffffff8111156110ef57600080fd5b6110fb88828901610ff3565b9150509295509295909350565b60008060006060848603121561111d57600080fd5b833561112881610f52565b9250602084013561113881610f52565b9150604084013561114881610f52565b809150509250925092565b60ff81168114610f4f57600080fd5b6000806000806080858703121561117857600080fd5b843561118381610f52565b9350602085013561119381610f52565b925060408501356111a381611153565b915060608501356111b381610f67565b939692955090935050565b6000806000606084860312156111d357600080fd5b83356111de81610f52565b925060208401356111ee81610f52565b9150604084013561114881610f67565b6000806000806080858703121561121457600080fd5b843561121f81610f52565b9350602085013561122f81610f52565b9250604085013561123f81610f52565b9150606085013567ffffffffffffffff81111561125b57600080fd5b61126787828801610ff3565b91505092959194509250565b6000806000806080858703121561128957600080fd5b843561129481610f52565b935060208501356112a481610f52565b925060408501356111a381610f52565b6000602082840312156112c657600080fd5b5051919050565b600080600080608085870312156112e357600080fd5b8451935060208501516112f581610f67565b6040860151606090960151949790965092505050565b6001600160a01b0393841681529183166020830152909116604082015260600190565b60006020828403121561134057600080fd5b815161030781610f67565b60008060006060848603121561136057600080fd5b83519250602084015161137281611153565b604085015190925061114881610f67565b60005b8381101561139e578181015183820152602001611386565b50506000910152565b600081518084526113bf816020860160208601611383565b601f01601f19169290920160200192915050565b6001600160a01b0386811682528516602082015260ff84166040820152600b83900b606082015260a060808201819052600090610915908301846113a7565b6001600160a01b038681168252858116602083015284166040820152600b83900b606082015260a060808201819052600090610915908301846113a7565b6001600160a01b03858116825284166020820152600b83900b604082015260806060820181905260009061032c908301846113a7565b6001600160a01b03858116825284811660208301528316604082015260806060820181905260009061032c908301846113a7565b6040815260006114cd60408301856113a7565b82810360208401526114df81856113a7565b95945050505050565b634e487b7160e01b600052603260045260246000fd5b60006020808301818452808551808352604092508286019150828160051b87010184880160005b8381101561157e57888303603f190185528151805163ffffffff168452878101516001600160a01b031688850152860151606087850181905261156a818601836113a7565b968901969450505090860190600101611525565b509098975050505050505050565b6000835161159e818460208801611383565b60609390931b6bffffffffffffffffffffffff19169190920190815260140192915050565b600082516115d5818460208701611383565b9190910192915050565b60208152600061030760208301846113a756fea2646970667358221220c57bb783cfe39bd38dedd683ceb2236388514ddf8e03138230427ad100a5182a64736f6c6343000810003360a06040523480156200001157600080fd5b506040516200534a3803806200534a833981016040819052620000349162000046565b6001600160a01b031660805262000078565b6000602082840312156200005957600080fd5b81516001600160a01b03811681146200007157600080fd5b9392505050565b6080516152b66200009460003960006110ca01526152b66000f3fe608060405234801561001057600080fd5b506004361061012c5760003560e01c80637fbc7639116100ad578063acf4a6c211610071578063acf4a6c214610320578063b6dacdb814610333578063b96731c214610355578063cd7245c514610368578063d787840a146103c057600080fd5b80637fbc763914610294578063899baaec146102a75780639903ad38146102d75780639b2e48bc146102df578063acafa1b81461030d57600080fd5b806350d75d25116100f457806350d75d25146101f957806352d1902d146102015780635b534051146102175780636041ae961461025b5780637730599e1461026e57600080fd5b8063232d2b581461013157806323fc23f31461015a5780632e5e74c61461019e5780633fd4176a146101b157806346951954146101e4575b600080fd5b61014461013f36600461438f565b6103d3565b604051610151919061446a565b60405180910390f35b61016d61016836600461447d565b610aed565b6040805194151585526001600160801b03938416602086015291831691840191909152166060820152608001610151565b6101446101ac3660046144c8565b610b58565b6101cc73__$2ab93b044e48e21ae6c24b46e21748f7f9$__81565b6040516001600160a01b039091168152602001610151565b6101f76101f236600461451c565b6110bf565b005b6101cc611114565b610209611143565b604051908152602001610151565b61022a610225366004614540565b6111a7565b6040516101519493929190931515845291151560208401526001600160801b03166040830152606082015260800190565b61014461026936600461459c565b61127d565b7f8aedc3b5d4bf031e11a7e2940f7251c005698405d58e02e1c247fed3b1b3a674610209565b6101446102a2366004614617565b6116a2565b6102ba6102b5366004614658565b61178f565b604080519283526001600160801b03909116602083015201610151565b6101f7611834565b6102f26102ed3660046146a9565b611942565b60408051938452602084019290925290820152606001610151565b61014461031b3660046144c8565b611b4d565b61014461032e36600461459c565b611f52565b6103466103413660046146ea565b61250c565b60405161015193929190614767565b610144610363366004614804565b612761565b61037b610376366004614859565b612861565b604080516001600160a01b03909616865263ffffffff9094166020860152911515928401929092526001600160801b039091166060830152608082015260a001610151565b6101446103ce366004614885565b612963565b60606001600160a01b0385166103fc57604051633242919d60e21b815260040160405180910390fd5b6104046141e7565b61040c614245565b60606000806104518c89898080601f016020809104026020016040519081016040528093929190818152602001838380828437600092019190915250612b1e92505050565b90508060a00151925080606001519150506104708b828b8d6000612ceb565b60808901521515602080890191909152606088019190915260408088018390529287528251908101909252600082526104ac918d918c91612dde565b925086868080601f0160208091040260200160405190810160405280939291908181526020018383808284376000920191909152505050602086015191965050156105105764040000000060c08401526105068386612e0c565b60a085015261052b565b64010000000060c08401526105258386612e0c565b60a08501525b83602001518015610548575060808401515163ffffffff90811614155b15610623576105978460800151608001516001600160801b0316896001600160801b03168660600151602001516001600160801b031661058891906148ff565b6105929190614912565b612fc3565b6060850180516001600160801b03909216602090920191909152845190516001600160a01b038d169163a1b2bf8b916105cf90613030565b6040518363ffffffff1660e01b81526004016105ec929190614955565b600060405180830381600087803b15801561060657600080fd5b505af115801561061a573d6000803e3d6000fd5b5050505061080a565b8360200151156106a0576106688460800151608001516001600160801b0316896001600160801b03168660600151604001516001600160801b031661058891906148ff565b6060850180516001600160801b03909216604090920191909152845190516001600160a01b038d169163a1b2bf8b916105cf90613030565b6040518060a0016040528063ffffffff80168152602001826001600160a01b031681526020018b63ffffffff1681526020018560600151600001516001600160801b03168152602001896001600160801b031681525084608001819052508a6001600160a01b03166312a6a3f8856040015161071f87608001516130ce565b6040518363ffffffff1660e01b815260040161073c929190614955565b600060405180830381600087803b15801561075657600080fd5b505af115801561076a573d6000803e3d6000fd5b5050505087846060015160400151610782919061496e565b6060850180516001600160801b03909216604090920191909152845190516001600160a01b038d169163a1b2bf8b916107ba90613030565b6040518363ffffffff1660e01b81526004016107d7929190614955565b600060405180830381600087803b1580156107f157600080fd5b505af1158015610805573d6000803e3d6000fd5b505050505b60008460800151608001516001600160801b031685608001516060015186606001516000015161083a9190614995565b6001600160801b031661084d91906149b5565b905063ffffffff801685608001516000015163ffffffff16036108e65761087d8c8361087884614a3a565b613175565b6001600160a01b038c1663cf97256d8361089684614a3a565b6040518363ffffffff1660e01b81526004016108b3929190614a56565b600060405180830381600087803b1580156108cd57600080fd5b505af11580156108e1573d6000803e3d6000fd5b505050505b60405163cf97256d60e01b81526001600160a01b038d169063cf97256d90610914908d908590600401614a56565b600060405180830381600087803b15801561092e57600080fd5b505af1158015610942573d6000803e3d6000fd5b505050508460200151156109e85760608086015151608080880180516001600160801b039384169401939093528251918c16910152604086015190516001600160a01b038e169163a1b2bf8b91610998906130ce565b6040518363ffffffff1660e01b81526004016109b5929190614955565b600060405180830381600087803b1580156109cf57600080fd5b505af11580156109e3573d6000803e3d6000fd5b505050505b846020015115610a175764080000000060c085015260a0850151610a0e908590886132c3565b9650610a379050565b64020000000060c085015260a0850151610a33908590886132c3565b9650505b8a63ffffffff16826001600160a01b03168d6001600160a01b03167f0115987243fd19d615b5ea62a80372a06a2b37fec378b148ee7a507c5c4c0a398d8d88604051610a8593929190614a6f565b60405180910390a4896001600160a01b03168c6001600160a01b03167fe0707ac7efb8b59c22189af8d004ed17dc9e4379e71b9066119b62c182524977848e8d88604051610ad69493929190614aab565b60405180910390a350505050509695505050505050565b600080600080610b16604080516060810182526000808252602082018190529181019190915290565b6000610b22888861350f565b9050610b2e8982613576565b90965091508515610b4d57815160208301516040840151919650945092505b505093509350935093565b6060610b626141e7565b610b6a614245565b600060606000610bb08c89898080601f016020809104026020016040519081016040528093929190818152602001838380828437600092019190915250612b1e92505050565b606081015160a0909101519093509150506001600160a01b038816610be857604051633242919d60e21b815260040160405180910390fd5b896001600160a01b0316826001600160a01b031614610c1a576040516392da6d1760e01b815260040160405180910390fd5b610c288b8b8a8c6001612ceb565b6080890152506060870152604080870182905291865281516020810190925260008252610c58918d918b91612dde565b925086868080601f0160208091040260200160405190810160405280939291908181526020018383808284376000920191909152505064100000000060c087015250909550610ca990508386612e0c565b60a08501526080808501519081015160609182015191860151516000926001600160801b0390921691610cdb91614995565b6001600160801b0316610cee91906149b5565b60808601515190915063ffffffff90811614610d3b57846080015160800151856060015160200151610d209190614995565b60608601516001600160801b03909116602090910152610d6e565b846080015160800151856060015160400151610d579190614995565b60608601516001600160801b039091166040909101525b8b6001600160a01b031663a1b2bf8b8660000151610d8f8860600151613030565b6040518363ffffffff1660e01b8152600401610dac929190614955565b600060405180830381600087803b158015610dc657600080fd5b505af1158015610dda573d6000803e3d6000fd5b5050505060808501515163ffffffff90811614610e0457610e048c8a87608001516000015161368a565b60808501515163ffffffff1663fffffffe1901610e9257610e298c8c61087884614a3a565b6001600160a01b038c1663cf97256d8c610e4284614a3a565b6040518363ffffffff1660e01b8152600401610e5f929190614a56565b600060405180830381600087803b158015610e7957600080fd5b505af1158015610e8d573d6000803e3d6000fd5b505050505b6040858101519051632704839760e01b81526004810191909152600260248201526001600160a01b038d1690632704839790604401600060405180830381600087803b158015610ee157600080fd5b505af1158015610ef5573d6000803e3d6000fd5b505060405163cf97256d60e01b81526001600160a01b038f16925063cf97256d9150610f27908c908590600401614a56565b600060405180830381600087803b158015610f4157600080fd5b505af1158015610f55573d6000803e3d6000fd5b505064200000000060c0870152505060a0850151610f75908590886132c3565b9050809650508963ffffffff168b6001600160a01b03168d6001600160a01b03167fe1f8e9cd8061e5b251769965bda6ca9ef1674bc6541fb9131039fa53f024d1428c86604051610fc7929190614af4565b60405180910390a4886001600160a01b03168c6001600160a01b03167f9e02127550b99adc8cc6ee332a36f31338facdbc396cebefce9a047247cd04558d8d8660405161101693929190614b18565b60405180910390a38963ffffffff168b6001600160a01b03168d6001600160a01b03167f0115987243fd19d615b5ea62a80372a06a2b37fec378b148ee7a507c5c4c0a398c60008760405161106d93929190614a6f565b60405180910390a4886001600160a01b03168c6001600160a01b03167fe0707ac7efb8b59c22189af8d004ed17dc9e4379e71b9066119b62c1825249778d8d600087604051610ad69493929190614aab565b336001600160a01b037f0000000000000000000000000000000000000000000000000000000000000000161461110857604051630b00ec8f60e11b815260040160405180910390fd5b61111181613715565b50565b600061113e7f360894a13ba1a3210667c828492db98dca3e2076cc3735a920a3ca505d382bbc5490565b905090565b6000306001600160a01b0316637730599e6040518163ffffffff1660e01b8152600401602060405180830381865afa158015611183573d6000803e3d6000fd5b505050506040513d601f19601f8201168201806040525081019061113e9190614b48565b6000806000806000806111d3604080516060810182526000808252602082018190529181019190915290565b6111db614280565b6111e98c8c8b8d6000612ceb565b909b50929650909450925090508761121257600080600080975097509750975050505050611272565b8051608082015163ffffffff9182169091141597509550866112685780608001516001600160801b0316816060015183600001516112509190614995565b6001600160801b03166112639190614b61565b61126b565b60005b9450505050505b945094509450949050565b60606112876141e7565b61128f614245565b6000606060006112d58b89898080601f016020809104026020016040519081016040528093929190818152602001838380828437600092019190915250612b1e92505050565b9050806060015192508060a001519150506112f48a8a848b6001612ceb565b6080890181905260608901929092525060408701919091529085525163ffffffff1663fffffffe190161133a57604051633741257360e01b815260040160405180910390fd5b6113598a8a866040015160405180602001604052806000815250612dde565b925086868080601f0160208091040260200160405190810160405280939291908181526020018383808284376000920191909152505064100000000060c0870152509095506113aa90508386612e0c565b60a08501526080808501519081015160609182015191860151516000926001600160801b03909216916113dc91614995565b6001600160801b03166113ef91906149b5565b905084608001516080015185606001516020015161140d9190614995565b6060860180516001600160801b03909216602090920191909152608080870151015190516040015161143f919061496e565b6060860180516001600160801b03909216604090920191909152855190516001600160a01b038d169163a1b2bf8b9161147790613030565b6040518363ffffffff1660e01b8152600401611494929190614955565b600060405180830381600087803b1580156114ae57600080fd5b505af11580156114c2573d6000803e3d6000fd5b505050506114d98b8487608001516000015161368a565b606080860151516080870180516001600160801b039092169190920152805163ffffffff9052604086015190516001600160a01b038d169163a1b2bf8b91611520906130ce565b6040518363ffffffff1660e01b815260040161153d929190614955565b600060405180830381600087803b15801561155757600080fd5b505af115801561156b573d6000803e3d6000fd5b505060405163cf97256d60e01b81526001600160a01b038e16925063cf97256d915061159d9086908590600401614a56565b600060405180830381600087803b1580156115b757600080fd5b505af11580156115cb573d6000803e3d6000fd5b505064200000000060c0870152505060a08501516115eb908590886132c3565b9050809650508863ffffffff168a6001600160a01b03168c6001600160a01b03167fe1f8e9cd8061e5b251769965bda6ca9ef1674bc6541fb9131039fa53f024d142868660405161163d929190614af4565b60405180910390a4826001600160a01b03168b6001600160a01b03167f9e02127550b99adc8cc6ee332a36f31338facdbc396cebefce9a047247cd04558c8c8660405161168c93929190614b18565b60405180910390a3505050505095945050505050565b606060006116e68785858080601f016020809104026020016040519081016040528093929190818152602001838380828437600092019190915250612b1e92505050565b60608101519091506000806116fc8a848b61391d565b9150915080600001516001600160801b0316886001600160801b031610156117375760405163cfdca72560e01b815260040160405180910390fd5b61174a8a848b85858d8a60a0015161397c565b86868080601f016020809104026020016040519081016040528093929190818152602001838380828437600092019190915250929d9c50505050505050505050505050565b600080600061179e868661350f565b90506000806117ad8984613576565b91509150816117cf5760405163edeaa63b60e01b815260040160405180910390fd5b6000816040015182602001516117e5919061496e565b6001600160801b0316905060006117ff610592838a614b80565b835190915061180f90829061496e565b9550611824826001600160801b038316614b61565b9650505050505094509492505050565b600054610100900460ff16158080156118545750600054600160ff909116105b8061186e5750303b15801561186e575060005460ff166001145b6118d65760405162461bcd60e51b815260206004820152602e60248201527f496e697469616c697a61626c653a20636f6e747261637420697320616c72656160448201526d191e481a5b9a5d1a585b1a5e995960921b60648201526084015b60405180910390fd5b6000805460ff1916600117905580156118f9576000805461ff0019166101001790555b8015611111576000805461ff0019169055604051600181527f7f26b83ff96e1f2b6a682f133852f6798a09c465da95921460cefb3847402498906020015b60405180910390a150565b60008060006060806119548888613bab565b909250905060005b81518163ffffffff161015611b31576000611975614280565b600080868563ffffffff168151811061199057611990614ba2565b602002602001015190506119c38d878763ffffffff16815181106119b6576119b6614ba2565b6020026020010151613c9e565b9094509250836119d5576119d5614bb8565b8063ffffffff16836000015163ffffffff16146119f4576119f4614bb8565b6001600160a01b038d16634b61cc33308e611a1963ffffffff8616600160801b6148ff565b60016040518563ffffffff1660e01b8152600401611a3a9493929190614bce565b600060405180830381865afa158015611a57573d6000803e3d6000fd5b505050506040513d6000823e601f3d908101601f19168201604052611a7f9190810190614cf4565b600081518110611a9157611a91614ba2565b6020026020010151915050611abf604080516060810182526000808252602082018190529181019190915290565b611ac98d83613576565b909450905083611adb57611adb614bb8565b82608001516001600160801b031683606001518260000151611afd9190614995565b6001600160801b0316611b1091906149b5565b611b1a908b614d28565b99505050505080611b2a90614d50565b905061195c565b50611b3c8888613dba565b935060009250505093509350939050565b6060611b8f8784848080601f016020809104026020016040519081016040528093929190818152602001838380828437600092019190915250612b1e92505050565b506001600160a01b038416611bb757604051633242919d60e21b815260040160405180910390fd5b611bbf6141e7565b611bc7614245565b611bd58989888a6001612ceb565b6080870181905260608701929092525060408501919091529083525163ffffffff90811614611c1757604051633eb2f84960e01b815260040160405180910390fd5b60008260800151608001516001600160801b0316836080015160600151846060015160000151611c479190614995565b6001600160801b0316611c5a9190614b61565b9050611c7b8a8a856040015160405180602001604052806000815250612dde565b915085858080601f0160208091040260200160405190810160405280939291908181526020018383808284376000920191909152509296505082159150611f0b90505764040000000060c0830152611cd38285612e0c565b60a0840152611ce68a8a61087884614a3a565b6001600160a01b038a1663cf97256d8a611cff84614a3a565b6040518363ffffffff1660e01b8152600401611d1c929190614a56565b600060405180830381600087803b158015611d3657600080fd5b505af1158015611d4a573d6000803e3d6000fd5b50505050606083810151516080850180516001600160801b039092169190920152604084015190516001600160a01b038c169163a1b2bf8b91611d8c906130ce565b6040518363ffffffff1660e01b8152600401611da9929190614955565b600060405180830381600087803b158015611dc357600080fd5b505af1158015611dd7573d6000803e3d6000fd5b505060405163cf97256d60e01b81526001600160a01b038d16925063cf97256d9150611e09908a908590600401614a56565b600060405180830381600087803b158015611e2357600080fd5b505af1158015611e37573d6000803e3d6000fd5b505050508763ffffffff16896001600160a01b03168b6001600160a01b03167f467eccd248ef31c8bcef16d94856855799a8783aeef10f3759e43614059a6bb18a85604051611e87929190614a56565b60405180910390a4604080516001600160a01b038b8116825263ffffffff8b166020830152918101839052818916918c16907f48a3d91d4a07e4982b081260e24f922bd33bb965882772d6de19c922c3eabdea9060600160405180910390a364080000000060c083015260a0830151611f02908390866132c3565b9450611f459050565b85858080601f0160208091040260200160405190810160405280939291908181526020018383808284376000920191909152509296505050505b5050509695505050505050565b6060611f5c6141e7565b611f64614245565b600060606000611faa8b89898080601f016020809104026020016040519081016040528093929190818152602001838380828437600092019190915250612b1e92505050565b9050806060015192508060a00151915050611fc98a8a848b6000612ceb565b60808901521580156020890152606088019190915260408701919091529085526120195760808401515163ffffffff9081161461201957604051633eb2f84960e01b815260040160405180910390fd5b86868080601f01602080910402602001604051908101604052809392919081815260200183838082843760009201829052506040808a0151815160208101909252918152949950612072948f94508e9350909150612dde565b9250836020015161219b5764010000000060c08401526120928386612e0c565b60a08086019190915260408051918201815260008083526001600160a01b038c16602084015263ffffffff8b1691830191909152606080870151516001600160801b03169083015260808083019190915285015283516120f5908b908490613e63565b60808501805163ffffffff909216909152604085015190516001600160a01b038c16916312a6a3f891612127906130ce565b6040518363ffffffff1660e01b8152600401612144929190614955565b600060405180830381600087803b15801561215e57600080fd5b505af1158015612172573d6000803e3d6000fd5b505064020000000060c0860152505060a0840151612192908490876132c3565b955061245c9050565b64040000000060c08401526121b08386612e0c565b60a08501526080808501519081015160609182015191860151516000926001600160801b03909216916121e291614995565b6001600160801b03166121f591906149b5565b90508460800151608001518560600151602001818151612215919061496e565b6001600160801b031690525060808086015101516060860151604001805161223e908390614995565b6001600160801b0316905250845160608601516001600160a01b038d169163a1b2bf8b9161226b90613030565b6040518363ffffffff1660e01b8152600401612288929190614955565b600060405180830381600087803b1580156122a257600080fd5b505af11580156122b6573d6000803e3d6000fd5b505050506122c98b8b8361087890614a3a565b6001600160a01b038b1663cf97256d8b6122e284614a3a565b6040518363ffffffff1660e01b81526004016122ff929190614a56565b600060405180830381600087803b15801561231957600080fd5b505af115801561232d573d6000803e3d6000fd5b505060405163cf97256d60e01b81526001600160a01b038e16925063cf97256d915061235f9086908590600401614a56565b600060405180830381600087803b15801561237957600080fd5b505af115801561238d573d6000803e3d6000fd5b5050506060808701515160808801516001600160801b039091169101525084516123ba908c908590613e63565b60808601805163ffffffff909216909152604086015190516001600160a01b038d169163a1b2bf8b916123ec906130ce565b6040518363ffffffff1660e01b8152600401612409929190614955565b600060405180830381600087803b15801561242357600080fd5b505af1158015612437573d6000803e3d6000fd5b505064080000000060c0870152505060a0850151612457908590886132c3565b965050505b8763ffffffff16896001600160a01b03168b6001600160a01b03167f492d2641617cfaf24ac7328f85bc5bdf5113537d78dc7671afa4f49a73f053c285856040516124a8929190614af4565b60405180910390a4816001600160a01b03168a6001600160a01b03167fc0b8396b655615cdb85fe462a9a1792480816f909cd46d9517a940b386dfbf6b8b8b856040516124f793929190614b18565b60405180910390a35050505095945050505050565b606080606080606061251e8787613bab565b9092509050600061252d614280565b82516001600160401b0381111561254657612546614bf7565b60405190808252806020026020018201604052801561256f578160200160208202803683370190505b50965082516001600160401b0381111561258b5761258b614bf7565b6040519080825280602002602001820160405280156125b4578160200160208202803683370190505b50955082516001600160401b038111156125d0576125d0614bf7565b6040519080825280602002602001820160405280156125f9578160200160208202803683370190505b50945060005b83518163ffffffff161015612755576000858263ffffffff168151811061262857612628614ba2565b602002602001015190506000858363ffffffff168151811061264c5761264c614ba2565b602002602001015190506126608c82613c9e565b90955093508461267257612672614bb8565b8163ffffffff16846000015163ffffffff161461269157612691614bb8565b83602001518a8463ffffffff16815181106126ae576126ae614ba2565b60200260200101906001600160a01b031690816001600160a01b0316815250508360400151898463ffffffff16815181106126eb576126eb614ba2565b602002602001019063ffffffff16908163ffffffff16815250508360800151888463ffffffff168151811061272257612722614ba2565b60200260200101906001600160801b031690816001600160801b03168152505050508061274e90614d50565b90506125ff565b50505050509250925092565b606060006127a58785858080601f016020809104026020016040519081016040528093929190818152602001838380828437600092019190915250612b1e92505050565b60608101519091506000806127bb8a848b61391d565b915091506000816040015182602001516127d5919061496e565b6001600160801b03169050801561281b5760006127f5610592838c614b80565b90506128198c868d878786896000015161280f919061496e565b8c60a0015161397c565b505b87878080601f016020809104026020016040519081016040528093929190818152602001838380828437600092019190915250929e9d5050505050505050505050505050565b600080600080600080600061288f604080516060810182526000808252602082018190529181019190915290565b612897614280565b6128a18b8b613c9e565b9094509050836128c45760405163016d919360e71b815260040160405180910390fd5b80602001519850806040015197506128dc898961350f565b92506128e88b84613576565b9094509150836128fa576128fa614bb8565b8051608082015163ffffffff9182169091141597509550866129505780608001516001600160801b0316816060015183600001516129389190614995565b6001600160801b031661294b9190614b61565b612953565b60005b9450505050509295509295909350565b606060006129a78685858080601f016020809104026020016040519081016040528093929190818152602001838380828437600092019190915250612b1e92505050565b606081015190915060006129bb828861350f565b90506129c78882613f0a565b156129e557604051635c02a51760e01b815260040160405180910390fd5b876001600160a01b03166312a6a3f882612a36604051806060016040528060006001600160801b0316815260200160006001600160801b0316815260200160006001600160801b0316815250613030565b6040518363ffffffff1660e01b8152600401612a53929190614955565b600060405180830381600087803b158015612a6d57600080fd5b505af1158015612a81573d6000803e3d6000fd5b505050508663ffffffff16826001600160a01b0316896001600160a01b03167f01ab8663165edfb7390d9e5f75d960a66dacf4f01fa9787e3a731c870d0da9218660a00151604051612ad3919061446a565b60405180910390a485858080601f016020809104026020016040519081016040528093929190818152602001838380828437600092019190915250929b9a5050505050505050505050565b612b266142ae565b336001600160a01b0316836001600160a01b03166320bc44256040518163ffffffff1660e01b8152600401602060405180830381865afa158015612b6e573d6000803e3d6000fd5b505050506040513d601f19601f82011682018060405250810190612b929190614d7e565b6001600160a01b031614612bdc5760405162461bcd60e51b81526020600482015260116024820152701d5b985d5d1a1bdc9a5e9959081a1bdcdd607a1b60448201526064016118cd565b604051632fd0a1cd60e21b8152339063bf42873490612bff90859060040161446a565b602060405180830381865afa158015612c1c573d6000803e3d6000fd5b505050506040513d601f19601f82011682018060405250810190612c409190614dab565b612c7a5760405162461bcd60e51b815260206004820152600b60248201526a0d2dcecc2d8d2c840c6e8f60ab1b60448201526064016118cd565b604051631fb6491d60e11b81523390633f6c923a90612c9d90859060040161446a565b600060405180830381865afa158015612cba573d6000803e3d6000fd5b505050506040513d6000823e601f3d908101601f19168201604052612ce29190810190614e52565b90505b92915050565b6040805160608101825260008082526020820181905291810182905281906000612d13614280565b6000612d1f8a8961350f565b9550612d2b8987613fb6565b9450612d378b87613576565b9450905080612d595760405163edeaa63b60e01b815260040160405180910390fd5b612d638b86613c9e565b90935091508615612dd05782612d8c5760405163016d919360e71b815260040160405180910390fd5b896001600160a01b031682602001516001600160a01b031614612db157612db1614bb8565b8763ffffffff16826040015163ffffffff1614612dd057612dd0614bb8565b509550955095509550959050565b612de6614245565b6001600160a01b0394851681529290931660208301526040820152606081019190915290565b6020820151604051633e7d48bd60e21b81526001600160a01b03909116600482015260609060009081908190339063f9f522f490602401606060405180830381865afa158015612e60573d6000803e3d6000fd5b505050506040513d601f19601f82011682018060405250810190612e849190614f58565b91945092509050828015612e96575081155b15612fba576000612ea78688613ff7565b90508660c001518216600003612fac576000612ec68860c00151614075565b88516040808b015160608c015182516000815260208101909352612ef293923092919060448101614f94565b60408051601f19818403018152918152602080830180516001600160e01b03166001600160e01b031990951694909417909352918a015160c08b01519251633a020f0160e11b815291935033926374041e0292612f619291869164100000000091909114908890600401614fd9565b6000604051808303816000875af1158015612f80573d6000803e3d6000fd5b505050506040513d6000823e601f3d908101601f19168201604052612fa89190810190615022565b9550505b612fb786600061410c565b50505b50505092915050565b60006001600160801b0382111561302c5760405162461bcd60e51b815260206004820152602760248201527f53616665436173743a2076616c756520646f65736e27742066697420696e20316044820152663238206269747360c81b60648201526084016118cd565b5090565b604080516002808252606080830184529260208301908036833701905050905081600001516001600160801b0316600160801b1760001b8160008151811061307a5761307a614ba2565b602002602001018181525050608082604001516001600160801b0316901b82602001516001600160801b03161760001b816001815181106130bd576130bd614ba2565b602002602001018181525050919050565b6040805160028082526060808301845292602083019080368337019050509050816000015163ffffffff166020836040015163ffffffff16901b606084602001516001600160a01b0316901b171760001b8160008151811061313257613132614ba2565b602002602001018181525050608082608001516001600160801b0316901b82606001516001600160801b03161760001b816001815181106130bd576130bd614ba2565b8060000361318257505050565b604051634b61cc3360e01b81526000906001600160a01b03851690634b61cc33906131bd903090879064010000000090600190600401614bce565b600060405180830381865afa1580156131da573d6000803e3d6000fd5b505050506040513d6000823e601f3d908101601f191682016040526132029190810190614cf4565b90508161322b8260008151811061321b5761321b614ba2565b602002602001015160001c614134565b6132359190614d28565b60001b8160008151811061324b5761324b614ba2565b602090810291909101015260405163048620af60e11b81526001600160a01b0385169063090c415e9061328b908690640100000000908690600401615056565b600060405180830381600087803b1580156132a557600080fd5b505af11580156132b9573d6000803e3d6000fd5b5050505050505050565b6132cb6142ae565b6020840151604051633e7d48bd60e21b81526001600160a01b03909116600482015260609060009081908190339063f9f522f490602401606060405180830381865afa15801561331f573d6000803e3d6000fd5b505050506040513d601f19601f820116820180604052508101906133439190614f58565b88965091945092509050828015613358575081155b15613504576133678489613ff7565b93508760c0015181166000036134f25760006133868960c00151614075565b89516040808c015160608d0151825160008152602081019093526133b49392309291908e906044810161507d565b60408051601f19818403018152918152602080830180516001600160e01b03166001600160e01b031990951694909417909352918b015160c08c0151925163079b42a160e21b81529193503392631e6d0a84926134239291869164200000000091909114908b90600401614fd9565b6000604051808303816000875af1158015613442573d6000803e3d6000fd5b505050506040513d6000823e601f3d908101601f1916820160405261346a9190810190615022565b604051631fb6491d60e11b81529095503390633f6c923a9061349090889060040161446a565b600060405180830381865afa1580156134ad573d6000803e3d6000fd5b505050506040513d6000823e601f3d908101601f191682016040526134d59190810190614e52565b95506134ea896080015187610100015161419e565b610100870152505b6135018686610100015161410c565b93505b505050935093915050565b60405168383ab13634b9b432b960b91b60208201526bffffffffffffffffffffffff19606084901b1660298201526001600160e01b031960e083901b16603d8201526000906041015b60405160208183030381529060405280519060200120905092915050565b60408051606081018252600080825260208201819052918101829052604051636c2d9f2f60e01b815230600482015260248101849052600260448201526000906001600160a01b03861690636c2d9f2f90606401600060405180830381865afa1580156135e7573d6000803e3d6000fd5b505050506040513d6000823e601f3d908101601f1916820160405261360f9190810190614cf4565b905060008160008151811061362657613626614ba2565b602002602001015160001c905060008260018151811061364857613648614ba2565b602002602001015160001c90506000821194508415613680576001600160801b03808316855281166020850152608081901c60408501525b5050509250929050565b604051631528e57f60e31b81526001600160a01b038085166004830152831660248201526000604482015263ffffffff8216606482015273__$2ab93b044e48e21ae6c24b46e21748f7f9$__9063a9472bf89060840160006040518083038186803b1580156136f857600080fd5b505af415801561370c573d6000803e3d6000fd5b50505050505050565b600061373f7f360894a13ba1a3210667c828492db98dca3e2076cc3735a920a3ca505d382bbc5490565b6001600160a01b0316036137955760405162461bcd60e51b815260206004820152601d60248201527f5555505350726f786961626c653a206e6f742075706772616461626c6500000060448201526064016118cd565b806001600160a01b03166352d1902d6040518163ffffffff1660e01b8152600401602060405180830381865afa1580156137d3573d6000803e3d6000fd5b505050506040513d601f19601f820116820180604052508101906137f79190614b48565b6137ff611143565b146138585760405162461bcd60e51b815260206004820152602360248201527f5555505350726f786961626c653a206e6f7420636f6d70617469626c65206c6f60448201526267696360e81b60648201526084016118cd565b6001600160a01b03811630036138b05760405162461bcd60e51b815260206004820152601960248201527f5555505350726f786961626c653a2070726f7879206c6f6f700000000000000060448201526064016118cd565b6138d8817f360894a13ba1a3210667c828492db98dca3e2076cc3735a920a3ca505d382bbc55565b7fe011bc04c286c344a8fcbb8de77f953da762c3e25d8cdea984147fc4168a5dcc613901611143565b604080519182526001600160a01b038416602083015201611937565b604080516060810182526000808252602082018190529181018290526000613945858561350f565b92506139518684613576565b92509050806139735760405163edeaa63b60e01b815260040160405180910390fd5b50935093915050565b866001600160a01b031663cf97256d8785602001516001600160801b03168660000151866139aa9190614995565b6001600160801b03166139bc90614a3a565b6139c691906149b5565b6040518363ffffffff1660e01b81526004016139e3929190614a56565b600060405180830381600087803b1580156139fd57600080fd5b505af1158015613a11573d6000803e3d6000fd5b50505050613a4b878785604001516001600160801b0316866000015186613a389190614995565b6001600160801b031661087891906149b5565b82516001600160801b03831684526001600160a01b03881663a1b2bf8b86613a7287613030565b6040518363ffffffff1660e01b8152600401613a8f929190614955565b600060405180830381600087803b158015613aa957600080fd5b505af1158015613abd573d6000803e3d6000fd5b505050508563ffffffff16876001600160a01b0316896001600160a01b03167f81e37f3d9f16cbf29a62d6a1c21d79b23ef29b54124ec44af43a50fffb9304f3848789604001518a6020015189604051613b1b9594939291906150e3565b60405180910390a46040516379359f6f60e01b81526001600160a01b0388811660048301528916906379359f6f90602401602060405180830381865afa158015613b69573d6000803e3d6000fd5b505050506040513d601f19601f82011682018060405250810190613b8d9190614dab565b156132b9576040516316e759bb60e01b815260040160405180910390fd5b60608073__$2ab93b044e48e21ae6c24b46e21748f7f9$__6306967a8c85856000600160801b6040518563ffffffff1660e01b8152600401613bf09493929190614bce565b600060405180830381865af4158015613c0d573d6000803e3d6000fd5b505050506040513d6000823e601f3d908101601f19168201604052613c35919081019061511f565b909250905060005b8151811015613c9657613c6984838381518110613c5c57613c5c614ba2565b6020026020010151613fb6565b828281518110613c7b57613c7b614ba2565b6020908102919091010152613c8f816151e3565b9050613c3d565b509250929050565b6000613ca8614280565b604051636c2d9f2f60e01b815230600482015260248101849052600260448201526000906001600160a01b03861690636c2d9f2f90606401600060405180830381865afa158015613cfd573d6000803e3d6000fd5b505050506040513d6000823e601f3d908101601f19168201604052613d259190810190614cf4565b9050600081600081518110613d3c57613d3c614ba2565b602002602001015160001c9050600082600181518110613d5e57613d5e614ba2565b602002602001015160001c9050600082119450841561368057606082811c60208087019190915283901c63ffffffff9081166040870152831685526001600160801b03821690850152608081811c908501525050509250929050565b600080836001600160a01b0316634b61cc33308564010000000060016040518563ffffffff1660e01b8152600401613df59493929190614bce565b600060405180830381865afa158015613e12573d6000803e3d6000fd5b505050506040513d6000823e601f3d908101601f19168201604052613e3a9190810190614cf4565b905080600081518110613e4f57613e4f614ba2565b602002602001015160001c91505092915050565b604051630a32470160e41b81526001600160a01b03808516600483015283166024820152600060448201819052600160801b6064830152608482018390529073__$2ab93b044e48e21ae6c24b46e21748f7f9$__9063a32470109060a401602060405180830381865af4158015613ede573d6000803e3d6000fd5b505050506040513d601f19601f82011682018060405250810190613f0291906151fc565b949350505050565b604051636c2d9f2f60e01b8152306004820152602481018290526002604482015260009081906001600160a01b03851690636c2d9f2f90606401600060405180830381865afa158015613f61573d6000803e3d6000fd5b505050506040513d6000823e601f3d908101601f19168201604052613f899190810190614cf4565b9050600081600081518110613fa057613fa0614ba2565b6020908102919091010151151595945050505050565b604080516b39bab139b1b934b83a34b7b760a11b6020820152606084811b6bffffffffffffffffffffffff1916602c83015291810183905260009101613558565b6020810151608082015160a08301518351604051630768fabb60e41b8152606094339463768fabb09461402e948a94600401615219565b6000604051808303816000875af115801561404d573d6000803e3d6000fd5b505050506040513d6000823e601f3d908101601f19168201604052612ce29190810190615022565b6000640100000000820361409157506330d9c91560e01b919050565b64040000000082036140ab5750630221347d60e61b919050565b64100000000082036140c55750635f9e7d7760e01b919050565b64020000000082036140df575063d86ed3e560e01b919050565b64080000000082036140f9575063230dbd2960e01b919050565b506353c11f9960e01b919050565b919050565b604051634c4d861f60e11b8152606090339063989b0c3e9061402e908690869060040161525e565b60006001600160ff1b0382111561302c5760405162461bcd60e51b815260206004820152602860248201527f53616665436173743a2076616c756520646f65736e27742066697420696e2061604482015267371034b73a191a9b60c11b60648201526084016118cd565b6000612ce260006141b76141b186614134565b856141bc565b6141d1565b60008183136141cb5782612ce2565b50919050565b60008183136141e05781612ce2565b5090919050565b6040805160c081018252600080825260208201819052918101919091526060810161422b604080516060810182526000808252602082018190529181019190915290565b8152602001614238614280565b8152602001606081525090565b6040805160e0810182526000808252602082018190529181018290526060808201526080810182905260a0810182905260c081019190915290565b6040805160a08101825260008082526020820181905291810182905260608101829052608081019190915290565b604080516101608101825260008082526020820181905291810182905260608082018390526080820183905260a082015260c0810182905260e081018290526101008101829052610120810182905261014081019190915290565b6001600160a01b038116811461111157600080fd5b63ffffffff8116811461111157600080fd5b80356001600160801b038116811461410757600080fd5b60008083601f84011261435957600080fd5b5081356001600160401b0381111561437057600080fd5b60208301915083602082850101111561438857600080fd5b9250929050565b60008060008060008060a087890312156143a857600080fd5b86356143b381614309565b955060208701356143c38161431e565b945060408701356143d381614309565b93506143e160608801614330565b925060808701356001600160401b038111156143fc57600080fd5b61440889828a01614347565b979a9699509497509295939492505050565b60005b8381101561443557818101518382015260200161441d565b50506000910152565b6000815180845261445681602086016020860161441a565b601f01601f19169290920160200192915050565b602081526000612ce2602083018461443e565b60008060006060848603121561449257600080fd5b833561449d81614309565b925060208401356144ad81614309565b915060408401356144bd8161431e565b809150509250925092565b60008060008060008060a087890312156144e157600080fd5b86356144ec81614309565b955060208701356144fc81614309565b9450604087013561450c8161431e565b935060608701356143e181614309565b60006020828403121561452e57600080fd5b813561453981614309565b9392505050565b6000806000806080858703121561455657600080fd5b843561456181614309565b9350602085013561457181614309565b925060408501356145818161431e565b9150606085013561459181614309565b939692955090935050565b6000806000806000608086880312156145b457600080fd5b85356145bf81614309565b945060208601356145cf81614309565b935060408601356145df8161431e565b925060608601356001600160401b038111156145fa57600080fd5b61460688828901614347565b969995985093965092949392505050565b60008060008060006080868803121561462f57600080fd5b853561463a81614309565b9450602086013561464a8161431e565b93506145df60408701614330565b6000806000806080858703121561466e57600080fd5b843561467981614309565b9350602085013561468981614309565b925060408501356146998161431e565b9396929550929360600135925050565b6000806000606084860312156146be57600080fd5b83356146c981614309565b925060208401356146d981614309565b929592945050506040919091013590565b600080604083850312156146fd57600080fd5b823561470881614309565b9150602083013561471881614309565b809150509250929050565b600081518084526020808501945080840160005b8381101561475c5781516001600160801b031687529582019590820190600101614737565b509495945050505050565b606080825284519082018190526000906020906080840190828801845b828110156147a95781516001600160a01b031684529284019290840190600101614784565b5050508381038285015285518082528683019183019060005b818110156147e457835163ffffffff16835292840192918401916001016147c2565b505084810360408601526147f88187614723565b98975050505050505050565b60008060008060006080868803121561481c57600080fd5b853561482781614309565b945060208601356148378161431e565b93506040860135925060608601356001600160401b038111156145fa57600080fd5b6000806040838503121561486c57600080fd5b823561487781614309565b946020939093013593505050565b6000806000806060858703121561489b57600080fd5b84356148a681614309565b935060208501356148b68161431e565b925060408501356001600160401b038111156148d157600080fd5b6148dd87828801614347565b95989497509550505050565b634e487b7160e01b600052601160045260246000fd5b80820180821115612ce557612ce56148e9565b81810381811115612ce557612ce56148e9565b600081518084526020808501945080840160005b8381101561475c57815187529582019590820190600101614939565b828152604060208201526000613f026040830184614925565b6001600160801b0381811683821601908082111561498e5761498e6148e9565b5092915050565b6001600160801b0382811682821603908082111561498e5761498e6148e9565b60006001600160ff1b03818413828413808216868404861116156149db576149db6148e9565b600160ff1b60008712828116878305891216156149fa576149fa6148e9565b60008712925087820587128484161615614a1657614a166148e9565b87850587128184161615614a2c57614a2c6148e9565b505050929093029392505050565b6000600160ff1b8201614a4f57614a4f6148e9565b5060000390565b6001600160a01b03929092168252602082015260400190565b6001600160a01b03841681526001600160801b0383166020820152606060408201819052600090614aa29083018461443e565b95945050505050565b6001600160a01b038516815263ffffffff841660208201526001600160801b0383166040820152608060608201819052600090614aea9083018461443e565b9695505050505050565b6001600160a01b0383168152604060208201819052600090613f029083018461443e565b6001600160a01b038416815263ffffffff83166020820152606060408201819052600090614aa29083018461443e565b600060208284031215614b5a57600080fd5b5051919050565b6000816000190483118215151615614b7b57614b7b6148e9565b500290565b600082614b9d57634e487b7160e01b600052601260045260246000fd5b500490565b634e487b7160e01b600052603260045260246000fd5b634e487b7160e01b600052600160045260246000fd5b6001600160a01b0394851681529290931660208301526040820152606081019190915260800190565b634e487b7160e01b600052604160045260246000fd5b60405161016081016001600160401b0381118282101715614c3057614c30614bf7565b60405290565b604051601f8201601f191681016001600160401b0381118282101715614c5e57614c5e614bf7565b604052919050565b60006001600160401b03821115614c7f57614c7f614bf7565b5060051b60200190565b600082601f830112614c9a57600080fd5b81516020614caf614caa83614c66565b614c36565b82815260059290921b84018101918181019086841115614cce57600080fd5b8286015b84811015614ce95780518352918301918301614cd2565b509695505050505050565b600060208284031215614d0657600080fd5b81516001600160401b03811115614d1c57600080fd5b613f0284828501614c89565b8082018281126000831280158216821582161715614d4857614d486148e9565b505092915050565b600063ffffffff808316818103614d6957614d696148e9565b6001019392505050565b805161410781614309565b600060208284031215614d9057600080fd5b815161453981614309565b8051801515811461410757600080fd5b600060208284031215614dbd57600080fd5b612ce282614d9b565b805160ff8116811461410757600080fd5b80516001600160e01b03198116811461410757600080fd5b600082601f830112614e0057600080fd5b81516001600160401b03811115614e1957614e19614bf7565b614e2c601f8201601f1916602001614c36565b818152846020838601011115614e4157600080fd5b613f0282602083016020870161441a565b600060208284031215614e6457600080fd5b81516001600160401b0380821115614e7b57600080fd5b908301906101608286031215614e9057600080fd5b614e98614c0d565b614ea183614dc6565b8152614eaf60208401614dc6565b602082015260408301516040820152614eca60608401614d73565b6060820152614edb60808401614dd7565b608082015260a083015182811115614ef257600080fd5b614efe87828601614def565b60a08301525060c083015160c082015260e083015160e0820152610100915081830151828201526101209150614f35828401614d73565b828201526101409150614f49828401614d73565b91810191909152949350505050565b600080600060608486031215614f6d57600080fd5b614f7684614d9b565b9250614f8460208501614d9b565b9150604084015190509250925092565b6001600160a01b038681168252851660208201526040810184905260a060608201819052600090614fc79083018561443e565b82810360808401526147f8818561443e565b6001600160a01b0385168152608060208201819052600090614ffd9083018661443e565b84151560408401528281036060840152615017818561443e565b979650505050505050565b60006020828403121561503457600080fd5b81516001600160401b0381111561504a57600080fd5b613f0284828501614def565b60018060a01b0384168152826020820152606060408201526000614aa26060830184614925565b6001600160a01b038781168252861660208201526040810185905260c0606082018190526000906150b09083018661443e565b82810360808401526150c2818661443e565b905082810360a08401526150d6818561443e565b9998505050505050505050565b60006001600160801b0380881683528087166020840152808616604084015280851660608401525060a0608083015261501760a083018461443e565b6000806040838503121561513257600080fd5b82516001600160401b038082111561514957600080fd5b818501915085601f83011261515d57600080fd5b8151602061516d614caa83614c66565b82815260059290921b8401810191818101908984111561518c57600080fd5b948201945b838610156151b35785516151a48161431e565b82529482019490820190615191565b918801519196509093505050808211156151cc57600080fd5b506151d985828601614c89565b9150509250929050565b6000600182016151f5576151f56148e9565b5060010190565b60006020828403121561520e57600080fd5b81516145398161431e565b60a08152600061522c60a083018861443e565b6001600160a01b0396871660208401526040830195909552506060810192909252909216608090920191909152919050565b604081526000615271604083018561443e565b9050826020830152939250505056fea2646970667358221220e045c4c42010176b54fb72f0f0598b4d12c222ca1a3c6abc174728288ff7d12664736f6c63430008100033608060405234801561001057600080fd5b5061479a806100206000396000f3fe608060405234801561001057600080fd5b506004361061002b5760003560e01c80639ed9331814610030575b600080fd5b61004361003e3660046100ae565b61005f565b6040516001600160a01b03909116815260200160405180910390f35b60008160405161006e906100a1565b6001600160a01b039091168152602001604051809103906000f08015801561009a573d6000803e3d6000fd5b5092915050565b614686806100df83390190565b6000602082840312156100c057600080fd5b81356001600160a01b03811681146100d757600080fd5b939250505056fe60a06040523480156200001157600080fd5b506040516200468638038062004686833981016040819052620000349162000046565b6001600160a01b031660805262000078565b6000602082840312156200005957600080fd5b81516001600160a01b03811681146200007157600080fd5b9392505050565b608051614589620000fd6000396000818161041201528181610a5d01528181610acc01528181610d6f01528181610e8901528181610f58015281816111aa015281816112bb01528181611453015281816117fd015281816118c00152818161194801528181612130015281816121c701528181613240015261347c01526145896000f3fe608060405234801561001057600080fd5b50600436106103425760003560e01c806362ad1b83116101b8578063a9059cbb11610104578063d9d078d6116100a2578063ee719bc81161007c578063ee719bc814610792578063fad8b32a146107a3578063fc673c4f146107b6578063fe9d9303146107c957600080fd5b8063d9d078d614610718578063dd62ed3e1461072b578063eb3537cc1461076457600080fd5b8063c68d4283116100de578063c68d4283146106cc578063ca789464146106df578063cf97256d146106f2578063d95b63711461070557600080fd5b8063a9059cbb14610693578063b84cdd4a146106a6578063bb0d196e146106b957600080fd5b806395d89b41116101715780639d8767411161014b5780639d87674114610647578063a1b2bf8b1461065a578063a3a7e7f31461066d578063a457c2d71461068057600080fd5b806395d89b41146106245780639903ad381461062c5780639bd9bbc61461063457600080fd5b806362ad1b83146105b257806366a12fb6146105c55780636c2d9f2f146105d857806370a08231146105eb57806379359f6f146105fe578063959b8c3f1461061157600080fd5b80632ec8eec711610292578063469519541161023057806352d1902d1161020a57806352d1902d1461055f578063556f0dc7146105855780635b9d09cc1461058c57806362aa52871461059f57600080fd5b806346951954146105245780634b61cc331461053757806350d75d251461055757600080fd5b8063395093511161026c57806339509351146104d857806341b706be146104eb57806342fe0980146104fe57806345977d031461051157600080fd5b80632ec8eec714610483578063313ce567146104b6578063386fa221146104c557600080fd5b806316d055d6116102ff57806320bc4425116102d957806320bc44251461041057806323b872dd1461044a578063245887fc1461045d578063270483971461047057600080fd5b806316d055d6146103d857806318160ddd146103eb5780631863e809146103fd57600080fd5b806306e485381461034757806306fdde0314610365578063090c415e1461037a578063095ea7b31461038f57806311bcc81e146103b257806312a6a3f8146103c5575b600080fd5b61034f6107dc565b60405161035c9190613696565b60405180910390f35b61036d6107ed565b60405161035c9190613733565b61038d6103883660046137a6565b61087f565b005b6103a261039d366004613801565b610933565b604051901515815260200161035c565b61038d6103c036600461382d565b61094a565b61038d6103d3366004613846565b610978565b61038d6103e6366004613891565b610a5b565b6003545b60405190815260200161035c565b61038d61040b3660046139a5565b610ab7565b7f00000000000000000000000000000000000000000000000000000000000000005b6040516001600160a01b03909116815260200161035c565b6103a2610458366004613a37565b610d57565b61038d61046b366004613801565b610d6d565b61038d61047e366004613a78565b610de5565b610496610491366004613a9a565b610e81565b60408051948552602085019390935291830152606082015260800161035c565b6040516012815260200161035c565b61034f6104d3366004613a9a565b610f24565b6103a26104e6366004613801565b610fc7565b61038d6104f9366004613891565b611003565b61038d61050c366004613af8565b61102f565b61038d61051f36600461382d565b611173565b61038d610532366004613a9a565b61119f565b61054a610545366004613b92565b6111f1565b60405161035c9190613bd8565b610432611236565b7f6bfbb132610e56cb96575dba244667b9d6dbfeffe22b68a79fa16f2d18eb00196103ef565b60016103ef565b61038d61059a366004613c10565b611260565b61038d6105ad366004613a37565b6112b9565b61038d6105c0366004613c5f565b611312565b61038d6105d3366004613a37565b6113c0565b61054a6105e6366004613cfd565b6113e0565b6103ef6105f9366004613a9a565b611422565b6103a261060c366004613a9a565b61144b565b61038d61061f366004613a9a565b6114d3565b61036d611524565b61038d611533565b61038d610642366004613c10565b6115f5565b61038d610655366004613d32565b611649565b61038d610668366004613846565b611689565b61038d61067b366004613a9a565b611733565b6103a261068e366004613801565b611747565b6103a26106a1366004613801565b611796565b6103a26106b4366004613801565b6117a4565b6103a26106c7366004613a9a565b6117f5565b61038d6106da366004613d32565b61187d565b61038d6106ed366004613801565b6118be565b61038d610700366004613801565b611933565b6103a2610713366004613d8a565b611a1c565b6103a2610726366004613801565b611a2a565b6103ef610739366004613d8a565b6001600160a01b03918216600090815260116020908152604080832093909416825291909152205490565b610777610772366004613801565b611a44565b6040805193845260208401929092529082015260600161035c565b600e546001600160a01b0316610432565b61038d6107b1366004613a9a565b611b7e565b61038d6107c4366004613dc3565b611bcf565b61038d6107d7366004613e0a565b611c6f565b60606107e86012611cbf565b905090565b6060600f80546107fc90613e48565b80601f016020809104026020016040519081016040528092919081815260200182805461082890613e48565b80156108755780601f1061084a57610100808354040283529160200191610875565b820191906000526020600020905b81548152906001019060200180831161085857829003601f168201915b5050505050905090565b600033858560405160200161089693929190613e82565b6040516020818303038152906040528051906020012090506108eb81848480806020026020016040519081016040528093929190818152602001838360200280828437600092019190915250611d2592505050565b6040518481526001600160a01b0386169033907f30f416fa68fca014a0f334464c64b000ba53e99b6d2afdea9d5ca756372d5985906020015b60405180910390a35050505050565b6000610940338484611d66565b5060015b92915050565b6109753333836040518060200160405280600081525060405180602001604052806000815250611e16565b50565b60405133906000906109909083908790602001613ecb565b60408051601f19818403018152919052805160209091012090506109b48184611fcf565b156109d25760405163782a90fb60e11b815260040160405180910390fd5b610a0f81858580806020026020016040519081016040528093929190818152602001838360200280828437600092019190915250611d2592505050565b816001600160a01b03167f770ea40a13a4644573ed785e5c7116890709947918747febc5add46feb531e2d868686604051610a4c93929190613f08565b60405180910390a25050505050565b7f00000000000000000000000000000000000000000000000000000000000000006001600160a01b03163314610aa45760405163c51efddd60e01b815260040160405180910390fd5b610ab08484848461200b565b5050505050565b604051632329212160e21b81523360048201527f00000000000000000000000000000000000000000000000000000000000000006001600160a01b031690638ca4848490602401602060405180830381865afa158015610b1b573d6000803e3d6000fd5b505050506040513d601f19601f82011682018060405250810190610b3f9190613f49565b610b5c5760405163327fd99160e21b815260040160405180910390fd5b6000610b6661212b565b90506001600160a01b038116610b795750845b600085610b865786610b88565b815b905060008313610c2557610b9b83613f7c565b610ba485612270565b14610bb157610bb1613f98565b610bba84612270565b6001600160a01b03821660009081526002602052604081208054909190610be2908490613fae565b90915550506001600160a01b03851660009081526002602052604081208054859290610c0f908490613fae565b90915550610c2090508582866122de565b610cef565b8515610c3357610c33613f98565b82610c3d85612270565b610c479190613fae565b6001600160a01b03831660009081526002602052604081208054909190610c6f908490613fd6565b90915550610c7e905084612270565b6001600160a01b03881660009081526002602052604081208054909190610ca6908490613fae565b90915550506001600160a01b03851660009081526002602052604081208054859290610cd3908490613fae565b90915550610ce490508288866122de565b610cef8286856122de565b846001600160a01b0316876001600160a01b0316336001600160a01b03167fb8381a3ce157650e06186e3e8f4dd4dc29236f2688b6eed1893d0a60d7c6386f8c8589898f604051610d44959493929190613ff6565b60405180910390a4505050505050505050565b6000610d653385858561200b565b949350505050565b7f00000000000000000000000000000000000000000000000000000000000000006001600160a01b03163314610db65760405163c51efddd60e01b815260040160405180910390fd5b610de13383836040518060200160405280600081525060405180602001604052806000815250611e16565b5050565b6040513390600090610dfd9083908690602001613ecb565b604051602081830303815290604052805190602001209050610e1f8184611fcf565b610e3c5760405163dae1880960e01b815260040160405180910390fd5b610e468184612311565b60405184815233907f71a63dc095de07aa5512ad57a7596a39516317e316981a1cd71000057be1537b9060200160405180910390a250505050565b6000806000807f00000000000000000000000000000000000000000000000000000000000000006001600160a01b031663bbe4fd506040518163ffffffff1660e01b8152600401602060405180830381865afa158015610ee5573d6000803e3d6000fd5b505050506040513d601f19601f82011682018060405250810190610f099190614029565b9050610f158582611a44565b91979096509094509092509050565b6001600160a01b038181166000908152600160205260409081902054905163c56a069d60e01b8152901960048201526060917f0000000000000000000000000000000000000000000000000000000000000000169063c56a069d90602401600060405180830381865afa158015610f9f573d6000803e3d6000fd5b505050506040513d6000823e601f3d908101601f191682016040526109449190810190614042565b3360008181526011602090815260408083206001600160a01b03871684529091528120549091610940918590610ffe9086906140f3565b611d66565b33301461102357604051630fff4cc960e31b815260040160405180910390fd5b610ab08385848461200b565b600054610100900460ff161580801561104f5750600054600160ff909116105b806110695750303b158015611069575060005460ff166001145b61108e5760405162461bcd60e51b815260040161108590614106565b60405180910390fd5b6000805460ff1916600117905580156110b1576000805461ff0019166101001790555b600e805460ff8816600160a01b026001600160a81b03199091166001600160a01b038a1617179055600f6110e68587836141a2565b5060106110f48385836141a2565b506110fe30612332565b60405160008082529081906000805160206145078339815191529060200160405180910390a3801561116a576000805461ff0019169055604051600181527f7f26b83ff96e1f2b6a682f133852f6798a09c465da95921460cefb38474024989060200160405180910390a15b50505050505050565b610975333333846040518060200160405280600081525060405180602001604052806000815250612460565b336001600160a01b037f000000000000000000000000000000000000000000000000000000000000000016146111e85760405163263dcdc160e21b815260040160405180910390fd5b61097581612635565b6060600085858560405160200161120a93929190613e82565b60405160208183030381529060405280519060200120905061122c818461286f565b9695505050505050565b60006107e87f360894a13ba1a3210667c828492db98dca3e2076cc3735a920a3ca505d382bbc5490565b6112b3333386866040518060200160405280600081525087878080601f01602080910402602001604051908101604052809392919081815260200183838082843760009201919091525061246092505050565b50505050565b7f00000000000000000000000000000000000000000000000000000000000000006001600160a01b031633146113025760405163c51efddd60e01b815260040160405180910390fd5b61130d838383611d66565b505050565b3361131f6012828a6128fe565b61133c5760405163f7f0222760e01b815260040160405180910390fd5b6113b68189898989898080601f01602080910402602001604051908101604052809392919081815260200183838082843760009201919091525050604080516020601f8d018190048102820181019092528b815292508b91508a9081908401838280828437600092019190915250600192506129a7915050565b5050505050505050565b33301461130257604051630fff4cc960e31b815260040160405180910390fd5b6060600084846040516020016113f7929190613ecb565b604051602081830303815290604052805190602001209050611419818461286f565b95945050505050565b60008061142e83610e81565b5050509050600081126114415780611444565b60005b9392505050565b6000610944827f00000000000000000000000000000000000000000000000000000000000000006001600160a01b031663bbe4fd506040518163ffffffff1660e01b8152600401602060405180830381865afa1580156114af573d6000803e3d6000fd5b505050506040513d601f19601f820116820180604052508101906107269190614029565b336114e060128284612a20565b806001600160a01b0316826001600160a01b03167ff4caeb2d6ca8932a215a353d0703c326ec2d81fc68170f320eb2ab49e9df61f960405160405180910390a35050565b6060601080546107fc90613e48565b600054610100900460ff16158080156115535750600054600160ff909116105b8061156d5750303b15801561156d575060005460ff166001145b6115895760405162461bcd60e51b815260040161108590614106565b6000805460ff1916600117905580156115ac576000805461ff0019166101001790555b8015610975576000805461ff0019169055604051600181527f7f26b83ff96e1f2b6a682f133852f6798a09c465da95921460cefb3847402498906020015b60405180910390a150565b6112b33333868686868080601f016020809104026020016040519081016040528093929190818152602001838380828437600092018290525060408051602081019091529081529250600191506129a79050565b33301461166957604051630fff4cc960e31b815260040160405180910390fd5b60408051600081526020810190915261130d903390859085908590612b24565b60405133906000906116a19083908790602001613ecb565b6040516020818303038152906040528051906020012090506116f681858580806020026020016040519081016040528093929190818152602001838360200280828437600092019190915250611d2592505050565b336001600160a01b03167f0c4c547b3a4fcaa5be8353b3111472b124155bccc86de811d4a481c9e6e9faca868686604051610a4c93929190613f08565b610de133338361174233611422565b61200b565b60006109403384610ffe856040518060600160405280602a81526020016144dd602a91393360009081526011602090815260408083206001600160a01b038d1684529091529020549190612bdf565b60006114443333858561200b565b6000806000806117b48686611a44565b92509250925060006117dc8284116117cd576000612270565b6117d78385614261565b612270565b6117e69085613fae565b60001315979650505050505050565b6000610944827f00000000000000000000000000000000000000000000000000000000000000006001600160a01b031663bbe4fd506040518163ffffffff1660e01b8152600401602060405180830381865afa158015611859573d6000803e3d6000fd5b505050506040513d601f19601f820116820180604052508101906106b49190614029565b33301461189d57604051630fff4cc960e31b815260040160405180910390fd5b6040805160008082526020820190925261130d913391869186918690612c0b565b7f00000000000000000000000000000000000000000000000000000000000000006001600160a01b031633146119075760405163c51efddd60e01b815260040160405180910390fd5b610de1338384846040518060200160405280600081525060405180602001604052806000815250612460565b604051632329212160e21b81523360048201527f00000000000000000000000000000000000000000000000000000000000000006001600160a01b031690638ca4848490602401602060405180830381865afa158015611997573d6000803e3d6000fd5b505050506040513d601f19601f820116820180604052508101906119bb9190613f49565b6119d85760405163327fd99160e21b815260040160405180910390fd5b6001600160a01b0382166000908152600260205260409020546119fc908290613fae565b6001600160a01b0390921660009081526002602052604090209190915550565b6000611444601284846128fe565b600080611a378484611a44565b5050600013949350505050565b6001600160a01b038216600090815260026020526040812054908080611a6986610f24565b905060005b8151811015611b75576000806000848481518110611a8e57611a8e614274565b60209081029190910101516040516326cb922f60e21b81523060048201526001600160a01b038c81166024830152604482018c905290911690639b2e48bc90606401606060405180830381865afa158015611aed573d6000803e3d6000fd5b505050506040513d601f19601f82011682018060405250810190611b11919061428a565b91945092509050611b2282886140f3565b9650611b2e81876140f3565b9550611b4b818311611b41576000612270565b6117d78284614261565b611b55848a613fae565b611b5f9190613fd6565b975050505080611b6e906142b8565b9050611a6e565b50509250925092565b33611b8b60128284612cd3565b806001600160a01b0316826001600160a01b03167f50546e66e5f44d728365dc3908c63bc5cfeeab470722c1677e3073a6ac294aa160405160405180910390a35050565b33611bdc601282896128fe565b611bf95760405163f7f0222760e01b815260040160405180910390fd5b61116a81888888888080601f01602080910402602001604051908101604052809392919081815260200183838082843760009201919091525050604080516020601f8c018190048102820181019092528a815292508a9150899081908401838280828437600092019190915250611e1692505050565b61130d33338585858080601f016020809104026020016040519081016040528093929190818152602001838380828437600092018290525060408051602081019091529081529250611e16915050565b606081600001805480602002602001604051908101604052809291908181526020018280548015611d1957602002820191906000526020600020905b81546001600160a01b03168152600190910190602001808311611cfb575b50505050509050919050565b60005b815181101561130d576000828281518110611d4557611d45614274565b6020026020010151905080828501555080611d5f906142b8565b9050611d28565b6001600160a01b038316611d8d57604051638163862760e01b815260040160405180910390fd5b6001600160a01b038216611db4576040516337c1c09d60e21b815260040160405180910390fd5b6001600160a01b0383811660008181526011602090815260408083209487168084529482529182902085905590518481527f8c5be1e5ebec7d5bd14f71427d1e84f3dd0314c0f7b2291e5b200ac8c7c3b92591015b60405180910390a3505050565b600e546001600160a01b0316611e3f57604051637bce7b2b60e11b815260040160405180910390fd5b600080611e4b85612dcb565b91509150611e5c8787838787612b24565b600e546040516370a0823160e01b81523060048201526000916001600160a01b0316906370a0823190602401602060405180830381865afa158015611ea5573d6000803e3d6000fd5b505050506040513d601f19601f82011682018060405250810190611ec99190614029565b600e54909150611ee3906001600160a01b03168885612e87565b600e546040516370a0823160e01b81523060048201526000916001600160a01b0316906370a0823190602401602060405180830381865afa158015611f2c573d6000803e3d6000fd5b505050506040513d601f19601f82011682018060405250810190611f509190614029565b90506000611f5e8284614261565b9050808514611f8057604051631c7c26d360e31b815260040160405180910390fd5b886001600160a01b03167f3bc27981aebbb57f9247dc00fde9d6cd91e4b230083fec3238fedbcba1f9ab3d85604051611fbb91815260200190565b60405180910390a250505050505050505050565b6000805b8281101561200157838101548015611ff057600192505050610944565b50611ffa816142b8565b9050611fd3565b5060009392505050565b60006001600160a01b0384166120345760405163eecd6c9b60e01b815260040160405180910390fd5b6001600160a01b03831661205b5760405163e219bd3960e01b815260040160405180910390fd5b600033905061208c818686866040518060200160405280600081525060405180602001604052806000815250612eea565b846001600160a01b0316866001600160a01b03161461211f5761211f8587610ffe866040518060600160405280602d8152602001614527602d9139601160008c6001600160a01b03166001600160a01b0316815260200190815260200160002060008d6001600160a01b03166001600160a01b0316815260200190815260200160002054612bdf9092919063ffffffff16565b50600195945050505050565b6000807f00000000000000000000000000000000000000000000000000000000000000006001600160a01b031663289b3c0d6040518163ffffffff1660e01b8152600401602060405180830381865afa15801561218c573d6000803e3d6000fd5b505050506040513d601f19601f820116820180604052508101906121b091906142d1565b604051638369a0f160e01b81526001600160a01b037f0000000000000000000000000000000000000000000000000000000000000000811660048301523060248301527f9f60ae461adf056670e03ae602566409933242392cb06744f5747c9f38b05d09604483015291925090821690638369a0f190606401602060405180830381865afa158015612246573d6000803e3d6000fd5b505050506040513d601f19601f8201168201806040525081019061226a91906142d1565b91505090565b60006001600160ff1b038211156122da5760405162461bcd60e51b815260206004820152602860248201527f53616665436173743a2076616c756520646f65736e27742066697420696e2061604482015267371034b73a191a9b60c11b6064820152608401611085565b5090565b816001600160a01b0316836001600160a01b031660008051602061450783398151915283604051611e0991815260200190565b60005b8181101561130d5760008382015561232b816142b8565b9050612314565b6040516329965a1d60e01b81526001600160a01b03821660048201527fac7fbab5f54a3ca8194167523c6753bfeb96a445279294b6125b68cce21770546024820152306044820152731820a4b7618bde71dce8cdc73aab6c95905fad24906329965a1d90606401600060405180830381600087803b1580156123b357600080fd5b505af11580156123c7573d6000803e3d6000fd5b50506040516329965a1d60e01b81526001600160a01b03841660048201527faea199e31a596269b42cdafd93407f14436db6e4cad65417994c2eb37381e05a6024820152306044820152731820a4b7618bde71dce8cdc73aab6c95905fad2492506329965a1d9150606401600060405180830381600087803b15801561244c57600080fd5b505af1158015610ab0573d6000803e3d6000fd5b600e546001600160a01b031661248957604051637bce7b2b60e11b815260040160405180910390fd5b60008061249585612dcb565b600e546040516370a0823160e01b81523060048201529294509092506000916001600160a01b03909116906370a0823190602401602060405180830381865afa1580156124e6573d6000803e3d6000fd5b505050506040513d601f19601f8201168201806040525081019061250a9190614029565b600e54909150612525906001600160a01b0316893086612f89565b600e546040516370a0823160e01b81523060048201526000916001600160a01b0316906370a0823190602401602060405180830381865afa15801561256e573d6000803e3d6000fd5b505050506040513d601f19601f820116820180604052508101906125929190614029565b905060006125a08383614261565b90508085146125c257604051631c7c26d360e31b815260040160405180910390fd5b6125e58b8a868c6001600160a01b03168e6001600160a01b031614158b8b612c0b565b886001600160a01b03167f25ca84076773b0455db53621c459ddc84fe40840e4932a62706a032566f399df8560405161262091815260200190565b60405180910390a25050505050505050505050565b600061265f7f360894a13ba1a3210667c828492db98dca3e2076cc3735a920a3ca505d382bbc5490565b6001600160a01b0316036126b55760405162461bcd60e51b815260206004820152601d60248201527f5555505350726f786961626c653a206e6f742075706772616461626c650000006044820152606401611085565b806001600160a01b03166352d1902d6040518163ffffffff1660e01b8152600401602060405180830381865afa1580156126f3573d6000803e3d6000fd5b505050506040513d601f19601f820116820180604052508101906127179190614029565b7f6bfbb132610e56cb96575dba244667b9d6dbfeffe22b68a79fa16f2d18eb0019146127915760405162461bcd60e51b815260206004820152602360248201527f5555505350726f786961626c653a206e6f7420636f6d70617469626c65206c6f60448201526267696360e81b6064820152608401611085565b6001600160a01b03811630036127e95760405162461bcd60e51b815260206004820152601960248201527f5555505350726f786961626c653a2070726f7879206c6f6f70000000000000006044820152606401611085565b612811817f360894a13ba1a3210667c828492db98dca3e2076cc3735a920a3ca505d382bbc55565b7fe011bc04c286c344a8fcbb8de77f953da762c3e25d8cdea984147fc4168a5dcc7f6bfbb132610e56cb96575dba244667b9d6dbfeffe22b68a79fa16f2d18eb0019604080519182526001600160a01b0384166020830152016115ea565b6060816001600160401b03811115612889576128896138e2565b6040519080825280602002602001820160405280156128b2578160200160208202803683370190505b50905060005b828110156128f7576000818501549050808383815181106128db576128db614274565b6020908102919091010152506128f0816142b8565b90506128b8565b5092915050565b6000816001600160a01b0316836001600160a01b0316148061296d57506001600160a01b038316600090815260018501602052604090205460ff16801561296d57506001600160a01b03808316600090815260038601602090815260408083209387168352929052205460ff16155b80610d6557506001600160a01b03808316600090815260028601602090815260408083209387168352929052205460ff1690509392505050565b6001600160a01b0386166129ce5760405163eecd6c9b60e01b815260040160405180910390fd5b6001600160a01b0385166129f55760405163e219bd3960e01b815260040160405180910390fd5b612a03878787878787612fc1565b612a11878787878787612eea565b61116a878787878787876130e8565b806001600160a01b0316826001600160a01b031603612a975760405162461bcd60e51b815260206004820152602d60248201527f4552433737374f70657261746f72733a20617574686f72697a696e672073656c60448201526c331030b99037b832b930ba37b960991b6064820152608401611085565b6001600160a01b038116600090815260018401602052604090205460ff1615612aed576001600160a01b03918216600090815260039390930160209081526040808520929093168452529020805460ff19169055565b6001600160a01b0380831660009081526002850160209081526040808320938516835292905220805460ff19166001179055505050565b6001600160a01b038416612b4b57604051632e8aac6160e21b815260040160405180910390fd5b612b5a85856000868686612fc1565b612b648484613238565b836001600160a01b0316856001600160a01b03167fa78a9be3a7b862d26933ad85fb11d80ef66b8f972d7cbba06621d583943a4098858585604051612bab939291906142ee565b60405180910390a36040518381526000906001600160a01b0386169060008051602061450783398151915290602001610924565b60008184841115612c035760405162461bcd60e51b81526004016110859190613733565b505050900390565b6001600160a01b038516612c3257604051630d24315760e01b815260040160405180910390fd5b612c3c8585613348565b612c4c86600087878686896130e8565b846001600160a01b0316866001600160a01b03167f2fe5be0146f74c5bce36c0b80911af6c7d86ff27e89d5cfa61fc681327954e5d868585604051612c93939291906142ee565b60405180910390a36040518481526001600160a01b03861690600090600080516020614507833981519152906020015b60405180910390a3505050505050565b336001600160a01b03821603612d3e5760405162461bcd60e51b815260206004820152602a60248201527f4552433737374f70657261746f72733a207265766f6b696e672073656c662061604482015269399037b832b930ba37b960b11b6064820152608401611085565b6001600160a01b038116600090815260018401602052604090205460ff1615612d98576001600160a01b0380831660009081526003850160209081526040808320938516835292905220805460ff19166001179055505050565b6001600160a01b03918216600090815260029390930160209081526040808520929093168452529020805460ff19169055565b600e54600090819081906012600160a01b90910460ff161015612e2a57600e54612e0090600160a01b900460ff166012614319565b612e0b90600a614416565b9050612e178185614425565b9250612e238184614447565b9150612e81565b600e546012600160a01b90910460ff161115612e7a57600e54612e5990601290600160a01b900460ff16614319565b612e6490600a614416565b9050612e708185614447565b9250839150612e81565b8391508192505b50915091565b6040516001600160a01b03831660248201526044810182905261130d90849063a9059cbb60e01b906064015b60408051601f198184030181529190526020810180516001600160e01b03166001600160e01b0319909316929092179091526133a2565b612efd8585612ef886612270565b613474565b836001600160a01b0316856001600160a01b0316876001600160a01b03167f06b541ddaa720db2b10a4d0cdac39b8d360425fc073085fac19bc82614677987868686604051612f4e939291906142ee565b60405180910390a4836001600160a01b0316856001600160a01b031660008051602061450783398151915285604051612cc391815260200190565b6040516001600160a01b03808516602483015283166044820152606481018290526112b39085906323b872dd60e01b90608401612eb3565b60405163555ddc6560e11b81526001600160a01b03861660048201527f29ddb589b1fb5fc7cf394961c1adf5f8c6454761adf795e67fe149f658abe8956024820152600090731820a4b7618bde71dce8cdc73aab6c95905fad249063aabbb8ca90604401602060405180830381865afa158015613042573d6000803e3d6000fd5b505050506040513d601f19601f8201168201806040525081019061306691906142d1565b90506001600160a01b0381161561116a57604051633ad5cbc160e11b81526001600160a01b038216906375ab9782906130ad908a908a908a908a908a908a90600401614466565b600060405180830381600087803b1580156130c757600080fd5b505af11580156130db573d6000803e3d6000fd5b5050505050505050505050565b60405163555ddc6560e11b81526001600160a01b03861660048201527fb281fc8c12954d22544db45de3159a39272895b169a852b314f9cc762e44c53b6024820152600090731820a4b7618bde71dce8cdc73aab6c95905fad249063aabbb8ca90604401602060405180830381865afa158015613169573d6000803e3d6000fd5b505050506040513d601f19601f8201168201806040525081019061318d91906142d1565b90506001600160a01b03811615613209576040516223de2960e01b81526001600160a01b038216906223de29906131d2908b908b908b908b908b908b90600401614466565b600060405180830381600087803b1580156131ec57600080fd5b505af1158015613200573d6000803e3d6000fd5b505050506113b6565b81156113b6576001600160a01b0386163b156113b65760405163fe737d0560e01b815260040160405180910390fd5b60006132c0837f00000000000000000000000000000000000000000000000000000000000000006001600160a01b031663bbe4fd506040518163ffffffff1660e01b8152600401602060405180830381865afa15801561329c573d6000803e3d6000fd5b505050506040513d601f19601f820116820180604052508101906107729190614029565b505090506132cd82612270565b8112156132ed5760405163043b37d160e21b815260040160405180910390fd5b6132f682612270565b6001600160a01b0384166000908152600260205260409020546133199190613fd6565b6001600160a01b038416600090815260026020526040902055600354613340908390614261565b600355505050565b61335181612270565b6001600160a01b0383166000908152600260205260409020546133749190613fae565b6001600160a01b03831660009081526002602052604090205560035461339b9082906140f3565b6003555050565b60006133f7826040518060400160405280602081526020017f5361666545524332303a206c6f772d6c6576656c2063616c6c206661696c6564815250856001600160a01b03166135739092919063ffffffff16565b80519091501561130d57808060200190518101906134159190613f49565b61130d5760405162461bcd60e51b815260206004820152602a60248201527f5361666545524332303a204552433230206f7065726174696f6e20646964206e6044820152691bdd081cdd58d8d9595960b21b6064820152608401611085565b60006134d8847f00000000000000000000000000000000000000000000000000000000000000006001600160a01b031663bbe4fd506040518163ffffffff1660e01b8152600401602060405180830381865afa15801561329c573d6000803e3d6000fd5b50509050818112156134fd57604051632f4cb94160e01b815260040160405180910390fd5b6001600160a01b038416600090815260026020526040902054613521908390613fd6565b6001600160a01b038086166000908152600260205260408082209390935590851681522054613551908390613fae565b6001600160a01b03909316600090815260026020526040902092909255505050565b6060610d65848460008585600080866001600160a01b0316858760405161359a91906144c0565b60006040518083038185875af1925050503d80600081146135d7576040519150601f19603f3d011682016040523d82523d6000602084013e6135dc565b606091505b50915091506135ed878383876135f8565b979650505050505050565b60608315613667578251600003613660576001600160a01b0385163b6136605760405162461bcd60e51b815260206004820152601d60248201527f416464726573733a2063616c6c20746f206e6f6e2d636f6e74726163740000006044820152606401611085565b5081610d65565b610d65838381511561367c5781518083602001fd5b8060405162461bcd60e51b81526004016110859190613733565b6020808252825182820181905260009190848201906040850190845b818110156136d75783516001600160a01b0316835292840192918401916001016136b2565b50909695505050505050565b60005b838110156136fe5781810151838201526020016136e6565b50506000910152565b6000815180845261371f8160208601602086016136e3565b601f01601f19169290920160200192915050565b6020815260006114446020830184613707565b6001600160a01b038116811461097557600080fd5b60008083601f84011261376d57600080fd5b5081356001600160401b0381111561378457600080fd5b6020830191508360208260051b850101111561379f57600080fd5b9250929050565b600080600080606085870312156137bc57600080fd5b84356137c781613746565b93506020850135925060408501356001600160401b038111156137e957600080fd5b6137f58782880161375b565b95989497509550505050565b6000806040838503121561381457600080fd5b823561381f81613746565b946020939093013593505050565b60006020828403121561383f57600080fd5b5035919050565b60008060006040848603121561385b57600080fd5b8335925060208401356001600160401b0381111561387857600080fd5b6138848682870161375b565b9497909650939450505050565b600080600080608085870312156138a757600080fd5b84356138b281613746565b935060208501356138c281613746565b925060408501356138d281613746565b9396929550929360600135925050565b634e487b7160e01b600052604160045260246000fd5b604051601f8201601f191681016001600160401b0381118282101715613920576139206138e2565b604052919050565b600082601f83011261393957600080fd5b81356001600160401b03811115613952576139526138e2565b613965601f8201601f19166020016138f8565b81815284602083860101111561397a57600080fd5b816020850160208301376000918101602001919091529392505050565b801515811461097557600080fd5b600080600080600080600060e0888a0312156139c057600080fd5b8735965060208801356001600160401b038111156139dd57600080fd5b6139e98a828b01613928565b96505060408801356139fa81613746565b94506060880135613a0a81613997565b93506080880135613a1a81613746565b9699959850939692959460a0840135945060c09093013592915050565b600080600060608486031215613a4c57600080fd5b8335613a5781613746565b92506020840135613a6781613746565b929592945050506040919091013590565b60008060408385031215613a8b57600080fd5b50508035926020909101359150565b600060208284031215613aac57600080fd5b813561144481613746565b60008083601f840112613ac957600080fd5b5081356001600160401b03811115613ae057600080fd5b60208301915083602082850101111561379f57600080fd5b60008060008060008060808789031215613b1157600080fd5b8635613b1c81613746565b9550602087013560ff81168114613b3257600080fd5b945060408701356001600160401b0380821115613b4e57600080fd5b613b5a8a838b01613ab7565b90965094506060890135915080821115613b7357600080fd5b50613b8089828a01613ab7565b979a9699509497509295939492505050565b60008060008060808587031215613ba857600080fd5b8435613bb381613746565b93506020850135613bc381613746565b93969395505050506040820135916060013590565b6020808252825182820181905260009190848201906040850190845b818110156136d757835183529284019291840191600101613bf4565b60008060008060608587031215613c2657600080fd5b8435613c3181613746565b93506020850135925060408501356001600160401b03811115613c5357600080fd5b6137f587828801613ab7565b600080600080600080600060a0888a031215613c7a57600080fd5b8735613c8581613746565b96506020880135613c9581613746565b95506040880135945060608801356001600160401b0380821115613cb857600080fd5b613cc48b838c01613ab7565b909650945060808a0135915080821115613cdd57600080fd5b50613cea8a828b01613ab7565b989b979a50959850939692959293505050565b600080600060608486031215613d1257600080fd5b8335613d1d81613746565b95602085013595506040909401359392505050565b600080600060608486031215613d4757600080fd5b8335613d5281613746565b92506020840135915060408401356001600160401b03811115613d7457600080fd5b613d8086828701613928565b9150509250925092565b60008060408385031215613d9d57600080fd5b8235613da881613746565b91506020830135613db881613746565b809150509250929050565b60008060008060008060808789031215613ddc57600080fd5b8635613de781613746565b95506020870135945060408701356001600160401b0380821115613b4e57600080fd5b600080600060408486031215613e1f57600080fd5b8335925060208401356001600160401b03811115613e3c57600080fd5b61388486828701613ab7565b600181811c90821680613e5c57607f821691505b602082108103613e7c57634e487b7160e01b600052602260045260246000fd5b50919050565b6080808252600e908201526d41677265656d656e74537461746560901b60a08201526001600160a01b039384166020820152919092166040820152606081019190915260c00190565b6060808252600d908201526c41677265656d656e744461746160981b60808201526001600160a01b03929092166020830152604082015260a00190565b838152604060208201819052810182905260006001600160fb1b03831115613f2f57600080fd5b8260051b8085606085013791909101606001949350505050565b600060208284031215613f5b57600080fd5b815161144481613997565b634e487b7160e01b600052601160045260246000fd5b6000600160ff1b8201613f9157613f91613f66565b5060000390565b634e487b7160e01b600052600160045260246000fd5b8082018281126000831280158216821582161715613fce57613fce613f66565b505092915050565b81810360008312801583831316838312821617156128f7576128f7613f66565b85815260018060a01b038516602082015283604082015282606082015260a0608082015260006135ed60a0830184613707565b60006020828403121561403b57600080fd5b5051919050565b6000602080838503121561405557600080fd5b82516001600160401b038082111561406c57600080fd5b818501915085601f83011261408057600080fd5b815181811115614092576140926138e2565b8060051b91506140a38483016138f8565b81815291830184019184810190888411156140bd57600080fd5b938501935b838510156140e757845192506140d783613746565b82825293850193908501906140c2565b98975050505050505050565b8082018082111561094457610944613f66565b6020808252602e908201527f496e697469616c697a61626c653a20636f6e747261637420697320616c72656160408201526d191e481a5b9a5d1a585b1a5e995960921b606082015260800190565b601f82111561130d57600081815260208120601f850160051c8101602086101561417b5750805b601f850160051c820191505b8181101561419a57828155600101614187565b505050505050565b6001600160401b038311156141b9576141b96138e2565b6141cd836141c78354613e48565b83614154565b6000601f84116001811461420157600085156141e95750838201355b600019600387901b1c1916600186901b178355610ab0565b600083815260209020601f19861690835b828110156142325786850135825560209485019460019092019101614212565b508682101561424f5760001960f88860031b161c19848701351681555b505060018560011b0183555050505050565b8181038181111561094457610944613f66565b634e487b7160e01b600052603260045260246000fd5b60008060006060848603121561429f57600080fd5b8351925060208401519150604084015190509250925092565b6000600182016142ca576142ca613f66565b5060010190565b6000602082840312156142e357600080fd5b815161144481613746565b8381526060602082015260006143076060830185613707565b828103604084015261122c8185613707565b60ff828116828216039081111561094457610944613f66565b600181815b8085111561436d57816000190482111561435357614353613f66565b8085161561436057918102915b93841c9390800290614337565b509250929050565b60008261438457506001610944565b8161439157506000610944565b81600181146143a757600281146143b1576143cd565b6001915050610944565b60ff8411156143c2576143c2613f66565b50506001821b610944565b5060208310610133831016604e8410600b84101617156143f0575081810a610944565b6143fa8383614332565b806000190482111561440e5761440e613f66565b029392505050565b600061144460ff841683614375565b60008261444257634e487b7160e01b600052601260045260246000fd5b500490565b600081600019048311821515161561446157614461613f66565b500290565b6001600160a01b0387811682528681166020830152851660408201526060810184905260c0608082018190526000906144a190830185613707565b82810360a08401526144b38185613707565b9998505050505050505050565b600082516144d28184602087016136e3565b919091019291505056fe5375706572546f6b656e3a2064656372656173656420616c6c6f77616e63652062656c6f77207a65726fddf252ad1be2c89b69c2b068fc378daa952ba7f163c4a11628f55a4df523b3ef5375706572546f6b656e3a207472616e7366657220616d6f756e74206578636565647320616c6c6f77616e6365a2646970667358221220ec8a0c13a4b86060004ae8f84c71ba4d1cee3147ddcb248cef2df977e19e8a9e64736f6c63430008100033a2646970667358221220d2585ae2af2b7c0783c6e54b584915a7a635c8dbfc02949901fea8f652ade64d64736f6c6343000810003360c06040523480156200001157600080fd5b5060405162001e4738038062001e47833981016040819052620000349162000065565b6001600160a01b039182166080521660a052620000a4565b6001600160a01b03811681146200006257600080fd5b50565b600080604083850312156200007957600080fd5b825162000086816200004c565b602084015190925062000099816200004c565b809150509250929050565b60805160a051611d61620000e6600039600061071501526000818161012c015281816106a10152818161089001528181610bb401526111fe0152611d616000f3fe608060405234801561001057600080fd5b50600436106100f55760003560e01c80638129fc1c11610097578063a6d0c53411610066578063a6d0c534146101fb578063bab74c891461020e578063d412d34414610240578063eff0a89d1461025357600080fd5b80638129fc1c146101c15780639470a5b2146101c957806397e011ed146101e05780639903ad38146101f357600080fd5b806346951954116100d357806346951954146101635780634dcc4d791461017857806350d75d251461018b57806352d1902d1461019357600080fd5b8063151188dc146100fa57806320bc44251461012a578063431f148114610150575b600080fd5b61010d61010836600461136b565b61027f565b6040516001600160a01b0390911681526020015b60405180910390f35b7f000000000000000000000000000000000000000000000000000000000000000061010d565b61010d61015e3660046113ec565b610619565b61017661017136600461136b565b610696565b005b61010d61018636600461136b565b6106f3565b61010d61078a565b6040517fb146a22bc9644a3313a7e28592f37d32718a2b618d3d136aa524b0d86b87b6208152602001610121565b6101766107b9565b6000546201000090046001600160a01b031661010d565b6101766101ee36600461147f565b61088c565b610176610aa1565b61010d610209366004611503565b610b5b565b61022161021c36600461136b565b610e0c565b604080516001600160a01b039093168352901515602083015201610121565b61017661024e36600461136b565b610f0f565b61010d61026136600461136b565b6001600160a01b039081166000908152600160205260409020541690565b600080805260016020527fa6eef7e35abe7026729641147f7915573c7e97b47efa546f5f6e3230263bcb49546001600160a01b03166102d1576040516306ce6e6d60e21b815260040160405180910390fd5b6001600160a01b03808316600090815260016020526040902054839116801561030d576040516348eb3cb960e11b815260040160405180910390fd5b604080516001600160a01b03841660208201526000910160405160208183030381529060405280519060200120905060008160405161034b9061133c565b8190604051809103906000f590508015801561036b573d6000803e3d6000fd5b506001600160a01b0385811660009081526001602052604080822080546001600160a01b03191685851690811790915591549051634a0687ef60e01b8152620100009091049092166004830152919250634a0687ef90602401600060405180830381600087803b1580156103de57600080fd5b505af11580156103f2573d6000803e3d6000fd5b5050505060008190506000876001600160a01b031663313ce5676040518163ffffffff1660e01b8152600401602060405180830381865afa15801561043b573d6000803e3d6000fd5b505050506040513d601f19601f8201168201806040525081019061045f91906115a9565b90506000886001600160a01b03166306fdde036040518163ffffffff1660e01b8152600401600060405180830381865afa1580156104a1573d6000803e3d6000fd5b505050506040513d6000823e601f3d908101601f191682016040526104c99190810190611600565b90506000896001600160a01b03166395d89b416040518163ffffffff1660e01b8152600401600060405180830381865afa15801561050b573d6000803e3d6000fd5b505050506040513d6000823e601f3d908101601f191682016040526105339190810190611600565b9050836001600160a01b03166342fe09808b858560405160200161055791906116a2565b6040516020818303038152906040528560405160200161057791906116d0565b6040516020818303038152906040526040518563ffffffff1660e01b81526004016105a59493929190611721565b600060405180830381600087803b1580156105bf57600080fd5b505af11580156105d3573d6000803e3d6000fd5b50506040516001600160a01b03871692507fb52c6d9d122e8c07769b96d7bb14e66db58ee03fdebaaa2f92547e9c7ef0e65f9150600090a2509198975050505050505050565b600061068b87886001600160a01b031663313ce5676040518163ffffffff1660e01b8152600401602060405180830381865afa15801561065d573d6000803e3d6000fd5b505050506040513d601f19601f8201168201806040525081019061068191906115a9565b8888888888610b5b565b979650505050505050565b336001600160a01b037f000000000000000000000000000000000000000000000000000000000000000016146106df5760405163478b8e8360e01b815260040160405180910390fd5b6106e881610fad565b6106f06111e7565b50565b6040516313db266360e31b81526001600160a01b0382811660048301526000917f000000000000000000000000000000000000000000000000000000000000000090911690639ed93318906024016020604051808303816000875af1158015610760573d6000803e3d6000fd5b505050506040513d601f19601f820116820180604052508101906107849190611760565b92915050565b60006107b47f360894a13ba1a3210667c828492db98dca3e2076cc3735a920a3ca505d382bbc5490565b905090565b600054610100900460ff16158080156107d95750600054600160ff909116105b806107f35750303b1580156107f3575060005460ff166001145b6108185760405162461bcd60e51b815260040161080f9061177d565b60405180910390fd5b6000805460ff19166001179055801561083b576000805461ff0019166101001790555b6108436111e7565b80156106f0576000805461ff0019169055604051600181527f7f26b83ff96e1f2b6a682f133852f6798a09c465da95921460cefb3847402498906020015b60405180910390a150565b60007f00000000000000000000000000000000000000000000000000000000000000006001600160a01b031663289b3c0d6040518163ffffffff1660e01b8152600401602060405180830381865afa1580156108ec573d6000803e3d6000fd5b505050506040513d601f19601f820116820180604052508101906109109190611760565b9050806001600160a01b0316638da5cb5b6040518163ffffffff1660e01b8152600401602060405180830381865afa158015610950573d6000803e3d6000fd5b505050506040513d601f19601f820116820180604052508101906109749190611760565b6001600160a01b0316336001600160a01b0316146109a557604051632bf2a63360e21b815260040160405180910390fd5b6000805260016020527fa6eef7e35abe7026729641147f7915573c7e97b47efa546f5f6e3230263bcb49546001600160a01b0316156109f7576040516348eb3cb960e11b815260040160405180910390fd5b60005b82811015610a9b57838382818110610a1457610a146117cb565b9050604002016020016020810190610a2c919061136b565b60016000868685818110610a4257610a426117cb565b610a58926020604090920201908101915061136b565b6001600160a01b039081168252602082019290925260400160002080546001600160a01b0319169290911691909117905580610a93816117e1565b9150506109fa565b50505050565b600054610100900460ff1615808015610ac15750600054600160ff909116105b80610adb5750303b158015610adb575060005460ff166001145b610af75760405162461bcd60e51b815260040161080f9061177d565b6000805460ff191660011790558015610843576000805461ff00191661010017905580156106f0576000805461ff0019169055604051600181527f7f26b83ff96e1f2b6a682f133852f6798a09c465da95921460cefb384740249890602001610881565b60006001600160a01b038816610b845760405163182e4f4160e11b815260040160405180910390fd5b6000866002811115610b9857610b98611808565b03610c2e57604051634dcc4d7960e01b81526001600160a01b037f00000000000000000000000000000000000000000000000000000000000000001660048201523090634dcc4d79906024016020604051808303816000875af1158015610c03573d6000803e3d6000fd5b505050506040513d601f19601f82011682018060405250810190610c279190611760565b9050610d66565b6001866002811115610c4257610c42611808565b03610ce2576000604051610c559061133c565b604051809103906000f080158015610c71573d6000803e3d6000fd5b50600054604051634a0687ef60e01b81526001600160a01b036201000090920482166004820152919250821690634a0687ef90602401600060405180830381600087803b158015610cc157600080fd5b505af1158015610cd5573d6000803e3d6000fd5b5050505080915050610d66565b6000604051610cf090611349565b604051809103906000f080158015610d0c573d6000803e3d6000fd5b509050806001600160a01b0316638129fc1c6040518163ffffffff1660e01b8152600401600060405180830381600087803b158015610d4a57600080fd5b505af1158015610d5e573d6000803e3d6000fd5b509293505050505b6040516285fc1360e71b81526001600160a01b038216906342fe098090610d9b908b908b908a908a908a908a90600401611847565b600060405180830381600087803b158015610db557600080fd5b505af1158015610dc9573d6000803e3d6000fd5b50506040516001600160a01b03841692507fb52c6d9d122e8c07769b96d7bb14e66db58ee03fdebaaa2f92547e9c7ef0e65f9150600090a2979650505050505050565b6001600160a01b0380821660009081526001602052604081205490918291168015610e3d5780925060019150610f09565b600060405180602001610e4f9061133c565b601f1982820381018352601f9091011660408181526001600160a01b03881660208301529192506001600160f81b031991309101604051602081830303815290604052805190602001208380519060200120604051602001610ee894939291906001600160f81b031994909416845260609290921b6bffffffffffffffffffffffff191660018401526015830152603582015260550190565b6040516020818303038152906040528051906020012060001c935060009250505b50915091565b600054604051634a0687ef60e01b81526001600160a01b0362010000909204821660048201528291821690634a0687ef90602401600060405180830381600087803b158015610f5d57600080fd5b505af1158015610f71573d6000803e3d6000fd5b50506040516001600160a01b03851692507f437790724a6e97b75d23117f28cdd4b1beeafc34f7a0911ef256e9334f4369a59150600090a25050565b6000610fd77f360894a13ba1a3210667c828492db98dca3e2076cc3735a920a3ca505d382bbc5490565b6001600160a01b03160361102d5760405162461bcd60e51b815260206004820152601d60248201527f5555505350726f786961626c653a206e6f742075706772616461626c65000000604482015260640161080f565b806001600160a01b03166352d1902d6040518163ffffffff1660e01b8152600401602060405180830381865afa15801561106b573d6000803e3d6000fd5b505050506040513d601f19601f8201168201806040525081019061108f9190611895565b7fb146a22bc9644a3313a7e28592f37d32718a2b618d3d136aa524b0d86b87b620146111095760405162461bcd60e51b815260206004820152602360248201527f5555505350726f786961626c653a206e6f7420636f6d70617469626c65206c6f60448201526267696360e81b606482015260840161080f565b6001600160a01b03811630036111615760405162461bcd60e51b815260206004820152601960248201527f5555505350726f786961626c653a2070726f7879206c6f6f7000000000000000604482015260640161080f565b611189817f360894a13ba1a3210667c828492db98dca3e2076cc3735a920a3ca505d382bbc55565b7fe011bc04c286c344a8fcbb8de77f953da762c3e25d8cdea984147fc4168a5dcc7fb146a22bc9644a3313a7e28592f37d32718a2b618d3d136aa524b0d86b87b620604080519182526001600160a01b038416602083015201610881565b604051634dcc4d7960e01b81526001600160a01b037f00000000000000000000000000000000000000000000000000000000000000001660048201523090634dcc4d79906024016020604051808303816000875af115801561124d573d6000803e3d6000fd5b505050506040513d601f19601f820116820180604052508101906112719190611760565b600060026101000a8154816001600160a01b0302191690836001600160a01b03160217905550600060029054906101000a90046001600160a01b03166001600160a01b0316639903ad386040518163ffffffff1660e01b8152600401600060405180830381600087803b1580156112e757600080fd5b505af11580156112fb573d6000803e3d6000fd5b505060008054604051620100009091046001600160a01b031693507fc13fb19d60857980e565bf5dae406b8802d3c1cec50c6156b30b12b8740297839250a2565b61024a806118af83390190565b61023380611af983390190565b6001600160a01b03811681146106f057600080fd5b60006020828403121561137d57600080fd5b813561138881611356565b9392505050565b80356003811061139e57600080fd5b919050565b60008083601f8401126113b557600080fd5b50813567ffffffffffffffff8111156113cd57600080fd5b6020830191508360208285010111156113e557600080fd5b9250929050565b6000806000806000806080878903121561140557600080fd5b863561141081611356565b955061141e6020880161138f565b9450604087013567ffffffffffffffff8082111561143b57600080fd5b6114478a838b016113a3565b9096509450606089013591508082111561146057600080fd5b5061146d89828a016113a3565b979a9699509497509295939492505050565b6000806020838503121561149257600080fd5b823567ffffffffffffffff808211156114aa57600080fd5b818501915085601f8301126114be57600080fd5b8135818111156114cd57600080fd5b8660208260061b85010111156114e257600080fd5b60209290920196919550909350505050565b60ff811681146106f057600080fd5b600080600080600080600060a0888a03121561151e57600080fd5b873561152981611356565b96506020880135611539816114f4565b95506115476040890161138f565b9450606088013567ffffffffffffffff8082111561156457600080fd5b6115708b838c016113a3565b909650945060808a013591508082111561158957600080fd5b506115968a828b016113a3565b989b979a50959850939692959293505050565b6000602082840312156115bb57600080fd5b8151611388816114f4565b634e487b7160e01b600052604160045260246000fd5b60005b838110156115f75781810151838201526020016115df565b50506000910152565b60006020828403121561161257600080fd5b815167ffffffffffffffff8082111561162a57600080fd5b818401915084601f83011261163e57600080fd5b815181811115611650576116506115c6565b604051601f8201601f19908116603f01168101908382118183101715611678576116786115c6565b8160405282815287602084870101111561169157600080fd5b61068b8360208301602088016115dc565b65029bab832b9160d51b8152600082516116c38160068501602087016115dc565b9190910160060192915050565b600082516116e28184602087016115dc565b600f60fb1b920191825250600101919050565b6000815180845261170d8160208601602086016115dc565b601f01601f19169290920160200192915050565b6001600160a01b038516815260ff8416602082015260806040820181905260009061174e908301856116f5565b828103606084015261068b81856116f5565b60006020828403121561177257600080fd5b815161138881611356565b6020808252602e908201527f496e697469616c697a61626c653a20636f6e747261637420697320616c72656160408201526d191e481a5b9a5d1a585b1a5e995960921b606082015260800190565b634e487b7160e01b600052603260045260246000fd5b60006001820161180157634e487b7160e01b600052601160045260246000fd5b5060010190565b634e487b7160e01b600052602160045260246000fd5b81835281816020850137506000828201602090810191909152601f909101601f19169091010190565b6001600160a01b038716815260ff86166020820152608060408201819052600090611875908301868861181e565b828103606084015261188881858761181e565b9998505050505050505050565b6000602082840312156118a757600080fd5b505191905056fe608060405234801561001057600080fd5b5061022a806100206000396000f3fe6080604052600436106100225760003560e01c80634a0687ef1461003957610031565b366100315761002f610059565b005b61002f610059565b34801561004557600080fd5b5061002f6100543660046101c4565b61006b565b610069610064610171565b6101a0565b565b6001600160a01b0381166100c65760405162461bcd60e51b815260206004820152601760248201527f5555505350726f78793a207a65726f206164647265737300000000000000000060448201526064015b60405180910390fd5b60006100f07f360894a13ba1a3210667c828492db98dca3e2076cc3735a920a3ca505d382bbc5490565b6001600160a01b0316146101465760405162461bcd60e51b815260206004820152601e60248201527f5555505350726f78793a20616c726561647920696e697469616c697a6564000060448201526064016100bd565b61016e817f360894a13ba1a3210667c828492db98dca3e2076cc3735a920a3ca505d382bbc55565b50565b600061019b7f360894a13ba1a3210667c828492db98dca3e2076cc3735a920a3ca505d382bbc5490565b905090565b3660008037600080366000845af43d6000803e8080156101bf573d6000f35b3d6000fd5b6000602082840312156101d657600080fd5b81356001600160a01b03811681146101ed57600080fd5b939250505056fea2646970667358221220ce7bb4a232d8c6258fb15c2cc7314073fb16eaeb0a686329740770f256d8703b64736f6c63430008100033608060405234801561001057600080fd5b50610213806100206000396000f3fe6080604052600436106100225760003560e01c80638129fc1c1461003957610031565b366100315761002f61004e565b005b61002f61004e565b34801561004557600080fd5b5061002f610060565b61005e6100596100d0565b610173565b565b7fb8fcd5719b3ddf8626f3664705a89b7fc476129a58c1aa5eda57c600cc1821a0546001600160a01b038116156100aa576040516305c5d81960e01b815260040160405180910390fd5b50337fb8fcd5719b3ddf8626f3664705a89b7fc476129a58c1aa5eda57c600cc1821a055565b7fb8fcd5719b3ddf8626f3664705a89b7fc476129a58c1aa5eda57c600cc1821a0546000906001600160a01b03811661010b5761010b610197565b806001600160a01b0316639470a5b26040518163ffffffff1660e01b8152600401602060405180830381865afa158015610149573d6000803e3d6000fd5b505050506040513d601f19601f8201168201806040525081019061016d91906101ad565b91505090565b3660008037600080366000845af43d6000803e808015610192573d6000f35b3d6000fd5b634e487b7160e01b600052600160045260246000fd5b6000602082840312156101bf57600080fd5b81516001600160a01b03811681146101d657600080fd5b939250505056fea2646970667358221220e92dfdf1ee45df0927382ac1375fa836283cd4279d29d4bd39df8b6b14934b4564736f6c63430008100033a26469706673582212206fe7e36636ac8b57d22334dbb902a80cfeca2803a2023b340c3f3073f85eeb0964736f6c6343000810003360806040523480156200001157600080fd5b5060405162000eaa38038062000eaa8339810160408190526200003491620001ba565b6200004160003362000055565b6200004e60008262000055565b50620001ec565b62000061828262000065565b5050565b6200007c8282620000a860201b6200043a1760201c565b6000828152600160209081526040909120620000a3918390620004be62000148821b17901c565b505050565b6000828152602081815260408083206001600160a01b038516845290915290205460ff1662000061576000828152602081815260408083206001600160a01b03851684529091529020805460ff19166001179055620001043390565b6001600160a01b0316816001600160a01b0316837f2f8788117e7eff1d82e926ec794901d17c78024a50270940304540a733656f0d60405160405180910390a45050565b60006200015f836001600160a01b03841662000168565b90505b92915050565b6000818152600183016020526040812054620001b15750815460018181018455600084815260208082209093018490558454848252828601909352604090209190915562000162565b50600062000162565b600060208284031215620001cd57600080fd5b81516001600160a01b0381168114620001e557600080fd5b9392505050565b610cae80620001fc6000396000f3fe608060405234801561001057600080fd5b50600436106100a95760003560e01c80639010d07c116100715780639010d07c1461015a57806391d148541461016d578063a217fddf14610180578063a815ff1514610188578063ca15c8731461019b578063d547741f146101ae57600080fd5b806301ffc9a7146100ae578063248a9ca3146100d65780632f2ff15d1461010757806336568abe1461011c578063693ec85e1461012f575b600080fd5b6100c16100bc36600461095c565b6101c1565b60405190151581526020015b60405180910390f35b6100f96100e4366004610986565b60009081526020819052604090206001015490565b6040519081526020016100cd565b61011a6101153660046109bb565b6101ec565b005b61011a61012a3660046109bb565b610216565b61014261013d366004610a30565b610299565b6040516001600160a01b0390911681526020016100cd565b610142610168366004610a72565b6102ce565b6100c161017b3660046109bb565b6102ed565b6100f9600081565b61011a610196366004610a94565b610316565b6100f96101a9366004610986565b6103fe565b61011a6101bc3660046109bb565b610415565b60006001600160e01b03198216635a05180f60e01b14806101e657506101e6826104d3565b92915050565b60008281526020819052604090206001015461020781610508565b6102118383610515565b505050565b6001600160a01b038116331461028b5760405162461bcd60e51b815260206004820152602f60248201527f416363657373436f6e74726f6c3a2063616e206f6e6c792072656e6f756e636560448201526e103937b632b9903337b91039b2b63360891b60648201526084015b60405180910390fd5b6102958282610537565b5050565b6000600283836040516102ad929190610ae8565b908152604051908190036020019020546001600160a01b0316905092915050565b60008281526001602052604081206102e69083610559565b9392505050565b6000918252602082815260408084206001600160a01b0393909316845291905290205460ff1690565b6103216000336102ed565b6103665760405162461bcd60e51b815260206004820152601660248201527521b0b63632b91034b9903737ba1030b71030b236b4b760511b6044820152606401610282565b8060028484604051610379929190610ae8565b90815260405190819003602001812080546001600160a01b03939093166001600160a01b0319909316929092179091556103b69084908490610ae8565b6040519081900381206001600160a01b0383168252907f496595ced95720268cf8bc60bae3f35024ff2a130f73ac4e20f5c1eaca35db999060200160405180910390a2505050565b60008181526001602052604081206101e690610565565b60008281526020819052604090206001015461043081610508565b6102118383610537565b61044482826102ed565b610295576000828152602081815260408083206001600160a01b03851684529091529020805460ff1916600117905561047a3390565b6001600160a01b0316816001600160a01b0316837f2f8788117e7eff1d82e926ec794901d17c78024a50270940304540a733656f0d60405160405180910390a45050565b60006102e6836001600160a01b03841661056f565b60006001600160e01b03198216637965db0b60e01b14806101e657506301ffc9a760e01b6001600160e01b03198316146101e6565b61051281336105be565b50565b61051f828261043a565b600082815260016020526040902061021190826104be565b6105418282610617565b6000828152600160205260409020610211908261067c565b60006102e68383610691565b60006101e6825490565b60008181526001830160205260408120546105b6575081546001818101845560008481526020808220909301849055845484825282860190935260409020919091556101e6565b5060006101e6565b6105c882826102ed565b610295576105d5816106bb565b6105e08360206106cd565b6040516020016105f1929190610b1c565b60408051601f198184030181529082905262461bcd60e51b825261028291600401610b91565b61062182826102ed565b15610295576000828152602081815260408083206001600160a01b0385168085529252808320805460ff1916905551339285917ff6391f5c32d9c69d2a47ea670b442974b53935d1edc7fd64eb21e047a839171b9190a45050565b60006102e6836001600160a01b038416610869565b60008260000182815481106106a8576106a8610bc4565b9060005260206000200154905092915050565b60606101e66001600160a01b03831660145b606060006106dc836002610bf0565b6106e7906002610c0f565b67ffffffffffffffff8111156106ff576106ff610c22565b6040519080825280601f01601f191660200182016040528015610729576020820181803683370190505b509050600360fc1b8160008151811061074457610744610bc4565b60200101906001600160f81b031916908160001a905350600f60fb1b8160018151811061077357610773610bc4565b60200101906001600160f81b031916908160001a9053506000610797846002610bf0565b6107a2906001610c0f565b90505b600181111561081a576f181899199a1a9b1b9c1cb0b131b232b360811b85600f16601081106107d6576107d6610bc4565b1a60f81b8282815181106107ec576107ec610bc4565b60200101906001600160f81b031916908160001a90535060049490941c9361081381610c38565b90506107a5565b5083156102e65760405162461bcd60e51b815260206004820181905260248201527f537472696e67733a20686578206c656e67746820696e73756666696369656e746044820152606401610282565b6000818152600183016020526040812054801561095257600061088d600183610c4f565b85549091506000906108a190600190610c4f565b90508181146109065760008660000182815481106108c1576108c1610bc4565b90600052602060002001549050808760000184815481106108e4576108e4610bc4565b6000918252602080832090910192909255918252600188019052604090208390555b855486908061091757610917610c62565b6001900381819060005260206000200160009055905585600101600086815260200190815260200160002060009055600193505050506101e6565b60009150506101e6565b60006020828403121561096e57600080fd5b81356001600160e01b0319811681146102e657600080fd5b60006020828403121561099857600080fd5b5035919050565b80356001600160a01b03811681146109b657600080fd5b919050565b600080604083850312156109ce57600080fd5b823591506109de6020840161099f565b90509250929050565b60008083601f8401126109f957600080fd5b50813567ffffffffffffffff811115610a1157600080fd5b602083019150836020828501011115610a2957600080fd5b9250929050565b60008060208385031215610a4357600080fd5b823567ffffffffffffffff811115610a5a57600080fd5b610a66858286016109e7565b90969095509350505050565b60008060408385031215610a8557600080fd5b50508035926020909101359150565b600080600060408486031215610aa957600080fd5b833567ffffffffffffffff811115610ac057600080fd5b610acc868287016109e7565b9094509250610adf90506020850161099f565b90509250925092565b8183823760009101908152919050565b60005b83811015610b13578181015183820152602001610afb565b50506000910152565b7f416363657373436f6e74726f6c3a206163636f756e7420000000000000000000815260008351610b54816017850160208801610af8565b7001034b99036b4b9b9b4b733903937b6329607d1b6017918401918201528351610b85816028840160208801610af8565b01602801949350505050565b6020815260008251806020840152610bb0816040850160208701610af8565b601f01601f19169190910160400192915050565b634e487b7160e01b600052603260045260246000fd5b634e487b7160e01b600052601160045260246000fd5b6000816000190483118215151615610c0a57610c0a610bda565b500290565b808201808211156101e6576101e6610bda565b634e487b7160e01b600052604160045260246000fd5b600081610c4757610c47610bda565b506000190190565b818103818111156101e6576101e6610bda565b634e487b7160e01b600052603160045260246000fdfea2646970667358221220eb3a47d2ed28e07fbb138d425725649aa2d104845b55dfafa87165bdbf23b87564736f6c6343000810003360a060405234801561001057600080fd5b506040516104ea3803806104ea83398101604081905261002f91610040565b6001600160a01b0316608052610070565b60006020828403121561005257600080fd5b81516001600160a01b038116811461006957600080fd5b9392505050565b60805161046061008a600039600060b501526104606000f3fe608060405234801561001057600080fd5b506004361061002b5760003560e01c8063f490e2f014610030575b600080fd5b61004361003e366004610307565b61008f565b604051610086919081516001600160a01b039081168252602080840151821690830152604080840151821690830152606092830151169181019190915260800190565b60405180910390f35b6040805160808101825260008082526020820181905291810182905260608101919091527f00000000000000000000000000000000000000000000000000000000000000006001600160a01b031663693ec85e84846040516020016100f5929190610379565b6040516020818303038152906040526040518263ffffffff1660e01b815260040161012091906103a0565b602060405180830381865afa15801561013d573d6000803e3d6000fd5b505050506040513d601f19601f820116820180604052508101906101619190610406565b6001600160a01b03168082526040805163398d76b760e11b8152905163731aed6e916004808201926020929091908290030181865afa1580156101a8573d6000803e3d6000fd5b505050506040513d601f19601f820116820180604052508101906101cc9190610406565b6001600160a01b0390811660208301528151604051635b69006f60e11b81527fa9214cc96615e0085d3bb077758db69497dc2dce3b2b1e97bc93c3d18d83efd3600482015291169063b6d200de90602401602060405180830381865afa15801561023a573d6000803e3d6000fd5b505050506040513d601f19601f8201168201806040525081019061025e9190610406565b6001600160a01b0390811660408381019190915282519051635b69006f60e11b81527f8aedc3b5d4bf031e11a7e2940f7251c005698405d58e02e1c247fed3b1b3a674600482015291169063b6d200de90602401602060405180830381865afa1580156102cf573d6000803e3d6000fd5b505050506040513d601f19601f820116820180604052508101906102f39190610406565b6001600160a01b0316606082015292915050565b6000806020838503121561031a57600080fd5b823567ffffffffffffffff8082111561033257600080fd5b818501915085601f83011261034657600080fd5b81358181111561035557600080fd5b86602082850101111561036757600080fd5b60209290920196919550909350505050565b6a29bab832b933363ab4b21760a91b81528183600b83013760009101600b01908152919050565b600060208083528351808285015260005b818110156103cd578581018301518582016040015282016103b1565b506000604082860101526040601f19601f8301168501019250505092915050565b6001600160a01b038116811461040357600080fd5b50565b60006020828403121561041857600080fd5b8151610423816103ee565b939250505056fea2646970667358221220cc5b352000bc6cff927df90205b49e579a8c09557cd5e4823162e1ca3a68bfd164736f6c63430008100033",
    "linkReferences": {
      "lib/protocol-monorepo/packages/ethereum-contracts/contracts/libs/SlotsBitmapLibrary.sol": {
        "SlotsBitmapLibrary": [
          {
            "start": 68674,
            "length": 20
          },
          {
            "start": 82255,
            "length": 20
          },
          {
            "start": 83516,
            "length": 20
          },
          {
            "start": 84272,
            "length": 20
          }
        ]
      }
    }
  },
  "methodIdentifiers": {
    "RESOLVER_BASE_SUPER_TOKEN_KEY()": "3df285fe",
    "RESOLVER_BASE_TOKEN_KEY()": "62a32e1e",
    "deployNativeAssetSuperToken(string,string)": "cbcd7449",
    "deployPureSuperToken(string,string,uint256)": "fa0215fc",
    "deployWrapperSuperToken(string,string,uint8,uint256)": "7dc2dc12",
    "getFramework()": "dfa98ad5"
  },
  "id": 89
}