{
  "abi": [
    {
      "inputs": [],
      "name": "Initialized",
      "type": "error"
    },
    {
      "inputs": [],
      "name": "ZeroAddress",
      "type": "error"
    },
    {
      "stateMutability": "payable",
      "type": "fallback"
    },
    {
      "inputs": [
        {
          "internalType": "address",
          "name": "initialAddress",
          "type": "address"
        }
      ],
      "name": "initializeProxy",
      "outputs": [],
      "stateMutability": "nonpayable",
      "type": "function"
    },
    {
      "stateMutability": "payable",
      "type": "receive"
    }
  ],
  "bytecode": {
    "object": "0x608060405234801561001057600080fd5b506101b1806100206000396000f3fe6080604052600436106100225760003560e01c80634a0687ef1461003957610031565b366100315761002f610059565b005b61002f610059565b34801561004557600080fd5b5061002f61005436600461014b565b61008b565b6100896100847f360894a13ba1a3210667c828492db98dca3e2076cc3735a920a3ca505d382bbc5490565b610127565b565b6001600160a01b0381166100b25760405163d92e233d60e01b815260040160405180910390fd5b60006100dc7f360894a13ba1a3210667c828492db98dca3e2076cc3735a920a3ca505d382bbc5490565b6001600160a01b031614610103576040516302ed543d60e51b815260040160405180910390fd5b7f360894a13ba1a3210667c828492db98dca3e2076cc3735a920a3ca505d382bbc55565b3660008037600080366000845af43d6000803e808015610146573d6000f35b3d6000fd5b60006020828403121561015d57600080fd5b81356001600160a01b038116811461017457600080fd5b939250505056fea26469706673582212209ee07f7dc0725badfbd62aca19591e101e709f5812b64ea6f4a76b5a82b706a564736f6c63430008100033",
    "linkReferences": {}
  },
  "methodIdentifiers": {
    "initializeProxy(address)": "4a0687ef"
  },
  "id": 3
}