{
  "abi": [
    {
      "inputs": [
        {
          "internalType": "contract ISuperfluid",
          "name": "host",
          "type": "address"
        }
      ],
      "name": "create",
      "outputs": [
        {
          "internalType": "address",
          "name": "logic",
          "type": "address"
        }
      ],
      "stateMutability": "nonpayable",
      "type": "function"
    }
  ],
  "bytecode": {
    "object": "0x608060405234801561001057600080fd5b5061479a806100206000396000f3fe608060405234801561001057600080fd5b506004361061002b5760003560e01c80639ed9331814610030575b600080fd5b61004361003e3660046100ae565b61005f565b6040516001600160a01b03909116815260200160405180910390f35b60008160405161006e906100a1565b6001600160a01b039091168152602001604051809103906000f08015801561009a573d6000803e3d6000fd5b5092915050565b614686806100df83390190565b6000602082840312156100c057600080fd5b81356001600160a01b03811681146100d757600080fd5b939250505056fe60a06040523480156200001157600080fd5b506040516200468638038062004686833981016040819052620000349162000046565b6001600160a01b031660805262000078565b6000602082840312156200005957600080fd5b81516001600160a01b03811681146200007157600080fd5b9392505050565b608051614589620000fd6000396000818161041201528181610a5d01528181610acc01528181610d6f01528181610e8901528181610f58015281816111aa015281816112bb01528181611453015281816117fd015281816118c00152818161194801528181612130015281816121c701528181613240015261347c01526145896000f3fe608060405234801561001057600080fd5b50600436106103425760003560e01c806362ad1b83116101b8578063a9059cbb11610104578063d9d078d6116100a2578063ee719bc81161007c578063ee719bc814610792578063fad8b32a146107a3578063fc673c4f146107b6578063fe9d9303146107c957600080fd5b8063d9d078d614610718578063dd62ed3e1461072b578063eb3537cc1461076457600080fd5b8063c68d4283116100de578063c68d4283146106cc578063ca789464146106df578063cf97256d146106f2578063d95b63711461070557600080fd5b8063a9059cbb14610693578063b84cdd4a146106a6578063bb0d196e146106b957600080fd5b806395d89b41116101715780639d8767411161014b5780639d87674114610647578063a1b2bf8b1461065a578063a3a7e7f31461066d578063a457c2d71461068057600080fd5b806395d89b41146106245780639903ad381461062c5780639bd9bbc61461063457600080fd5b806362ad1b83146105b257806366a12fb6146105c55780636c2d9f2f146105d857806370a08231146105eb57806379359f6f146105fe578063959b8c3f1461061157600080fd5b80632ec8eec711610292578063469519541161023057806352d1902d1161020a57806352d1902d1461055f578063556f0dc7146105855780635b9d09cc1461058c57806362aa52871461059f57600080fd5b806346951954146105245780634b61cc331461053757806350d75d251461055757600080fd5b8063395093511161026c57806339509351146104d857806341b706be146104eb57806342fe0980146104fe57806345977d031461051157600080fd5b80632ec8eec714610483578063313ce567146104b6578063386fa221146104c557600080fd5b806316d055d6116102ff57806320bc4425116102d957806320bc44251461041057806323b872dd1461044a578063245887fc1461045d578063270483971461047057600080fd5b806316d055d6146103d857806318160ddd146103eb5780631863e809146103fd57600080fd5b806306e485381461034757806306fdde0314610365578063090c415e1461037a578063095ea7b31461038f57806311bcc81e146103b257806312a6a3f8146103c5575b600080fd5b61034f6107dc565b60405161035c9190613696565b60405180910390f35b61036d6107ed565b60405161035c9190613733565b61038d6103883660046137a6565b61087f565b005b6103a261039d366004613801565b610933565b604051901515815260200161035c565b61038d6103c036600461382d565b61094a565b61038d6103d3366004613846565b610978565b61038d6103e6366004613891565b610a5b565b6003545b60405190815260200161035c565b61038d61040b3660046139a5565b610ab7565b7f00000000000000000000000000000000000000000000000000000000000000005b6040516001600160a01b03909116815260200161035c565b6103a2610458366004613a37565b610d57565b61038d61046b366004613801565b610d6d565b61038d61047e366004613a78565b610de5565b610496610491366004613a9a565b610e81565b60408051948552602085019390935291830152606082015260800161035c565b6040516012815260200161035c565b61034f6104d3366004613a9a565b610f24565b6103a26104e6366004613801565b610fc7565b61038d6104f9366004613891565b611003565b61038d61050c366004613af8565b61102f565b61038d61051f36600461382d565b611173565b61038d610532366004613a9a565b61119f565b61054a610545366004613b92565b6111f1565b60405161035c9190613bd8565b610432611236565b7f6bfbb132610e56cb96575dba244667b9d6dbfeffe22b68a79fa16f2d18eb00196103ef565b60016103ef565b61038d61059a366004613c10565b611260565b61038d6105ad366004613a37565b6112b9565b61038d6105c0366004613c5f565b611312565b61038d6105d3366004613a37565b6113c0565b61054a6105e6366004613cfd565b6113e0565b6103ef6105f9366004613a9a565b611422565b6103a261060c366004613a9a565b61144b565b61038d61061f366004613a9a565b6114d3565b61036d611524565b61038d611533565b61038d610642366004613c10565b6115f5565b61038d610655366004613d32565b611649565b61038d610668366004613846565b611689565b61038d61067b366004613a9a565b611733565b6103a261068e366004613801565b611747565b6103a26106a1366004613801565b611796565b6103a26106b4366004613801565b6117a4565b6103a26106c7366004613a9a565b6117f5565b61038d6106da366004613d32565b61187d565b61038d6106ed366004613801565b6118be565b61038d610700366004613801565b611933565b6103a2610713366004613d8a565b611a1c565b6103a2610726366004613801565b611a2a565b6103ef610739366004613d8a565b6001600160a01b03918216600090815260116020908152604080832093909416825291909152205490565b610777610772366004613801565b611a44565b6040805193845260208401929092529082015260600161035c565b600e546001600160a01b0316610432565b61038d6107b1366004613a9a565b611b7e565b61038d6107c4366004613dc3565b611bcf565b61038d6107d7366004613e0a565b611c6f565b60606107e86012611cbf565b905090565b6060600f80546107fc90613e48565b80601f016020809104026020016040519081016040528092919081815260200182805461082890613e48565b80156108755780601f1061084a57610100808354040283529160200191610875565b820191906000526020600020905b81548152906001019060200180831161085857829003601f168201915b5050505050905090565b600033858560405160200161089693929190613e82565b6040516020818303038152906040528051906020012090506108eb81848480806020026020016040519081016040528093929190818152602001838360200280828437600092019190915250611d2592505050565b6040518481526001600160a01b0386169033907f30f416fa68fca014a0f334464c64b000ba53e99b6d2afdea9d5ca756372d5985906020015b60405180910390a35050505050565b6000610940338484611d66565b5060015b92915050565b6109753333836040518060200160405280600081525060405180602001604052806000815250611e16565b50565b60405133906000906109909083908790602001613ecb565b60408051601f19818403018152919052805160209091012090506109b48184611fcf565b156109d25760405163782a90fb60e11b815260040160405180910390fd5b610a0f81858580806020026020016040519081016040528093929190818152602001838360200280828437600092019190915250611d2592505050565b816001600160a01b03167f770ea40a13a4644573ed785e5c7116890709947918747febc5add46feb531e2d868686604051610a4c93929190613f08565b60405180910390a25050505050565b7f00000000000000000000000000000000000000000000000000000000000000006001600160a01b03163314610aa45760405163c51efddd60e01b815260040160405180910390fd5b610ab08484848461200b565b5050505050565b604051632329212160e21b81523360048201527f00000000000000000000000000000000000000000000000000000000000000006001600160a01b031690638ca4848490602401602060405180830381865afa158015610b1b573d6000803e3d6000fd5b505050506040513d601f19601f82011682018060405250810190610b3f9190613f49565b610b5c5760405163327fd99160e21b815260040160405180910390fd5b6000610b6661212b565b90506001600160a01b038116610b795750845b600085610b865786610b88565b815b905060008313610c2557610b9b83613f7c565b610ba485612270565b14610bb157610bb1613f98565b610bba84612270565b6001600160a01b03821660009081526002602052604081208054909190610be2908490613fae565b90915550506001600160a01b03851660009081526002602052604081208054859290610c0f908490613fae565b90915550610c2090508582866122de565b610cef565b8515610c3357610c33613f98565b82610c3d85612270565b610c479190613fae565b6001600160a01b03831660009081526002602052604081208054909190610c6f908490613fd6565b90915550610c7e905084612270565b6001600160a01b03881660009081526002602052604081208054909190610ca6908490613fae565b90915550506001600160a01b03851660009081526002602052604081208054859290610cd3908490613fae565b90915550610ce490508288866122de565b610cef8286856122de565b846001600160a01b0316876001600160a01b0316336001600160a01b03167fb8381a3ce157650e06186e3e8f4dd4dc29236f2688b6eed1893d0a60d7c6386f8c8589898f604051610d44959493929190613ff6565b60405180910390a4505050505050505050565b6000610d653385858561200b565b949350505050565b7f00000000000000000000000000000000000000000000000000000000000000006001600160a01b03163314610db65760405163c51efddd60e01b815260040160405180910390fd5b610de13383836040518060200160405280600081525060405180602001604052806000815250611e16565b5050565b6040513390600090610dfd9083908690602001613ecb565b604051602081830303815290604052805190602001209050610e1f8184611fcf565b610e3c5760405163dae1880960e01b815260040160405180910390fd5b610e468184612311565b60405184815233907f71a63dc095de07aa5512ad57a7596a39516317e316981a1cd71000057be1537b9060200160405180910390a250505050565b6000806000807f00000000000000000000000000000000000000000000000000000000000000006001600160a01b031663bbe4fd506040518163ffffffff1660e01b8152600401602060405180830381865afa158015610ee5573d6000803e3d6000fd5b505050506040513d601f19601f82011682018060405250810190610f099190614029565b9050610f158582611a44565b91979096509094509092509050565b6001600160a01b038181166000908152600160205260409081902054905163c56a069d60e01b8152901960048201526060917f0000000000000000000000000000000000000000000000000000000000000000169063c56a069d90602401600060405180830381865afa158015610f9f573d6000803e3d6000fd5b505050506040513d6000823e601f3d908101601f191682016040526109449190810190614042565b3360008181526011602090815260408083206001600160a01b03871684529091528120549091610940918590610ffe9086906140f3565b611d66565b33301461102357604051630fff4cc960e31b815260040160405180910390fd5b610ab08385848461200b565b600054610100900460ff161580801561104f5750600054600160ff909116105b806110695750303b158015611069575060005460ff166001145b61108e5760405162461bcd60e51b815260040161108590614106565b60405180910390fd5b6000805460ff1916600117905580156110b1576000805461ff0019166101001790555b600e805460ff8816600160a01b026001600160a81b03199091166001600160a01b038a1617179055600f6110e68587836141a2565b5060106110f48385836141a2565b506110fe30612332565b60405160008082529081906000805160206145078339815191529060200160405180910390a3801561116a576000805461ff0019169055604051600181527f7f26b83ff96e1f2b6a682f133852f6798a09c465da95921460cefb38474024989060200160405180910390a15b50505050505050565b610975333333846040518060200160405280600081525060405180602001604052806000815250612460565b336001600160a01b037f000000000000000000000000000000000000000000000000000000000000000016146111e85760405163263dcdc160e21b815260040160405180910390fd5b61097581612635565b6060600085858560405160200161120a93929190613e82565b60405160208183030381529060405280519060200120905061122c818461286f565b9695505050505050565b60006107e87f360894a13ba1a3210667c828492db98dca3e2076cc3735a920a3ca505d382bbc5490565b6112b3333386866040518060200160405280600081525087878080601f01602080910402602001604051908101604052809392919081815260200183838082843760009201919091525061246092505050565b50505050565b7f00000000000000000000000000000000000000000000000000000000000000006001600160a01b031633146113025760405163c51efddd60e01b815260040160405180910390fd5b61130d838383611d66565b505050565b3361131f6012828a6128fe565b61133c5760405163f7f0222760e01b815260040160405180910390fd5b6113b68189898989898080601f01602080910402602001604051908101604052809392919081815260200183838082843760009201919091525050604080516020601f8d018190048102820181019092528b815292508b91508a9081908401838280828437600092019190915250600192506129a7915050565b5050505050505050565b33301461130257604051630fff4cc960e31b815260040160405180910390fd5b6060600084846040516020016113f7929190613ecb565b604051602081830303815290604052805190602001209050611419818461286f565b95945050505050565b60008061142e83610e81565b5050509050600081126114415780611444565b60005b9392505050565b6000610944827f00000000000000000000000000000000000000000000000000000000000000006001600160a01b031663bbe4fd506040518163ffffffff1660e01b8152600401602060405180830381865afa1580156114af573d6000803e3d6000fd5b505050506040513d601f19601f820116820180604052508101906107269190614029565b336114e060128284612a20565b806001600160a01b0316826001600160a01b03167ff4caeb2d6ca8932a215a353d0703c326ec2d81fc68170f320eb2ab49e9df61f960405160405180910390a35050565b6060601080546107fc90613e48565b600054610100900460ff16158080156115535750600054600160ff909116105b8061156d5750303b15801561156d575060005460ff166001145b6115895760405162461bcd60e51b815260040161108590614106565b6000805460ff1916600117905580156115ac576000805461ff0019166101001790555b8015610975576000805461ff0019169055604051600181527f7f26b83ff96e1f2b6a682f133852f6798a09c465da95921460cefb3847402498906020015b60405180910390a150565b6112b33333868686868080601f016020809104026020016040519081016040528093929190818152602001838380828437600092018290525060408051602081019091529081529250600191506129a79050565b33301461166957604051630fff4cc960e31b815260040160405180910390fd5b60408051600081526020810190915261130d903390859085908590612b24565b60405133906000906116a19083908790602001613ecb565b6040516020818303038152906040528051906020012090506116f681858580806020026020016040519081016040528093929190818152602001838360200280828437600092019190915250611d2592505050565b336001600160a01b03167f0c4c547b3a4fcaa5be8353b3111472b124155bccc86de811d4a481c9e6e9faca868686604051610a4c93929190613f08565b610de133338361174233611422565b61200b565b60006109403384610ffe856040518060600160405280602a81526020016144dd602a91393360009081526011602090815260408083206001600160a01b038d1684529091529020549190612bdf565b60006114443333858561200b565b6000806000806117b48686611a44565b92509250925060006117dc8284116117cd576000612270565b6117d78385614261565b612270565b6117e69085613fae565b60001315979650505050505050565b6000610944827f00000000000000000000000000000000000000000000000000000000000000006001600160a01b031663bbe4fd506040518163ffffffff1660e01b8152600401602060405180830381865afa158015611859573d6000803e3d6000fd5b505050506040513d601f19601f820116820180604052508101906106b49190614029565b33301461189d57604051630fff4cc960e31b815260040160405180910390fd5b6040805160008082526020820190925261130d913391869186918690612c0b565b7f00000000000000000000000000000000000000000000000000000000000000006001600160a01b031633146119075760405163c51efddd60e01b815260040160405180910390fd5b610de1338384846040518060200160405280600081525060405180602001604052806000815250612460565b604051632329212160e21b81523360048201527f00000000000000000000000000000000000000000000000000000000000000006001600160a01b031690638ca4848490602401602060405180830381865afa158015611997573d6000803e3d6000fd5b505050506040513d601f19601f820116820180604052508101906119bb9190613f49565b6119d85760405163327fd99160e21b815260040160405180910390fd5b6001600160a01b0382166000908152600260205260409020546119fc908290613fae565b6001600160a01b0390921660009081526002602052604090209190915550565b6000611444601284846128fe565b600080611a378484611a44565b5050600013949350505050565b6001600160a01b038216600090815260026020526040812054908080611a6986610f24565b905060005b8151811015611b75576000806000848481518110611a8e57611a8e614274565b60209081029190910101516040516326cb922f60e21b81523060048201526001600160a01b038c81166024830152604482018c905290911690639b2e48bc90606401606060405180830381865afa158015611aed573d6000803e3d6000fd5b505050506040513d601f19601f82011682018060405250810190611b11919061428a565b91945092509050611b2282886140f3565b9650611b2e81876140f3565b9550611b4b818311611b41576000612270565b6117d78284614261565b611b55848a613fae565b611b5f9190613fd6565b975050505080611b6e906142b8565b9050611a6e565b50509250925092565b33611b8b60128284612cd3565b806001600160a01b0316826001600160a01b03167f50546e66e5f44d728365dc3908c63bc5cfeeab470722c1677e3073a6ac294aa160405160405180910390a35050565b33611bdc601282896128fe565b611bf95760405163f7f0222760e01b815260040160405180910390fd5b61116a81888888888080601f01602080910402602001604051908101604052809392919081815260200183838082843760009201919091525050604080516020601f8c018190048102820181019092528a815292508a9150899081908401838280828437600092019190915250611e1692505050565b61130d33338585858080601f016020809104026020016040519081016040528093929190818152602001838380828437600092018290525060408051602081019091529081529250611e16915050565b606081600001805480602002602001604051908101604052809291908181526020018280548015611d1957602002820191906000526020600020905b81546001600160a01b03168152600190910190602001808311611cfb575b50505050509050919050565b60005b815181101561130d576000828281518110611d4557611d45614274565b6020026020010151905080828501555080611d5f906142b8565b9050611d28565b6001600160a01b038316611d8d57604051638163862760e01b815260040160405180910390fd5b6001600160a01b038216611db4576040516337c1c09d60e21b815260040160405180910390fd5b6001600160a01b0383811660008181526011602090815260408083209487168084529482529182902085905590518481527f8c5be1e5ebec7d5bd14f71427d1e84f3dd0314c0f7b2291e5b200ac8c7c3b92591015b60405180910390a3505050565b600e546001600160a01b0316611e3f57604051637bce7b2b60e11b815260040160405180910390fd5b600080611e4b85612dcb565b91509150611e5c8787838787612b24565b600e546040516370a0823160e01b81523060048201526000916001600160a01b0316906370a0823190602401602060405180830381865afa158015611ea5573d6000803e3d6000fd5b505050506040513d601f19601f82011682018060405250810190611ec99190614029565b600e54909150611ee3906001600160a01b03168885612e87565b600e546040516370a0823160e01b81523060048201526000916001600160a01b0316906370a0823190602401602060405180830381865afa158015611f2c573d6000803e3d6000fd5b505050506040513d601f19601f82011682018060405250810190611f509190614029565b90506000611f5e8284614261565b9050808514611f8057604051631c7c26d360e31b815260040160405180910390fd5b886001600160a01b03167f3bc27981aebbb57f9247dc00fde9d6cd91e4b230083fec3238fedbcba1f9ab3d85604051611fbb91815260200190565b60405180910390a250505050505050505050565b6000805b8281101561200157838101548015611ff057600192505050610944565b50611ffa816142b8565b9050611fd3565b5060009392505050565b60006001600160a01b0384166120345760405163eecd6c9b60e01b815260040160405180910390fd5b6001600160a01b03831661205b5760405163e219bd3960e01b815260040160405180910390fd5b600033905061208c818686866040518060200160405280600081525060405180602001604052806000815250612eea565b846001600160a01b0316866001600160a01b03161461211f5761211f8587610ffe866040518060600160405280602d8152602001614527602d9139601160008c6001600160a01b03166001600160a01b0316815260200190815260200160002060008d6001600160a01b03166001600160a01b0316815260200190815260200160002054612bdf9092919063ffffffff16565b50600195945050505050565b6000807f00000000000000000000000000000000000000000000000000000000000000006001600160a01b031663289b3c0d6040518163ffffffff1660e01b8152600401602060405180830381865afa15801561218c573d6000803e3d6000fd5b505050506040513d601f19601f820116820180604052508101906121b091906142d1565b604051638369a0f160e01b81526001600160a01b037f0000000000000000000000000000000000000000000000000000000000000000811660048301523060248301527f9f60ae461adf056670e03ae602566409933242392cb06744f5747c9f38b05d09604483015291925090821690638369a0f190606401602060405180830381865afa158015612246573d6000803e3d6000fd5b505050506040513d601f19601f8201168201806040525081019061226a91906142d1565b91505090565b60006001600160ff1b038211156122da5760405162461bcd60e51b815260206004820152602860248201527f53616665436173743a2076616c756520646f65736e27742066697420696e2061604482015267371034b73a191a9b60c11b6064820152608401611085565b5090565b816001600160a01b0316836001600160a01b031660008051602061450783398151915283604051611e0991815260200190565b60005b8181101561130d5760008382015561232b816142b8565b9050612314565b6040516329965a1d60e01b81526001600160a01b03821660048201527fac7fbab5f54a3ca8194167523c6753bfeb96a445279294b6125b68cce21770546024820152306044820152731820a4b7618bde71dce8cdc73aab6c95905fad24906329965a1d90606401600060405180830381600087803b1580156123b357600080fd5b505af11580156123c7573d6000803e3d6000fd5b50506040516329965a1d60e01b81526001600160a01b03841660048201527faea199e31a596269b42cdafd93407f14436db6e4cad65417994c2eb37381e05a6024820152306044820152731820a4b7618bde71dce8cdc73aab6c95905fad2492506329965a1d9150606401600060405180830381600087803b15801561244c57600080fd5b505af1158015610ab0573d6000803e3d6000fd5b600e546001600160a01b031661248957604051637bce7b2b60e11b815260040160405180910390fd5b60008061249585612dcb565b600e546040516370a0823160e01b81523060048201529294509092506000916001600160a01b03909116906370a0823190602401602060405180830381865afa1580156124e6573d6000803e3d6000fd5b505050506040513d601f19601f8201168201806040525081019061250a9190614029565b600e54909150612525906001600160a01b0316893086612f89565b600e546040516370a0823160e01b81523060048201526000916001600160a01b0316906370a0823190602401602060405180830381865afa15801561256e573d6000803e3d6000fd5b505050506040513d601f19601f820116820180604052508101906125929190614029565b905060006125a08383614261565b90508085146125c257604051631c7c26d360e31b815260040160405180910390fd5b6125e58b8a868c6001600160a01b03168e6001600160a01b031614158b8b612c0b565b886001600160a01b03167f25ca84076773b0455db53621c459ddc84fe40840e4932a62706a032566f399df8560405161262091815260200190565b60405180910390a25050505050505050505050565b600061265f7f360894a13ba1a3210667c828492db98dca3e2076cc3735a920a3ca505d382bbc5490565b6001600160a01b0316036126b55760405162461bcd60e51b815260206004820152601d60248201527f5555505350726f786961626c653a206e6f742075706772616461626c650000006044820152606401611085565b806001600160a01b03166352d1902d6040518163ffffffff1660e01b8152600401602060405180830381865afa1580156126f3573d6000803e3d6000fd5b505050506040513d601f19601f820116820180604052508101906127179190614029565b7f6bfbb132610e56cb96575dba244667b9d6dbfeffe22b68a79fa16f2d18eb0019146127915760405162461bcd60e51b815260206004820152602360248201527f5555505350726f786961626c653a206e6f7420636f6d70617469626c65206c6f60448201526267696360e81b6064820152608401611085565b6001600160a01b03811630036127e95760405162461bcd60e51b815260206004820152601960248201527f5555505350726f786961626c653a2070726f7879206c6f6f70000000000000006044820152606401611085565b612811817f360894a13ba1a3210667c828492db98dca3e2076cc3735a920a3ca505d382bbc55565b7fe011bc04c286c344a8fcbb8de77f953da762c3e25d8cdea984147fc4168a5dcc7f6bfbb132610e56cb96575dba244667b9d6dbfeffe22b68a79fa16f2d18eb0019604080519182526001600160a01b0384166020830152016115ea565b6060816001600160401b03811115612889576128896138e2565b6040519080825280602002602001820160405280156128b2578160200160208202803683370190505b50905060005b828110156128f7576000818501549050808383815181106128db576128db614274565b6020908102919091010152506128f0816142b8565b90506128b8565b5092915050565b6000816001600160a01b0316836001600160a01b0316148061296d57506001600160a01b038316600090815260018501602052604090205460ff16801561296d57506001600160a01b03808316600090815260038601602090815260408083209387168352929052205460ff16155b80610d6557506001600160a01b03808316600090815260028601602090815260408083209387168352929052205460ff1690509392505050565b6001600160a01b0386166129ce5760405163eecd6c9b60e01b815260040160405180910390fd5b6001600160a01b0385166129f55760405163e219bd3960e01b815260040160405180910390fd5b612a03878787878787612fc1565b612a11878787878787612eea565b61116a878787878787876130e8565b806001600160a01b0316826001600160a01b031603612a975760405162461bcd60e51b815260206004820152602d60248201527f4552433737374f70657261746f72733a20617574686f72697a696e672073656c60448201526c331030b99037b832b930ba37b960991b6064820152608401611085565b6001600160a01b038116600090815260018401602052604090205460ff1615612aed576001600160a01b03918216600090815260039390930160209081526040808520929093168452529020805460ff19169055565b6001600160a01b0380831660009081526002850160209081526040808320938516835292905220805460ff19166001179055505050565b6001600160a01b038416612b4b57604051632e8aac6160e21b815260040160405180910390fd5b612b5a85856000868686612fc1565b612b648484613238565b836001600160a01b0316856001600160a01b03167fa78a9be3a7b862d26933ad85fb11d80ef66b8f972d7cbba06621d583943a4098858585604051612bab939291906142ee565b60405180910390a36040518381526000906001600160a01b0386169060008051602061450783398151915290602001610924565b60008184841115612c035760405162461bcd60e51b81526004016110859190613733565b505050900390565b6001600160a01b038516612c3257604051630d24315760e01b815260040160405180910390fd5b612c3c8585613348565b612c4c86600087878686896130e8565b846001600160a01b0316866001600160a01b03167f2fe5be0146f74c5bce36c0b80911af6c7d86ff27e89d5cfa61fc681327954e5d868585604051612c93939291906142ee565b60405180910390a36040518481526001600160a01b03861690600090600080516020614507833981519152906020015b60405180910390a3505050505050565b336001600160a01b03821603612d3e5760405162461bcd60e51b815260206004820152602a60248201527f4552433737374f70657261746f72733a207265766f6b696e672073656c662061604482015269399037b832b930ba37b960b11b6064820152608401611085565b6001600160a01b038116600090815260018401602052604090205460ff1615612d98576001600160a01b0380831660009081526003850160209081526040808320938516835292905220805460ff19166001179055505050565b6001600160a01b03918216600090815260029390930160209081526040808520929093168452529020805460ff19169055565b600e54600090819081906012600160a01b90910460ff161015612e2a57600e54612e0090600160a01b900460ff166012614319565b612e0b90600a614416565b9050612e178185614425565b9250612e238184614447565b9150612e81565b600e546012600160a01b90910460ff161115612e7a57600e54612e5990601290600160a01b900460ff16614319565b612e6490600a614416565b9050612e708185614447565b9250839150612e81565b8391508192505b50915091565b6040516001600160a01b03831660248201526044810182905261130d90849063a9059cbb60e01b906064015b60408051601f198184030181529190526020810180516001600160e01b03166001600160e01b0319909316929092179091526133a2565b612efd8585612ef886612270565b613474565b836001600160a01b0316856001600160a01b0316876001600160a01b03167f06b541ddaa720db2b10a4d0cdac39b8d360425fc073085fac19bc82614677987868686604051612f4e939291906142ee565b60405180910390a4836001600160a01b0316856001600160a01b031660008051602061450783398151915285604051612cc391815260200190565b6040516001600160a01b03808516602483015283166044820152606481018290526112b39085906323b872dd60e01b90608401612eb3565b60405163555ddc6560e11b81526001600160a01b03861660048201527f29ddb589b1fb5fc7cf394961c1adf5f8c6454761adf795e67fe149f658abe8956024820152600090731820a4b7618bde71dce8cdc73aab6c95905fad249063aabbb8ca90604401602060405180830381865afa158015613042573d6000803e3d6000fd5b505050506040513d601f19601f8201168201806040525081019061306691906142d1565b90506001600160a01b0381161561116a57604051633ad5cbc160e11b81526001600160a01b038216906375ab9782906130ad908a908a908a908a908a908a90600401614466565b600060405180830381600087803b1580156130c757600080fd5b505af11580156130db573d6000803e3d6000fd5b5050505050505050505050565b60405163555ddc6560e11b81526001600160a01b03861660048201527fb281fc8c12954d22544db45de3159a39272895b169a852b314f9cc762e44c53b6024820152600090731820a4b7618bde71dce8cdc73aab6c95905fad249063aabbb8ca90604401602060405180830381865afa158015613169573d6000803e3d6000fd5b505050506040513d601f19601f8201168201806040525081019061318d91906142d1565b90506001600160a01b03811615613209576040516223de2960e01b81526001600160a01b038216906223de29906131d2908b908b908b908b908b908b90600401614466565b600060405180830381600087803b1580156131ec57600080fd5b505af1158015613200573d6000803e3d6000fd5b505050506113b6565b81156113b6576001600160a01b0386163b156113b65760405163fe737d0560e01b815260040160405180910390fd5b60006132c0837f00000000000000000000000000000000000000000000000000000000000000006001600160a01b031663bbe4fd506040518163ffffffff1660e01b8152600401602060405180830381865afa15801561329c573d6000803e3d6000fd5b505050506040513d601f19601f820116820180604052508101906107729190614029565b505090506132cd82612270565b8112156132ed5760405163043b37d160e21b815260040160405180910390fd5b6132f682612270565b6001600160a01b0384166000908152600260205260409020546133199190613fd6565b6001600160a01b038416600090815260026020526040902055600354613340908390614261565b600355505050565b61335181612270565b6001600160a01b0383166000908152600260205260409020546133749190613fae565b6001600160a01b03831660009081526002602052604090205560035461339b9082906140f3565b6003555050565b60006133f7826040518060400160405280602081526020017f5361666545524332303a206c6f772d6c6576656c2063616c6c206661696c6564815250856001600160a01b03166135739092919063ffffffff16565b80519091501561130d57808060200190518101906134159190613f49565b61130d5760405162461bcd60e51b815260206004820152602a60248201527f5361666545524332303a204552433230206f7065726174696f6e20646964206e6044820152691bdd081cdd58d8d9595960b21b6064820152608401611085565b60006134d8847f00000000000000000000000000000000000000000000000000000000000000006001600160a01b031663bbe4fd506040518163ffffffff1660e01b8152600401602060405180830381865afa15801561329c573d6000803e3d6000fd5b50509050818112156134fd57604051632f4cb94160e01b815260040160405180910390fd5b6001600160a01b038416600090815260026020526040902054613521908390613fd6565b6001600160a01b038086166000908152600260205260408082209390935590851681522054613551908390613fae565b6001600160a01b03909316600090815260026020526040902092909255505050565b6060610d65848460008585600080866001600160a01b0316858760405161359a91906144c0565b60006040518083038185875af1925050503d80600081146135d7576040519150601f19603f3d011682016040523d82523d6000602084013e6135dc565b606091505b50915091506135ed878383876135f8565b979650505050505050565b60608315613667578251600003613660576001600160a01b0385163b6136605760405162461bcd60e51b815260206004820152601d60248201527f416464726573733a2063616c6c20746f206e6f6e2d636f6e74726163740000006044820152606401611085565b5081610d65565b610d65838381511561367c5781518083602001fd5b8060405162461bcd60e51b81526004016110859190613733565b6020808252825182820181905260009190848201906040850190845b818110156136d75783516001600160a01b0316835292840192918401916001016136b2565b50909695505050505050565b60005b838110156136fe5781810151838201526020016136e6565b50506000910152565b6000815180845261371f8160208601602086016136e3565b601f01601f19169290920160200192915050565b6020815260006114446020830184613707565b6001600160a01b038116811461097557600080fd5b60008083601f84011261376d57600080fd5b5081356001600160401b0381111561378457600080fd5b6020830191508360208260051b850101111561379f57600080fd5b9250929050565b600080600080606085870312156137bc57600080fd5b84356137c781613746565b93506020850135925060408501356001600160401b038111156137e957600080fd5b6137f58782880161375b565b95989497509550505050565b6000806040838503121561381457600080fd5b823561381f81613746565b946020939093013593505050565b60006020828403121561383f57600080fd5b5035919050565b60008060006040848603121561385b57600080fd5b8335925060208401356001600160401b0381111561387857600080fd5b6138848682870161375b565b9497909650939450505050565b600080600080608085870312156138a757600080fd5b84356138b281613746565b935060208501356138c281613746565b925060408501356138d281613746565b9396929550929360600135925050565b634e487b7160e01b600052604160045260246000fd5b604051601f8201601f191681016001600160401b0381118282101715613920576139206138e2565b604052919050565b600082601f83011261393957600080fd5b81356001600160401b03811115613952576139526138e2565b613965601f8201601f19166020016138f8565b81815284602083860101111561397a57600080fd5b816020850160208301376000918101602001919091529392505050565b801515811461097557600080fd5b600080600080600080600060e0888a0312156139c057600080fd5b8735965060208801356001600160401b038111156139dd57600080fd5b6139e98a828b01613928565b96505060408801356139fa81613746565b94506060880135613a0a81613997565b93506080880135613a1a81613746565b9699959850939692959460a0840135945060c09093013592915050565b600080600060608486031215613a4c57600080fd5b8335613a5781613746565b92506020840135613a6781613746565b929592945050506040919091013590565b60008060408385031215613a8b57600080fd5b50508035926020909101359150565b600060208284031215613aac57600080fd5b813561144481613746565b60008083601f840112613ac957600080fd5b5081356001600160401b03811115613ae057600080fd5b60208301915083602082850101111561379f57600080fd5b60008060008060008060808789031215613b1157600080fd5b8635613b1c81613746565b9550602087013560ff81168114613b3257600080fd5b945060408701356001600160401b0380821115613b4e57600080fd5b613b5a8a838b01613ab7565b90965094506060890135915080821115613b7357600080fd5b50613b8089828a01613ab7565b979a9699509497509295939492505050565b60008060008060808587031215613ba857600080fd5b8435613bb381613746565b93506020850135613bc381613746565b93969395505050506040820135916060013590565b6020808252825182820181905260009190848201906040850190845b818110156136d757835183529284019291840191600101613bf4565b60008060008060608587031215613c2657600080fd5b8435613c3181613746565b93506020850135925060408501356001600160401b03811115613c5357600080fd5b6137f587828801613ab7565b600080600080600080600060a0888a031215613c7a57600080fd5b8735613c8581613746565b96506020880135613c9581613746565b95506040880135945060608801356001600160401b0380821115613cb857600080fd5b613cc48b838c01613ab7565b909650945060808a0135915080821115613cdd57600080fd5b50613cea8a828b01613ab7565b989b979a50959850939692959293505050565b600080600060608486031215613d1257600080fd5b8335613d1d81613746565b95602085013595506040909401359392505050565b600080600060608486031215613d4757600080fd5b8335613d5281613746565b92506020840135915060408401356001600160401b03811115613d7457600080fd5b613d8086828701613928565b9150509250925092565b60008060408385031215613d9d57600080fd5b8235613da881613746565b91506020830135613db881613746565b809150509250929050565b60008060008060008060808789031215613ddc57600080fd5b8635613de781613746565b95506020870135945060408701356001600160401b0380821115613b4e57600080fd5b600080600060408486031215613e1f57600080fd5b8335925060208401356001600160401b03811115613e3c57600080fd5b61388486828701613ab7565b600181811c90821680613e5c57607f821691505b602082108103613e7c57634e487b7160e01b600052602260045260246000fd5b50919050565b6080808252600e908201526d41677265656d656e74537461746560901b60a08201526001600160a01b039384166020820152919092166040820152606081019190915260c00190565b6060808252600d908201526c41677265656d656e744461746160981b60808201526001600160a01b03929092166020830152604082015260a00190565b838152604060208201819052810182905260006001600160fb1b03831115613f2f57600080fd5b8260051b8085606085013791909101606001949350505050565b600060208284031215613f5b57600080fd5b815161144481613997565b634e487b7160e01b600052601160045260246000fd5b6000600160ff1b8201613f9157613f91613f66565b5060000390565b634e487b7160e01b600052600160045260246000fd5b8082018281126000831280158216821582161715613fce57613fce613f66565b505092915050565b81810360008312801583831316838312821617156128f7576128f7613f66565b85815260018060a01b038516602082015283604082015282606082015260a0608082015260006135ed60a0830184613707565b60006020828403121561403b57600080fd5b5051919050565b6000602080838503121561405557600080fd5b82516001600160401b038082111561406c57600080fd5b818501915085601f83011261408057600080fd5b815181811115614092576140926138e2565b8060051b91506140a38483016138f8565b81815291830184019184810190888411156140bd57600080fd5b938501935b838510156140e757845192506140d783613746565b82825293850193908501906140c2565b98975050505050505050565b8082018082111561094457610944613f66565b6020808252602e908201527f496e697469616c697a61626c653a20636f6e747261637420697320616c72656160408201526d191e481a5b9a5d1a585b1a5e995960921b606082015260800190565b601f82111561130d57600081815260208120601f850160051c8101602086101561417b5750805b601f850160051c820191505b8181101561419a57828155600101614187565b505050505050565b6001600160401b038311156141b9576141b96138e2565b6141cd836141c78354613e48565b83614154565b6000601f84116001811461420157600085156141e95750838201355b600019600387901b1c1916600186901b178355610ab0565b600083815260209020601f19861690835b828110156142325786850135825560209485019460019092019101614212565b508682101561424f5760001960f88860031b161c19848701351681555b505060018560011b0183555050505050565b8181038181111561094457610944613f66565b634e487b7160e01b600052603260045260246000fd5b60008060006060848603121561429f57600080fd5b8351925060208401519150604084015190509250925092565b6000600182016142ca576142ca613f66565b5060010190565b6000602082840312156142e357600080fd5b815161144481613746565b8381526060602082015260006143076060830185613707565b828103604084015261122c8185613707565b60ff828116828216039081111561094457610944613f66565b600181815b8085111561436d57816000190482111561435357614353613f66565b8085161561436057918102915b93841c9390800290614337565b509250929050565b60008261438457506001610944565b8161439157506000610944565b81600181146143a757600281146143b1576143cd565b6001915050610944565b60ff8411156143c2576143c2613f66565b50506001821b610944565b5060208310610133831016604e8410600b84101617156143f0575081810a610944565b6143fa8383614332565b806000190482111561440e5761440e613f66565b029392505050565b600061144460ff841683614375565b60008261444257634e487b7160e01b600052601260045260246000fd5b500490565b600081600019048311821515161561446157614461613f66565b500290565b6001600160a01b0387811682528681166020830152851660408201526060810184905260c0608082018190526000906144a190830185613707565b82810360a08401526144b38185613707565b9998505050505050505050565b600082516144d28184602087016136e3565b919091019291505056fe5375706572546f6b656e3a2064656372656173656420616c6c6f77616e63652062656c6f77207a65726fddf252ad1be2c89b69c2b068fc378daa952ba7f163c4a11628f55a4df523b3ef5375706572546f6b656e3a207472616e7366657220616d6f756e74206578636565647320616c6c6f77616e6365a2646970667358221220e256ff1f526688c76791ad48f5926ae119ee2f4fdb3d322d6746851ca15e48e164736f6c63430008100033a2646970667358221220447285ba3424e85ba4ad9495807eb32eb54108183e7330d3d49a2fbf71dc2a5e64736f6c63430008100033",
    "linkReferences": {}
  },
  "methodIdentifiers": {
    "create(address)": "9ed93318"
  },
  "id": 73
}