{
  "abi": [
    {
      "inputs": [
        {
          "internalType": "address",
          "name": "expectedHost",
          "type": "address"
        },
        {
          "internalType": "address",
          "name": "actualCaller",
          "type": "address"
        }
      ],
      "name": "NotHost",
      "type": "error"
    },
    {
      "inputs": [
        {
          "internalType": "int96",
          "name": "expectedAmount",
          "type": "int96"
        },
        {
          "internalType": "int96",
          "name": "actualAmount",
          "type": "int96"
        }
      ],
      "name": "WrongAmount",
      "type": "error"
    },
    {
      "inputs": [
        {
          "internalType": "address",
          "name": "expectedToken",
          "type": "address"
        },
        {
          "internalType": "address",
          "name": "actualToken",
          "type": "address"
        }
      ],
      "name": "WrongPaymentToken",
      "type": "error"
    },
    {
      "inputs": [],
      "name": "ZeroAddress",
      "type": "error"
    },
    {
      "anonymous": false,
      "inputs": [
        {
          "indexed": false,
          "internalType": "uint8",
          "name": "version",
          "type": "uint8"
        }
      ],
      "name": "Initialized",
      "type": "event"
    },
    {
      "inputs": [
        {
          "internalType": "contract ISuperToken",
          "name": "_superToken",
          "type": "address"
        },
        {
          "internalType": "address",
          "name": "",
          "type": "address"
        },
        {
          "internalType": "bytes32",
          "name": "",
          "type": "bytes32"
        },
        {
          "internalType": "bytes",
          "name": "_agreementData",
          "type": "bytes"
        },
        {
          "internalType": "bytes",
          "name": "",
          "type": "bytes"
        },
        {
          "internalType": "bytes",
          "name": "_ctx",
          "type": "bytes"
        }
      ],
      "name": "afterAgreementCreated",
      "outputs": [
        {
          "internalType": "bytes",
          "name": "_newCtx",
          "type": "bytes"
        }
      ],
      "stateMutability": "nonpayable",
      "type": "function"
    },
    {
      "inputs": [
        {
          "internalType": "contract ISuperToken",
          "name": "",
          "type": "address"
        },
        {
          "internalType": "address",
          "name": "",
          "type": "address"
        },
        {
          "internalType": "bytes32",
          "name": "",
          "type": "bytes32"
        },
        {
          "internalType": "bytes",
          "name": "",
          "type": "bytes"
        },
        {
          "internalType": "bytes",
          "name": "",
          "type": "bytes"
        },
        {
          "internalType": "bytes",
          "name": "",
          "type": "bytes"
        }
      ],
      "name": "afterAgreementTerminated",
      "outputs": [
        {
          "internalType": "bytes",
          "name": "",
          "type": "bytes"
        }
      ],
      "stateMutability": "nonpayable",
      "type": "function"
    },
    {
      "inputs": [
        {
          "internalType": "contract ISuperToken",
          "name": "",
          "type": "address"
        },
        {
          "internalType": "address",
          "name": "",
          "type": "address"
        },
        {
          "internalType": "bytes32",
          "name": "",
          "type": "bytes32"
        },
        {
          "internalType": "bytes",
          "name": "",
          "type": "bytes"
        },
        {
          "internalType": "bytes",
          "name": "",
          "type": "bytes"
        },
        {
          "internalType": "bytes",
          "name": "",
          "type": "bytes"
        }
      ],
      "name": "afterAgreementUpdated",
      "outputs": [
        {
          "internalType": "bytes",
          "name": "",
          "type": "bytes"
        }
      ],
      "stateMutability": "nonpayable",
      "type": "function"
    },
    {
      "inputs": [
        {
          "internalType": "address",
          "name": "_subscriber",
          "type": "address"
        }
      ],
      "name": "balanceOf",
      "outputs": [
        {
          "internalType": "uint256",
          "name": "_isSubscribed",
          "type": "uint256"
        }
      ],
      "stateMutability": "view",
      "type": "function"
    },
    {
      "inputs": [
        {
          "internalType": "contract ISuperToken",
          "name": "",
          "type": "address"
        },
        {
          "internalType": "address",
          "name": "",
          "type": "address"
        },
        {
          "internalType": "bytes32",
          "name": "",
          "type": "bytes32"
        },
        {
          "internalType": "bytes",
          "name": "",
          "type": "bytes"
        },
        {
          "internalType": "bytes",
          "name": "",
          "type": "bytes"
        }
      ],
      "name": "beforeAgreementCreated",
      "outputs": [
        {
          "internalType": "bytes",
          "name": "",
          "type": "bytes"
        }
      ],
      "stateMutability": "view",
      "type": "function"
    },
    {
      "inputs": [
        {
          "internalType": "contract ISuperToken",
          "name": "",
          "type": "address"
        },
        {
          "internalType": "address",
          "name": "",
          "type": "address"
        },
        {
          "internalType": "bytes32",
          "name": "",
          "type": "bytes32"
        },
        {
          "internalType": "bytes",
          "name": "",
          "type": "bytes"
        },
        {
          "internalType": "bytes",
          "name": "",
          "type": "bytes"
        }
      ],
      "name": "beforeAgreementTerminated",
      "outputs": [
        {
          "internalType": "bytes",
          "name": "",
          "type": "bytes"
        }
      ],
      "stateMutability": "view",
      "type": "function"
    },
    {
      "inputs": [
        {
          "internalType": "contract ISuperToken",
          "name": "",
          "type": "address"
        },
        {
          "internalType": "address",
          "name": "",
          "type": "address"
        },
        {
          "internalType": "bytes32",
          "name": "",
          "type": "bytes32"
        },
        {
          "internalType": "bytes",
          "name": "",
          "type": "bytes"
        },
        {
          "internalType": "bytes",
          "name": "",
          "type": "bytes"
        }
      ],
      "name": "beforeAgreementUpdated",
      "outputs": [
        {
          "internalType": "bytes",
          "name": "",
          "type": "bytes"
        }
      ],
      "stateMutability": "view",
      "type": "function"
    },
    {
      "inputs": [
        {
          "internalType": "address",
          "name": "_creator",
          "type": "address"
        },
        {
          "internalType": "address",
          "name": "_paymentToken",
          "type": "address"
        },
        {
          "internalType": "address payable",
          "name": "_socialToken",
          "type": "address"
        },
        {
          "internalType": "address",
          "name": "_stakingContract",
          "type": "address"
        },
        {
          "internalType": "address",
          "name": "_forwarder",
          "type": "address"
        },
        {
          "internalType": "address",
          "name": "_host",
          "type": "address"
        },
        {
          "internalType": "int96",
          "name": "_paymentFlowrate",
          "type": "int96"
        }
      ],
      "name": "initialize",
      "outputs": [],
      "stateMutability": "nonpayable",
      "type": "function"
    }
  ],
  "bytecode": {
    "object": "0x608060405234801561001057600080fd5b50610e68806100206000396000f3fe608060405234801561001057600080fd5b50600436106100885760003560e01c806370a082311161005b57806370a08231146100ef578063884d1f4014610110578063d86ed3e514610123578063ee5e6bd31461013657600080fd5b8063230dbd291461008d57806330d9c915146100b657806353c11f99146100c95780635f9e7d77146100dc575b600080fd5b6100a061009b366004610a4a565b61014b565b6040516100ad9190610b15565b60405180910390f35b6100a06100c4366004610b63565b6101b2565b6100a06100d7366004610a4a565b610215565b6100a06100ea366004610b63565b61027a565b6101026100fd366004610c02565b6102e1565b6040519081526020016100ad565b6100a061011e366004610b63565b610386565b6100a0610131366004610a4a565b6103e9565b610149610144366004610c35565b61080f565b005b60405162461bcd60e51b815260206004820152602e60248201527f556e737570706f727465642063616c6c6261636b202d2041667465722041677260448201526d19595b595b9d08155c19185d195960921b60648201526060906084015b60405180910390fd5b60405162461bcd60e51b815260206004820152602f60248201527f556e737570706f727465642063616c6c6261636b202d204265666f726520416760448201526e1c99595b595b9d0810dc99585d1959608a1b60648201526060906084016101a9565b60405162461bcd60e51b815260206004820152603160248201527f556e737570706f727465642063616c6c6261636b202d2041667465722041677260448201527019595b595b9d0815195c9b5a5b985d1959607a1b60648201526060906084016101a9565b60405162461bcd60e51b815260206004820152603360248201527f556e737570706f727465642063616c6c6261636b202d20204265666f7265204160448201527219dc99595b595b9d0815195c9b5a5b985d1959606a1b60648201526060906084016101a9565b60055460048054600254604051630ec5b29360e11b8152600094600160a01b9004600b0b936001600160a01b0393841693631d8b652693610329939116918891309101610ccb565b602060405180830381865afa158015610346573d6000803e3d6000fd5b505050506040513d601f19601f8201168201806040525081019061036a9190610cee565b600b0b121561037a57600061037d565b60015b60ff1692915050565b60405162461bcd60e51b815260206004820152602f60248201527f556e737570706f727465642063616c6c6261636b202d204265666f726520416760448201526e1c99595b595b9d081d5c19185d1959608a1b60648201526060906084016101a9565b606082828080601f01602080910402602001604051908101604052809392919081815260200183838082843760009201919091525050600554929350506001600160a01b039091169050338114610464576040516311ce18b560e01b81526001600160a01b03821660048201523360248201526044016101a9565b6002546004546001600160a01b03918216911660006104858a8c018c610d0b565b509050826001600160a01b03168e6001600160a01b0316146104cd57604051632b23e75760e11b81526001600160a01b0380851660048301528f1660248201526044016101a9565b600354604051630ec5b29360e11b81526000916001600160a01b0380861692631d8b65269261050492169086903090600401610ccb565b602060405180830381865afa158015610521573d6000803e3d6000fd5b505050506040513d601f19601f820116820180604052508101906105459190610cee565b600554909150600160a01b9004600b90810b9082900b1215610593576005546040516336e6ed5d60e01b8152600160a01b909104600b90810b600483015282900b60248201526044016101a9565b600154604051630ec5b29360e11b81526000916001600160a01b0380871692631d8b6526926105cc928a92309290911690600401610ccb565b602060405180830381865afa1580156105e9573d6000803e3d6000fd5b505050506040513d601f19601f8201168201806040525081019061060d9190610cee565b90506000846001600160a01b0316631d8b65268730600060029054906101000a90046001600160a01b03166040518463ffffffff1660e01b815260040161065693929190610ccb565b602060405180830381865afa158015610673573d6000803e3d6000fd5b505050506040513d601f19601f820116820180604052508101906106979190610cee565b905060006106a6600a85610d5a565b905060006106b48286610da6565b6001549091506001600160a01b03808916916357e6aa36918b91166106d98689610dde565b6040516001600160e01b031960e086901b1681526001600160a01b039384166004820152929091166024830152600b0b60448201526064016020604051808303816000875af1158015610730573d6000803e3d6000fd5b505050506040513d601f19601f820116820180604052508101906107549190610e10565b506000546001600160a01b03808916916357e6aa36918b916201000090041661077d8588610dde565b6040516001600160e01b031960e086901b1681526001600160a01b039384166004820152929091166024830152600b0b60448201526064016020604051808303816000875af11580156107d4573d6000803e3d6000fd5b505050506040513d601f19601f820116820180604052508101906107f89190610e10565b505050505050505050509998505050505050505050565b600054610100900460ff161580801561082f5750600054600160ff909116105b806108495750303b158015610849575060005460ff166001145b6108ac5760405162461bcd60e51b815260206004820152602e60248201527f496e697469616c697a61626c653a20636f6e747261637420697320616c72656160448201526d191e481a5b9a5d1a585b1a5e995960921b60648201526084016101a9565b6000805460ff1916600117905580156108cf576000805461ff0019166101001790555b6001600160a01b03861615806108ec57506001600160a01b038516155b806108fe57506001600160a01b038816155b1561091c5760405163d92e233d60e01b815260040160405180910390fd5b600480546001600160a01b03199081166001600160a01b03878116919091179092556003805482168984161790556002805482168a8416179055600180549091168783161790556000805462010000600160b01b031916620100008b8416021790558316600160a01b6bffffffffffffffffffffffff8416021760055580156109df576000805461ff0019169055604051600181527f7f26b83ff96e1f2b6a682f133852f6798a09c465da95921460cefb38474024989060200160405180910390a15b5050505050505050565b6001600160a01b03811681146109fe57600080fd5b50565b60008083601f840112610a1357600080fd5b50813567ffffffffffffffff811115610a2b57600080fd5b602083019150836020828501011115610a4357600080fd5b9250929050565b600080600080600080600080600060c08a8c031215610a6857600080fd5b8935610a73816109e9565b985060208a0135610a83816109e9565b975060408a0135965060608a013567ffffffffffffffff80821115610aa757600080fd5b610ab38d838e01610a01565b909850965060808c0135915080821115610acc57600080fd5b610ad88d838e01610a01565b909650945060a08c0135915080821115610af157600080fd5b50610afe8c828d01610a01565b915080935050809150509295985092959850929598565b600060208083528351808285015260005b81811015610b4257858101830151858201604001528201610b26565b506000604082860101526040601f19601f8301168501019250505092915050565b600080600080600080600060a0888a031215610b7e57600080fd5b8735610b89816109e9565b96506020880135610b99816109e9565b955060408801359450606088013567ffffffffffffffff80821115610bbd57600080fd5b610bc98b838c01610a01565b909650945060808a0135915080821115610be257600080fd5b50610bef8a828b01610a01565b989b979a50959850939692959293505050565b600060208284031215610c1457600080fd5b8135610c1f816109e9565b9392505050565b80600b0b81146109fe57600080fd5b600080600080600080600060e0888a031215610c5057600080fd5b8735610c5b816109e9565b96506020880135610c6b816109e9565b95506040880135610c7b816109e9565b94506060880135610c8b816109e9565b93506080880135610c9b816109e9565b925060a0880135610cab816109e9565b915060c0880135610cbb81610c26565b8091505092959891949750929550565b6001600160a01b0393841681529183166020830152909116604082015260600190565b600060208284031215610d0057600080fd5b8151610c1f81610c26565b60008060408385031215610d1e57600080fd5b8235610d29816109e9565b91506020830135610d39816109e9565b809150509250929050565b634e487b7160e01b600052601160045260246000fd5b600081600b0b83600b0b80610d7f57634e487b7160e01b600052601260045260246000fd5b60016001605f1b0319821460001982141615610d9d57610d9d610d44565b90059392505050565b600b82810b9082900b0360016001605f1b031981126b7fffffffffffffffffffffff82131715610dd857610dd8610d44565b92915050565b600b81810b9083900b016b7fffffffffffffffffffffff811360016001605f1b031982121715610dd857610dd8610d44565b600060208284031215610e2257600080fd5b81518015158114610c1f57600080fdfea264697066735822122019ef26f7e65e4eb4d7d8e0f5f6540bd664a5b69dd9498d77f0eaf5395ad8dbfc64736f6c63430008100033",
    "linkReferences": {}
  },
  "methodIdentifiers": {
    "afterAgreementCreated(address,address,bytes32,bytes,bytes,bytes)": "d86ed3e5",
    "afterAgreementTerminated(address,address,bytes32,bytes,bytes,bytes)": "53c11f99",
    "afterAgreementUpdated(address,address,bytes32,bytes,bytes,bytes)": "230dbd29",
    "balanceOf(address)": "70a08231",
    "beforeAgreementCreated(address,address,bytes32,bytes,bytes)": "30d9c915",
    "beforeAgreementTerminated(address,address,bytes32,bytes,bytes)": "5f9e7d77",
    "beforeAgreementUpdated(address,address,bytes32,bytes,bytes)": "884d1f40",
    "initialize(address,address,address,address,address,address,int96)": "ee5e6bd3"
  },
  "id": 22
}