{
  "abi": [
    {
      "inputs": [
        {
          "internalType": "int96",
          "name": "newFlowrate",
          "type": "int96"
        },
        {
          "internalType": "int96",
          "name": "oldFlowrate",
          "type": "int96"
        }
      ],
      "name": "FlowrateChangeFailed",
      "type": "error"
    },
    {
      "inputs": [
        {
          "internalType": "int96",
          "name": "paymentFlowrate",
          "type": "int96"
        }
      ],
      "name": "InvalidPaymentFlowrate",
      "type": "error"
    },
    {
      "inputs": [
        {
          "internalType": "address",
          "name": "caller",
          "type": "address"
        },
        {
          "internalType": "address",
          "name": "creator",
          "type": "address"
        }
      ],
      "name": "NotCreator",
      "type": "error"
    },
    {
      "inputs": [
        {
          "internalType": "address",
          "name": "expectedHost",
          "type": "address"
        },
        {
          "internalType": "address",
          "name": "actualCaller",
          "type": "address"
        }
      ],
      "name": "NotHost",
      "type": "error"
    },
    {
      "inputs": [],
      "name": "UpdatesNotPermitted",
      "type": "error"
    },
    {
      "inputs": [
        {
          "internalType": "int96",
          "name": "expectedAmount",
          "type": "int96"
        },
        {
          "internalType": "int96",
          "name": "actualAmount",
          "type": "int96"
        }
      ],
      "name": "WrongAmount",
      "type": "error"
    },
    {
      "inputs": [
        {
          "internalType": "address",
          "name": "expectedToken",
          "type": "address"
        },
        {
          "internalType": "address",
          "name": "actualToken",
          "type": "address"
        }
      ],
      "name": "WrongPaymentToken",
      "type": "error"
    },
    {
      "inputs": [],
      "name": "ZeroAddress",
      "type": "error"
    },
    {
      "anonymous": false,
      "inputs": [
        {
          "indexed": false,
          "internalType": "uint8",
          "name": "version",
          "type": "uint8"
        }
      ],
      "name": "Initialized",
      "type": "event"
    },
    {
      "anonymous": false,
      "inputs": [
        {
          "indexed": false,
          "internalType": "int96",
          "name": "newPaymentFlowrate",
          "type": "int96"
        },
        {
          "indexed": false,
          "internalType": "int96",
          "name": "oldPaymentFlowrate",
          "type": "int96"
        }
      ],
      "name": "PaymentFlowrateChanged",
      "type": "event"
    },
    {
      "inputs": [
        {
          "internalType": "contract ISuperToken",
          "name": "_superToken",
          "type": "address"
        },
        {
          "internalType": "address",
          "name": "",
          "type": "address"
        },
        {
          "internalType": "bytes32",
          "name": "",
          "type": "bytes32"
        },
        {
          "internalType": "bytes",
          "name": "_agreementData",
          "type": "bytes"
        },
        {
          "internalType": "bytes",
          "name": "",
          "type": "bytes"
        },
        {
          "internalType": "bytes",
          "name": "_ctx",
          "type": "bytes"
        }
      ],
      "name": "afterAgreementCreated",
      "outputs": [
        {
          "internalType": "bytes",
          "name": "_newCtx",
          "type": "bytes"
        }
      ],
      "stateMutability": "nonpayable",
      "type": "function"
    },
    {
      "inputs": [
        {
          "internalType": "contract ISuperToken",
          "name": "_superToken",
          "type": "address"
        },
        {
          "internalType": "address",
          "name": "",
          "type": "address"
        },
        {
          "internalType": "bytes32",
          "name": "",
          "type": "bytes32"
        },
        {
          "internalType": "bytes",
          "name": "_agreementData",
          "type": "bytes"
        },
        {
          "internalType": "bytes",
          "name": "_cbdata",
          "type": "bytes"
        },
        {
          "internalType": "bytes",
          "name": "_ctx",
          "type": "bytes"
        }
      ],
      "name": "afterAgreementTerminated",
      "outputs": [
        {
          "internalType": "bytes",
          "name": "_newCtx",
          "type": "bytes"
        }
      ],
      "stateMutability": "nonpayable",
      "type": "function"
    },
    {
      "inputs": [
        {
          "internalType": "contract ISuperToken",
          "name": "_superToken",
          "type": "address"
        },
        {
          "internalType": "address",
          "name": "",
          "type": "address"
        },
        {
          "internalType": "bytes32",
          "name": "",
          "type": "bytes32"
        },
        {
          "internalType": "bytes",
          "name": "",
          "type": "bytes"
        },
        {
          "internalType": "bytes",
          "name": "",
          "type": "bytes"
        },
        {
          "internalType": "bytes",
          "name": "",
          "type": "bytes"
        }
      ],
      "name": "afterAgreementUpdated",
      "outputs": [
        {
          "internalType": "bytes",
          "name": "",
          "type": "bytes"
        }
      ],
      "stateMutability": "nonpayable",
      "type": "function"
    },
    {
      "inputs": [
        {
          "internalType": "address",
          "name": "_subscriber",
          "type": "address"
        }
      ],
      "name": "balanceOf",
      "outputs": [
        {
          "internalType": "uint256",
          "name": "_isSubscribed",
          "type": "uint256"
        }
      ],
      "stateMutability": "view",
      "type": "function"
    },
    {
      "inputs": [
        {
          "internalType": "contract ISuperToken",
          "name": "",
          "type": "address"
        },
        {
          "internalType": "address",
          "name": "",
          "type": "address"
        },
        {
          "internalType": "bytes32",
          "name": "",
          "type": "bytes32"
        },
        {
          "internalType": "bytes",
          "name": "",
          "type": "bytes"
        },
        {
          "internalType": "bytes",
          "name": "",
          "type": "bytes"
        }
      ],
      "name": "beforeAgreementCreated",
      "outputs": [
        {
          "internalType": "bytes",
          "name": "",
          "type": "bytes"
        }
      ],
      "stateMutability": "view",
      "type": "function"
    },
    {
      "inputs": [
        {
          "internalType": "contract ISuperToken",
          "name": "_superToken",
          "type": "address"
        },
        {
          "internalType": "address",
          "name": "_agreementClass",
          "type": "address"
        },
        {
          "internalType": "bytes32",
          "name": "_agreementId",
          "type": "bytes32"
        },
        {
          "internalType": "bytes",
          "name": "_agreementData",
          "type": "bytes"
        },
        {
          "internalType": "bytes",
          "name": "_ctx",
          "type": "bytes"
        }
      ],
      "name": "beforeAgreementTerminated",
      "outputs": [
        {
          "internalType": "bytes",
          "name": "_cbdata",
          "type": "bytes"
        }
      ],
      "stateMutability": "view",
      "type": "function"
    },
    {
      "inputs": [
        {
          "internalType": "contract ISuperToken",
          "name": "",
          "type": "address"
        },
        {
          "internalType": "address",
          "name": "",
          "type": "address"
        },
        {
          "internalType": "bytes32",
          "name": "",
          "type": "bytes32"
        },
        {
          "internalType": "bytes",
          "name": "",
          "type": "bytes"
        },
        {
          "internalType": "bytes",
          "name": "",
          "type": "bytes"
        }
      ],
      "name": "beforeAgreementUpdated",
      "outputs": [
        {
          "internalType": "bytes",
          "name": "",
          "type": "bytes"
        }
      ],
      "stateMutability": "view",
      "type": "function"
    },
    {
      "inputs": [
        {
          "internalType": "address",
          "name": "_creator",
          "type": "address"
        },
        {
          "internalType": "address",
          "name": "_paymentToken",
          "type": "address"
        },
        {
          "internalType": "address payable",
          "name": "_socialToken",
          "type": "address"
        },
        {
          "internalType": "address",
          "name": "_stakingContract",
          "type": "address"
        },
        {
          "internalType": "address",
          "name": "_forwarder",
          "type": "address"
        },
        {
          "internalType": "address",
          "name": "_host",
          "type": "address"
        },
        {
          "internalType": "int96",
          "name": "_paymentFlowrate",
          "type": "int96"
        }
      ],
      "name": "initialize",
      "outputs": [],
      "stateMutability": "nonpayable",
      "type": "function"
    },
    {
      "inputs": [
        {
          "internalType": "int96",
          "name": "_newPaymentFlowrate",
          "type": "int96"
        }
      ],
      "name": "setPaymentFlowrate",
      "outputs": [],
      "stateMutability": "nonpayable",
      "type": "function"
    }
  ],
  "bytecode": {
    "object": "0x608060405234801561001057600080fd5b5061125d806100206000396000f3fe608060405234801561001057600080fd5b50600436106100935760003560e01c806370a082311161006657806370a08231146100fa578063884d1f401461011b578063c7b5ee4d1461012e578063d86ed3e514610143578063ee5e6bd31461015657600080fd5b8063230dbd291461009857806330d9c915146100c157806353c11f99146100d45780635f9e7d77146100e7575b600080fd5b6100ab6100a6366004610dfb565b610169565b6040516100b89190610ec6565b60405180910390f35b6100ab6100cf366004610f14565b610184565b6100ab6100e2366004610dfb565b6101ec565b6100ab6100f5366004610f14565b6104b5565b61010d610108366004610fb3565b610587565b6040519081526020016100b8565b6100ab610129366004610f14565b61062c565b61014161013c366004610fe6565b61068f565b005b6100ab610151366004610dfb565b61077a565b610141610164366004611003565b610bc0565b60606040516315e7db2360e01b815260040160405180910390fd5b60405162461bcd60e51b815260206004820152602f60248201527f556e737570706f727465642063616c6c6261636b202d204265666f726520416760448201526e1c99595b595b9d0810dc99585d1959608a1b60648201526060906084015b60405180910390fd5b606082828080601f0160208091040260200160405190810160405280939291908181526020018383808284376000920191909152505060055492935050506001600160a01b031633036104a8576002546004546001600160a01b039182169116600061025a898b018b611099565b509050600061026b888a018a610fe6565b600154604051630ec5b29360e11b81529192506000916001600160a01b0380871692631d8b6526926102a6928a9230929116906004016110d2565b602060405180830381865afa1580156102c3573d6000803e3d6000fd5b505050506040513d601f19601f820116820180604052508101906102e791906110f5565b90506000846001600160a01b0316631d8b65268730600060029054906101000a90046001600160a01b03166040518463ffffffff1660e01b8152600401610330939291906110d2565b602060405180830381865afa15801561034d573d6000803e3d6000fd5b505050506040513d601f19601f8201168201806040525081019061037191906110f5565b90506000610380600a85611128565b9050600061038e8286611174565b6001549091506001600160a01b03808916916357e6aa36918b91166103b38689611174565b6040518463ffffffff1660e01b81526004016103d1939291906111ac565b6020604051808303816000875af11580156103f0573d6000803e3d6000fd5b505050506040513d601f19601f8201168201806040525081019061041491906111d3565b506000546001600160a01b03808916916357e6aa36918b916201000090041661043d8588611174565b6040518463ffffffff1660e01b815260040161045b939291906111ac565b6020604051808303816000875af115801561047a573d6000803e3d6000fd5b505050506040513d601f19601f8201168201806040525081019061049e91906111d3565b5050505050505050505b9998505050505050505050565b6005546060906001600160a01b0316330361057c5760006104d885870187611099565b5060048054600254604051630ec5b29360e11b81529394506000936001600160a01b0392831693631d8b65269361051593169187913091016110d2565b602060405180830381865afa158015610532573d6000803e3d6000fd5b505050506040513d601f19601f8201168201806040525081019061055691906110f5565b60408051600b83900b602082015291925001604051602081830303815290604052925050505b979650505050505050565b60055460048054600254604051630ec5b29360e11b8152600094600160a01b9004600b0b936001600160a01b0393841693631d8b6526936105cf9391169188913091016110d2565b602060405180830381865afa1580156105ec573d6000803e3d6000fd5b505050506040513d601f19601f8201168201806040525081019061061091906110f5565b600b0b1215610620576000610623565b60015b60ff1692915050565b60405162461bcd60e51b815260206004820152602f60248201527f556e737570706f727465642063616c6c6261636b202d204265666f726520416760448201526e1c99595b595b9d081d5c19185d1959608a1b60648201526060906084016101e3565b6000546201000090046001600160a01b031633146106dd5760005460405160016223c24760e11b03198152336004820152620100009091046001600160a01b031660248201526044016101e3565b600081600b0b12156107085760405163a5c9958760e01b8152600b82900b60048201526024016101e3565b600580546bffffffffffffffffffffffff8316600160a01b9081026001600160a01b0383161790925560408051600b85810b82529390920490920b60208201819052917f907a87737a5349ee1b1ecf15c518cf79f3f0a9c03258bf48dc007da3477cbbe8910160405180910390a15050565b606082828080601f01602080910402602001604051908101604052809392919081815260200183838082843760009201919091525050600554929350506001600160a01b0390911690503381146107f5576040516311ce18b560e01b81526001600160a01b03821660048201523360248201526044016101e3565b6002546004546001600160a01b03918216911660006108168a8c018c611099565b509050826001600160a01b03168e6001600160a01b03161461085e57604051632b23e75760e11b81526001600160a01b0380851660048301528f1660248201526044016101e3565b600354604051630ec5b29360e11b81526000916001600160a01b0380861692631d8b652692610895921690869030906004016110d2565b602060405180830381865afa1580156108b2573d6000803e3d6000fd5b505050506040513d601f19601f820116820180604052508101906108d691906110f5565b600554909150600160a01b9004600b90810b9082900b1215610924576005546040516336e6ed5d60e01b8152600160a01b909104600b90810b600483015282900b60248201526044016101e3565b600154604051630ec5b29360e11b81526000916001600160a01b0380871692631d8b65269261095d928a923092909116906004016110d2565b602060405180830381865afa15801561097a573d6000803e3d6000fd5b505050506040513d601f19601f8201168201806040525081019061099e91906110f5565b90506000846001600160a01b0316631d8b65268730600060029054906101000a90046001600160a01b03166040518463ffffffff1660e01b81526004016109e7939291906110d2565b602060405180830381865afa158015610a04573d6000803e3d6000fd5b505050506040513d601f19601f82011682018060405250810190610a2891906110f5565b90506000610a37600a85611128565b90506000610a458286611174565b6001549091506001600160a01b03808916916357e6aa36918b9116610a6a86896111f5565b6040518463ffffffff1660e01b8152600401610a88939291906111ac565b6020604051808303816000875af1158015610aa7573d6000803e3d6000fd5b505050506040513d601f19601f82011682018060405250810190610acb91906111d3565b610b0157610ad982856111f5565b6040516305b6b35560e41b8152600b91820b60048201529085900b60248201526044016101e3565b6000546001600160a01b03808916916357e6aa36918b9162010000900416610b2985886111f5565b6040518463ffffffff1660e01b8152600401610b47939291906111ac565b6020604051808303816000875af1158015610b66573d6000803e3d6000fd5b505050506040513d601f19601f82011682018060405250810190610b8a91906111d3565b61049e57610b9881846111f5565b6040516305b6b35560e41b8152600b91820b60048201529084900b60248201526044016101e3565b600054610100900460ff1615808015610be05750600054600160ff909116105b80610bfa5750303b158015610bfa575060005460ff166001145b610c5d5760405162461bcd60e51b815260206004820152602e60248201527f496e697469616c697a61626c653a20636f6e747261637420697320616c72656160448201526d191e481a5b9a5d1a585b1a5e995960921b60648201526084016101e3565b6000805460ff191660011790558015610c80576000805461ff0019166101001790555b6001600160a01b0386161580610c9d57506001600160a01b038516155b80610caf57506001600160a01b038816155b15610ccd5760405163d92e233d60e01b815260040160405180910390fd5b600480546001600160a01b03199081166001600160a01b03878116919091179092556003805482168984161790556002805482168a8416179055600180549091168783161790556000805462010000600160b01b031916620100008b8416021790558316600160a01b6bffffffffffffffffffffffff841602176005558015610d90576000805461ff0019169055604051600181527f7f26b83ff96e1f2b6a682f133852f6798a09c465da95921460cefb38474024989060200160405180910390a15b5050505050505050565b6001600160a01b0381168114610daf57600080fd5b50565b60008083601f840112610dc457600080fd5b50813567ffffffffffffffff811115610ddc57600080fd5b602083019150836020828501011115610df457600080fd5b9250929050565b600080600080600080600080600060c08a8c031215610e1957600080fd5b8935610e2481610d9a565b985060208a0135610e3481610d9a565b975060408a0135965060608a013567ffffffffffffffff80821115610e5857600080fd5b610e648d838e01610db2565b909850965060808c0135915080821115610e7d57600080fd5b610e898d838e01610db2565b909650945060a08c0135915080821115610ea257600080fd5b50610eaf8c828d01610db2565b915080935050809150509295985092959850929598565b600060208083528351808285015260005b81811015610ef357858101830151858201604001528201610ed7565b506000604082860101526040601f19601f8301168501019250505092915050565b600080600080600080600060a0888a031215610f2f57600080fd5b8735610f3a81610d9a565b96506020880135610f4a81610d9a565b955060408801359450606088013567ffffffffffffffff80821115610f6e57600080fd5b610f7a8b838c01610db2565b909650945060808a0135915080821115610f9357600080fd5b50610fa08a828b01610db2565b989b979a50959850939692959293505050565b600060208284031215610fc557600080fd5b8135610fd081610d9a565b9392505050565b80600b0b8114610daf57600080fd5b600060208284031215610ff857600080fd5b8135610fd081610fd7565b600080600080600080600060e0888a03121561101e57600080fd5b873561102981610d9a565b9650602088013561103981610d9a565b9550604088013561104981610d9a565b9450606088013561105981610d9a565b9350608088013561106981610d9a565b925060a088013561107981610d9a565b915060c088013561108981610fd7565b8091505092959891949750929550565b600080604083850312156110ac57600080fd5b82356110b781610d9a565b915060208301356110c781610d9a565b809150509250929050565b6001600160a01b0393841681529183166020830152909116604082015260600190565b60006020828403121561110757600080fd5b8151610fd081610fd7565b634e487b7160e01b600052601160045260246000fd5b600081600b0b83600b0b8061114d57634e487b7160e01b600052601260045260246000fd5b60016001605f1b031982146000198214161561116b5761116b611112565b90059392505050565b600b82810b9082900b0360016001605f1b031981126b7fffffffffffffffffffffff821317156111a6576111a6611112565b92915050565b6001600160a01b039384168152919092166020820152600b9190910b604082015260600190565b6000602082840312156111e557600080fd5b81518015158114610fd057600080fd5b600b81810b9083900b016b7fffffffffffffffffffffff811360016001605f1b0319821217156111a6576111a661111256fea264697066735822122077dd3fdc893d279ea45e241f7fa33f6cbcb318fd6e74048d044deae18b6ab90a64736f6c63430008100033",
    "linkReferences": {}
  },
  "methodIdentifiers": {
    "afterAgreementCreated(address,address,bytes32,bytes,bytes,bytes)": "d86ed3e5",
    "afterAgreementTerminated(address,address,bytes32,bytes,bytes,bytes)": "53c11f99",
    "afterAgreementUpdated(address,address,bytes32,bytes,bytes,bytes)": "230dbd29",
    "balanceOf(address)": "70a08231",
    "beforeAgreementCreated(address,address,bytes32,bytes,bytes)": "30d9c915",
    "beforeAgreementTerminated(address,address,bytes32,bytes,bytes)": "5f9e7d77",
    "beforeAgreementUpdated(address,address,bytes32,bytes,bytes)": "884d1f40",
    "initialize(address,address,address,address,address,address,int96)": "ee5e6bd3",
    "setPaymentFlowrate(int96)": "c7b5ee4d"
  },
  "id": 22
}