{
  "abi": [
    {
      "inputs": [
        {
          "internalType": "int96",
          "name": "newFlowrate",
          "type": "int96"
        },
        {
          "internalType": "int96",
          "name": "oldFlowrate",
          "type": "int96"
        }
      ],
      "name": "FlowrateChangeFailed",
      "type": "error"
    },
    {
      "inputs": [
        {
          "internalType": "int96",
          "name": "paymentFlowrate",
          "type": "int96"
        }
      ],
      "name": "InvalidPaymentFlowrate",
      "type": "error"
    },
    {
      "inputs": [
        {
          "internalType": "address",
          "name": "caller",
          "type": "address"
        },
        {
          "internalType": "address",
          "name": "creator",
          "type": "address"
        }
      ],
      "name": "NotCreator",
      "type": "error"
    },
    {
      "inputs": [
        {
          "internalType": "address",
          "name": "expectedHost",
          "type": "address"
        },
        {
          "internalType": "address",
          "name": "actualCaller",
          "type": "address"
        }
      ],
      "name": "NotHost",
      "type": "error"
    },
    {
      "inputs": [],
      "name": "UpdatesNotPermitted",
      "type": "error"
    },
    {
      "inputs": [
        {
          "internalType": "int96",
          "name": "expectedAmount",
          "type": "int96"
        },
        {
          "internalType": "int96",
          "name": "actualAmount",
          "type": "int96"
        }
      ],
      "name": "WrongAmount",
      "type": "error"
    },
    {
      "inputs": [
        {
          "internalType": "address",
          "name": "expectedToken",
          "type": "address"
        },
        {
          "internalType": "address",
          "name": "actualToken",
          "type": "address"
        }
      ],
      "name": "WrongPaymentToken",
      "type": "error"
    },
    {
      "inputs": [],
      "name": "ZeroAddress",
      "type": "error"
    },
    {
      "anonymous": false,
      "inputs": [
        {
          "indexed": false,
          "internalType": "uint8",
          "name": "version",
          "type": "uint8"
        }
      ],
      "name": "Initialized",
      "type": "event"
    },
    {
      "anonymous": false,
      "inputs": [
        {
          "indexed": false,
          "internalType": "int96",
          "name": "newPaymentFlowrate",
          "type": "int96"
        },
        {
          "indexed": false,
          "internalType": "int96",
          "name": "oldPaymentFlowrate",
          "type": "int96"
        }
      ],
      "name": "PaymentFlowrateChanged",
      "type": "event"
    },
    {
      "inputs": [],
      "name": "CFA_V1",
      "outputs": [
        {
          "internalType": "contract ISuperfluid",
          "name": "host",
          "type": "address"
        },
        {
          "internalType": "contract IConstantFlowAgreementV1",
          "name": "cfa",
          "type": "address"
        }
      ],
      "stateMutability": "view",
      "type": "function"
    },
    {
      "inputs": [],
      "name": "FORWARDER",
      "outputs": [
        {
          "internalType": "contract IcfaV1Forwarder",
          "name": "",
          "type": "address"
        }
      ],
      "stateMutability": "view",
      "type": "function"
    },
    {
      "inputs": [],
      "name": "HOST",
      "outputs": [
        {
          "internalType": "address",
          "name": "",
          "type": "address"
        }
      ],
      "stateMutability": "view",
      "type": "function"
    },
    {
      "inputs": [],
      "name": "PAYMENT_TOKEN",
      "outputs": [
        {
          "internalType": "contract ISuperToken",
          "name": "",
          "type": "address"
        }
      ],
      "stateMutability": "view",
      "type": "function"
    },
    {
      "inputs": [],
      "name": "SOCIAL_TOKEN",
      "outputs": [
        {
          "internalType": "contract PureSuperToken",
          "name": "",
          "type": "address"
        }
      ],
      "stateMutability": "view",
      "type": "function"
    },
    {
      "inputs": [
        {
          "internalType": "contract ISuperToken",
          "name": "_superToken",
          "type": "address"
        },
        {
          "internalType": "address",
          "name": "",
          "type": "address"
        },
        {
          "internalType": "bytes32",
          "name": "",
          "type": "bytes32"
        },
        {
          "internalType": "bytes",
          "name": "_agreementData",
          "type": "bytes"
        },
        {
          "internalType": "bytes",
          "name": "",
          "type": "bytes"
        },
        {
          "internalType": "bytes",
          "name": "_ctx",
          "type": "bytes"
        }
      ],
      "name": "afterAgreementCreated",
      "outputs": [
        {
          "internalType": "bytes",
          "name": "_newCtx",
          "type": "bytes"
        }
      ],
      "stateMutability": "nonpayable",
      "type": "function"
    },
    {
      "inputs": [
        {
          "internalType": "contract ISuperToken",
          "name": "_superToken",
          "type": "address"
        },
        {
          "internalType": "address",
          "name": "",
          "type": "address"
        },
        {
          "internalType": "bytes32",
          "name": "",
          "type": "bytes32"
        },
        {
          "internalType": "bytes",
          "name": "_agreementData",
          "type": "bytes"
        },
        {
          "internalType": "bytes",
          "name": "_cbdata",
          "type": "bytes"
        },
        {
          "internalType": "bytes",
          "name": "_ctx",
          "type": "bytes"
        }
      ],
      "name": "afterAgreementTerminated",
      "outputs": [
        {
          "internalType": "bytes",
          "name": "_newCtx",
          "type": "bytes"
        }
      ],
      "stateMutability": "nonpayable",
      "type": "function"
    },
    {
      "inputs": [
        {
          "internalType": "contract ISuperToken",
          "name": "_superToken",
          "type": "address"
        },
        {
          "internalType": "address",
          "name": "",
          "type": "address"
        },
        {
          "internalType": "bytes32",
          "name": "",
          "type": "bytes32"
        },
        {
          "internalType": "bytes",
          "name": "",
          "type": "bytes"
        },
        {
          "internalType": "bytes",
          "name": "",
          "type": "bytes"
        },
        {
          "internalType": "bytes",
          "name": "",
          "type": "bytes"
        }
      ],
      "name": "afterAgreementUpdated",
      "outputs": [
        {
          "internalType": "bytes",
          "name": "",
          "type": "bytes"
        }
      ],
      "stateMutability": "nonpayable",
      "type": "function"
    },
    {
      "inputs": [
        {
          "internalType": "address",
          "name": "_subscriber",
          "type": "address"
        }
      ],
      "name": "balanceOf",
      "outputs": [
        {
          "internalType": "uint256",
          "name": "_isSubscribed",
          "type": "uint256"
        }
      ],
      "stateMutability": "view",
      "type": "function"
    },
    {
      "inputs": [
        {
          "internalType": "contract ISuperToken",
          "name": "",
          "type": "address"
        },
        {
          "internalType": "address",
          "name": "",
          "type": "address"
        },
        {
          "internalType": "bytes32",
          "name": "",
          "type": "bytes32"
        },
        {
          "internalType": "bytes",
          "name": "",
          "type": "bytes"
        },
        {
          "internalType": "bytes",
          "name": "",
          "type": "bytes"
        }
      ],
      "name": "beforeAgreementCreated",
      "outputs": [
        {
          "internalType": "bytes",
          "name": "",
          "type": "bytes"
        }
      ],
      "stateMutability": "view",
      "type": "function"
    },
    {
      "inputs": [
        {
          "internalType": "contract ISuperToken",
          "name": "_superToken",
          "type": "address"
        },
        {
          "internalType": "address",
          "name": "_agreementClass",
          "type": "address"
        },
        {
          "internalType": "bytes32",
          "name": "_agreementId",
          "type": "bytes32"
        },
        {
          "internalType": "bytes",
          "name": "_agreementData",
          "type": "bytes"
        },
        {
          "internalType": "bytes",
          "name": "_ctx",
          "type": "bytes"
        }
      ],
      "name": "beforeAgreementTerminated",
      "outputs": [
        {
          "internalType": "bytes",
          "name": "_cbdata",
          "type": "bytes"
        }
      ],
      "stateMutability": "view",
      "type": "function"
    },
    {
      "inputs": [
        {
          "internalType": "contract ISuperToken",
          "name": "",
          "type": "address"
        },
        {
          "internalType": "address",
          "name": "",
          "type": "address"
        },
        {
          "internalType": "bytes32",
          "name": "",
          "type": "bytes32"
        },
        {
          "internalType": "bytes",
          "name": "",
          "type": "bytes"
        },
        {
          "internalType": "bytes",
          "name": "",
          "type": "bytes"
        }
      ],
      "name": "beforeAgreementUpdated",
      "outputs": [
        {
          "internalType": "bytes",
          "name": "",
          "type": "bytes"
        }
      ],
      "stateMutability": "view",
      "type": "function"
    },
    {
      "inputs": [
        {
          "internalType": "address",
          "name": "_creator",
          "type": "address"
        },
        {
          "internalType": "address",
          "name": "_paymentToken",
          "type": "address"
        },
        {
          "internalType": "address payable",
          "name": "_socialToken",
          "type": "address"
        },
        {
          "internalType": "address",
          "name": "_stakingContract",
          "type": "address"
        },
        {
          "internalType": "address",
          "name": "_forwarder",
          "type": "address"
        },
        {
          "internalType": "address",
          "name": "_host",
          "type": "address"
        },
        {
          "internalType": "address",
          "name": "_cfa",
          "type": "address"
        },
        {
          "internalType": "int96",
          "name": "_paymentFlowrate",
          "type": "int96"
        }
      ],
      "name": "initialize",
      "outputs": [],
      "stateMutability": "nonpayable",
      "type": "function"
    },
    {
      "inputs": [
        {
          "internalType": "int96",
          "name": "_newPaymentFlowrate",
          "type": "int96"
        }
      ],
      "name": "setPaymentFlowrate",
      "outputs": [],
      "stateMutability": "nonpayable",
      "type": "function"
    }
  ],
  "bytecode": {
    "object": "0x608060405234801561001057600080fd5b50611423806100206000396000f3fe608060405234801561001057600080fd5b50600436106100ea5760003560e01c80637f894f221161008c578063c7b5ee4d11610066578063c7b5ee4d14610210578063ca2ad97314610225578063d86ed3e514610238578063e7722cc41461024b57600080fd5b80637f894f22146101d7578063877c86fb146101ea578063884d1f40146101fd57600080fd5b806349f289dc116100c857806349f289dc1461016557806353c11f99146101905780635f9e7d77146101a357806370a08231146101b657600080fd5b8063230dbd29146100ef57806330d9c915146101185780633db29ed81461012b575b600080fd5b6101026100fd366004610e6a565b61025e565b60405161010f9190610f85565b60405180910390f35b610102610126366004610f9f565b610279565b600554600654610145916001600160a01b03908116911682565b604080516001600160a01b0393841681529290911660208301520161010f565b600754610178906001600160a01b031681565b6040516001600160a01b03909116815260200161010f565b61010261019e366004610e6a565b6102e1565b6101026101b1366004610f9f565b6104f2565b6101c96101c436600461103e565b6105c4565b60405190815260200161010f565b600354610178906001600160a01b031681565b600254610178906001600160a01b031681565b61010261020b366004610f9f565b610669565b61022361021e36600461106a565b6106cc565b005b600454610178906001600160a01b031681565b610102610246366004610e6a565b6107b7565b610223610259366004611087565b610ae6565b60606040516315e7db2360e01b815260040160405180910390fd5b60405162461bcd60e51b815260206004820152602f60248201527f556e737570706f727465642063616c6c6261636b202d204265666f726520416760448201526e1c99595b595b9d0810dc99585d1959608a1b60648201526060906084015b60405180910390fd5b606082828080601f0160208091040260200160405190810160405280939291908181526020018383808284376000920191909152505060075492935050506001600160a01b031633036104e5576002546004546001600160a01b039182169116600061034f898b018b611130565b5090506000610360888a018a61106a565b600154604051630ec5b29360e11b81529192506000916001600160a01b0380871692631d8b65269261039b928a923092911690600401611169565b602060405180830381865afa1580156103b8573d6000803e3d6000fd5b505050506040513d601f19601f820116820180604052508101906103dc919061118c565b90506000846001600160a01b0316631d8b65268730600060029054906101000a90046001600160a01b03166040518463ffffffff1660e01b815260040161042593929190611169565b602060405180830381865afa158015610442573d6000803e3d6000fd5b505050506040513d601f19601f82011682018060405250810190610466919061118c565b90506000610475600a856111bf565b90506000610483828661120b565b6001546002549192506104b4918b916001600160a01b0390811691166104a98689611243565b600593929190610cf1565b600154600254919a506104da918b916001600160a01b0390811691166104a98588611243565b985050505050505050505b9998505050505050505050565b6007546060906001600160a01b031633036105b957600061051585870187611130565b5060048054600254604051630ec5b29360e11b81529394506000936001600160a01b0392831693631d8b6526936105529316918791309101611169565b602060405180830381865afa15801561056f573d6000803e3d6000fd5b505050506040513d601f19601f82011682018060405250810190610593919061118c565b60408051600b83900b602082015291925001604051602081830303815290604052925050505b979650505050505050565b60075460048054600254604051630ec5b29360e11b8152600094600160a01b9004600b0b936001600160a01b0393841693631d8b65269361060c939116918891309101611169565b602060405180830381865afa158015610629573d6000803e3d6000fd5b505050506040513d601f19601f8201168201806040525081019061064d919061118c565b600b0b121561065d576000610660565b60015b60ff1692915050565b60405162461bcd60e51b815260206004820152602f60248201527f556e737570706f727465642063616c6c6261636b202d204265666f726520416760448201526e1c99595b595b9d081d5c19185d1959608a1b60648201526060906084016102d8565b6000546201000090046001600160a01b0316331461071a5760005460405160016223c24760e11b03198152336004820152620100009091046001600160a01b031660248201526044016102d8565b600081600b0b12156107455760405163a5c9958760e01b8152600b82900b60048201526024016102d8565b600780546bffffffffffffffffffffffff8316600160a01b9081026001600160a01b0383161790925560408051600b85810b82529390920490920b60208201819052917f907a87737a5349ee1b1ecf15c518cf79f3f0a9c03258bf48dc007da3477cbbe8910160405180910390a15050565b606082828080601f01602080910402602001604051908101604052809392919081815260200183838082843760009201919091525050600754929350506001600160a01b039091169050338114610832576040516311ce18b560e01b81526001600160a01b03821660048201523360248201526044016102d8565b6002546004546001600160a01b03918216911660006108538a8c018c611130565b509050826001600160a01b03168e6001600160a01b03161461089b57604051632b23e75760e11b81526001600160a01b0380851660048301528f1660248201526044016102d8565b600354604051630ec5b29360e11b81526000916001600160a01b0380861692631d8b6526926108d292169086903090600401611169565b602060405180830381865afa1580156108ef573d6000803e3d6000fd5b505050506040513d601f19601f82011682018060405250810190610913919061118c565b600754909150600160a01b9004600b90810b9082900b1215610961576007546040516336e6ed5d60e01b8152600160a01b909104600b90810b600483015282900b60248201526044016102d8565b600154604051630ec5b29360e11b81526000916001600160a01b0380871692631d8b65269261099a928a92309290911690600401611169565b602060405180830381865afa1580156109b7573d6000803e3d6000fd5b505050506040513d601f19601f820116820180604052508101906109db919061118c565b90506000846001600160a01b0316631d8b65268730600060029054906101000a90046001600160a01b03166040518463ffffffff1660e01b8152600401610a2493929190611169565b602060405180830381865afa158015610a41573d6000803e3d6000fd5b505050506040513d601f19601f82011682018060405250810190610a65919061118c565b90506000610a74600a856111bf565b90506000610a82828661120b565b600154600254919250610aa8918c916001600160a01b0390811691166104a98689611243565b600154600254919b50610ace918c916001600160a01b0390811691166104a98588611243565b99505050505050505050509998505050505050505050565b600054610100900460ff1615808015610b065750600054600160ff909116105b80610b205750303b158015610b20575060005460ff166001145b610b835760405162461bcd60e51b815260206004820152602e60248201527f496e697469616c697a61626c653a20636f6e747261637420697320616c72656160448201526d191e481a5b9a5d1a585b1a5e995960921b60648201526084016102d8565b6000805460ff191660011790558015610ba6576000805461ff0019166101001790555b6001600160a01b0387161580610bc357506001600160a01b038616155b80610bd557506001600160a01b038916155b15610bf35760405163d92e233d60e01b815260040160405180910390fd5b600480546001600160a01b03199081166001600160a01b03888116919091179092556003805482168a84161790556002805482168b84161790556001805482168984161790556000805462010000600160b01b031916620100008d851602179055858216600160a01b6bffffffffffffffffffffffff861602811760075560408051808201909152818152928616602090930183905260058054831690911790556006805490911690911790558015610ce6576000805461ff0019169055604051600181527f7f26b83ff96e1f2b6a682f133852f6798a09c465da95921460cefb38474024989060200160405180910390a15b505050505050505050565b604080516000815260208101909152606090610d169087908790879087908790610d20565b9695505050505050565b855460018701546040805160008152602081019091526060926001600160a01b0390811692634329d2939291169081906362fc305e90610d69908a908c908b906044810161128b565b60408051808303601f1901815291815260208201805160e094851b6001600160e01b03909116179052519185901b6001600160e01b0319168252610db69392509087908c906004016112c1565b6000604051808303816000875af1158015610dd5573d6000803e3d6000fd5b505050506040513d6000823e601f3d908101601f19168201604052610dfd9190810190611389565b50979650505050505050565b6001600160a01b0381168114610e1e57600080fd5b50565b60008083601f840112610e3357600080fd5b50813567ffffffffffffffff811115610e4b57600080fd5b602083019150836020828501011115610e6357600080fd5b9250929050565b600080600080600080600080600060c08a8c031215610e8857600080fd5b8935610e9381610e09565b985060208a0135610ea381610e09565b975060408a0135965060608a013567ffffffffffffffff80821115610ec757600080fd5b610ed38d838e01610e21565b909850965060808c0135915080821115610eec57600080fd5b610ef88d838e01610e21565b909650945060a08c0135915080821115610f1157600080fd5b50610f1e8c828d01610e21565b915080935050809150509295985092959850929598565b60005b83811015610f50578181015183820152602001610f38565b50506000910152565b60008151808452610f71816020860160208601610f35565b601f01601f19169290920160200192915050565b602081526000610f986020830184610f59565b9392505050565b600080600080600080600060a0888a031215610fba57600080fd5b8735610fc581610e09565b96506020880135610fd581610e09565b955060408801359450606088013567ffffffffffffffff80821115610ff957600080fd5b6110058b838c01610e21565b909650945060808a013591508082111561101e57600080fd5b5061102b8a828b01610e21565b989b979a50959850939692959293505050565b60006020828403121561105057600080fd5b8135610f9881610e09565b80600b0b8114610e1e57600080fd5b60006020828403121561107c57600080fd5b8135610f988161105b565b600080600080600080600080610100898b0312156110a457600080fd5b88356110af81610e09565b975060208901356110bf81610e09565b965060408901356110cf81610e09565b955060608901356110df81610e09565b945060808901356110ef81610e09565b935060a08901356110ff81610e09565b925060c089013561110f81610e09565b915060e089013561111f8161105b565b809150509295985092959890939650565b6000806040838503121561114357600080fd5b823561114e81610e09565b9150602083013561115e81610e09565b809150509250929050565b6001600160a01b0393841681529183166020830152909116604082015260600190565b60006020828403121561119e57600080fd5b8151610f988161105b565b634e487b7160e01b600052601160045260246000fd5b600081600b0b83600b0b806111e457634e487b7160e01b600052601260045260246000fd5b60016001605f1b0319821460001982141615611202576112026111a9565b90059392505050565b600b82810b9082900b0360016001605f1b031981126b7fffffffffffffffffffffff8213171561123d5761123d6111a9565b92915050565b600b81810b9083900b016b7fffffffffffffffffffffff811360016001605f1b03198212171561123d5761123d6111a9565b634e487b7160e01b600052604160045260246000fd5b6001600160a01b03858116825284166020820152600b83900b6040820152608060608201819052600090610d1690830184610f59565b6001600160a01b03851681526080602082018190526000906112e590830186610f59565b82810360408401526112f78186610f59565b905082810360608401526105b98185610f59565b600082601f83011261131c57600080fd5b815167ffffffffffffffff8082111561133757611337611275565b604051601f8301601f19908116603f0116810190828211818310171561135f5761135f611275565b8160405283815286602085880101111561137857600080fd5b610d16846020830160208901610f35565b6000806040838503121561139c57600080fd5b825167ffffffffffffffff808211156113b457600080fd5b6113c08683870161130b565b935060208501519150808211156113d657600080fd5b506113e38582860161130b565b915050925092905056fea2646970667358221220f9e7279cba0e578f8a9e1d5640ee4ae62ea7495bf97d055e9234c10649f901a264736f6c63430008100033",
    "linkReferences": {}
  },
  "methodIdentifiers": {
    "CFA_V1()": "3db29ed8",
    "FORWARDER()": "ca2ad973",
    "HOST()": "49f289dc",
    "PAYMENT_TOKEN()": "877c86fb",
    "SOCIAL_TOKEN()": "7f894f22",
    "afterAgreementCreated(address,address,bytes32,bytes,bytes,bytes)": "d86ed3e5",
    "afterAgreementTerminated(address,address,bytes32,bytes,bytes,bytes)": "53c11f99",
    "afterAgreementUpdated(address,address,bytes32,bytes,bytes,bytes)": "230dbd29",
    "balanceOf(address)": "70a08231",
    "beforeAgreementCreated(address,address,bytes32,bytes,bytes)": "30d9c915",
    "beforeAgreementTerminated(address,address,bytes32,bytes,bytes)": "5f9e7d77",
    "beforeAgreementUpdated(address,address,bytes32,bytes,bytes)": "884d1f40",
    "initialize(address,address,address,address,address,address,address,int96)": "e7722cc4",
    "setPaymentFlowrate(int96)": "c7b5ee4d"
  },
  "id": 23
}