{
  "abi": [
    {
      "inputs": [],
      "name": "Initialized",
      "type": "error"
    },
    {
      "inputs": [],
      "name": "ZeroAddress",
      "type": "error"
    },
    {
      "stateMutability": "payable",
      "type": "fallback"
    },
    {
      "inputs": [
        {
          "internalType": "address",
          "name": "factory",
          "type": "address"
        },
        {
          "internalType": "string",
          "name": "name",
          "type": "string"
        },
        {
          "internalType": "string",
          "name": "symbol",
          "type": "string"
        },
        {
          "internalType": "address",
          "name": "receiver",
          "type": "address"
        },
        {
          "internalType": "uint256",
          "name": "initialSupply",
          "type": "uint256"
        }
      ],
      "name": "initialize",
      "outputs": [],
      "stateMutability": "nonpayable",
      "type": "function"
    },
    {
      "inputs": [
        {
          "internalType": "address",
          "name": "initialAddress",
          "type": "address"
        }
      ],
      "name": "initializeProxy",
      "outputs": [],
      "stateMutability": "nonpayable",
      "type": "function"
    },
    {
      "stateMutability": "payable",
      "type": "receive"
    }
  ],
  "bytecode": {
    "object": "0x608060405234801561001057600080fd5b506104e7806100206000396000f3fe60806040526004361061002d5760003560e01c80634a0687ef1461004457806375b30be6146100645761003c565b3661003c5761003a610084565b005b61003a610084565b34801561005057600080fd5b5061003a61005f36600461029f565b6100b6565b34801561007057600080fd5b5061003a61007f366004610364565b610152565b6100b46100af7f360894a13ba1a3210667c828492db98dca3e2076cc3735a920a3ca505d382bbc5490565b61017e565b565b6001600160a01b0381166100dd5760405163d92e233d60e01b815260040160405180910390fd5b60006101077f360894a13ba1a3210667c828492db98dca3e2076cc3735a920a3ca505d382bbc5490565b6001600160a01b03161461012e576040516302ed543d60e51b815260040160405180910390fd5b7f360894a13ba1a3210667c828492db98dca3e2076cc3735a920a3ca505d382bbc55565b61015d8585856101a2565b61017782826040518060200160405280600081525061025c565b5050505050565b3660008037600080366000845af43d6000803e80801561019d573d6000f35b3d6000fd5b604051633504b4d160e21b81523060048201526001600160a01b0384169063d412d34490602401600060405180830381600087803b1580156101e357600080fd5b505af11580156101f7573d6000803e3d6000fd5b50506040516285fc1360e71b81523092506342fe098091506102259060009060129087908790600401610437565b600060405180830381600087803b15801561023f57600080fd5b505af1158015610253573d6000803e3d6000fd5b50505050505050565b60405163c68d428360e01b8152309063c68d42839061022590869086908690600401610481565b80356001600160a01b038116811461029a57600080fd5b919050565b6000602082840312156102b157600080fd5b6102ba82610283565b9392505050565b634e487b7160e01b600052604160045260246000fd5b600082601f8301126102e857600080fd5b813567ffffffffffffffff80821115610303576103036102c1565b604051601f8301601f19908116603f0116810190828211818310171561032b5761032b6102c1565b8160405283815286602085880101111561034457600080fd5b836020870160208301376000602085830101528094505050505092915050565b600080600080600060a0868803121561037c57600080fd5b61038586610283565b9450602086013567ffffffffffffffff808211156103a257600080fd5b6103ae89838a016102d7565b955060408801359150808211156103c457600080fd5b506103d1888289016102d7565b9350506103e060608701610283565b949793965091946080013592915050565b6000815180845260005b81811015610417576020818501810151868301820152016103fb565b506000602082860101526020601f19601f83011685010191505092915050565b6001600160a01b038516815260ff84166020820152608060408201819052600090610464908301856103f1565b828103606084015261047681856103f1565b979650505050505050565b60018060a01b03841681528260208201526060604082015260006104a860608301846103f1565b9594505050505056fea2646970667358221220222a8b49ead29fac46ceca4c9b7a4569ed48adb6250057e987d0996266acadf664736f6c63430008100033",
    "linkReferences": {}
  },
  "methodIdentifiers": {
    "initialize(address,string,string,address,uint256)": "75b30be6",
    "initializeProxy(address)": "4a0687ef"
  },
  "id": 0
}